:400000000080002011000000A1260000A126000008B5044B1A6803F53F5302331A6002F05FFB00BFFA46004010B5054C237833B9044B13B10448AFF300800123237010BD8D
:40004000A081FF1F00000000BC810000084B10B51BB108490848AFF300800848036803B910BD074B002BFBD0BDE81040184700BF00000000A481FF1FBC810000C880FF1FD8
:400080000000000008B501F067F908BD08B5642002F0E6FB044B1B682BB1044802F074FC0222014B5A6008BDBC81FF1FC081000008B503F075FF03F051FD03F029FE0122D0
:4000C000C8216FF0130001F0F3FE0122C821142001F0EEFE012003F0B7FF0A2002F0C0FB002003F0B1FF03F04FFDC82003F0A2FC03F024FEC82003F079FD08BD2DE9F04316
:4001000083B062B602F09CFB02F024FC8E4802F03BFC02F069FF03F04BF9002003F05AF98A4C207A03F012F90025E560284603F06FFB012003F066FB4FF4FA7002F090FBA1
:40014000022003F05FFB4FF4FA7002F089FB032003F058FB4FF4FA7002F082FB284603F051FB4FF4FA7002F07BFB00F0E1FE03F017FB4FF47A7003F0CBFA4FF4FA7002F04E
:400180006FFB03F021FB03F069FA4FF48C6003F01DFA4FF4FA7002F063FB03F06DFA03F0A1FC03F079FD284603F044FC284603F01DFD03F0D3FC03F0ABFD03F0BBFB03F0D2
:4001C00001FC0326624B1E6003F082F903F028F9604803F06BFB604803F040FB5F4803F059FF012727605E4802F0CEFB01F038F901F036F901F034F903F018FF03F0D0FE28
:400200006560276102236361A661504B5B68012B78D102F00DF8072001F03AFD01240194C82500950423224600216FF0630001F0A7FB019400950023224621464FF4C87090
:4002400001F09EFB22462946464801F031FE4FF4FA7002F005FB00F06BFE4FF4FA7002F0FFFA22462946AA2001F022FE4FF4FA7002F0F6FA002414E000F08EFE334D05EB9A
:400280008405E8614FF4FA7002F0EAFA0122C8213D2001F00DFE4FF4FA71E86901F042F80134042CE8DD304802F06EFB00240CE0264B03EB84032D4DDA692D49284606F0D0
:4002C000C1FB284602F060FB0134042CF0DD012003F09EFA01221D4BDA6000231A460CE01A4901EB8301C86930B1032A04D0174901EB8201086101320133042BF0DD0222D0
:40030000124B5A60114B5B68022B40F0078101F08FFF002364226FF02201164801F024FF01210191C823009300230A46822001F027FB072001F0ACFC022001F031F83220DE
:4003400002F08EFA1EE000BFD8810000BC81FF1FE082FF1F850000008D000000B1000000F08100003EFEFFFF10820000BC82FF1F2482000000003442022001F011F832202C
:4003800002F06EFAC34B9E68B6F58C7FF4DCC6F50376013601240194C8250095032322460021304601F0ECFA4FF47A71022000F0B9FF002000F0F4FF3C2002F051FADFF83B
:4003C000D492D9F8002002F19603DFF8D882C8F83C30B14FB149384606F034FB384602F0D3FA224629466FF02C0001F061FD0194009503234FF0FF320021304601F0C0FA30
:400400004FF47A71022000F08DFF042000F0C8FF322002F025FAD9F810306433C8F83430D9F800209E49384606F00CFB384602F0ABFA224629466FF0630001F039FD29464F
:40044000204601F01DF901940095002322462146AC2001F095FA2946022001F011F90194009500234FF0FF321946AC2001F088FA2946204601F004F9D8F83420B2F5B67FFD
:4004800002DD4346A3F84040864BDB6BB3F5B67F03DD01208349A1F842009A4203DD0122814B1A6002E003227F4B1A607D4D7A4CB5F944207D49204606F0C4FA204602F0D3
:4004C00063FAB5F946207A49204606F0BBFA204602F05AFAB5F942207649204606F0B2FA204602F051FAB5F940207349204606F0A9FA204602F048FAEA6B7049204606F0C4
:40050000A1FA204602F040FA6A6B6D49204606F099FA204602F038FA03236B60614B5B68032B40F0E282F7E0664802F02DFA01240194C825009500234FF0FF32194628462E
:4005400001F01EFA072001F0A3FB2946002001F097F8072001F09CFB062000F021FF322002F07EF94B4B9B69574E336001940095002322462146F02001F002FA464C3268F6
:400580005249204606F05EFA204602F0FDF9504D2A685049204606F055FA204602F0F4F93068C0F5147303332A68934221DD01240194C825009506232246002101F0E0F9BF
:4005C00030680094462306224FF0FF3101F054FC2946204601F054F8324BB3F94230A34203D10322304B1A60D4E102222E4B1A60D0E1022000F0D4FE322002F031F9254BCF
:400600009B68732B6CDD072001F042FBC821032001F036F8082001F03BFB2F4B1B68012B12D101210191C820009005230A4601F0A7F9062000F0B4FE322002F011F9154B4A
:400640009A69264B1A600AE0244B186801210191C823009306234FF0FF3201F091F94621002001F00DF80F4CA06C6FF0330303FB00F00121009146230522FF3001F0FCFBAC
:40068000072001F005FB4621032000F0F9FF042363607FE13C82FF1FBC82FF1F2C8200004C820000BC81FF1FE482FF1F6C82000088820000A4820000C0820000DC82000015
:4006C000F882000014830000F882FF1F28830000EC82FF1F40830000CC80FF1FF482FF1FA14B186801240194C825009506232246002101F045F92946204600F0C1FF9B4B65
:40070000B3F94230A34203D10322994B1A6041E10222974B1A603DE1954B1B68012B40F0398101E7934802F02FF901250195C824009400234FF0FF321946F02001F020F901
:40074000072001F0A5FA2146002000F099FF2146032000F095FF082001F09AFA0195009400232A462946962001F00AF92146022000F086FF0195009400234FF0FF32194608
:40078000F02001F0FDF82146032000F079FF2146002000F075FF082001F07AFA062000F0FFFD322002F05CF8734B9B696E4E33600195009400232A462946962001F0E0F873
:4007C0006E4C32686E49204606F03CF9204602F0DBF86C4D2A686C49204606F033F9204602F0D2F83068C0F5147303332A68934231DD01240194C82500950623224600211B
:4008000001F0BEF82946032000F03AFF0194009500234FF0FF321946F02001F0B1F82946002000F02DFF2946204600F029FF01940095002322462146962001F0A1F84B4B06
:40084000B3F94030A34202D1494B1C60A7E00222474B1A60A3E0032000F0A2FD322001F0FFFF454BDB68732B5ADD072001F010FAC821032000F004FF01250195C824009462
:4008800000234FF0FF321946F02001F079F82146002000F0F5FE2146284600F0F1FE082001F0F6F9394B1B68AB4212D1294601952046009405232A4601F062F8062000F0DF
:4008C0006FFD322001F0CCFF2B4B9A69304B1A600AE02F4B186801210191C823009306234FF0FF3201F04CF84621002000F0C8FE1E4DA86C6FF0330303FB00F00124009434
:40090000462305222146FF3001F0B6FA072001F0BFF94621204600F0B3FE04236B603EE0114B186801240194C825009506232246002101F025F82946204600F0A1FE0194D1
:400940000095052322462146962001F019F8074BB3F94030A34202D1054B1C601FE00222034B1A601BE000BFF882FF1FBC81FF1FE482FF1F588300003C82FF1FBC82FF1F12
:4009800028830000EC82FF1F40830000CC80FF1FF482FF1FC64B1B68032B3FF4C3AEC44B1B68022B40F0A180C24801F0EDFFC24BB3F94030012B4BD1BF4F786B01240194C6
:4009C000C8250095042322460021C0F5966000F0D7FF082001F05CF92946002000F050FE082001F055F9BB6C6FF0330606FB03F001940095052322462146FF3000F0C0FF00
:400A0000072001F045F92946204600F039FE082001F03EF901940095052322462146284600F0AEFF4621002000F02AFEB86C06FB00F00094462305222146FF3001F01CFA73
:400A4000072001F025F94621204600F019FE49E0994FF86B01240194C825009500234FF0FF321946C0F59C60023000F089FF072001F00EF92946002000F002FEBB6C6FF04B
:400A8000330606FB03F001940095052322462146FF3000F075FF072001F0FAF82946032000F0EEFD082001F0F3F801940095052322462146284600F063FF4621002000F082
:400AC000DFFDB86C06FB00F00094462305222146FF3001F0D1F9072001F0DAF84621032000F0CEFD0422744B5A60734B5B68042B19D1714C0125E5640221002000F022FDAA
:400B0000052000F055FD00F0E3FC2946032000F019FD2A4646216FF03B0001F0C9F90023E36405236360644B5B68052B40F0FF80624801F029FF5E4B1B68012B34D1604855
:400B400001F022FF082001F0A3F801240194C8250095042322460021322000F011FF2946002000F08DFD072001F092F801940095042322460021642000F002FF082001F05E
:400B800087F82946204600F07BFD072001F080F801940095052322462146284600F0F0FE072001F075F8BFE0032B48D1454801F0EBFE01240194C8250095042322460021BE
:400BC0001E2000F0DDFE082001F062F82946002000F056FD072001F05BF80194009500234FF0FF321946F02000F0CAFE072001F04FF82946204600F043FD082001F048F89B
:400C00002946022000F03CFD062001F041F801940095002322462146F02000F0B1FE2946204600F02DFD082001F032F801940095052322462146962000F0A2FE74E0022BC5
:400C400072D1214801F0A0FE1B4BB3F94030012B3CD1C821002000F013FD01240194C82500950623224600214FF4FA7000F088FE2946032000F004FD2946022000F000FD63
:400C800001940095002322462146F02000F078FE072000F0FDFF2946204600F0F1FC01940095002322462146962000F069FE3BE0E482FF1F6C830000BC81FF1F84830000C4
:400CC000A0830000BC830000D8830000C821002000F0D6FC01240194C82500950623224600214FF4FA7000F04BFE2946204600F0C7FC2946022000F0C3FC01940095002383
:400D000022462146F02000F03BFE072000F0C0FF2946204600F0B4FC01940095002322462146962000F02CFE06227E4B5A607D4B5B68062B40F0C180012002F069FD794C5E
:400D40000523E36000F028F9774B1A68A36C04EB830423699A4245D1744E4FF0FF33022231468C2000F0ACFCC821022000F088FC01240094462305222146FF2001F07CF8EB
:400D8000C821204600F07CFC072000F081FF0194C825009505234FF0FF32002140F2492000F0EEFD2946002000F06AFC2946032000F066FC234602223146782000F080FCCE
:400DC00001940095052322462146AA2000F0D8FD0094462305222146BE2001F04DF8072000F056FFC821022000F04AFC0121032000F0A8FB4B4B9B6C53B9072000F048FF18
:400E00000121009146230522962001F035F809E000230193462300930523012211465A2000F0AEFD01213F4B986C00F08BFB00F041FB0021032000F085FB3B4B1B68022B0C
:400E400003DD0722374B5A6037E00133364A1360344EB36C0133B3640122C8216FF0810001F026F8C821032000F00AFC072000F00FFF01240194C825009505234FF0FF320D
:400E8000002140F2262000F07BFD072000F000FF2946002000F0F4FB2946204600F0F0FB01940095052322462146B92000F068FD072000F0EDFE032373601A4B5B68072B59
:400EC0007FF4A3A900240194C826009605234FF0FF322146FA2000F053FD3146032000F0CFFB072000F0D4FE0125009546230522294640F23A2000F0BFFF072000F0C8FE8F
:400F00003146204600F0BCFB01954623009304232A4621461E2000F033FD0221204600F011FBFEE7BC81FF1FCC80FF1F0000484330B585B0002400940194029403940FE002
:400F4000E0B202F05FFC0A2001F08AFC02F0BEF804AB03EB840504F0D5FF45F8100C0134032CEDDD002002F04DFC074B009A1A60064B019A1A60064B029A1A60054B039A59
:400F80001A6005B030BD00BF1483FF1F1883FF1F1083FF1F2083FF1FF0B585B0002400940194029403940FE0E0B202F02BFC0A2001F056FC02F08AF804AB03EB840504F08D
:400FC000A1FF45F8100C0134032CEDDD002002F019FC009F984B1F60019C984B1C60029D974B1D60039E974B1E60974B1B68052B00F2F880DFE813F0060054008100A00063
:40100000C300DC009149924B186804F0C7FE0146204605F019F8A8B18C498E4B186804F0BDFE0146284605F00FF858B187498A4B186804F0B3FE0146304605F005F80028DD
:4010400040F0D9802946204605F01CF830B13146204605F017F8002840F0CF803146284605F010F830B12946204604F0EDFF002840F0C5803146284604F0E6FF002800F0B5
:40108000C0803146204604F0DFFF002800F0BB802946204604F0D8FF002840F0B68002E16E49204604F0D0FF58B16C49284604F0CBFF30B16949304604F0C6FF002840F0F9
:4010C000A6802946204604F0DDFF30B13146204604F0D8FF002840F09C803146284604F0D1FF002800F097802946204604F0ACFF002840F092800320D5E05949204604F09E
:40110000C1FF58B15649284604F0BCFF30B15549304604F099FF002840F081805249204604F0B0FF00287CD15049284604F0AAFF002878D00220B6E04D49204604F0A2FFDA
:4011400078B14B49284604F09DFF50B14849304604F07AFF28B14749384604F093FF002863D14149204604F08DFF00285FD13E49284604F087FF00285BD0022093E03E49D0
:40118000204604F061FF00287ED03B49304604F05BFF00287AD03849284604F055FF002876D03549384604F04FFF002872D17AE02649384604F066FF00286DD02F49204614
:4011C00004F042FF002869D02C49284604F03CFF002865D02A49304604F036FF002861D1012060E0274801F0CFFB40F6B83001F037FB002057E0002055E0012053E0022090
:4012000051E000204FE000204DE003204BE0002049E0012047E0032045E0022043E0002041E001203FE003203DE000203BE0012039E0032037E000BFFC82FF1F0083FF1F09
:401240004C83FF1F1C83FF1FC881FF1F0000FA441883FF1F1083FF1F2083FF1F0000FA4500007A4600803B460050C34600F0D24600A08C4600007A4500409C4500409C461F
:4012800000C05A46FC83000000200CE000200AE0002008E0012006E0012004E0012002E0012000E0002005B0F0BD00BF30B585B0002400940194029403940FE0E0B202F0D9
:4012C000A1FA0A2001F0CCFA01F000FF04AB03EB840504F017FE45F8100C0134032CEDDD002002F08FFA002413E004AB03EB840353F8100C04F0E6F902F0F6FE074D02463A
:401300000B460749284605F09DFB284601F03CFB0134032CE9DD05B030BD00BFBC82FF1F2084000070B506460D4602F077FA0446002002F06DFAF0B202F064FA284601F0B5
:401340008FFA002002F05EFA4FF4967001F088FA204602F05DFA70BD38B502F061F802F077F80D4C206002F04DF80C4B1D682068C0F5803004F094F905A3D3E9002304F074
:40138000F5F904EB850404F08BFC606038BD00BF2BDF3312A111C63F3882FF1F5083FF1F10B50446C0B202F0DDF82B4B1C6002F08FF8062C4BD8DFE804F0040E18222C3698
:4013C0004000012002F092F80A2001F05FFA002002F08CF810BD012002F094F80A2001F055FA002002F08EF810BD012002F096F80A2001F04BFA002002F090F810BD012042
:4014000002F098F80A2001F041FA002002F092F810BD012002F09AF80A2001F037FA002002F094F810BD012002F094FD0A2001F02DFA002002F08EFD10BD012002F038FE76
:401440000A2001F023FA002002F032FE10BD034801F09AFA10BD00BF5083FF1F2884000038B50F4801F090FA002412E02046FFF797FF3C2001F0F4F90A4B03EB84030A4D0A
:401480005A680A49284605F0DDFA284601F07CFA0134062CEADD064801F076FA38BD00BF3C8400003882FF1FBC82FF1F588400006084000008B502F0F3F84FF48C6002F008
:4014C00085F84FF4FA7001F0CBF902F0D5F808BD08B502F0E5F840F2145002F077F84FF4FA7001F0BDF902F0C7F808BDA0F57A7240F2DC539A4221D870B5054602F078F9B2
:4015000002F05CF90446281A0D4E86FB0036C017C0EBA60606E03444A0B202F0F9F80A2001F09EF9AC42F6D1A8B202F0F1F84FF4FA7001F095F902F047F970BD704700BF68
:401540006766666638B505460C46012905D102F0A7F840F2145002F039F82CB902F0A0F84FF48C6002F032F8032D17D8DFE805F002070C1140F6C410FFF7B8FF12E040F268
:401580006C70FFF7B3FF0DE040F24650FFF7AEFF08E04FF47A70FFF7A9FF03E04FF41660FFF7A4FF012C01D802F066F838BD00BF2DE9F8430446002002F0CCFB002002F0D7
:4015C000CFFB02F0E1FA462002F034FA02F0B6FB462002F00BFBFFF76DFF012002F018F9244B1C604FF04608C14600262EE002F0B3F9044602F068F90546FFF7CDFC064603
:401600000A2001F02DF91C4F32461C49384605F019FA384601F0B8F985EAE570A0EBE57084EAE473A3EBE473984203DD4FF049084FF04309984203DA4FF043084FF0490986
:40164000484602F0F7F9404602F0D0FA002ECED0002002F041F9002002F086F902F07EFA02F056FB00226421252000F021FCBDE8F88300BFC881FF1FBC82FF1F64840000DF
:4016800010B504460B4B1868201A5A2303FB00F0B0F5877F02D010F5877F04D1064B83FB0023C3EBE070012200F0D2FC014B1C6010BD00BFE082FF1F565555550000000049
:4016C0002DE9F047044616461F46084603F0FAFF83A3D3E9002304F073F902F005FD0022834B03F08FFE04F0DBFA0546032E77D1012F38D10320FFF753FE7E4BD8682EE048
:40170000C4EB000A504603F0CBFF06460F46284603F0C6FF74A3D3E9002304F027F88046894602460B463046394604F0AFFA48B14046494604F0DCFA00234622142100F085
:4017400013FD07E0504604F0DDFB00234622142100F00AFD0320FFF723FE664BD868A042CEDCBDE8F087B7F1FF3F40F0B5800220FFF716FE5F4B98682EE0C0EB040A504608
:4017800003F08EFF80468946284603F089FF56A3D3E9002303F0EAFF06460F4602460B464046494604F072FA48B13046394604F09FFA00234622142100F0D6FC07E050464E
:4017C00004F0A0FB00234622142100F0CDFC0220FFF7E6FD474B9868A042CEDBBDE8F087022E79D1012F3AD10220FFF7D9FD414B9E6830E0301B03F053FF804689462846D5
:4018000003F04EFF38A3D3E9002303F0AFFF02460B464046494604F039FA78B1684203F03FFF31A3D3E9002303F0A0FF04F060FA00234622142100F097FC07E0A01B04F0C8
:4018400061FB00234622142100F08EFC0220FFF7A7FD284B9E68A642CCDCBDE8F087B7F1FF3F39D10320FFF79BFD224BD86831E0261A304603F014FF80468946284603F0E0
:401880000FFF19A3D3E9002303F070FF02460B464046494604F0FAF978B1684203F000FF11A3D3E9002303F061FF04F021FA00234622142100F058FC07E0304604F022FB5C
:4018C00000234622142100F04FFC0320FFF768FD084BD868A042CBDBBDE8F087AFF300801C2D5242F611EE3FF50B8A74A8E3D53F0000F03F3C82FF1F10B51C4B1B68012B82
:401900002DD0A0B90420FFF74BFD322000F0A8FF174B1A69531E532B23D8164C1649204605F090F8204601F02FF8012010BD012814D10020FFF734FD322000F091FF0C4BA9
:401940001A68531E532B0ED80A4C0B49204605F079F8204601F018F8012010BD10BD002010BD002010BD002010BD00BF0882FF1F3C82FF1FBC82FF1F6C8400000000000022
:401980002DE9F04F89B08346079105921C46129E012905D1002002F0DDF9002002F0E0F9079B2BB9012002F0D5F9012002F0D8F940F21452AE4B43F8242011E02046FFF714
:4019C000EFFC322000F04CFFA94B53F82450A94F2A46A949384605F035F8384600F0D4FFA34B53F82430B3F5966FE7DC02F0CCF85FFA86F8404602F01DF802F09FF940465A
:401A000002F0F4F8059BB3F1FF3F79D0B246B14600276FF4A763019387E001F055FF0746049001F099FF002FB8BF7F420028B8BF4042874203DDA6F1030906F1030A87422F
:401A400003DAA6F1030A06F103095FFA89F001F0F1FF5FFA8AF002F0C9F8072C0DD1069B5BB10020FFF79CFC322000F0F9FE804B53F824500023069320E0072C0DD1069B0C
:401A80005BB90120FFF78CFC322000F0E9FE784B53F824500123069310E02046FFF780FC322000F0DDFE724B53F824502A467249704804F0C7FF6F4800F066FF384603F090
:401AC000EFFDCDE90201019803F0EAFD62A3D3E9002303F099FC0022684B03F093FC02460B46DDE9020104F0D1F888B1139B012B0ED10798FFF700FF8046049B019307E086
:401B0000B246B14600276FF4A76301930697B8468BEAEB73A3EBEB739D4205DAB8F1000F3FF47BAF474600E04746059B012B5CD1B84651E001F0C8FE0746049001F00CFFAB
:401B4000002FB8BF7F420028B8BF4042874203DDA6F1030906F1030A874203DAA6F1030A06F103095FFA89F001F064FF5FFA8AF002F03CF82046FFF713FC322000F070FE06
:401B80003B4B53F824502A463B493A4804F05AFF384800F0F9FE384603F082FDCDE90201019803F07DFD2EA3D3E9002303F02CFC0022324B03F026FC02460B46DDE9020126
:401BC00004F064F840B1139B012B05D10798FFF793FE8046049B01938BEAEB73A3EBEB739D4202DDB8F1000FA4D02046FFF7D8FB322000F035FE1F4D1D4B53F824202049BC
:401C0000284604F01FFF284600F0BEFE01F05CFE04461C4B186003F043FD13A3D3E9002303F0CEFE04F03CF8174B186022461749284604F007FF284600F0A6FE002001F0CA
:401C40004BFE002001F090FE01F088FF02F060F809B0BDE8F08F00BFCCCCCCCCCC137540F6285C8FC2C56B40295C8FC2F52815403C82FF1FBC82FF1F58840000000059402A
:401C80008C840000B882FF1FEC82FF1F988400002DE9F04182B0044602F0C8F9072C02D10126002501E0062604254FF496742EE02846FFF775FB322000F0D2FD674CDFF84C
:401CC000B481674F54F825204146384604F0BAFE384600F059FE3046FFF762FB322000F0BFFD54F826204146384604F0ABFE384600F04AFE54F8252054F82630D41A2246B8
:401D00005849384604F09EFE384600F03DFE84EAE473A3EBE473B3F5487FC9DC01F034FF192001F087FE02F009F8192001F05EFF89E0002C24DD002002F00CF8012002F081
:401D40000FF811E02846FFF72BFB322000F088FD3046FFF725FB322000F082FD3F4B53F8254053F82630E41A84EAE473A3EBE473022B46DD002C44DDB3F5487FE2DB40E061
:401D8000002C3EDA012001F0E5FF002001F0E8FF2846FFF705FB322000F062FD3046FFF7FFFA322000F05CFD2C4A52F8253052F826401C1B1AE02846FFF7F2FA322000F064
:401DC0004FFD3046FFF7ECFA322000F049FD234B53F8252053F82630D41A214F00942249384604F02FFE384600F0CEFD84EAE473A3EBE473022B04DD002C02DAB3F5487FBA
:401E0000D9DB2846FFF7CCFA322000F029FD3046FFF7C6FA322000F023FD104B53F8252053F82630D41A0E4F1049384604F00AFE384600F0A9FD22460D49384604F002FEE0
:401E4000384600F0A1FD84EAE473A3EBE473022B3FF76FAF02B0BDE8F08100BF3C82FF1FBC82FF1FAC840000C0840000D8840000E4840000588400002DE9F04182B0804619
:401E80000C4615461E46089F0197009313460A460121FFF775FD019700962B46624200214046FFF76DFD02B0BDE8F081000000002DE9F04F87B004460F460492E12901DC52
:401EC0008A4601E04FF0C80A002C08DD002001F041FF002001F044FF0123059307E0012001F038FF012001F03BFF0023059301F04BFE01F023FF204603F0D2FB4AA3D3E95B
:401F0000002303F033FC02F0EFF803F0C9FE8346494C02464949204604F094FD204600F033FD01F0D1FC054601F016FD0646D146002302936FF4A763039341E001F0C4FC23
:401F40000446054601F008FD064684EAE478A8EBE4780028B8BF4042804503DDA7F1030A07F10309804503DAA7F1030907F1030A5FFA8AF001F05EFD5FFA89F001F036FE01
:401F8000404603F08DFBCDE90001039803F088FB27A3D3E9002303F037FA0022284B03F031FA02460B46DDE9000103F06FFE38B1049B012B04D10598FFF79EFC0290039439
:401FC00085EAE572A2EBE5728BEAEB73A3EBEB739A4208DA86EAE672A2EBE672934202DD029B002BAAD0144C2A461649204604F029FD204600F0C8FC32461349204604F020
:4020000021FD204600F0C0FC01F0A8FD01F080FE002001F061FC002001F0A6FC07B0BDE8F08F00BFAFF30080295C8FC2F5281540CDCCCCCCCC137540BC82FF1FF0840000B1
:40204000000059400085000014850000000000002DE9F84304460F46E12901DC0E4600E0C826002C06DD002001F074FE012001F077FE05E0012001F06DFE002001F070FEB6
:4020800001F082FDF5B2284601F0D4FC01F056FE284601F0ABFD6B2000FB04F003F000FB29A3D3E9002303F061FB29A3D3E9002303F05CFB28A3D3E9002303F057FB002226
:4020C000274B03F07DFC02F00FF803F0E9FD814601F0FAFB01F040FC0546B0461CE001F03BFC0446054601F0EFFB0028B8BF4042002CB8BF6442A04202DDFE1E07F1030837
:40210000A04202DAA7F10308FE1CF0B201F092FC5FFA88F001F06AFD002DB8BF6D4289EAE973A3EBE9739D42D9DB002001F0D4FB002001F019FC01F011FD01F0E9FDBDE8BA
:40214000F88300BFAFF30080182D4454FB210940295C8FC2F5281540B81E85EB51B8EE3F00806640000000002DE9F843074614461D4681EAE176A6EBE17620F0004003F08F
:40218000A1FA80468946304603F08AFA26A3D3E9002303F0EBFA01F0F7FF02460B464046494603F00DFC03F0A3FD80460021384603F04AFFD0B12A4621463046FFF748FFB2
:4021C00008F1004003F068FF2A462146FFF770FE2A4621467042FFF73BFF404603F05CFF2A462146FFF764FEBDE8F8832A4621467042FFF72DFF08F1004003F04DFF2A46A2
:402200002146FFF755FE2A4621463046FFF720FF404603F041FF2A462146FFF749FEBDE8F88300BFAFF30080399D52A246DF913F38B5384B1B686BB300234BBB012001F0B3
:40224000E7FA02210020FFF77DF9002407E0E0B201F0D8FA4FF4FA7000F002FB0134032CF5DD2D4800F090FB00240EE02B4D22462B49284604F0E6FB284600F085FBFFF731
:4022800015F8284800F080FB0134312CEEDD0123002BD2D11F4B5B683BB100231BB9224800F072FB0123002BF8D11A4B9B687BB10122C8214FF4B470FFF7CAFE4FF47A7006
:4022C00000F0CEFA0122C8211848FFF7C1FEFEE7104BDB68EBB1164800F056FB0620FFF75FF8322000F0BCFA0420FFF759F8322000F0B6FA0F4A094C136992690E4920469D
:4023000004F0A0FB204600F03FFB642000F0A8FAE4E738BD6882FF1F28850000BC82FF1F58840000D48400005085000098FEFFFF608500003C82FF1F78850000FEE700BF98
:40234000F0B40022174611E050F82760F3B226F0FF0608E001EB420511F812406D78A5550132013BDBB2002BF4D10137282FEBD9F0BC704710B4194B1B78DBB203F0070180
:40238000174A11701B090132137002232D3A13700421A2F5A4521B3A1170102102F6765211701032137002F6F302137080220D48027004300170032464300470202447302B
:4023C0000470013002702C30017007490A70074A13704422064B1A7010BC7047CF0100496E580040245A0040045B0040585B00407658004008B50A46002103F0AAFE08BD8C
:4024000008B503F09BFE08BD38B500243B4B1C80502202331A70012202331A801823384A1370172102321180023213703321023211800232137040F2AF4102321180023259
:40244000137040F664510232118002321370042201F1904101F553712A48FFF7D1FF0222294B1A7008224FF040231A70032103F500731970254B1B78DBB225490B70254B1E
:402480001A8041F25122023B1A8019250CE0224B1B7803F0010343EA440404F003044FF4F07001F011FE013D0DB1032CEFD115B90320FFF743FF194B4FF480721A80072261
:4024C0001A70002216490A704820023108701A700222033B1A7004220A331A70114A137843F03F031370013A137843F001031370013A137843F08003137038BD804000408F
:4025000086400040004100400043004008010049A146004022420040254200400440004006400040A243004038B572B6444A137843F00403137000240CE0424D630019197F
:402540004A0011462A44084691882858FFF752FF0134E4B2072CF0D900240BE03948A20011194B0003441A8F596B186BFFF748FF0134E4B2012CF1D933494FF09040FFF7F9
:40258000DFFE0A24314B1C7040F20322373B1A802F4A03F52C438C331A602E4B2E4A136002F58C52136002F55E522B32137843F0020313701032137843F002031370274D9A
:4025C0002B7843F040032B70A2F58632513A137843F010031370082221492248FFF710FF224621492148FFF70BFF082220492148FFF706FF224620492048FFF701FF22462D
:402600001F492048FFF7FCFE08221F491F48FFF7F7FE1F4A137843F0080313701D4C61232370FFF7F1FE8123237001221A4B1A70FFF7A0FE0E2229461848FFF7E1FE38BD36
:40264000E846004084850000A400004883580040040004C404040484D8060140A043004074100048025100407C100048C051004088100048F25100409010004810510040CE
:402680009C10004820510040A810004832510040224300400048004004000840B043004008B503F01FFD03680C2B00D1FEE7FEE708B5094B1A681044084BC31AB3F5007FBF
:4026C00002DC054B186005E003F00CFD0C2303604FF0FF32104608BDE880FF1F6083FF1F08B5104E104D16E029686B68AC68002204E051F8040B43F8040B0432A242F8D13E
:40270000E868002203E0002143F8041B04328242F9D11035013E002EE6D103F0E9FCFDF7EDFCFEE7010000002889000008B5104A104B1A60104A136843F40073136000234F
:402740000AE0032B03D80D4A52F8231000E00C490C4A42F8231001332F2BF2D90A4B1A780A4B1A70074A0A4B1A60FFF7DDFE08BD0004FA050CED00E014ED00E00000000008
:40278000A12600000080FF1FBC760040C080FF1F08ED00E0084A137843F0040313701032137843F00403137002F5A5521E32137843F0800313707047A9430040044A13782D
:4027C00003F0FC0300F0030018431070704700BF09580040072809D8054B1A7802F08F021A701A780001C0B210431870704700BF0A580040032809D8054B1A7802F0F30236
:402800001A701A788000C0B210431870704700BF0A58004038B50224084B1C700C2201331A70012501331D700420FFF7D3FF2846FFF7E0FF2046FFF7C1FF38BD08580040F2
:4028400008B5054B1B7823B90122034B1A70FFF7E1FFFFF79FFF08BD7882FF1F01BE704710B5044605E0084B186801F02DFCA4F50044B4F5004FF6D8034B586800FB04F0A3
:4028800001F022FC10BD00BFEC80FF1F08B5034B1B7A00FB03F001F017FC08BDEC80FF1F70B504460E46074B1D681F2802D90020FFF7D4FF04F01F04103455F8240045F864
:4028C000246070BD08ED00E038B504460D46072902D90020FFF7C2FF1F2C02D90020FFF7BDFF04F01F0000F1604000F564406D01EDB2057038BD00BF7222074B1A702022C9
:402900000D3B1A7006225D3B1A70472210331A70002258331A7070478D64004010B501F0DBFB04460A4A137843F0200313700D3A137843F0100313700B32137843F01003EF
:40294000137000F033F8204601F0CAFB10BD00BF9D64004008B5054B1B7823B9FFF7CCFF0122024B1A70FFF7D9FF08BD7982FF1F034B1B7813F0040FFAD1024B187070479F
:402980006B6400404764004038B5074B1B782BB938BDFFF7EDFF0134A4B201E005460024285D0028F5D138BD7982FF1F054A137843F0080313701032137843F0080313700B
:4029C000704700BFA243004038B59DF81040651EEDB2032D51D8013809282ED8DFE800F0052D2D052D2D0F192D230F2B03D92548007840B222E02448007840B21EE00F2B95
:402A000003D92248007840B218E02148007840B214E00F2B03D91F48007840B20EE01E48007840B20AE00F2B03D91C48007840B204E01B48007840B200E0002001EB4011C6
:402A400001FB02F2D20B91B20D2B0BD8C3F10E0192B20A4191B2621E124800EB82020133937005E0631E0F4A02EB83030F229A70013C0C4B23F8241038BD0020FFF7EEFECF
:402A800038BD00BF180100491C010049190100491D0100491A0100491E0100491B0100491F0100497C82FF1FF8B5074601F014FB06460D4D2B7843F003032B700B4C237811
:402AC00043F0030323700A4B1F700320FFF7DEFE2B7803F0FC032B70237803F0FC032370304601F0FDFAF8BDF8460040F946004092580040F8B504460022BB4B1A740128D1
:402B00005AD13822B94B1A70042202331A70072201331A70002501331D7001331D703F2201331A7002331D7001331D7001331D7001260A331E70502203F527631A702722F3
:402B400001331A702C2201331A7001331D70552203331A705A2201331A70052701331F7002331E70112201331A70192201331A70972201331A704420FFF796FF58229C4BF6
:402B80001A7001331D7005331F7001331E7001331D700A2201331A704FF4FA42954B1A603146384600F0C6FA3146252000F046FB91491D20FFF774FE022C5AD138228B4B23
:402BC0001A70042202331A70072201331A70002501331D7001331D703F2201331A7002331D7001331D7001331D7001260A331E70502203F527631A70272201331A702C22B0
:402C000001331A7001331D70552203331A705A2201331A70052701331F7002331E70112201331A70192201331A70972201331A704420FFF739FF58226D4B1A7001331D7082
:402C400005331F7001331E7001331D700A2201331A704FF4FA42674B1A603146384600F069FA3146252000F0E9FA64491D20FFF717FE032C5AD138225C4B1A700422023369
:402C80001A70072201331A70002501331D7001331D703F2201331A7002331D7001331D7001331D7001260A331E70502203F527631A70272201331A702C2201331A700133E2
:402CC0001D70552203331A705A2201331A70052701331F7002331E70112201331A70192201331A70972201331A704420FFF7DCFE58223F4B1A7001331D7005331F70013345
:402D00001E7001331D700A2201331A704FF4FA42384B1A603146384600F00CFA3146252000F08CFA36491D20FFF7BAFD042C5AD138222E4B1A70042202331A70072201335E
:402D40001A70002401331C7001331C703F2201331A7002331C7001331C7001331C7001250A331D70502203F527631A70272201331A702C2201331A7001331C7055220333D7
:402D80001A705A2201331A70052601331E7002331D70112201331A70192201331A70972201331A704420FFF77FFE5822104B1A7001331C7005331E7001331D7001331C7002
:402DC0000A2201331A704FF4FA420A4B1A602946304600F0AFF92946252000F02FFA09491D20FFF75DFDF8BD7C82FF1F004E0040945800405483FF1FF5300000F9300000A4
:402E0000FD300000013100002DE9F04182B0394E4FF0010886F80080374F00247C74102000F076F9102000F0F7F907211D20FFF74BFD0425314B1D7001331C7007331C7059
:402E40002F4A137843F0180313702E4B1C7003F2F5231C7001331C700A22A3F209331A7001331C7002331C705B2205331A705E2201331A7004331C701422A3F68C231A70CF
:402E8000CDF8008010234FF4004249F2DA012846FFF79AFD0223009310234FF4004249F2DA012846FFF790FD0323009310234FF4004249F2DA012846FFF786FD0095102357
:402EC0004FF4004249F2DA012846FFF77DFD3378013B07EB83039A780B4B1A703378013B37F82320094B1A803078FFF703FE02B0BDE8F081FC80FF1F7C82FF1F9658004076
:402F0000075B0040935800400E4E00400C4E004070B501F0E1F806462A4B1B782A4B1A7842F001021A701A7842F010021A7010331A7842F001021A701A7842F010021A7031
:402F4000224D2B7843F002032B70214C237843F0020323701F4A137843F0030313700320FFF794FC2B7803F0FD032B70237803F0FD032370184A137843F0060313707A22A6
:402F8000164B1A70164A137843F0010313701032137843F0010313700F3A137843F0010313701032137843F0010313704FF000530C4A1360A2F5C0721360304601F090F85F
:402FC00070BD00BFFC80FF1FAA430040F8460040F9460040915800407758004082580040A143004080E200E008B5084B9B7C4BB9064BDB7C13F0FF0F01D1FFF705FF012296
:40300000024B9A74FFF784FF08BD00BF7C82FF1F024A137843F0010313707047004E0040024A137803F0FE0313707047004E0040094B1B7C13F0FF0F03D0074B5B7CDBB22E
:4030400003E0064B1B7803F00103012B01D00028EED01846704700BF7C82FF1F014E0040154B1B7803F00303012B07D8134B1888023B1B889BB243EA004013E0022B0AD1A6
:403080000E4B1888023B1B7843EA00430C4A107843EA002006E00B4B188883B2074A108843EA0040084B1B7C13F0FF0F02D00022054B5A74704700BF144E0040124E004080
:4030C000114E0040104E00407C82FF1F10B5084A137843F004031370FFF79AFF0020FFF7A7FFFFF7BDFF0446FFF79AFF204610BD014E0040704700BF704700BF704700BF1E
:40310000704700BF014B188880B2704780400040034B1A7800F0F80010431870704700BF82400040024B187800F00700704700BF8240004070B505460E46FFF7F3FF0446E7
:40314000FFF7E0FFA84256D02B4B1B7803F0010294B900B185B938B9284B1D80284A137803F0BF03137070BD254A137843F040031370224B1D8070BD22B3002321490B70C5
:4031800001240F310C7004310B700C390B7803F07F030B701A4B1B7813F0080F00D08DB9194B18800721013B1970164B1B7813F0010FFAD110490B7803F0FE030B70002177
:4031C000104B19700C4B1B7813F0010F0DD00E4B1D800EB1032200E001220A4B1A70094B1B7813F0010FFAD170BD044B1D8002490B7813430B7070BDA24300408040004086
:40320000824000400140004002400040014B188880B2704700410040034B1A7800F0F80010431870704700BF02410040024B187800F00700704700BF0241004070B505465A
:403240000E46FFF7F3FF0446FFF7E0FFA84256D02B4B1B7803F0010294B900B185B938B9284B1D80284A137803F0BF03137070BD254A137843F040031370224B1D8070BD1B
:4032800022B3002321490B70012413310C7004390B7008390B7803F07F030B701A4B1B7813F0080F00D08DB9194B18800721013B1970164B1B7813F0010FFAD110490B7821
:4032C00003F0FE030B700021104B19700C4B1B7813F0010F0DD00E4B1D800EB1032200E001220A4B1A70094B1B7813F0010FFAD170BD044B1D8002490B7813430B7070BD1A
:40330000A143004000410040024100400140004002400040054A137843F0020313701032137843F002031370704700BFA8430040054B1A7802F0FD021A701A7800F00200C3
:4033400010431870704700BF24580040014B1870704700BF815B0040094B1B7803F00C035B08084A127812F0040F00D0013303F1924393F83031DBB2034A1370704700BF11
:4033800024580040255800400946004008B51022064B1A700133002018701A7842F004021A70FFF7C5FFFFF7D7FF08BD2458004008B5074B1B7823B9FFF7E8FF0122044B37
:4033C0001A70FFF7A7FF7820FFF7C0FF08BD00BF9482FF1F08B5064B1A7802F0F3021A701A7800F00C0010431870FFF7B5FF08BD24580040024A137843F080031370704736
:4034000073640040024A137803F07F031370704773640040014B1870704700BF85640040014B1878704700BF65640040014B1880704700BF48680040014B188880B27047EB
:4034400088680040014B1880704700BF08680040024B1B78024B188880B27047046400408868004000F00300044B1A7802F0FC021A701A7810431870704700BF736400403C
:4034800008B501E0FFF7D8FFFFF7CAFF10F0080FF8D108BD08B54FF6FF70FFF7C7FF4FF6FF70FFF7CFFF00F017FE084A137843F01003137000F014FE0020FFF7D3FFFFF70D
:4034C000DFFF0220FFF7A6FF08BD00BF9564004008B5054B1B7823B9FFF7DCFF0122024B1A70FFF787FF08BD9582FF1F044A137803F0FB03800000F00400184310707047E7
:40350000C0510040044A137803F07F03C001C0B218431070704700BF20510040044A137803F0FE0300F0010018431070704700BF30510040044A137803F0FE0300F0010029
:4035400018431070704700BF00510040044A137803F0BF03800100F0400018431070704730510040014B1870704700BF75640040084A137843F0010313701032137843F0DD
:403580000103137002F64D32137843F001031370704700BFA3430040084A137803F0FE031370A2F65D32137803F0FE0313701032137803F0FE031370704700BF004F004066
:4035C000014B1880704700BF044F0040014B1880704700BF064F0040014B1870704700BF034F004008B51A4A137843F0020313700232137803F08F0343F010031370154B3F
:403600001A7802F0CF021A701A7842F030021A701A7802F0F0021A701A7842F00F021A7044F61F60FFF7CCFF40F2DC50FFF7CEFF0020FFF7D1FF084A137843F001031370B4
:4036400002F65E32137843F00103137008BD00BF004F00400B4F0040A343004008B5054B1B7823B9FFF7BEFF0122024B1A70FFF77FFF08BD9682FF1F08B5074B1B7813F06D
:40368000010F03D00122054B1A7002E00022034B1A70FFF781FF08BD004F00409882FF1F08B5034B1B780BB1FFF762FF08BD00BF9882FF1F084A137843F002031370103205
:4036C000137843F00203137002F65932137843F001031370704700BFA3430040084A137803F0FE031370A2F66932137803F0FD0313701032137803F0FD031370704700BFDF
:403700000C4F0040014B1880704700BF104F0040014B1880704700BF124F0040014B1870704700BF0F4F004008B51A4A137843F0020313700232137803F08F0343F0100321
:403740001370154B1A7802F0CF021A701A7842F030021A701A7802F0F0021A701A7842F00F021A7044F61F60FFF7CCFF40F2DC50FFF7CEFF0020FFF7D1FF084A137843F017
:403780000203137002F66A32137843F00103137008BD00BF0C4F0040174F0040A343004008B5054B1B7823B9FFF7BEFF0122024B1A70FFF77FFF08BD9982FF1F014B188836
:4037C00080B27047124F004008B5074B1B7813F0010F03D00122054B1A7002E00022034B1A70FFF77BFF08BD0C4F00409C82FF1F08B5034B1B780BB1FFF75CFF08BD00BFA3
:403800009C82FF1F014B1870704700BF7A640040014B1870704700BF79650040014B1878704700BF79650040014B1B685864704708ED00E04001C0B2014B1870704700BFF8
:4038400001E400E00222014B1A60704700E100E00222014B1A60704780E100E010B50446FFF7F6FF2046FFF7DFFF0720FFF7E2FFFFF7E8FF10BD00BF014B1B6818647047A2
:4038800008ED00E04001C0B2014B1870704700BF00E400E00122014B1A60704700E100E00122014B1A60704780E100E010B50446FFF7F6FF2046FFF7DFFF0720FFF7E2FFFE
:4038C000FFF7E8FF10BD00BF08B500F069FAA0F5004000B208BD00BF08B5002803DB80B280F4004002E0A0F5004080B200F052FA08BD00BF024B187800F00F00704700BFA0
:4039000064650040014B1870704700BF8465004008B50F20FFF7F6FFFFF7ECFF00F0DCFB034A137843F01003137000F0D9FB08BD9465004008B500F085FA4FF4004000F08A
:4039400029FA044B1B7813B90122024B1A70FFF7DFFF08BD9D82FF1F08B500F09BFAA0F5004000B208BD00BF08B5002803DB80B280F4004002E0A0F5004080B200F084FA59
:4039800008BD00BF024B187800F00F00704700BF6A650040014B1870704700BF8A65004008B50F20FFF7F6FFFFF7ECFF00F094FB034A137843F01003137000F091FB08BD90
:4039C0009A65004008B500F0B7FA4FF4004000F05BFA044B1B7813B90122024B1A70FFF7DFFF08BD9E82FF1F024A137843F08003137070477B650040024A137803F07F03B0
:403A0000137070477B650040014B1870704700BF08650040024B1B78024B1878704700BF1865004058650040014B1870704700BF48650040014B1870704700BF28650040FA
:403A4000014B1870704700BF8B650040014B1878704700BF6B650040014B1878704700BF7B650040014B1870704700BF7B650040014B1878704700BF5865004008B501E0A1
:403A8000FFF7F6FFFFF7E2FF10F0100FF8D108BD08B5124A137803F0C00343F0090313701D32137843F001031370FF20FFF7ACFFFF20FFF7B9FF7F20FFF7BCFF0020FFF7F4
:403AC000BFFF00F009FB064A137843F01003137000F006FBFFF7D2FF08BD00BF7B6500409B65004008B5054B1B7823B9FFF7D0FF0122024B1A70FFF777FF08BD9F82FF1F29
:403B0000014B1878704700BF4865004010B5FFF7F7FF064CA070FFF77DFF6070044B1B78E370FFF799FF207110BD00BFA082FF1F8B65004010B5074CA078FFF775FF60782F
:403B4000FFF762FFE278044B1A702079FFF78AFF10BD00BFA082FF1F8B65004008B5084B1B7813F0800F03D00122064B1A7002E00022044B1A70FFF73FFFFFF7C7FF08BD0F
:403B80007B650040A082FF1F08B5FFF7D3FF034B1B780BB1FFF728FF08BD00BFA082FF1F024A137843F080031370704779640040024A137803F07F0313707047796400401B
:403BC000014B1870704700BF09640040024B1B78024B1878704700BF1964004059640040014B1870704700BF49640040014B1870704700BF29640040014B1870704700BF49
:403C000089640040014B1878704700BF69640040014B1878704700BF79640040014B1870704700BF79640040014B1878704700BF5964004008B501E0FFF7F6FFFFF7E2FF73
:403C400010F0100FF8D108BD10B5114A137803F0C00343F0090313700E4C237843F001032370FF20FFF7ACFFFF20FFF7B9FF7F20FFF7BCFF0020FFF7BFFF00F02DFA237852
:403C800043F01003237000F02BFAFFF7D3FF10BD796400409964004008B5054B1B7823B9FFF7D2FF0122024B1A70FFF779FF08BDA582FF1F014B1878704700BF4964004033
:403CC00010B5FFF7F7FF064CA070FFF77FFF6070044B1B78E370FFF79BFF207110BD00BFA882FF1F8964004010B5074CA078FFF777FF6078FFF764FFE278044B1A7020797D
:403D0000FFF78CFF10BD00BFA882FF1F8964004008B5084B1B7813F0800F03D00122064B1A7002E00022044B1A70FFF741FFFFF7C7FF08BD79640040A882FF1F08B5FFF74F
:403D4000D3FF034B1B780BB1FFF72AFF08BD00BFA882FF1F014B1870704700BF74650040014B1870704700BF7C640040024A137843F080031370704776650040014B187066
:403D8000704700BF87640040014B1878704700BF67640040014B1880704700BF0C6A0040024B1B78024B188880B27047066500408C6A0040014B188880B270478C6A004053
:403DC000014B1880704700BF4C6A0040014B1880704700BF6C6A004008B501E0FFF7EAFFFFF7D2FF10F0400FF8D108BD08B5134B1A7802F0F8021A701A7802F0FC021A70B3
:403E0000FFF7EAFF4FF40040FFF7DAFF4FF40040FFF7C0FF0020FFF7B1FFFFF7B5FF4FF40040FFF7D3FF00F057F9054A137843F01003137000F054F908BD00BF766500409F
:403E40009764004008B5054B1B7823B9FFF7CEFF0122024B1A70FFF789FF08BDAD82FF1F024A137843F080031370704778650040014B1870704700BF88650040014B187807
:403E8000704700BF68650040014B1880704700BF00680040024B1B78024B188880B270470064004080680040014B188880B2704780680040014B1880704700BF40680040BC
:403EC000014B1880704700BF6068004008B501E0FFF7EAFFFFF7D2FF10F0400FF8D108BD08B5134B1A7802F0F8021A701A7802F0FC021A70FFF7EAFF4FF40040FFF7DAFFDF
:403F00004FF40040FFF7C0FF0020FFF7B1FFFFF7B5FF4FF40040FFF7D3FF00F0DDF8054A137843F01003137000F0DAF808BD00BF786500409865004008B5054B1B7823B90A
:403F4000FFF7CEFF0122024B1A70FFF789FF08BDAE82FF1F044A137803F07F03C001C0B218431070704700BF00510040084A137843F0040313701032137843F0040313706C
:403F800002F66532137843F001031370704700BFA3430040014B1870704700BF1B4F0040014B1878704700BF1B4F0040014B1880704700BF1C4F0040014B1880704700BF42
:403FC0001E4F004008B5164A137803F0010313700232137803F0FC031370124B1A7802F0CF021A701A7842F030021A701A7802F0F0021A701A7842F00F021A700A4A1378C4
:4040000043F0010313704FF6FF70FFF7CFFF4FF6FF70FFF7D1FF0020FFF7BCFF08BD00BF184F0040234F0040194F004008B5054B1B7823B9FFF7C6FF0122024B1A70FFF757
:4040400095FF08BDAF82FF1F014B1870704700BF74640040024B1B68C3F88C00704700BF08ED00E04001C0B2014B1870704700BF13E400E04FF40022014B1A60704700BF5F
:4040800000E100E04FF40022014B1A60704700BF80E100E010B50446FFF7F4FF2046FFF7D9FF0720FFF7DEFFFFF7E4FF10BD00BF044A137803F0FD03400000F00200184379
:4040C00010707047C05100400230800803D000BF01380046FCD17047EFF3108072B6704780F31088704700BFF8B5C1F30A56A6F2FF35132D0A460B460446864611DC002D79
:404100002EDB0F461F4929410A4225D04FF400232B413B4423EA01030026194634462046F8BD332D05DDB5F5806F1FD011462046F8BDA6F213464FF0FF3121FA06F630426D
:40414000F4D00122C5F1330502FA05F52D1828BF9B1825EA0606E0E70028D7D11146E6E7013501F0004307D00026D6E702460B4601F04AF90446D2E743F07F5343F440133C
:404180000026CAE7FFFF0F0030B5214A21F00043934287B01BDD1F4A934205DD02460B4601F030F907B030BD02AA00F035F800F0030001281ED0022811D0DDE9042300B37E
:4041C000DDE9020100F040FA01F10041EAE7002300930022002300F053FF07B030BD01230093DDE90201DDE9042300F049FF01F10041D7E7DDE90423DDE9020100F024FA8D
:40420000D0E70124DDE90201009400F039FFC9E7FB21E93FFFFFEF7F2DE9F04F944C21F00047A7428FB040F381801446914A0E46974226DC84A3D3E90023002940F3A081ED
:4042400001F0E0F88C4B80469F42894600F083807FA3D3E9002301F0D5F802460B464046C4E90023494601F0CDF879A3D3E9002301F0C8F80125C4E9020128460FB0BDE8EE
:40428000F08F7E4A974240F383807D4A974258DC3D15A5F21645A7EB05518B46824601F0FFFC01F0FDF98046894642464B4650465946CDE9088901F0A5F80022714B01F0B5
:4042C00055FA8B46824601F0EBFC01F0E9F98046894642464B4650465946CDE90A8901F091F80022674B01F041FA00220023CDE90C0101F0A3FC002800F06A810023404641
:404300004946002201F09AFC002814BF012302235D480221019000912A46214608A800F0B7FA002EC0F24A81054606E0C2E9000100250024C2E90245002528460FB0BDE835
:40434000F08F02460B4601F05DF80025C4E90201C4E90001F1E740A3D3E9002301F052F83FA3D3E9002306460F4601F04BF802460B463046C4E90023394601F043F838A38C
:40438000D3E9002301F03EF80125C4E90201D4E700F02CFF34A3D3E900238046894601F0E5F90022394B01F02FF801F079FC054601F076F924A3D3E90023CDE9040101F010
:4043C000D5F902460B464046494601F01BF820A3D3E9002382468B46DDE9040101F0C6F91F2DCDE9020155DC294B6A1E53F822309F424FD002460B465046594601F002F8FF
:4044000002460B4681468846C4E900234A4643465046594600F0F6FFDDE9022300F0F2FF02460B46002EC4E9022386DA4A4608F1004301F1004184E80C00E160A0606D421F
:404440007BE700BFAFF3008000004054FB21F93F3163621A61B4D03D0000601A61B4D03D7370032E8A19A33B83C8C96D305FE43FFB21E93F7BD90240FB21F93FFB213941B7
:40448000FFFFEF7F00007041488600000000E03FC8850000DDE902235046594600F0B2FF3F15C1F30A53FB1A102B81468846C4E90001ABDD58A3D3E90023DDE9040101F0CE
:4044C00055F98046894602460B465046594600F099FFCDE9060102460B465046594600F091FF42464B4600F08DFF4DA3D3E9002380468946DDE9040101F038F942464B4679
:4045000000F080FF02460B46CDE90201DDE9060100F078FF0B4602468846C1F30A517F1A312F8146C4E9002372DD3FA3D3E90023DDE9040101F01AF98046894602460B4673
:40454000DDE9060100F05EFF02460B4682468B46DDE9060100F056FF42464B4600F052FF33A3D3E9002380468946DDE9040101F0FDF842464B4600F045FFCDE9020139E762
:4045800000F042FF2E4B80469F42894622D02AA3D3E9002300F038FF02460B464046C4E90023494600F02EFF23A3D3E9002300F02BFF4FF0FF35C4E90201BEE66268E368E0
:4045C00002F1004203F1004345426260E360B4E603239DE610A3D3E9002300F015FF10A3D3E9002306460F4600F00EFF02460B463046C4E90023394600F004FF08A3D3E902
:40460000002300F001FF4FF0FF35C4E9020194E6DDE906ABFAE600BF0000601A61B4D03D7370032E8A19A33B0000002E8A19A33BC14920259A837B393163621A61B4D03D82
:40464000FB21F93F000000002DE9F04F21F00046B6F1795F85B00C4692469B4605466BDA01F01EFB002800F0E7802A4623462846214601F07BF874A3D3E9002380468946C5
:4046800001F074F872A3D3E9002300F0BDFE42464B4601F06BF870A3D3E9002300F0B2FE42464B4601F062F86DA3D3E9002300F0ABFE42464B4601F059F86BA3D3E90023CB
:4046C00000F0A0FE42464B4601F050F868A3D3E9002300F099FE42464B4601F047F8CDE900010022644B4046494601F03FF8DDE9002306460F464046494601F037F8524604
:40470000804689465B462846214601F02FF802460B464046494600F075FE02460B463046394600F06FFE02460B460020534900F069FE05B0BDE8F08F02460B4601F016F83D
:4047400041A3D3E900238046894601F00FF840A3D3E9002300F058FE42464B4601F006F83DA3D3E9002300F04DFE42464B4600F0FDFF3BA3D3E9002300F046FE42464B46D0
:4047800000F0F4FF38A3D3E9002300F03BFE42464B4600F0EBFF36A3D3E9002300F034FE4B46424600F0E2FF354BCDE900019E4297DD344B00229E4238DCA6F5001300208E
:4047C0002E4916461F4600F01DFECDE902010022294B4046494600F0C9FF32463B4600F011FEDDE9002306460F464046494600F0BDFF5246804689465B462846214600F084
:40480000B5FF02460B464046494600F0FBFD02460B463046394600F0F5FD02460B46DDE9020100F0EFFD05B0BDE8F08F164B0026CDE90223154FCAE71049002005B0BDE85D
:40484000F08F00BFAFF30080D43888BEE9FAA8BDC4B1B4BD9EEE213EAD529C804F7E923E9015CB19A001FA3E7751C1166CC1563F4C5555555555A53F0000E03F0000F03FCB
:404880003233D33F0000E93F0000E73F0000D23F2DE9F04F794CADF51D7D1F460B93D31E84FB0354DB17C3EBA403A69E744C23EAE37554F826406B1C26460994A3EB8303FC
:4048C0007C1E0D95029402EBC3032D1B341904900A91089316D42C44013422AEA79F08E057F8250000F0DCFE0135A542E6E9020108D0002DF4DA013500200021A542E6E91A
:404900000201F6D1099B002B2FDB099B74AADDF8089002EBC30B0DF5E47A029B002BC0F295810B9B0026C3EB090824AB03EBC808049B0027A3F1080524AB03EBC904F5E913
:40494000022374E8020100F011FF02460B463046394600F059FD444506460F46EFD1EAE90267DA4509F10109D7D1099B10A91D4603F18043023B9B001A1D0A440B440F922A
:404980000E939CAB03EBC503002D53E928672BDD9CAB03EBC504A83C0DF13C0A0DF5E47B0022384B3046394600F0E0FE01F078F900F076FE0022344B8046894600F0D6FEAA
:4049C00002460B463046394600F01CFD01F068F974E802234AF8040F4946404600F014FD5C4506460F46DBD1089C30463946224600F08AFC00224FF07F5306460F4600F0B9
:404A0000B5FE00F0F9FB0022204B00F0AFFE02460B463046394600F0F5FC0F46064601F03FF9814600F03CFE02460B463046394600F0E8FC002C06460F4640F3EE80681E35
:404A400010AB53F82030C4F1180243FA02F101FA02F29B1AC4F1170810AA42F82030894443FA08F8B8F1000F3DDD002D09F1010940F3D382002214460FA911E0ABAAAA2A42
:404A8000508700000000703E0000704100002040C3F180700BB108600124013295420DDD51F8043F002CF3D0C3F1FF13013203F57F4395420B604FF00104F1DC089B002B30
:404AC0000DDD012B00F0B180022B08D16A1E10AB53F8223010A9C3F3150341F82230B8F1020F00F08180002200233046394601F0A5F8002800F05B82099B05F1FF3B5B45AB
:404B000010DC05F1804310AA013B0F9802EB8303002253F80419834242EA0102F9D1002A40F0B180099B10AA013B52F82330002B40F071820E9A012352F8041901330029D8
:404B4000FAD0E9186A1C8A420C914BDC0D990B985118DB0001F180410593A79B05440139E80003EB810A24ABD20003EB000B74AB13440193A2F10803069007934FF000099C
:404B80005AF8040F00F08CFD029BEBE80201002B4FF000064FF000071BDB069B03EB0904079B09EB030824AB1C449844049BA3F10805F5E9022374E8020100F0D7FD024602
:404BC0000B463046394600F01FFC444506460F46EFD1019B09F10809E3E802670193059B9945CDD10C9DCCE632463B460020B04900F008FC06460F46002C3FF474AF089AC9
:404C00000020AB4900F080FB02460B463046394600F0F8FB06460F4665E710D16B1E10AA52F823304FEAE3581CE76A1E10AB53F8223010A9C3F3160341F822304FE7002214
:404C40009C4B01F019F858B980464CE700260027EAE90267DA4509F101097FF45EAE84E6002D09F10109C8BF4FF002083FF702AF32463B4600208E4900F0C4FB4FF00208DC
:404C800006460F462FE7089A10AB53F82B30183ACDF81490CDF8048008926BB90BF18043013B10A901EB830353F804190BF1FF3B183A0029F8D00892089A00207C4900F060
:404CC00023FBBBF1000F04460D46C0F2B6814FEACB030DF5E87810AA02EB8B0608EB03090493043609F1080756F8040D00F0D8FC22462B4600F03AFD002267E902016E4B8A
:404D00002046294600F032FDB84504460D46EBD14B46CDF818B09B460DF5987ACDF808A0DDF824A04FF00009BAF1000FC0F226815DA3D3E90023DFF884815D46002600270A
:404D4000002403E0A14510DBF8E90223F5E8020100F00CFD02460B463046394600F054FB0134A24506460F46ECDA029BABF1080B03EBC903C3E9006772AB5B4509F1010952
:404D8000D2D1A69BDDF818B0DDF808A0032B00F28380DFE813F0D100950095000400BBF1000F40F35481049BCDF808B053449846D3E90067D34658E9029A32463B46484615
:404DC000514600F021FB04460D4602460B464846514600F017FB32463B4600F015FBC8E9000168E90245C34526462F46E3D1DA46DDF808B0BBF1010F40F32981049B0DF5EC
:404E00009C7B53449846D3E90067994659E902343046CDE902341A463946234600F0F4FA04460D4602460B46DDE9020100F0EAFA32463B4600F0E8FAC9E9000169E90245FA
:404E4000CB4526462F46E1D100231D4608F1080850AC184678E90223294600F0D5FA444503460D46F5D1019A002A00F0D880DAF80440DAF80C200A9FDAF80010DAF8080081
:404E800005F1004504F1004402F100427D613B617C60FA603960B860059B03F007000DF51D7DBDE8F08F00BF00000040FB21F93F0000F03F0000E03F0000703E6087000058
:404EC00000242146049D0835554475E90223204600F09AFA55450446F7D1019B002B50D00A9F01F100450B46DAE9000187E83000224600F087FABBF1000F03460D460DDD02
:404F000001241846FAE90223294600F07DFA0134A34503460D46F4DA019A0AB105F10045184629460A9BC3E90201059B03F007000DF51D7DBDE8F08F00231C46049A083220
:404F4000924418467AE90223214600F05DFA0BF1FF3BBBF1FF3F03460C46F2D1019A0AB104F10044184621460A9BC3E90001059B03F007000DF51D7DBDE8F08F00260027FC
:404F8000F3E626460F4622460A9C0B46DAE90001C4E9006700F036FABBF1000F03460D46AEDC184629460A9BC3E90201BDE7089B30465A423946CDF81490CDF8048000F084
:404FC000A3F900222C4B06460F4600F055FE002840D00022294B3046394600F0C7FB00F05FFE044600F05CFB0022234B00F0BEFB0B4602463946304600F004FA00F050FE52
:40500000089B05F1010B1833089310AB43F8250043F82B4050E6012393E500244EE51846DAE90067DAE9022329460A9DC5E90067C5E90401C5E902232EE7A69B032B3FF621
:405040002BAFDFE803F0151010020DF5987A00231D4608E73046394600F022FE10ABAB4643F8250028E6002421460DF5987A34E700231C4672E700BF000070410000703E07
:405080002DE9F04F21F00046B6F1795F85B00C4690469946054604DA00F002FE002800F085802A4623462846214600F05FFB06460F4602460B462846214600F057FB3EA329
:4050C000D3E9002382468B463046394600F04EFB3BA3D3E9002300F095F932463B4600F045FB39A3D3E9002300F08EF932463B4600F03CFB36A3D3E9002300F083F93246B8
:405100003B4600F033FB34A3D3E9002300F07CF90E9BCDE900019BB30022334B4046494600F024FBDDE90023CDE902015046594600F01CFB02460B46DDE9020100F062F9B8
:4051400032463B4600F012FB42464B4600F05AF923A3D3E9002306460F465046594600F005FB02460B463046394600F04DF902460B462846214600F045F905B0BDE8F08F39
:4051800002460B463046394600F0F0FA14A3D3E9002300F037F952465B4600F0E7FA2A46234600F031F905B0BDE8F08F2846214605B0BDE8F08F00BF7CD5CF5A3AD9E53DDF
:4051C000EB9C2B8AE6E55A3E7DFEB157E31DC73ED561C119A0012A3FA6F810111111813F495555555555C53F0000E03F21F00041704700BF00000000C1F30A522DE9F8438F
:40520000A2F2FF36132E0B4604460D46884607461CDC002E3FDB3A4A864642FA06F901EA0902024317D034A3D3E9002300F0ECF80022002300F02AFD20B1002D40DB28EA5D
:405240000905002738462946BDE8F883332E06DDB6F5806F2FD020461946BDE8F883A2F213424FF0FF3929FA02F910EA090FF2D021A3D3E9002300F0C7F80022002300F051
:4052800005FD0028DED0002D20DB454627EA090738462946D8E718A3D3E9002300F0B4F80022002300F0F2FC0028CBD0002D18DB00273D46C6E702460B4600F0A5F8CCE72A
:4052C0004FF4801343FA06F6B044B8E7142E10D00123C6F1340603FA06F6371928BF9844D3E725F00042074B224318BF1D460027A8E705F10108C8E79C7500883CE4377EF5
:40530000FFFF0F000000F0BFF8B5C1F30A5604460D460B46174606BB21F00043034325D000222F4B00F022FA2E4A044697420D460B462ADBC1F30A56363E40F2FE723E44BD
:40534000964228DC002E12DD23F0FF4323F4E00343EA065520462946F8BD40F2FF729642EBD102460B4600F04FF8F8BDF8BD16F1350F1DDA4CF250339F420CDC14A1D1E927
:40538000000122462B4600F031F811A3D3E9002300F0ECF9F8BD22460FA1D1E900012B4600F024F80CA3D3E9002300F0DFF9F8BD23F0FF4323F4E003363643EA06552046D9
:4053C00029460022084B00F0D1F9F8BDAFF3008059F3F8C21F6EA5019C7500883CE4377E00005043B03CFFFF0000903C03F0004321F0004242EA0301704700BF81F0004167
:4054000002E000BF83F0004330B54FEA41044FEA430594EA050F08BF90EA020F1FBF54EA000C55EA020C7FEA645C7FEA655C00F0E2804FEA5454D4EB5555B8BF6D420CDDDA
:405440002C4480EA020281EA030382EA000083EA010180EA020281EA0303362D88BF30BD11F0004F4FEA01314FF4801C4CEA113102D0404261EB410113F0004F4FEA0333D7
:405480004CEA133302D0524263EB430394EA050F00F0A780A4F10104D5F1200E0DDB02FA0EFC22FA05F2801841F1000103FA0EF2801843FA05F359410EE0A5F120050EF167
:4054C000200E012A03FA0EFC28BF4CF0020C43FA05F3C01851EBE37101F0004507D54FF0000EDCF1000C7EEB00006EEB0101B1F5801F1BD3B1F5001F0CD349085FEA3000E1
:405500004FEA3C0C04F101044FEA445212F5800F80F09A80BCF1004F08BF5FEA500C50F1000041EB045141EA050130BD5FEA4C0C404141EB010111F4801FA4F10104E9D171
:4055400091F0000F04BF01460020B1FA81F308BF2033A3F10B03B3F120020CDA0C3208DD02F1140CC2F10C0201FA0CF021FA02F10CE002F11402D8BFC2F1200C01FA02F195
:4055800020FA0CFCDCBF41EA0C019040E41AA2BF01EB0451294330BD6FEA04041F3C1CDA0C340EDC04F11404C4F1200220FA04F001FA02F340EA030021FA04F345EA0301FD
:4055C00030BDC4F10C04C4F1200220FA02F001FA04F340EA0300294630BD21FA04F0294630BD94F0000F83F4801306BF81F480110134013D4EE77FEA645C18BF7FEA655CF6
:4056000029D094EA050F08BF90EA020F05D054EA000C04BF1946104630BD91EA030F1EBF0021002030BD5FEA545C05D14000494128BF41F0004130BD14F580043CBF01F514
:40564000801130BD01F0004545F0FE4141F470014FF0000030BD7FEA645C1ABF194610467FEA655C1CBF0B46024650EA013406BF52EA033591EA030F41F4002130BD00BFA4
:4056800090F0000F04BF0021704730B54FF4806404F132044FF000054FF0000150E700BF90F0000F04BF0021704730B54FF4806404F1320410F0004548BF40424FF00001A0
:4056C0003EE700BF42004FEAE2014FEA31014FEA02701FBF12F07F4393F07F4F81F06051704792F0000F14BF93F07F4F704730B54FF4607401F0004521F0004120E700BFD0
:4057000050EA010208BF704730B54FF000050AE050EA010208BF704730B511F0004502D5404261EB41014FF4806404F132045FEA915C3FF4DCAE4FF003025FEADC0C18BF3D
:4057400003325FEADC0C18BF033202EBDC02C2F1200300FA03FC20FA02F001FA03FE40EA0E0021FA02F11444C1E600BF70B54FF0FF0C4CF4E06C1CEA11541DBF1CEA135561
:4057800094EA0C0F95EA0C0F00F0DEF82C4481EA030621EA4C5123EA4C5350EA013518BF52EA033541F4801143F4801338D0A0FB02CE4FF00005E1FB02E506F00042E0FBE0
:4057C00003E54FF00006E1FB03569CF0000F18BF4EF0010EA4F1FF04B6F5007F64F5407404D25FEA4E0E6D4146EB060642EAC62141EA55514FEAC52040EA5E504FEACE2E44
:40580000B4F1FD0C88BFBCF5E06F1ED8BEF1004F08BF5FEA500E50F1000041EB045170BD06F0004646EA010140EA020081EA0301B4EB5C04C2BFD4EB0C0541EA045170BD1C
:4058400041F480114FF0000E013C00F3AB8014F1360FDEBF002001F0004170BDC4F10004203C35DA0C341BDC04F11404C4F1200500FA05F320FA04F001FA05F240EA0200F4
:4058800001F0004221F0004110EBD37021FA04F642EB06015EEA430E08BF20EAD37070BDC4F10C04C4F1200500FA04F320FA05F001FA04F240EA020001F0004110EBD370D6
:4058C00041F100015EEA430E08BF20EAD37070BDC4F1200500FA05F24EEA020E20FA04F301FA05F243EA020321FA04F001F0004121FA04F220EA020000EBD3705EEA430E2E
:4059000008BF20EAD37070BD94F0000F0FD101F00046400041EB010111F4801F08BF013CF7D041EA060195F0000F18BF704703F00046520043EB030313F4801F08BF013DE1
:40594000F7D043EA0603704794EA0C0F0CEA135518BF95EA0C0F0CD050EA410618BF52EA4306D1D181EA030101F000414FF0000070BD50EA410606BF1046194652EA430623
:4059800019D094EA0C0F02D150EA013613D195EA0C0F05D152EA03361CBF104619460AD181EA030101F0004141F0FE4141F470014FF0000070BD41F0FE4141F4780170BD7F
:4059C00070B54FF0FF0C4CF4E06C1CEA11541DBF1CEA135594EA0C0F95EA0C0F00F0A7F8A4EB050481EA030E52EA03354FEA013100F088804FEA03334FF0805545EA131372
:405A000043EA12634FEA022245EA111545EA10654FEA00260EF000419D4208BF964244F1FD0404F5407402D25B084FEA3202B61A65EB03055B084FEA32024FF480104FF4BD
:405A4000002CB6EB020E75EB030E22BFB61A754640EA0C005B084FEA3202B6EB020E75EB030E22BFB61A754640EA5C005B084FEA3202B6EB020E75EB030E22BFB61A7546F4
:405A800040EA9C005B084FEA3202B6EB020E75EB030E22BFB61A754640EADC0055EA060E18D04FEA051545EA16754FEA06164FEAC30343EA52734FEAC2025FEA1C1CC0D11F
:405AC00011F4801F0BD141EA00014FF000004FF0004CB6E711F4801F04BF01430020B4F1FD0C88BFBCF5E06F3FF6AFAEB5EB030C04BFB6EB020C5FEA500C50F1000041EB0E
:405B0000045170BD0EF0004E4EEA113114EB5C04C2BFD4EB0C0541EA045170BD41F480114FF0000E013C90E645EA060E8DE60CEA135594EA0C0F08BF95EA0C0F3FF43BAFCF
:405B400094EA0C0F0AD150EA01347FF434AF95EA0C0F7FF425AF104619462CE795EA0C0F06D152EA03353FF4FDAE1046194622E750EA410618BF52EA43067FF4C5AE50EAC5
:405B800041047FF40DAF52EA43057FF4EBAE12E74FF0FF3C06E000BF4FF0010C02E000BF4FF0010C4DF804CD4FEA410C7FEA6C5C4FEA430C18BF7FEA6C5C1BD001B050EA5D
:405BC000410C0CBF52EA430C91EA030F02BF90EA020F0020704710F1000F91EA030F58BF994208BF90422CBFD8176FEAE37040F0010070474FEA410C7FEA6C5C02D150EAF8
:405C0000013C07D14FEA430C7FEA6C5CD6D152EA033CD3D05DF8040B704700BF8446104662468C461946634600E000BF01B5FFF7B7FF002848BF10F1000F01BD4DF808ED1D
:405C4000FFF7F4FF0CBF012000205DF808FB00BF4DF808EDFFF7EAFF34BF012000205DF808FB00BF4DF808EDFFF7E0FF94BF012000205DF808FB00BF4DF808EDFFF7CEFFFD
:405C800094BF012000205DF808FB00BF4DF808EDFFF7C4FF34BF012000205DF808FB00BF4FEA410212F5001215D211D56FF47873B3EB625212D94FEAC12343F0004343EA4E
:405CC000505311F0004F23FA02F018BF404270474FF00000704750EA013005D111F0004008BF6FF0004070474FF00000704700BF4FEA4102B2F1E04324BFB3F5001CDCF192
:405D0000FE5C0DD901F0004C4FEAC0024CEA5070B2F1004F40EB830008BF20F00100704711F0804F21D113F13872BCBF01F00040704741F480114FEA5252C2F11802C2F1D0
:405D4000200C10FA0CF320FA02F018BF40F001004FEAC1234FEAD32303FA0CFC40EA0C0023FA02F34FEA4303CCE77FEA625307D150EA01331EBF4FF0FE4040F44000704726
:405D800001F0004040F0FE4040F40000704700BF80F0004002E000BF81F0004142001FBF5FEA410392EA030F7FEA226C7FEA236C6AD04FEA1262D2EB1363C1BFD218414068
:405DC00048404140B8BF5B42192B88BF704710F0004F40F4000020F07F4018BF404211F0004F41F4000121F07F4118BF494292EA030F3FD0A2F1010241FA03FC10EB0C006C
:405E0000C3F1200301FA03F100F0004302D5494260EB4000B0F5000F13D3B0F1807F06D340084FEA310102F10102FE2A51D2B1F1004F40EBC25008BF20F0010040EA030042
:405E40007047490040EB000010F4000FA2F10102EDD1B0FA80FCACF1080CB2EB0C0200FA0CF0AABF00EBC25052421843BCBFD0401843704792F0000F81F4000106BF80F4E6
:405E800000000132013BB5E74FEA41037FEA226C18BF7FEA236C21D092EA030F04D092F0000F08BF0846704790EA010F1CBF0020704712F07F4F04D1400028BF40F000406C
:405EC000704712F100723CBF00F50000704700F0004343F0FE4040F4000070477FEA226216BF08467FEA23630146420206BF5FEA412390EA010F40F4800070474FF000030D
:405F000004E000BF10F0004348BF40425FEA000C08BF704743F0964301464FF000001CE050EA010208BF70474FF000030AE000BF50EA010208BF704711F0004302D5404293
:405F400061EB41015FEA010C02BF84460146002043F0B64308BFA3F18053A3F50003BCFA8CF2083AA3EBC25310DB01FA02FC634400FA02FCC2F12002BCF1004F20FA02F2DB
:405F800043EB020008BF20F00100704702F1200201FA02FCC2F1200250EA4C0021FA02F243EB020008BF20EADC7070474FF0FF3C06E000BF4FF0010C02E000BF4FF0010C4E
:405FC0004DF804CD4FEA40024FEA41037FEA226C18BF7FEA236C11D001B052EA530C18BF90EA010F58BFB2EB030088BFC81738BF6FEAE17018BF40F0010070477FEA226C0B
:4060000002D15FEA402C05D17FEA236CE4D15FEA412CE1D05DF8040B704700BF844608466146FFE70FB5FFF7C9FF002848BF10F1000F0FBD4DF808EDFFF7F4FF0CBF0120D3
:4060400000205DF808FB00BF4DF808EDFFF7EAFF34BF012000205DF808FB00BF4DF808EDFFF7E0FF94BF012000205DF808FB00BF4DF808EDFFF7D2FF94BF012000205DF8E1
:4060800008FB00BF4DF808EDFFF7C8FF34BF012000205DF808FB00BF4FEA4002B2F1FE4F0FD34FF09E03B3EB12620DD94FEA002343F0004310F0004F23FA02F018BF40422E
:4060C00070474FF00000704712F1610F01D1420205D110F0004008BF6FF0004070474FF000007047014B1868704700BF6081FF1F0E4B70B51E460E4C0025E41AA410A54206
:4061000004D056F8253098470135F8E702F0FAFB084B094C1E46E41AA4100025A54204D056F8253098470135F8E770BD1089000010890000108900001889000010B5431E19
:406140000A44914204D011F8014B03F8014FF8E710BD03460244934202D003F8011BFAE770472DE9F04788B0149F002B1E461299B8BF03F1004327F02007B6BF1E4600239F
:406180002D23462F1446109DDDF84CA00B7003D0452F03D1013501E0032300E0022307AA049206AA03928DE828042246334600F003FD472F804602D1119BDB0728D5462F6D
:4061C00008EB050911D198F80030302B0AD10022002320463146FFF731FD18B9C5F10105CAF80050DAF8003099440022002320463146FFF723FD08B9302202E0CDF81C9064
:4062000006E0079B994503D9591C07911A70F8E74046079B159AC8EB0303136008B0BDE8F087034673B50029B8BF494203F8022BB4BF2D222B22092942701ADD0DF107021A
:4062400016460A2591FBF5F405FB1411092C01F1300102F8011D2146F4DC3031541E02F8011CB4421A460AD214F8012B03F8012BF7E71A463024214402F8024B5970101AA6
:4062800002B070BD2DE9F04F91B00C46DDF8688016461F46054601F027FA03681846099300F0F4FB00230E93D8F800300A90073323F0070303F1080294F81890D4F800B095
:4062C000C8F80020D3E90023C4E91223D4F84CA0D4F848802AF000430B934FF0FF32A74B40460B9901F054FFA0B94FF0FF32A34B40460B99FFF7B6FC60B900220023404679
:406300005146FFF7A5FC10B12D2384F843309C4B9C4A0AE0424653464046514601F038FF002800F09281984B984AB9F1470F8CBF90469846032323612BF0040323604FF095
:40634000000A3DE0B9F1670F00F08A81B9F1470F00F0868123600193636800210DF13302059002920093424653460691CDF81090CDF80CE02846FFF7F4FE09F0DF03472B81
:40638000804600F08481B9F1650F0D9900F28D8101394A4604F150000D91FFF742FF0E9A82468318012A236100F37C812268D10700F178819DF8333013B12D2384F8433089
:4063C000009733460FAA2146284600F09FF9013002D14FF0FF3096E123685A0501D4236965E0B9F1650F40F2D580D4E9120100220023FFF723FC78B30123654A314628464C
:40640000B8470130E5D00E9B0D9A9A420BDB2368D80708D423689B0740F111814FF0000804F1190906E10A9B099A31462846B8470130CED04FF0000804F11A090E9B013BAB
:406440009845E7DA01234A4631462846B8470130BFD008F10108F1E70D9B002B29DC01234B4A31462846B8470130B2D00D9B23B90E9B13B92368D907CCD50A9B099A314660
:406480002846B8470130A4D04FF0000904F11A0A0D9B5B42994509DA0123524631462846B847013095D009F10109F1E70E9B4246A7E00E9AA36D9A42A8BF1A46002A91463D
:4064C00006DC4FF0000A29EAE97904F11A0B11E01346314642462846B8470130F1D178E701235A4631462846B84701303FF471AF0AF1010AA36DC9EB03029245F0DB08EB4A
:4065000003090D9A0E9B9A420FDB2368DA070CD40E9B0D9A9844C9EB08089B1A9845A8BF9846B8F1000F08DC0FE00A9B099A31462846B8470130EBD14BE743464A463146C0
:406540002846B84701303FF444AF4FF0000928EAE87804F11A0A09E00123524631462846B84701303FF435AF09F101090D9A0E9B9B1AC8EB03039945EEDB4BE7FFFFEF7FAC
:40658000A2870000A6870000AA870000AE870000B28700000E9A012A01DCDB0738D50123424631462846B84701303FF412AF0A9B099A31462846B84701303FF40AAFD4E98C
:4065C000120100220023FFF739FB20B14FF0000804F11A090EE00E9B08F10102013B19E001234A4631462846B84701303FF4F1AE08F101080E9B013B9845F1DB534604F168
:40660000500231462846B84701307FF403AFE0E64246012331462846B8470130EED1D8E601234A4631462846B84701303FF4D1AE08F10108E3680F9A9B1A9845F0DBE068B4
:406640000F9B9842B8BF18465DE062680EA8531C0DF1340E4BF480637FF474AE062201E012B90122626075E6002106910DF133018DE80C00236005904246CDF81090CDF855
:406680000CE0029153462846FFF76BFD80460D9BD81C02DB626893421DDDA9F102095FFA89F970E60133236184E6B9F1660F14D10029636807DD216113B92268D2071DD5A7
:4066C00001330B4419E013B92268D00701D5023313E0012311E04FF067090D9B0E9A934205DB22682361D10708D5013305E0002BD4BFC3F102030123134423610D9B4FF0F1
:40670000000AA36556E611B0BDE8F08F2DE9F04791461F460A698B6806469342B8BF1346C9F8003091F843200C46DDF8208012B10133C9F800302368990642BFD9F800308E
:406740000233C9F80030256815F0060510D104F1190A07E00123524639463046C04701301AD00135E368D9F800209B1A9D42F1DB94F843302268003318BF012392060FD59E
:40678000E118302081F843005A1C94F845102244023382F8431003E04FF0FF30BDE8F08704F1430239463046C0470130F4D02268D9F80050E36802F00602042A08BF5D1B20
:4067C0002269A3680CBF25EAE57500259342C4BF9B1AED184FF000091A344D4509D00123224639463046C0470130D5D009F10109F3E70020BDE8F0872DE9F04317460A7EF1
:4068000085B06E2A984606460C460C9B01F1430E00F0AE8011D8632A22D009D8002A00F0BB80582A40F0CA8081F84520834955E0642A1ED0692A1CD0C0E0732A00F0B08036
:4068400009D86F2A2ED0702A40F0B8800A6842F020020A603EE0752A24D0782A3AD0ADE01A6801F14205111D1960136884F84230A8E021681A6811F0800F02D0111D19601D
:4068800008E011F0400F02F10401196002D0B2F9003000E01368002B3CDA2D225B4284F8432037E021681A6811F0800F02D0111D196007E011F0400F02F10401196001D077
:4068C000138800E01368227E5C496F2A14BF0A2208221BE078225A4984F845202268186812F0800F00F104051D6003D1550601D5038800E00368D00744BF42F020022260E5
:406900001BB9226822F0200222601022002084F8430001E049490A226568002DA56008DB206820F0040020602BB9002D7DD175460CE0002B79D07546B3FBF2F002FB103390
:40694000CB5C05F8013D03460028F5D1082A0BD12368DA0708D5236962689A42DEBF302305F8013C05F1FF35C5EB0E0323612EE008681A6810F0800F496903D0101D1860A3
:40698000136808E010F0400F02F104001860136801D0198000E0196000232361754616E01A68111D1960156800216268284600F0A7FE08B1401B6060636804E004F14205CD
:4069C00084F8422001232361002384F84330CDF800803B4603AA21463046FFF797FE013002D14FF0FF3026E023692A4639463046C0470130F5D023689B0710D5002504F192
:406A0000190907E001234A4639463046C0470130E7D00135E368039A9B1A9D42F2DBE068039B9842B8BF184605E00B7804F1420584F842308AE705B0BDE8F083B487000096
:406A4000C58700000EB400B54FF402719CB0ADF814106FF00041049107914FF6FF711DAB02900690084853F8042BADF81610006802A9019301F03AFA029B00221A701CB0A0
:406A80005DF804EB03B070476081FF1F034613F8012B002AFBD1181A013870472DE9F74F03690C6980469C427FDC013C01F114074FEA840E00F1140606EB0E0357F8245070
:406AC000019356F824300135B3FBF5F507EB0E09C5B34FF0000A3846B446D34650F8043B9AB205FB02A21B0C4FEA124A05FB03A392B2C2EB0B0BBCF800204FEA134A5A444F
:406B00001FFA83FBDCF800308145CBEB134303EB224392B242EA03424FEA234B4CF8042BDCD256F80E306BB9019B043B9E421A4602D3C8F8104005E01268043B002AF8D1D7
:406B4000013CF3E7404600F0F6FF00282BDB304601354FF0000E57F8042B036891B2C1EB0E0E120C99B27144C2EB134303EB214389B24FEA234EB94541EA034340F8043B3A
:406B8000E9D256F8242006EB840362B9043B9E421A4602D3C8F8104005E01268043B002AF8D1013CF3E7284600E0002003B0BDE8F08F0000000000002DE9F04F456A95B05B
:406BC0008246219CCDE9022345B9102000F090FDCAF82400456085600560C560DAF82430196859B15A68012393404A608B60504600F0C9FDDAF8243000221A60039BA04AFB
:406C0000002BBDBF01232360039B0023BCBF23F000430393DDF80C80A8BF236028F000431B0D1B0593421DD142F20F73209A1360029B43B9934A944BC8F31300002814BF2C
:406C40001846104600E09048229B002B00F04685C37813B100F1080300E0C31C229A136000F03CBDDDE902450022002320462946FEF7E4FF074658B1209A01231360229BD0
:406C8000002B00F01E8581481860013800F026BD12AB019313AB009322462B46504600F0C5FFC8F30A56049056B1C5F3130343F07F51204641F44011A6F2FF3611971DE01F
:406CC000139B129E1E4406F23243202B0ADD029A06F21240C3F1400322FA00F008FA03F3184304E0C3F12000029B03FA00F0FEF7C7FC0123A1F1F871013E11930022644B2C
:406D0000FEF780FB58A3D3E90023FEF72FFD58A3D3E90023FEF778FB044630460D46FEF7BFFC55A3D3E90023FEF720FD02460B4620462946FEF768FB04460D46FEF7B0FFF3
:406D400000228346002320462946FEF781FF58B15846FEF7A5FC02460B4620462946FEF76DFF08B90BF1FF3BBBF1160F0DD8DDE90223484901EBCB01D1E90001FEF786FF99
:406D800030B10BF1FF3B002300E00123109300E01090129B9E1B731E079343BFC3F10008002307934FF00008BBF1000F06DB079BCDF82CB05B440793002705E00023CBEB22
:406DC0000808CBF100070B931E9B092B28D8052BC4BF043B1E931E9BC8BF0025A3F10203D8BF0125032B20D8DFE803F0060E0204012302E0012308E000230A931F9B002B26
:406E00001DDD9946059321E000230A931F9B0BEB030909F10103012B0593B8BF012315E0012500231E930A9501E001230A934FF0FF390022CDF8149012231F9206E04FF0CA
:406E400001094B46CDF81490CDF87C90DAF8244000226260042101F114029A421CD86268490001326260F6E761436F63A787D23FB3C8608B288AC63FFB799F501344D33FA3
:406E80000000F07FD6870000DF870000B38700000000F83FF08700006168504600F03EFCDAF8243020601B680693059B0E2B00F25B81002D00F05881DDE90234BBF1000F19
:406EC000CDE90E3430DD9F4A0BF00F034FEA2B1502EBC303E80618CBCDE908340CD5DDE90E01994B05F00F05D3E90823FEF768FD0324CDE9020100E00224934E6DB1E907EF
:406F000008D5DDE90801D6E90023FEF72FFCCDE9080101346D100836F0E7DDE90823DDE90201FEF74DFD20E0CBF1000505B3DDE90E01844B05F00F0203EBC203D3E900236F
:406F4000FEF714FCCDE902017F4E2D110023022455B1EA0705D5D6E90023FEF707FC013401236D100836F3E71BB1CDE9020100E00224109BE3B1DDE902560022734B284630
:406F80003146FEF765FE98B1059B8BB1B9F1000F40F3E6800BF1FF330893314600226C4B2846FEF7E3FB0134CDE902014E4602E0059ECDF820B02046FEF772FBDDE90223E2
:406FC000FEF7D4FB634B0022FEF71EFAA1F1507304460C931D46D6B9DDE9020100225E4BFEF710FA22460C9BCDE90201FEF74EFE002840F03F820C99224601F10043DDE903
:407000000201FEF725FE002840F02B82A8E00A9A4C4B711E002A49D003EBC103D3E9002300204E49FEF7CCFC22462B46FEF7EAF9CDE90C01069CDDE90201FEF731FE054648
:40704000FEF72EFB02460B46DDE90201FEF7DAF9DDE90C23303504F8015BCDE90201FEF7F7FD002840F01D83DDE9022300203749FEF7C8F9DDE90C23FEF7EAFD002840F012
:40708000D180069BE31AB3426ADADDE90C0100222F4BFEF76BFB0022CDE90C01DDE902012B4BFEF763FBCDE90201C4E703EBC1012246D1E900012B46FEF758FB069BCDE920
:4070C0000C011D469C19DDE90201FEF7E9FD0646FEF7E6FA02460B46DDE90201FEF792F9303605F8016BAC42CDE902014FF0000222D11A4BDDE90C01FEF786F902460B46D5
:40710000DDE90201FEF7C2FD002840F08B80DDE90C2300201149FEF775F902460B46DDE90201FEF795FDD8B114F8013C621E302B40F0B7821446F7E7054BFEF717FBCDE959
:407140000201C0E7F0870000C88800000000F03F0000244000001C40000014400000E03FDDE90E34CDE90234139B002B7CDBBBF10E0F79DCAB4B03EBCB03D3E900671F9B6B
:40718000002B14DA059B002B11DC40F06C810022A54B30463946FEF7E9FADDE90223FEF76BFD059D2E46002840F05F8165E1069CDDE9028932463B4640464946FEF700FC34
:4071C000FEF76EFD0546FEF76BFA32463B46FEF7CDFA0B46024649464046FEF713F905F1300E069B04F801EBC3EB040E059B73452DD102460B46FEF707F9804689460246E8
:407200000B4630463946FEF723FD78B942464B4630463946FEF712FD002800F04482EB0704D440E2DDF820B000E01C4614F8012C631E392A07D1069A9A42F6D106993022D6
