:400000000080002011000000391F0000391F000008B5044B1A6803F53F5302331A6001F0ABFF00BFFA46004010B5054C237833B9044B13B10448AFF300800123237010BD1C
:40004000A081FF1F00000000EC770000084B10B51BB108490848AFF300800848036803B910BD074B002BFBD0BDE81040184700BF00000000A481FF1FEC770000C880FF1F8C
:400080000000000008B500F023FF08BD08B5642002F032F8034B1B6813B10122014B5A6008BD00BFBC81FF1F2DE9F04182B062B602F012F802F09AF8BE4802F0B1F802F00E
:4000C000DFFB02F0C1FD002002F0D0FDBA4C207A02F088FD0025E560284602F0E5FF012002F0DCFF4FF4FA7002F006F8022002F0D5FF4FF4FA7001F0FFFF032002F0CEFFE1
:400100004FF4FA7001F0F8FF284602F0C7FF4FF4FA7001F0F1FF00F01DFD02F08DFF4FF47A7002F041FF4FF4FA7001F0E5FF02F097FF02F0DFFE4FF48C6002F093FE4FF4C1
:40014000FA7001F0D9FF02F0E3FE03F015F903F0EDF9284603F0BAF8284603F091F903F047F903F01FFA03F031F803F077F8DFF870820327C8F8007002F0F6FD02F09CFD51
:400180008E4802F0DFFF8E4802F0B4FF012626608C4802F045F800F009FF00F007FF00F005FF65602561884B1E60A582E68225836683C8F80060E66102232362676201F005
:4001C0002BFC7D4B5B68012B4CD101F0ABF901230193AA23009304231A4600216FF0630001F056F800F0B6FC00240AE000F0E6FC714B03EB840398624FF4FA7001F07CFFE8
:400200000134042CF2DD714802F00AF800240CE0694B03EB84036E4D9A6A6E49284605F02BFF284601F0FCFF0134042CF0DD012002F03AFF0122604BDA6000231A460CE052
:400240005D4901EB8301886A30B1032A04D05A4901EB8201C86101320133042BF0DD0222554B5A60544B5B68022B40F05C810122AA216FF0220001F033FB0122AA216FF001
:40028000630001F06DFA0122AA21232001F028FB0123AA2223216FF0630001F085FB01210191AA23009300230422822000F0F0FF01F038F9022000F02FFE02E0022000F0A4
:4002C0002BFE454B9C68B4F58C7FF7DCC4F5037401343F4D22464149284605F0CDFE284601F09EFF01230193AA230093032304220021204600F0CCFF4FF47A71022000F0C7
:40030000CBFD01F0FBF9002000F006FE3C2001F0F3FE314D2B689633274EB364032000F0FBFD3C2001F0E8FE022000F0F5FD3C2001F0E2FEAB6803F1DC02EB681344736483
:400340009C4217DA0122AA216FF02C0001F008FA032000F0E1FD3C2001F0CEFE022000F0DBFD3C2001F0C8FEAB6803F1DC02EB681344736401230193AA2300930323052270
:400380000021204600F084FF4FF47A71022000F083FD114B1B696433074A1364C3F59662D31A5A2B1EDD044A536CC3F58A630633D3631DE0F0770000BC81FF1F85000000C2
:4003C0008D00000008780000CC80FF1F28780000D482FF1F3C7800004882FF1F447800000083FF1FB34A536CC3F56D730233D363AA21012000F0E6FE01240194AA250095DC
:40040000002304222146962000F042FF01F08AF80194009502230022042140F29D3000F037FF002000F078FD3C2001F065FE042000F072FD3C2001F05FFE9F4B1B6896335F
:400440009C4A126C93420BDA9A4A1365C3F56873023393654FF47A71022000F01DFD3FE04FF47A71012000F017FD01250195AA24009404231A460021C82000F009FF214669
:40048000032000F09FFE01950094002304222946962000F0FDFE01F045F80195009403230022042140F29D3000F0F2FE4FF47A71022000F0F1FC002000F02EFD3C2001F0B0
:4004C0001BFE042000F028FD3C2001F015FE7A4B1B689633774A9365C3F5B76306331365744B1B6CB3F5847F02DD0122714B9A82704B9B6CB3F5847F02DD01226D4BDA82AF
:400500006C4B1B6DB3F5847F02DD0122694B9A82684B9B6DB3F5847F02DD0122654B9A820322644B5A60634B5B68032B40F0B680604BB3F914204AB3B3F9183033B30124B1
:400540000194AA250095002305221946E62000F09FFE00F0E7FF2946002000F033FE00F0E1FF01940095002304222146822000F08FFE2946032000F025FE01940095002305
:4005800004222146322000F083FE87E0494BB3F9163053B34749B1F91A1031B301240194AA25009504231A460021F02000F070FE00F0B8FF2946002000F004FE00F0B2FFB3
:4005C00001940095002304222146822000F060FE2946204600F0F6FD01940095002304222146322000F054FE58E05AB3314AB2F91A203AB301240194AA25009504231A46D4
:4006000000214FF4877000F043FE00F08BFF2946002000F0D7FD00F085FF01940095002304222146822000F033FE2946204600F0C9FD01940095002304222146322000F0A9
:4006400027FE2BE053B31B4BB3F9183033B301240194AA25009504231A4600214FF4877000F016FE00F05EFF2946002000F0AAFD00F058FF019400950023042221468220CA
:4006800000F006FE2946032000F09CFD01940095002304222146322000F0FAFD054B5B68042B57D10123054A1360024AD361D365002537E0BC81FF1F4882FF1FCC80FF1F27
:4006C00001224621322001F04BF80221012000F0DDFC00F073FA04460221032000F0D6FC0122AA216FF0310001F03AF8BE4B1B685A1EBE4B03EB8203DB699C4211D00122E7
:40070000AA212D2001F0ECF80122AA216FF01D0001F026F80122AA216FF01D0001F0E0F800E00125002DCBD00221002000F0AEFC022000F005FD00F071FC0221032000F0CE
:40074000A5FC0122AA216FF03B0001F009F80022A64BDA65A54B5B68052B40F0E780A34BB3F914206AB3B3F9183053B301240194AA25009504231A460021642000F088FDEE
:400780002946002000F01EFD00F0CCFE0194009504231A460021F02000F07AFD00F0C2FE2946204600F00EFD00F0BCFE01940095002304222146822000F06AFD00F0B2FEFF
:4007C000B1E08A4BB3F91630002B53D08749B1F91A1000294ED001240194AA25009504231A460021642000F053FD2946002000F0E9FC00F097FE0194009504231A46002123
:40080000F02000F045FD00F08DFE2946204600F0D9FC00F087FE01940095002304222146822000F035FD00F07DFE0194009504231A460021F02000F02BFD00F073FE294619
:40084000002000F0BFFC00F06DFE01940095002304222146822000F01BFD2946204600F0B1FC01940095002304222146322000F00FFD58E05AB35D4AB2F91A203AB3012451
:400880000194AA25009504231A4600214FF4877000F0FEFC00F046FE2946002000F092FC00F040FE01940095002304222146822000F0EEFC2946204600F084FC019400953F
:4008C000002304222146322000F0E2FC2BE053B3464BB3F9183033B301240194AA25009504231A4600214FF4877000F0D1FC00F019FE2946002000F065FC00F013FE019472
:400900000095002304222146822000F0C1FC2946032000F057FC01940095002304222146322000F0B5FC0622304B5A602F4B5B68062B40F0DA80012002F0B6FB2B4C0223CC
:40094000E36000F05DFB00F005F94FF4FA6001F0D3FB00F063FB00F031F9234B1E68236904EB8304E3699E4227D101240194AA25009500230522194640F2262000F088FC6D
:400980002946002000F01EFC2946032000F01AFC01940095002304222146FA2000F078FC00F0C0FD01940095002304222146FA2000F06EFC00F0B6FD24E00C4B1B6A9E4250
:4009C00003D00A4B5B6A9E4212D101230193AA23009300230522194640F20D2000F058FC00F0A0FD0EE000BFCC80FF1FBC81FF1F01230193AA230093002305221946FA2009
:400A000000F046FCAA21022000F0DCFB4F4C20690121084400F03AFB23694BB901210191AA23009300230422962000F031FC09E000230193AA2300930123042219465A2036
:400A400000F026FC414B186903EB8003DB699E4203D1022100F01AFB03E00221002000F015FB00F0CDFA394B18690221013000F00DFB374B1B68022B03DD0722334B5A6025
:400A800033E00133324A1360304E3369013333610022AA216FF0950000F062FEAA21032000F090FB00F03EFD01240194AA25009500230522194640F2262000F0E9FB00F056
:400AC00031FD2946022000F07DFB2946204600F079FB01940095002304222146B92000F0D7FB00F01FFD06237360184B5B68072B7FF465AB00240194AA2500952346052291
:400B00002146D22000F0C4FB2946032000F05AFB00F008FD0126019600953346052221464FF4027000F0B4FB324629465A2000F0D7FE0196009504231A462146282000F0BB
:400B4000A7FB0221204600F0A1FAFEE7BC81FF1FCC80FF1F30B585B0002400940194029403940FE0E0B202F099FA0A2001F0C4FA01F0F8FE04AB03EB840504F003FD45F864
:400B8000100C0134032CEDDD002002F087FA074B009A1A60064B019A1A60064B029A1A60054B039A1A6005B030BD00BF3083FF1F3483FF1F2C83FF1F3C83FF1FF0B585B033
:400BC000002400940194029403940FE0E0B202F065FA0A2001F090FA01F0C4FE04AB03EB840504F0CFFC45F8100C0134032CEDDD002002F053FA009F784B1F60019C784B45
:400C00001C60029D774B1D60039E774B1E60774B1B68032B00F2B780DFE803F0024E77957349744B186804F0F9FB0146204604F04BFDA8B16E49704B186804F0EFFB01468B
:400C4000284604F041FD58B169496C4B186804F0E5FB0146304604F037FD002840F09C802946204604F04EFD30B13146204604F049FD002840F092803146284604F042FD27
:400C800030B12946204604F01FFD002840F088803146284604F018FD002800F083803146204604F011FD00287ED02946204604F00BFD00287AD18EE05149204604F004FD09
:400CC00050B14F49284604F0FFFC28B14C49304604F0FAFC00286BD12946204604F012FD28B13146204604F00DFD002862D13146284604F007FD00285ED02946204604F0E9
:400D0000E3FC00285AD1032065E03E49204604F0F9FC50B13B49284604F0F4FC28B13A49304604F0D1FC00284AD13849204604F0E9FC002846D13649284604F0E3FC0028AF
:400D400042D0022047E03349204604F0DBFC70B13049284604F0D6FC48B12E49304604F0B3FC20B12C49384604F0CCFC70BB2749204604F0C7FC58BB2449284604F0C2FC3C
:400D800040B3022027E0254801F04AFA40F6B83001F0B2F900201EE000201CE001201AE0022018E0002016E0002014E0032012E0002010E001200EE003200CE002200AE0D3
:400DC000002008E0012006E0032004E0002002E0012000E0032005B0F0BD00BF1883FF1F1C83FF1F6883FF1F3883FF1FC881FF1F0000FA443483FF1F2C83FF1F3C83FF1F1A
:400E00000000FA4500007A4600803B460050C34600F0D24600A08C4600007A457878000030B585B0002400940194029403940FE0E0B202F033F90A2001F05EF901F092FD0B
:400E400004AB03EB840504F09DFB45F8100C0134032CEDDD002002F021F9002413E004AB03EB840353F8100C03F0BCFF02F0CCFC074D02460B460749284605F0FDF8284600
:400E800001F0CEF90134032CE9DD05B030BD00BFD482FF1F9C78000070B506460D4602F009F90446002002F0FFF8F0B202F0F6F8284601F021F9002002F0F0F84FF496701E
:400EC00001F01AF9204602F0EFF870BD0000000038B501F0F1FE01F007FF0D4C206001F0DDFE0C4B1D682068C0F5803003F068FF05A3D3E9002303F0C9FF04EB850404F048
:400F00005FFA606038BD00BF2BDF3312A111C63F4482FF1F6C83FF1F10B50446C0B201F06DFF204B1C6001F01FFF042C36D8DFE804F0030D17212B00012001F023FF0A204F
:400F400001F0F0F8002001F01DFF10BD012001F025FF0A2001F0E6F8002001F01FFF10BD012001F027FF0A2001F0DCF8002001F021FF10BD012001F029FF0A2001F0D2F82F
:400F8000002001F023FF10BD012001F02BFF0A2001F0C8F8002001F025FF10BD024801F03FF910BD6C83FF1FB078000038B50F4801F036F9002412E02046FFF7ADFF3C20C5
:400FC00001F09AF80A4B03EB84030A4D5A680A49284605F051F8284601F022F90134042CEADD064801F01CF938BD00BFC47800004482FF1FD482FF1FE0780000E878000092
:4010000008B501F099FF4FF48C6001F02BFF4FF4FA7001F071F801F07BFF08BD08B501F08BFF40F2E24001F01DFF4FF4FA7001F063F801F06DFF08BDA0F57A73B3F5AF6FED
:4010400021D870B5054602F01FF802F003F80446281A0D4E86FB0036C017C0EBA60606E03444A0B201F0A0FF0A2001F045F8AC42F6D1A8B201F098FF4FF4FA7001F03CF844
:4010800001F0EEFF70BD70476766666638B505460C46012905D101F04FFF40F2E24001F0E1FE2CB901F048FF4FF48C6001F0DAFE032D17D8DFE805F002070C114FF4166019
:4010C000FFF7BAFF12E040F2A460FFF7B5FF0DE040F2E240FFF7B0FF08E04FF47A70FFF7ABFF03E04FF41660FFF7A6FF012C01D801F00EFF38BD00BF38B501220E4B5A60C2
:4011000002210320FFF7C2FF002512E002210120FFF7BCFFFFF752FD044602210320FFF7B5FF064B1A68044B53F822309C4200D10125002DEAD038BDD881FF1FCC80FF1FD6
:4011400038B50446002002F04FFA002002F052FA02F064F9462002F0B9F802F039FA462002F08EF9FFF74CFF012001F09DFF124B1C6000240EE0FFF721FD04460A2000F0D1
:40118000BBFF0E4D22460E49284604F075FF284601F046F8002CEED0002001F0E9FF002002F02EF802F024F902F0FCF901226421252000F0D5FA38BDC881FF1FD482FF1F5B
:4011C000EC78000010B504460B4B1B68C31A5A2000FB03F0B0F5877F02D013F5877F04D1064B83FB0023C3EBE070012200F078FB014B1C6010BD00BF0083FF1F565555553E
:4012000010B51F4B1B68012B33D0A0B90420FFF783FE322000F070FF1A4B1A69531E532B29D8194C1949204604F026FF204600F0F7FF012010BD01281AD10020FFF76CFE3C
:40124000322000F059FF0120FFF766FE322000F053FF0C4B1A68531E532B0ED80A4C0B49204604F009FF204600F0DAFF012010BD10BD002010BD002010BD002010BD00BF9B
:401280001882FF1F4882FF1FD482FF1FF47800002DE9F04F85B08146039190461C460E9E012905D1002002F09FF9002002F0A2F9039B2BB9012002F097F9012002F09AF9C3
:4012C00040F21452904B43F8242011E02046FFF723FE322000F010FF8B4B53F824508B4F2A468B49384604F0C7FE384600F098FF854B53F82430B3F5966FE7DC02F08EF8F7
:40130000F7B2384601F0E2FF02F062F9384602F0B7F8B8F1050F69D17E4800F081FF37464FF0000A6FF4E0730293C34653E001F017FF804601F05CFF804507DDBE4202D139
:40134000043E043702E033463E461F46804507DABE4202D1043F043602E033463E461F46F0B201F0B3FFF8B202F08AF82046FFF7D3FD322000F0C0FE634B53F824502A4606
:401380006349624804F078FE604800F049FF88EAE870A0EBE87003F013FDCDE90001029803F00EFD56A3D3E9002303F0BDFB0022594B03F0B7FB02460B46DDE9000103F04D
:4013C000F5FF40B10F9B012B05D10398FFF718FF8246CDF8088089EAE973A3EBE9739D420BDABAF1000FA2D0D84607E037464FF0000A6FF4E073029300E0D846B8F1040F26
:401400005FD1464800F00CFF52E001F0A9FE804601F0EEFE804507DDBE4202D1043E043702E033463E461F46804507DABE4202D1043F043602E033463E461F46F0B201F07C
:4014400045FFF8B202F01CF82046FFF765FD322000F052FE2C4B53F82450DFF8B0B02A462B49584604F008FE584600F0D9FE88EAE870A0EBE87003F0A3FCCDE9000102984A
:4014800003F09EFC1EA3D3E9002303F04DFB0022214B03F047FB02460B46DDE9000103F085FF28B10398FFF7ABFE8246CDF8088089EAE973A3EBE9739D4202DDBAF1000FD1
:4014C000A3D02046FFF728FD322000F015FE0F4D0D4B53F824201249284604F0CDFD284600F09EFE002001F043FE002001F088FE01F07EFF02F056F805B0BDE8F08F00BFB0
:4015000066666666661A7C404882FF1FD482FF1FE078000014790000000059402C7900004079000070B54FF4967429E00020FFF7F3FC322000F0E0FD684E694C694D326845
:401540002146284604F098FD284600F069FE0120FFF7E2FC322000F0CFFD72682146284604F08AFD284600F05BFE34687368E41A22465D49284604F07FFD284600F050FE57
:4015800084EAE473A3EBE473B3F5487FCEDC002C3CDD002002F028F8012002F02BF829E001F03CFF192001F091FE02F011F8192001F066FF0020FFF7AFFC322000F09CFDA7
:4015C0000120FFF7A9FC322000F096FD434B1A685B68D41A434D4549284604F04DFD284600F01EFE22464049284604F045FD284600F016FE84EAE473A3EBE473032B41DD58
:40160000002C3FDDB3F5487FCADB3BE0012001F0EBFF002001F0EEFF29E001F0FFFE192001F054FE01F0D4FF192001F029FF0020FFF772FC322000F05FFD0120FFF76CFC0F
:40164000322000F059FD254B1A685B68D41A254D2749284604F010FD284600F0E1FD22462449284604F008FD284600F0D9FD84EAE473A3EBE473032B04DD002C02DDB3F5C6
:40168000487FCADB0020FFF747FC322000F034FD0120FFF741FC322000F02EFD0F4B1A685B68D41A0F4D1449284604F0E5FC284600F0B6FD22460F49284604F0DDFC28462E
:4016C00000F0AEFD84EAE473A3EBE473002B3FF75EAF01F08DFE01F065FF70BD4882FF1FE0780000D482FF1F4C790000607900006C790000787900008479000008B5002037
:40170000FFF70AFC3C2000F0F7FC0020FFF704FC3C2000F0F1FC0420FFF7FEFB3C2000F0EBFC11E00020FFF7F7FB3C2000F0E4FC0020FFF7F1FB3C2000F0DEFC0420FFF772
:40174000EBFB3C2000F0D8FC044A116813690B446433B3F5966FE5DB08BD00BF4882FF1F2DE9F04F85B004460D469146C82900DDAA25002C08DD002001F036FF002001F05E
:4017800039FF0123039307E0012001F02DFF012001F030FF0023039301F040FE01F018FF204603F00DFB46A3D3E9002303F06EFB02F02AF803F004FE834601F0D1FC07467F
:4017C00001F016FD82462E464FF000086FF4E073029343E001F0C4FC0446074601F008FD8246844207DDB54202D1043D043602E02B4635461E46844207DAB54202D1043E1A
:40180000043502E02B4635461E46E8B201F05EFDF0B201F035FE84EAE470A0EBE47003F0CFFACDE90001029803F0CAFA26A3D3E9002303F079F90022254B03F073F90246E6
:401840000B46DDE9000103F0B1FD38B1B9F1010F04D10398FFF7D4FC8046029487EAE772A2EBE7728BEAEB73A3EBEB739A4208DA8AEAEA72A2EBEA72934202DDB8F1000F28
:40188000A8D0144C3A461449204604F0F5FB204600F0C6FC52461149204604F0EDFB204600F0BEFC01F0A4FD01F07CFE002001F05FFC002001F0A4FC05B0BDE8F08F00BF1B
:4018C000295C8FC2F528154066666666661A7C4000005940D482FF1F90790000A479000070B505460C46C82900DDAA24002D06DD002001F079FE012001F07CFE05E0012011
:4019000001F072FE002001F075FE01F087FDE4B2204601F0DBFC01F05BFE204601F0B0FD6B2000FB05F003F04BFA19A3D3E9002303F0ACFA18A3D3E9002303F0A7FA002204
:40194000174B03F0CDFB01F05FFF03F039FD064601F006FC01F04CFC05460AE001F048FC054601F0FDFB204601F0B0FC204601F087FDF542F2D1002001F0FAFB002001F0CD
:401980003FFC01F035FD01F00DFE70BDAFF300801F85EB51B81E0940295C8FC2F528154000806640000000002DE9F84307460E4614461D46084603F003FA15A3D3E900238D
:4019C00003F064FA01F070FF80468946384603F0F7F942464B4603F083FB03F0F1FC07462A4621463046FFF77BFF2A4621463846FFF7B6FE2A4621467042FFF771FF2A466E
:401A000021467842FFF7ACFEBDE8F883AFF30080399D52A246DF913F30B583B0654B1B680BB30023EBB9012001F03EFB02210020FFF72CFB604800F0F3FB00240EE05F4D25
:401A400022465F49284604F017FB284600F0E8FBFFF7E6F95B4800F0E3FB0134312CEEDD0123002BDED1534B5B68B3B1002393B9554800F0D5FBFFF73FFB002408E0022110
:401A80002046FFF703FB4FF47A7000F035FB0134032CF4DD0123002BE9D1464B9B68002B66D00023002B61D1484800F0B9FBAA210320FFF787FB4FF47A7000F01DFBAA2132
:401AC0000220FFF77FFB4FF47A7000F015FBAA210320FFF777FB4FF47A7000F00DFBAA210020FFF76FFB4FF47A7000F005FB01210191AA230093002304229620FFF7C8FB78
:401B0000FFF710FD002407E0002364226FF00E010A20FFF749FF0134052CF5DD002407E0002364220F216FF00900FFF73DFF0134052CF5DD0122AA214FF4C870FFF710FEBD
:401B40000122AA212248FFF70BFE0420FFF7E4F9322000F0D1FA194C1E4B1A691E49204604F08AFA204600F05BFB0123002B99D1104BDB68E3B1194800F052FB002411E02A
:401B80002046FFF7C9F9642000F0B6FA0B4D114B53F824200A49284604F06EFA284600F03FFB0134042CEBDD064800F039FBE5E703B030BD8082FF1FB8790000D482FF1F1B
:401BC000E0780000287A0000E0790000F079000070FEFFFF4882FF1F047A0000147A0000FEE700BFF0B40022174611E050F82760F3B226F0FF0608E001EB420511F812400C
:401C00006D78A5550132013BDBB2002BF4D10137282FEBD9F0BC704710B41A4B1B78DBB203F00701184A11701B090132137002232D3A13700421A2F5A4521B3A117010215A
:401C400002F6765211701032137001220F4B1A7020230F490B7080210E48017003247C3004704F300370013003702C3001700A490B700A4B1A704422A3F2E2231A7010BC2C
:401C8000704700BFCF0100496E580040005A0040035A0040085A0040045B0040585B004008B50A46002103F06EFD08BD08B503F05FFD08BD38B50024384B1C80502202332B
:401CC0001A70012202331A801823354A1370172102321180023213703321023211800232137040F2AF410232118002321370042201F1904101F6CD312A48FFF7D7FF0222C9
:401D0000294B1A7008224FF040231A70032103F500731970254B1B78DBB225490B70254B1A8041F25122023B1A8019250CE0224B1B7803F0010343EA440404F003044FF463
:401D4000F07001F051FD013D0DB1032CEFD115B90320FFF745FF194B4FF480721A8007221A70002216490A704820023108701A700222033B1A7004220A331A70114A137871
:401D800043F01F031370013A137843F001031370013A137843F08003137038BD8040004086400040004100400043004008010049A146004022420040254200400440004085
:401DC00006400040A243004038B572B6424A137843F00403137000240CE0404D630019194A0011462A44084691882858FFF758FF0134E4B2062CF0D900240BE03749A300E2
:401E00001819420088180622016BC06AFFF74EFF0134E4B2002CF1D031494FF09040FFF7E1FE0A242F4B1C7040F20322373B1A802D4A03F52A430C331A602C4A03F59063EB
:401E40001A602B4A137843F0020313701032137843F002031370274D2B7843F040032B70A2F58632513A137843F010031370082221492248FFF71AFF224621492148FFF711
:401E800015FF082220492148FFF710FF224620492048FFF70BFF22461F492048FFF706FF08221F491F48FFF701FF1F4A137843F0080313701D4C61232370FFF7FBFE8123EA
:401EC000237001221A4B1A70FFF7A6FE0E2229461848FFF7EBFE38BDE84600402C7A0000A400004883580040040400C40404044403500140A04300404010004802510040B7
:401F000048100048C051004054100048F25100405C1000481051004068100048205100407410004832510040224300400048004004000840B043004008B503F0EDFB03687D
:401F40000C2B00D1FEE7FEE708B5094B1A681044084BC31AB3F5007F02DC054B186005E003F0DAFB0C2303604FF0FF32104608BDEC80FF1F7883FF1F08B5104E104D16E0D0
:401F800029686B68AC68002204E051F8040B43F8040B0432A242F8D1E868002203E0002143F8041B04328242F9D11035013E002EE6D103F0B7FBFEF777F8FEE70100000032
:401FC000C87D000008B5104A104B1A60104A136843F40073136000230AE0032B03D80D4A52F8231000E00C490C4A42F8231001332F2BF2D90A4B1A780A4B1A70074A0A4B17
:402000001A60FFF7E1FE08BD0004FA050CED00E014ED00E000000000391F00000080FF1FBC760040C080FF1F08ED00E0084A137843F0010313701032137843F00103137016
:4020400002F5A5521E32137843F0800313707047A9430040044A137803F0FC0300F0030018431070704700BF01580040072809D8054B1A7802F08F021A701A780001C0B2CF
:4020800010431870704700BF02580040032809D8054B1A7802F0F3021A701A788000C0B210431870704700BF0258004038B50224084B1C700C2201331A70012501331D70A2
:4020C0000420FFF7D3FF2846FFF7E0FF2046FFF7C1FF38BD0058004008B5054B1B7823B90122034B1A70FFF7E1FFFFF79FFF08BD9082FF1F01BE704710B5044605E0084B75
:40210000186801F071FBA4F50044B4F5004FF6D8034B586800FB04F001F066FB10BD00BFF080FF1F08B5034B1B7A00FB03F001F05BFB08BDF080FF1F70B504460E46074B79
:402140001D681F2802D90020FFF7D4FF04F01F04103455F8240045F8246070BD08ED00E038B504460D46072902D90020FFF7C2FF1F2C02D90020FFF7BDFF04F01F0000F1D8
:40218000604000F564406D01EDB2057038BD00BF7222074B1A702022FF331A700622613B1A70472210331A7000224E331A7070478964004010B501F01FFB04460A4A1378B4
:4021C00043F020031370FF32137843F010031370033A137843F01003137000F033F8204601F00EFB10BD00BF9964004008B5054B1B7823B9FFF7CCFF0122024B1A70FFF77F
:40220000D9FF08BD9182FF1F034B1B7813F0040FFAD1024B18707047656500404565004038B5074B1B782BB938BDFFF7EDFF0134A4B201E005460024285D0028F5D138BDBE
:402240009182FF1F054A137843F0080313701032137843F008031370704700BFA243004038B59DF81040651EEDB2032D51D8013809282ED8DFE800F0052D2D052D2D0F190F
:402280002D230F2B03D92548007840B222E02448007840B21EE00F2B03D92248007840B218E02148007840B214E00F2B03D91F48007840B20EE01E48007840B20AE00F2B99
:4022C00003D91C48007840B204E01B48007840B200E0002001EB401101FB02F2D20B91B20D2B0BD8C3F10E0192B20A4191B2621E124800EB82020133937005E0631E0F4A47
:4023000002EB83030F229A70013C0C4B23F8241038BD0020FFF7EEFE38BD00BF180100491C010049190100491D0100491A0100491E0100491B0100491F0100499482FF1F01
:40234000F8B5074601F058FA06460D4D2B7843F003032B700B4C237843F0030323700A4B1F700320FFF7DEFE2B7803F0FC032B70237803F0FC032370304601F041FAF8BDC5
:40238000F8460040F946004092580040F8B504460022BB4B1A7401285AD13822B94B1A70042202331A70072201331A70002501331D7001331D703F2201331A7002331D70B9
:4023C00001331D7001331D7001260A331E70502203F527631A70272201331A702C2201331A7001331D70552203331A705A2201331A70052701331F7002331E70112201338D
:402400001A70192201331A70972201331A704420FFF796FF58229C4B1A7001331D7005331F7001331E7001331D700A2201331A704FF4FA42954B1A603146384600F0C6FA55
:402440003146252000F046FB91491D20FFF774FE022C5AD138228B4B1A70042202331A70072201331A70002501331D7001331D703F2201331A7002331D7001331D70013394
:402480001D7001260A331E70502203F527631A70272201331A702C2201331A7001331D70552203331A705A2201331A70052701331F7002331E70112201331A7019220133C8
:4024C0001A70972201331A704420FFF739FF58226D4B1A7001331D7005331F7001331E7001331D700A2201331A704FF4FA42674B1A603146384600F069FA3146252000F0F9
:40250000E9FA64491D20FFF717FE032C5AD138225C4B1A70042202331A70072201331A70002501331D7001331D703F2201331A7002331D7001331D7001331D7001260A33A4
:402540001E70502203F527631A70272201331A702C2201331A7001331D70552203331A705A2201331A70052701331F7002331E70112201331A70192201331A709722013381
:402580001A704420FFF7DCFE58223F4B1A7001331D7005331F7001331E7001331D700A2201331A704FF4FA42384B1A603146384600F00CFA3146252000F08CFA36491D2085
:4025C000FFF7BAFD042C5AD138222E4B1A70042202331A70072201331A70002401331C7001331C703F2201331A7002331C7001331C7001331C7001250A331D70502203F54C
:4026000027631A70272201331A702C2201331A7001331C70552203331A705A2201331A70052601331E7002331D70112201331A70192201331A70972201331A704420FFF7D8
:402640007FFE5822104B1A7001331C7005331E7001331D7001331C700A2201331A704FF4FA420A4B1A602946304600F0AFF92946252000F02FFA09491D20FFF75DFDF8BD61
:402680009482FF1F004E0040945800407083FF1F8D2900009129000095290000992900002DE9F04182B0394E4FF0010886F80080374F00247C74102000F076F9102000F09C
:4026C000F7F907211D20FFF74BFD0425314B1D7001331C7007331C702F4A137843F0180313702E4B1C7003F2F5231C7001331C700A22A3F209331A7001331C7002331C7054
:402700005B2205331A705E2201331A7004331C701422A3F68C231A70CDF8008010234FF4004249F2DA012846FFF79AFD0223009310234FF4004249F2DA012846FFF790FDCC
:402740000323009310234FF4004249F2DA012846FFF786FD009510234FF4004249F2DA012846FFF77DFD3378013B07EB83039A780B4B1A703378013B37F82320094B1A8012
:402780003078FFF703FE02B0BDE8F0810081FF1F9482FF1F96580040075B0040935800400E4E00400C4E004070B501F025F806462A4B1B782A4B1A7842F001021A701A78CF
:4027C00042F010021A7010331A7842F001021A701A7842F010021A70224D2B7843F002032B70214C237843F0020323701F4A137843F0030313700320FFF794FC2B7803F070
:40280000FD032B70237803F0FD032370184A137843F0060313707A22164B1A70164A137843F0010313701032137843F0010313700F3A137843F0010313701032137843F0EF
:40284000010313704FF000530C4A1360A2F5C0721360304600F0D4FF70BD00BF0081FF1FAA430040F8460040F9460040915800407758004082580040A143004080E200E094
:4028800008B5084B9B7C4BB9064BDB7C13F0FF0F01D1FFF705FF0122024B9A74FFF784FF08BD00BF9482FF1F024A137843F0010313707047004E0040024A137803F0FE0318
:4028C00013707047004E0040094B1B7C13F0FF0F03D0074B5B7CDBB203E0064B1B7803F00103012B01D00028EED01846704700BF9482FF1F014E0040154B1B7803F0030367
:40290000012B07D8134B1888023B1B889BB243EA004013E0022B0AD10E4B1888023B1B7843EA00430C4A107843EA002006E00B4B188883B2074A108843EA0040084B1B7C44
:4029400013F0FF0F02D00022054B5A74704700BF144E0040124E0040114E0040104E00409482FF1F10B5084A137843F004031370FFF79AFF0020FFF7A7FFFFF7BDFF044665
:40298000FFF79AFF204610BD014E0040704700BF704700BF704700BF704700BF014B188880B2704780400040034B1A7800F0F80010431870704700BF82400040024B187821
:4029C00000F00700704700BF8240004070B505460E46FFF7F3FF0446FFF7E0FFA84256D02B4B1B7803F0010294B900B185B938B9284B1D80284A137803F0BF03137070BDEF
:402A0000254A137843F040031370224B1D8070BD22B3002321490B7001240F310C7004310B700C390B7803F07F030B701A4B1B7813F0080F00D08DB9194B18800721013BBE
:402A40001970164B1B7813F0010FFAD110490B7803F0FE030B700021104B19700C4B1B7813F0010F0DD00E4B1D800EB1032200E001220A4B1A70094B1B7813F0010FFAD150
:402A800070BD044B1D8002490B7813430B7070BDA243004080400040824000400140004002400040014B188880B2704700410040034B1A7800F0F80010431870704700BF98
:402AC00002410040024B187800F00700704700BF0241004070B505460E46FFF7F3FF0446FFF7E0FFA84256D02B4B1B7803F0010294B900B185B938B9284B1D80284A137872
:402B000003F0BF03137070BD254A137843F040031370224B1D8070BD22B3002321490B70012413310C7004390B7008390B7803F07F030B701A4B1B7813F0080F00D08DB9B0
:402B4000194B18800721013B1970164B1B7813F0010FFAD110490B7803F0FE030B700021104B19700C4B1B7813F0010F0DD00E4B1D800EB1032200E001220A4B1A70094B60
:402B80001B7813F0010FFAD170BD044B1D8002490B7813430B7070BDA143004000410040024100400140004002400040054A137843F0010313701032137843F00103137079
:402BC000704700BFA8430040054B1A7802F0FD021A701A7800F0020010431870704700BF20580040014B1870704700BF805B0040094B1B7803F00C035B08084A127812F0BB
:402C0000040F00D0013303F1924393F82031DBB2034A1370704700BF20580040215800400846004008B51022064B1A700133002018701A7842F004021A70FFF7C5FFFFF75C
:402C4000D7FF08BD2058004008B5074B1B7823B9FFF7E8FF0122044B1A70FFF7A7FF7820FFF7C0FF08BD00BFAC82FF1F08B5064B1A7802F0F3021A701A7800F00C001043FF
:402C80001870FFF7B5FF08BD20580040024A137843F08003137070477E640040024A137803F07F03137070477E640040014B1870704700BF8D640040014B1878704700BF07
:402CC0006D640040014B1880704700BF58680040014B188880B2704798680040014B1880704700BF18680040024B1B78024B188880B270470C6400409868004000F00300A1
:402D0000044B1A7802F0FC021A701A7810431870704700BF7E64004008B501E0FFF7D8FFFFF7CAFF10F0080FF8D108BD08B54FF6FF70FFF7C7FF4FF6FF70FFF7CFFF00F0CF
:402D40005BFD084A137843F01003137000F058FD0020FFF7D3FFFFF7DFFF0220FFF7A6FF08BD00BF9D64004008B5054B1B7823B9FFF7DCFF0122024B1A70FFF787FF08BD4A
:402D8000AD82FF1F044A137803F0FB03800000F00400184310707047C0510040044A137803F07F03C001C0B218431070704700BF20510040044A137803F0FE0300F0010064
:402DC00018431070704700BF30510040044A137803F0FE0300F0010018431070704700BF00510040044A137803F0BF03800100F0400018431070704730510040014B1870BB
:402E0000704700BF7C640040084A137843F0010313701032137843F00103137002F64D32137843F001031370704700BFA3430040084A137803F0FE031370A2F65D32137880
:402E400003F0FE0313701032137803F0FE031370704700BF004F0040014B1880704700BF044F0040014B1880704700BF064F0040014B1870704700BF034F004008B51A4AB9
:402E8000137843F0020313700232137803F08F0343F010031370154B1A7802F0CF021A701A7842F030021A701A7802F0F0021A701A7842F00F021A7044F61F60FFF7CCFF27
:402EC00040F2DC50FFF7CEFF0020FFF7D1FF084A137843F00103137002F65E32137843F00103137008BD00BF004F00400B4F0040A343004008B5054B1B7823B9FFF7BEFF65
:402F00000122024B1A70FFF77FFF08BDAE82FF1F08B5074B1B7813F0010F03D00122054B1A7002E00022034B1A70FFF781FF08BD004F0040B082FF1F08B5034B1B780BB13B
:402F4000FFF762FF08BD00BFB082FF1F084A137843F0020313701032137843F00203137002F65932137843F001031370704700BFA3430040084A137803F0FE031370A2F6B6
:402F80006932137803F0FD0313701032137803F0FD031370704700BF0C4F0040014B1880704700BF104F0040014B1880704700BF124F0040014B1870704700BF0F4F004045
:402FC00008B51A4A137843F0020313700232137803F08F0343F010031370154B1A7802F0CF021A701A7842F030021A701A7802F0F0021A701A7842F00F021A7044F61F6086
:40300000FFF7CCFF40F2DC50FFF7CEFF0020FFF7D1FF084A137843F00203137002F66A32137843F00103137008BD00BF0C4F0040174F0040A343004008B5054B1B7823B9F0
:40304000FFF7BEFF0122024B1A70FFF77FFF08BDB182FF1F014B188880B27047124F004008B5074B1B7813F0010F03D00122054B1A7002E00022034B1A70FFF77BFF08BD0D
:403080000C4F0040B482FF1F08B5034B1B780BB1FFF75CFF08BD00BFB482FF1F014B1870704700BF7A650040014B1870704700BF78640040014B1878704700BF7864004061
:4030C000014B1B685864704708ED00E04001C0B2014B1870704700BF01E400E00222014B1A60704700E100E00222014B1A60704780E100E010B50446FFF7F6FF2046FFF75D
:40310000DFFF0720FFF7E2FFFFF7E8FF10BD00BF014B1B681864704708ED00E04001C0B2014B1870704700BF00E400E00122014B1A60704700E100E00122014B1A607047B1
:4031400080E100E010B50446FFF7F6FF2046FFF7DFFF0720FFF7E2FFFFF7E8FF10BD00BF08B500F067FAA0F5004000B208BD00BF08B5002803DB80B280F4004002E0A0F53A
:40318000004080B200F050FA08BD00BF024B187800F00F00704700BF63640040014B1870704700BF8364004008B50F20FFF7F6FFFFF7ECFF00F020FB034A137843F0100334
:4031C000137000F01DFB08BD9364004008B500F083FA4FF4004000F027FA044B1B7813B90122024B1A70FFF7DFFF08BDB582FF1F08B500F099FAA0F5004000B208BD00BFA9
:4032000008B5002803DB80B280F4004002E0A0F5004080B200F082FA08BD00BF024B187800F00F00704700BF64640040014B1870704700BF8464004008B50F20FFF7F6FF69
:40324000FFF7ECFF00F0D8FA034A137843F01003137000F0D5FA08BD9464004008B500F0B5FA4FF4004000F059FA044B1B7813B90122024B1A70FFF7DFFF08BDB682FF1F95
:40328000024A137843F080031370704776650040024A137803F07F031370704776650040014B1870704700BF06650040024B1B78024B1878704700BF1665004056650040AD
:4032C000014B1870704700BF46650040014B1870704700BF26650040014B1870704700BF86650040014B1878704700BF66650040014B1878704700BF76650040014B187071
:40330000704700BF76650040014B1878704700BF5665004008B501E0FFF7F6FFFFF7E2FF10F0100FF8D108BD10B5114A137803F0C00343F0090313700E4C237843F0010353
:403340002370FF20FFF7ACFFFF20FFF7B9FF7F20FFF7BCFF0020FFF7BFFF00F04DFA237843F01003237000F04BFAFFF7D3FF10BD766500409665004008B5054B1B7823B9C2
:40338000FFF7D2FF0122024B1A70FFF779FF08BDB782FF1F014B1878704700BF4665004010B5FFF7F7FF064CA070FFF77FFF6070044B1B78E370FFF79BFF207110BD00BF4C
:4033C000B882FF1F8665004010B5074CA078FFF777FF6078FFF764FFE278044B1A702079FFF78CFF10BD00BFB882FF1F8665004008B5084B1B7813F0800F03D00122064BA5
:403400001A7002E00022044B1A70FFF741FFFFF7C7FF08BD76650040B882FF1F08B5FFF7D3FF034B1B780BB1FFF72AFF08BD00BFB882FF1F024A137843F080031370704717
:403440007B650040024A137803F07F03137070477B650040014B1870704700BF0A650040024B1B78024B1878704700BF1A6500405A650040014B1870704700BF4A65004063
:40348000014B1870704700BF2A650040014B1870704700BF8A650040014B1878704700BF6A650040014B1878704700BF7B650040014B1870704700BF7B650040014B187861
:4034C000704700BF5A65004008B501E0FFF7F6FFFFF7E2FF10F0100FF8D108BD10B5114A137803F0C00343F0090313700E4C237843F001032370FF20FFF7ACFFFF20FFF793
:40350000B9FF7F20FFF7BCFF0020FFF7BFFF00F073F9237843F01003237000F071F9FFF7D3FF10BD7B6500409A65004008B5054B1B7823B9FFF7D2FF0122024B1A70FFF75E
:4035400079FF08BDBD82FF1F014B1878704700BF4A65004010B5FFF7F7FF064CA070FFF77FFF6070044B1B78E370FFF79BFF207110BD00BFC082FF1F8A65004010B5074C90
:40358000A078FFF777FF6078FFF764FFE278044B1A702079FFF78CFF10BD00BFC082FF1F8A65004008B5084B1B7813F0800F03D00122064B1A7002E00022044B1A70FFF715
:4035C00041FFFFF7C7FF08BD7B650040C082FF1F08B5FFF7D3FF034B1B780BB1FFF72AFF08BD00BFC082FF1F014B1870704700BF75640040014B1870704700BF796500409A
:40360000024A137843F080031370704774640040014B1870704700BF82640040014B1878704700BF62640040014B1880704700BF08680040024B1B78024B188880B2704723
:403640000464004088680040014B188880B2704788680040014B1880704700BF48680040014B1880704700BF6868004008B501E0FFF7EAFFFFF7D2FF10F0400FF8D108BD98
:4036800008B5134B1A7802F0F8021A701A7802F0FC021A70FFF7EAFF4FF40040FFF7DAFF4FF40040FFF7C0FF0020FFF7B1FFFFF7B5FF4FF40040FFF7D3FF00F09DF8054AE3
:4036C000137843F01003137000F09AF808BD00BF746400409264004008B5054B1B7823B9FFF7CEFF0122024B1A70FFF789FF08BDC582FF1F024A137843F08003137070477A
:4037000072640040014B1870704700BF87640040014B1878704700BF67640040014B1880704700BF0C680040024B1B78024B188880B27047066400408C680040014B188813
:4037400080B270478C680040014B1880704700BF4C680040014B1880704700BF6C68004008B501E0FFF7EAFFFFF7D2FF10F0400FF8D108BD08B5134B1A7802F0F8021A702C
:403780001A7802F0FC021A70FFF7EAFF4FF40040FFF7DAFF4FF40040FFF7C0FF0020FFF7B1FFFFF7B5FF4FF40040FFF7D3FF00F023F8054A137843F01003137000F020F823
:4037C00008BD00BF726400409764004008B5054B1B7823B9FFF7CEFF0122024B1A70FFF789FF08BDC682FF1F0230800803D000BF01380046FCD17047EFF3108072B6704772
:4038000080F31088704700BFF8B5C1F30A56A6F2FF35132D0A460B460446864611DC002D2EDB0F461F4929410A4225D04FF400232B413B4423EA0103002619463446204631
:40384000F8BD332D05DDB5F5806F1FD011462046F8BDA6F213464FF0FF3121FA06F63042F4D00122C5F1330502FA05F52D1828BF9B1825EA0606E0E70028D7D11146E6E7EE
:40388000013501F0004307D00026D6E702460B4601F04AF90446D2E743F07F5343F440130026CAE7FFFF0F0030B5214A21F00043934287B01BDD1F4A934205DD02460B4640
:4038C00001F030F907B030BD02AA00F035F800F0030001281ED0022811D0DDE9042300B3DDE9020100F040FA01F10041EAE7002300930022002300F053FF07B030BD012390
:403900000093DDE90201DDE9042300F049FF01F10041D7E7DDE90423DDE9020100F024FAD0E70124DDE90201009400F039FFC9E7FB21E93FFFFFEF7F2DE9F04F944C21F04A
:403940000047A7428FB040F381801446914A0E46974226DC84A3D3E90023002940F3A08101F0E0F88C4B80469F42894600F083807FA3D3E9002301F0D5F802460B464046D6
:40398000C4E90023494601F0CDF879A3D3E9002301F0C8F80125C4E9020128460FB0BDE8F08F7E4A974240F383807D4A974258DC3D15A5F21645A7EB05518B46824601F0BE
:4039C000FFFC01F0FDF98046894642464B4650465946CDE9088901F0A5F80022714B01F055FA8B46824601F0EBFC01F0E9F98046894642464B4650465946CDE90A8901F0AE
:403A000091F80022674B01F041FA00220023CDE90C0101F0A3FC002800F06A81002340464946002201F09AFC002814BF012302235D480221019000912A46214608A800F0DC
:403A4000B7FA002EC0F24A81054606E0C2E9000100250024C2E90245002528460FB0BDE8F08F02460B4601F05DF80025C4E90201C4E90001F1E740A3D3E9002301F052F825
:403A80003FA3D3E9002306460F4601F04BF802460B463046C4E90023394601F043F838A3D3E9002301F03EF80125C4E90201D4E700F02CFF34A3D3E900238046894601F01D
:403AC000E5F90022394B01F02FF801F079FC054601F076F924A3D3E90023CDE9040101F0D5F902460B464046494601F01BF820A3D3E9002382468B46DDE9040101F0C6F991
:403B00001F2DCDE9020155DC294B6A1E53F822309F424FD002460B465046594601F002F802460B4681468846C4E900234A4643465046594600F0F6FFDDE9022300F0F2FF00
:403B400002460B46002EC4E9022386DA4A4608F1004301F1004184E80C00E160A0606D427BE700BFAFF3008000004054FB21F93F3163621A61B4D03D0000601A61B4D03DEC
:403B80007370032E8A19A33B83C8C96D305FE43FFB21E93F7BD90240FB21F93FFB213941FFFFEF7F00007041E47A00000000E03F647A0000DDE902235046594600F0B2FF40
:403BC0003F15C1F30A53FB1A102B81468846C4E90001ABDD58A3D3E90023DDE9040101F055F98046894602460B465046594600F099FFCDE9060102460B465046594600F0FB
:403C000091FF42464B4600F08DFF4DA3D3E9002380468946DDE9040101F038F942464B4600F080FF02460B46CDE90201DDE9060100F078FF0B4602468846C1F30A517F1AF1
:403C4000312F8146C4E9002372DD3FA3D3E90023DDE9040101F01AF98046894602460B46DDE9060100F05EFF02460B4682468B46DDE9060100F056FF42464B4600F052FF88
:403C800033A3D3E9002380468946DDE9040101F0FDF842464B4600F045FFCDE9020139E700F042FF2E4B80469F42894622D02AA3D3E9002300F038FF02460B464046C4E932
:403CC0000023494600F02EFF23A3D3E9002300F02BFF4FF0FF35C4E90201BEE66268E36802F1004203F1004345426260E360B4E603239DE610A3D3E9002300F015FF10A3D6
:403D0000D3E9002306460F4600F00EFF02460B463046C4E90023394600F004FF08A3D3E9002300F001FF4FF0FF35C4E9020194E6DDE906ABFAE600BF0000601A61B4D03DEC
:403D40007370032E8A19A33B0000002E8A19A33BC14920259A837B393163621A61B4D03DFB21F93F000000002DE9F04F21F00046B6F1795F85B00C4692469B4605466BDA5E
:403D800001F01EFB002800F0E7802A4623462846214601F07BF874A3D3E900238046894601F074F872A3D3E9002300F0BDFE42464B4601F06BF870A3D3E9002300F0B2FEE2
:403DC00042464B4601F062F86DA3D3E9002300F0ABFE42464B4601F059F86BA3D3E9002300F0A0FE42464B4601F050F868A3D3E9002300F099FE42464B4601F047F8CDE93F
:403E000000010022644B4046494601F03FF8DDE9002306460F464046494601F037F85246804689465B462846214601F02FF802460B464046494600F075FE02460B463046D9
:403E4000394600F06FFE02460B460020534900F069FE05B0BDE8F08F02460B4601F016F841A3D3E900238046894601F00FF840A3D3E9002300F058FE42464B4601F006F8E9
:403E80003DA3D3E9002300F04DFE42464B4600F0FDFF3BA3D3E9002300F046FE42464B4600F0F4FF38A3D3E9002300F03BFE42464B4600F0EBFF36A3D3E9002300F034FE66
:403EC0004B46424600F0E2FF354BCDE900019E4297DD344B00229E4238DCA6F5001300202E4916461F4600F01DFECDE902010022294B4046494600F0C9FF32463B4600F0A2
:403F000011FEDDE9002306460F464046494600F0BDFF5246804689465B462846214600F0B5FF02460B464046494600F0FBFD02460B463046394600F0F5FD02460B46DDE97B
:403F4000020100F0EFFD05B0BDE8F08F164B0026CDE90223154FCAE71049002005B0BDE8F08F00BFAFF30080D43888BEE9FAA8BDC4B1B4BD9EEE213EAD529C804F7E923EBC
:403F80009015CB19A001FA3E7751C1166CC1563F4C5555555555A53F0000E03F0000F03F3233D33F0000E93F0000E73F0000D23F2DE9F04F794CADF51D7D1F460B93D31EF7
:403FC00084FB0354DB17C3EBA403A69E744C23EAE37554F826406B1C26460994A3EB83037C1E0D95029402EBC3032D1B341904900A91089316D42C44013422AEA79F08E074
:4040000057F8250000F0DCFE0135A542E6E9020108D0002DF4DA013500200021A542E6E90201F6D1099B002B2FDB099B74AADDF8089002EBC30B0DF5E47A029B002BC0F2EC
:4040400095810B9B0026C3EB090824AB03EBC808049B0027A3F1080524AB03EBC904F5E9022374E8020100F011FF02460B463046394600F059FD444506460F46EFD1EAE92E
:404080000267DA4509F10109D7D1099B10A91D4603F18043023B9B001A1D0A440B440F920E939CAB03EBC503002D53E928672BDD9CAB03EBC504A83C0DF13C0A0DF5E47BE3
:4040C0000022384B3046394600F0E0FE01F078F900F076FE0022344B8046894600F0D6FE02460B463046394600F01CFD01F068F974E802234AF8040F4946404600F014FDC3
:404100005C4506460F46DBD1089C30463946224600F08AFC00224FF07F5306460F4600F0B5FE00F0F9FB0022204B00F0AFFE02460B463046394600F0F5FC0F46064601F094
:404140003FF9814600F03CFE02460B463046394600F0E8FC002C06460F4640F3EE80681E10AB53F82030C4F1180243FA02F101FA02F29B1AC4F1170810AA42F820308944E2
:4041800043FA08F8B8F1000F3DDD002D09F1010940F3D382002214460FA911E0ABAAAA2AEC7B00000000703E0000704100002040C3F180700BB108600124013295420DDDE2
:4041C00051F8043F002CF3D0C3F1FF13013203F57F4395420B604FF00104F1DC089B002B0DDD012B00F0B180022B08D16A1E10AB53F8223010A9C3F3150341F82230B8F198
:40420000020F00F08180002200233046394601F0A5F8002800F05B82099B05F1FF3B5B4510DC05F1804310AA013B0F9802EB8303002253F80419834242EA0102F9D1002A24
:4042400040F0B180099B10AA013B52F82330002B40F071820E9A012352F8041901330029FAD0E9186A1C8A420C914BDC0D990B985118DB0001F180410593A79B054401394A
:40428000E80003EB810A24ABD20003EB000B74AB13440193A2F10803069007934FF000095AF8040F00F08CFD029BEBE80201002B4FF000064FF000071BDB069B03EB09044A
:4042C000079B09EB030824AB1C449844049BA3F10805F5E9022374E8020100F0D7FD02460B463046394600F01FFC444506460F46EFD1019B09F10809E3E802670193059B1A
:404300009945CDD10C9DCCE632463B460020B04900F008FC06460F46002C3FF474AF089A0020AB4900F080FB02460B463046394600F0F8FB06460F4665E710D16B1E10AADA
:4043400052F823304FEAE3581CE76A1E10AB53F8223010A9C3F3160341F822304FE700229C4B01F019F858B980464CE700260027EAE90267DA4509F101097FF45EAE84E656
:40438000002D09F10109C8BF4FF002083FF702AF32463B4600208E4900F0C4FB4FF0020806460F462FE7089A10AB53F82B30183ACDF81490CDF8048008926BB90BF18043F2
:4043C000013B10A901EB830353F804190BF1FF3B183A0029F8D00892089A00207C4900F023FBBBF1000F04460D46C0F2B6814FEACB030DF5E87810AA02EB8B0608EB030965
:404400000493043609F1080756F8040D00F0D8FC22462B4600F03AFD002267E902016E4B2046294600F032FDB84504460D46EBD14B46CDF818B09B460DF5987ACDF808A087
:40444000DDF824A04FF00009BAF1000FC0F226815DA3D3E90023DFF884815D4600260027002403E0A14510DBF8E90223F5E8020100F00CFD02460B463046394600F054FB19
:404480000134A24506460F46ECDA029BABF1080B03EBC903C3E9006772AB5B4509F10109D2D1A69BDDF818B0DDF808A0032B00F28380DFE813F0D100950095000400BBF109
:4044C000000F40F35481049BCDF808B053449846D3E90067D34658E9029A32463B464846514600F021FB04460D4602460B464846514600F017FB32463B4600F015FBC8E9CA
:40450000000168E90245C34526462F46E3D1DA46DDF808B0BBF1010F40F32981049B0DF59C7B53449846D3E90067994659E902343046CDE902341A463946234600F0F4FAD0
:4045400004460D4602460B46DDE9020100F0EAFA32463B4600F0E8FAC9E9000169E90245CB4526462F46E1D100231D4608F1080850AC184678E90223294600F0D5FA444588
:4045800003460D46F5D1019A002A00F0D880DAF80440DAF80C200A9FDAF80010DAF8080005F1004504F1004402F100427D613B617C60FA603960B860059B03F007000DF56D
:4045C0001D7DBDE8F08F00BF00000040FB21F93F0000F03F0000E03F0000703E007C000000242146049D0835554475E90223204600F09AFA55450446F7D1019B002B50D030
:404600000A9F01F100450B46DAE9000187E83000224600F087FABBF1000F03460D460DDD01241846FAE90223294600F07DFA0134A34503460D46F4DA019A0AB105F1004553
:40464000184629460A9BC3E90201059B03F007000DF51D7DBDE8F08F00231C46049A0832924418467AE90223214600F05DFA0BF1FF3BBBF1FF3F03460C46F2D1019A0AB124
:4046800004F10044184621460A9BC3E90001059B03F007000DF51D7DBDE8F08F00260027F3E626460F4622460A9C0B46DAE90001C4E9006700F036FABBF1000F03460D46BB
:4046C000AEDC184629460A9BC3E90201BDE7089B30465A423946CDF81490CDF8048000F0A3F900222C4B06460F4600F055FE002840D00022294B3046394600F0C7FB00F017
:404700005FFE044600F05CFB0022234B00F0BEFB0B4602463946304600F004FA00F050FE089B05F1010B1833089310AB43F8250043F82B4050E6012393E500244EE51846C5
:40474000DAE90067DAE9022329460A9DC5E90067C5E90401C5E902232EE7A69B032B3FF62BAFDFE803F0151010020DF5987A00231D4608E73046394600F022FE10ABAB46B8
:4047800043F8250028E6002421460DF5987A34E700231C4672E700BF000070410000703E2DE9F04F21F00046B6F1795F85B00C4690469946054604DA00F002FE002800F03D
:4047C00085802A4623462846214600F05FFB06460F4602460B462846214600F057FB3EA3D3E9002382468B463046394600F04EFB3BA3D3E9002300F095F932463B4600F0C0
:4048000045FB39A3D3E9002300F08EF932463B4600F03CFB36A3D3E9002300F083F932463B4600F033FB34A3D3E9002300F07CF90E9BCDE900019BB30022334B404649462D
:4048400000F024FBDDE90023CDE902015046594600F01CFB02460B46DDE9020100F062F932463B4600F012FB42464B4600F05AF923A3D3E9002306460F465046594600F0E1
:4048800005FB02460B463046394600F04DF902460B462846214600F045F905B0BDE8F08F02460B463046394600F0F0FA14A3D3E9002300F037F952465B4600F0E7FA2A4627
:4048C000234600F031F905B0BDE8F08F2846214605B0BDE8F08F00BF7CD5CF5A3AD9E53DEB9C2B8AE6E55A3E7DFEB157E31DC73ED561C119A0012A3FA6F810111111813F5E
:40490000495555555555C53F0000E03F21F00041704700BF00000000C1F30A522DE9F843A2F2FF36132E0B4604460D46884607461CDC002E3FDB3A4A864642FA06F901EA70
:404940000902024317D034A3D3E9002300F0ECF80022002300F02AFD20B1002D40DB28EA0905002738462946BDE8F883332E06DDB6F5806F2FD020461946BDE8F883A2F257
:4049800013424FF0FF3929FA02F910EA090FF2D021A3D3E9002300F0C7F80022002300F005FD0028DED0002D20DB454627EA090738462946D8E718A3D3E9002300F0B4F824
:4049C0000022002300F0F2FC0028CBD0002D18DB00273D46C6E702460B4600F0A5F8CCE74FF4801343FA06F6B044B8E7142E10D00123C6F1340603FA06F6371928BF98449C
:404A0000D3E725F00042074B224318BF1D460027A8E705F10108C8E79C7500883CE4377EFFFF0F000000F0BFF8B5C1F30A5604460D460B46174606BB21F00043034325D08A
:404A400000222F4B00F022FA2E4A044697420D460B462ADBC1F30A56363E40F2FE723E44964228DC002E12DD23F0FF4323F4E00343EA065520462946F8BD40F2FF729642C9
:404A8000EBD102460B4600F04FF8F8BDF8BD16F1350F1DDA4CF250339F420CDC14A1D1E9000122462B4600F031F811A3D3E9002300F0ECF9F8BD22460FA1D1E900012B4671
:404AC00000F024F80CA3D3E9002300F0DFF9F8BD23F0FF4323F4E003363643EA0655204629460022084B00F0D1F9F8BDAFF3008059F3F8C21F6EA5019C7500883CE4377EDA
:404B000000005043B03CFFFF0000903C03F0004321F0004242EA0301704700BF81F0004102E000BF83F0004330B54FEA41044FEA430594EA050F08BF90EA020F1FBF54EA10
:404B4000000C55EA020C7FEA645C7FEA655C00F0E2804FEA5454D4EB5555B8BF6D420CDD2C4480EA020281EA030382EA000083EA010180EA020281EA0303362D88BF30BD3E
:404B800011F0004F4FEA01314FF4801C4CEA113102D0404261EB410113F0004F4FEA03334CEA133302D0524263EB430394EA050F00F0A780A4F10104D5F1200E0DDB02FAAF
:404BC0000EFC22FA05F2801841F1000103FA0EF2801843FA05F359410EE0A5F120050EF1200E012A03FA0EFC28BF4CF0020C43FA05F3C01851EBE37101F0004507D54FF042
:404C0000000EDCF1000C7EEB00006EEB0101B1F5801F1BD3B1F5001F0CD349085FEA30004FEA3C0C04F101044FEA445212F5800F80F09A80BCF1004F08BF5FEA500C50F115
:404C4000000041EB045141EA050130BD5FEA4C0C404141EB010111F4801FA4F10104E9D191F0000F04BF01460020B1FA81F308BF2033A3F10B03B3F120020CDA0C3208DDE9
:404C800002F1140CC2F10C0201FA0CF021FA02F10CE002F11402D8BFC2F1200C01FA02F120FA0CFCDCBF41EA0C019040E41AA2BF01EB0451294330BD6FEA04041F3C1CDA52
:404CC0000C340EDC04F11404C4F1200220FA04F001FA02F340EA030021FA04F345EA030130BDC4F10C04C4F1200220FA02F001FA04F340EA0300294630BD21FA04F02946A8
:404D000030BD94F0000F83F4801306BF81F480110134013D4EE77FEA645C18BF7FEA655C29D094EA050F08BF90EA020F05D054EA000C04BF1946104630BD91EA030F1EBF81
:404D40000021002030BD5FEA545C05D14000494128BF41F0004130BD14F580043CBF01F5801130BD01F0004545F0FE4141F470014FF0000030BD7FEA645C1ABF19461046F7
:404D80007FEA655C1CBF0B46024650EA013406BF52EA033591EA030F41F4002130BD00BF90F0000F04BF0021704730B54FF4806404F132044FF000054FF0000150E700BF43
:404DC00090F0000F04BF0021704730B54FF4806404F1320410F0004548BF40424FF000013EE700BF42004FEAE2014FEA31014FEA02701FBF12F07F4393F07F4F81F06051D7
:404E0000704792F0000F14BF93F07F4F704730B54FF4607401F0004521F0004120E700BF50EA010208BF704730B54FF000050AE050EA010208BF704730B511F0004502D57A
:404E4000404261EB41014FF4806404F132045FEA915C3FF4DCAE4FF003025FEADC0C18BF03325FEADC0C18BF033202EBDC02C2F1200300FA03FC20FA02F001FA03FE40EA53
:404E80000E0021FA02F11444C1E600BF70B54FF0FF0C4CF4E06C1CEA11541DBF1CEA135594EA0C0F95EA0C0F00F0DEF82C4481EA030621EA4C5123EA4C5350EA013518BFF0
:404EC00052EA033541F4801143F4801338D0A0FB02CE4FF00005E1FB02E506F00042E0FB03E54FF00006E1FB03569CF0000F18BF4EF0010EA4F1FF04B6F5007F64F5407431
:404F000004D25FEA4E0E6D4146EB060642EAC62141EA55514FEAC52040EA5E504FEACE2EB4F1FD0C88BFBCF5E06F1ED8BEF1004F08BF5FEA500E50F1000041EB045170BDB6
:404F400006F0004646EA010140EA020081EA0301B4EB5C04C2BFD4EB0C0541EA045170BD41F480114FF0000E013C00F3AB8014F1360FDEBF002001F0004170BDC4F100049E
:404F8000203C35DA0C341BDC04F11404C4F1200500FA05F320FA04F001FA05F240EA020001F0004221F0004110EBD37021FA04F642EB06015EEA430E08BF20EAD37070BD64
:404FC000C4F10C04C4F1200500FA04F320FA05F001FA04F240EA020001F0004110EBD37041F100015EEA430E08BF20EAD37070BDC4F1200500FA05F24EEA020E20FA04F354
:4050000001FA05F243EA020321FA04F001F0004121FA04F220EA020000EBD3705EEA430E08BF20EAD37070BD94F0000F0FD101F00046400041EB010111F4801F08BF013C26
:40504000F7D041EA060195F0000F18BF704703F00046520043EB030313F4801F08BF013DF7D043EA0603704794EA0C0F0CEA135518BF95EA0C0F0CD050EA410618BF52EA1F
:405080004306D1D181EA030101F000414FF0000070BD50EA410606BF1046194652EA430619D094EA0C0F02D150EA013613D195EA0C0F05D152EA03361CBF104619460AD17E
:4050C00081EA030101F0004141F0FE4141F470014FF0000070BD41F0FE4141F4780170BD70B54FF0FF0C4CF4E06C1CEA11541DBF1CEA135594EA0C0F95EA0C0F00F0A7F8D0
:40510000A4EB050481EA030E52EA03354FEA013100F088804FEA03334FF0805545EA131343EA12634FEA022245EA111545EA10654FEA00260EF000419D4208BF964244F163
:40514000FD0404F5407402D25B084FEA3202B61A65EB03055B084FEA32024FF480104FF4002CB6EB020E75EB030E22BFB61A754640EA0C005B084FEA3202B6EB020E75EBFE
:40518000030E22BFB61A754640EA5C005B084FEA3202B6EB020E75EB030E22BFB61A754640EA9C005B084FEA3202B6EB020E75EB030E22BFB61A754640EADC0055EA060E11
:4051C00018D04FEA051545EA16754FEA06164FEAC30343EA52734FEAC2025FEA1C1CC0D111F4801F0BD141EA00014FF000004FF0004CB6E711F4801F04BF01430020B4F1E2
:40520000FD0C88BFBCF5E06F3FF6AFAEB5EB030C04BFB6EB020C5FEA500C50F1000041EB045170BD0EF0004E4EEA113114EB5C04C2BFD4EB0C0541EA045170BD41F48011EE
:405240004FF0000E013C90E645EA060E8DE60CEA135594EA0C0F08BF95EA0C0F3FF43BAF94EA0C0F0AD150EA01347FF434AF95EA0C0F7FF425AF104619462CE795EA0C0F87
:4052800006D152EA03353FF4FDAE1046194622E750EA410618BF52EA43067FF4C5AE50EA41047FF40DAF52EA43057FF4EBAE12E74FF0FF3C06E000BF4FF0010C02E000BF01
:4052C0004FF0010C4DF804CD4FEA410C7FEA6C5C4FEA430C18BF7FEA6C5C1BD001B050EA410C0CBF52EA430C91EA030F02BF90EA020F0020704710F1000F91EA030F58BF28
:40530000994208BF90422CBFD8176FEAE37040F0010070474FEA410C7FEA6C5C02D150EA013C07D14FEA430C7FEA6C5CD6D152EA033CD3D05DF8040B704700BF844610463A
:4053400062468C461946634600E000BF01B5FFF7B7FF002848BF10F1000F01BD4DF808EDFFF7F4FF0CBF012000205DF808FB00BF4DF808EDFFF7EAFF34BF012000205DF8C5
:4053800008FB00BF4DF808EDFFF7E0FF94BF012000205DF808FB00BF4DF808EDFFF7CEFF94BF012000205DF808FB00BF4DF808EDFFF7C4FF34BF012000205DF808FB00BF8B
:4053C0004FEA410212F5001215D211D56FF47873B3EB625212D94FEAC12343F0004343EA505311F0004F23FA02F018BF404270474FF00000704750EA013005D111F0004076
:4054000008BF6FF0004070474FF00000704700BF80F0004002E000BF81F0004142001FBF5FEA410392EA030F7FEA226C7FEA236C6AD04FEA1262D2EB1363C1BFD218414068
:4054400048404140B8BF5B42192B88BF704710F0004F40F4000020F07F4018BF404211F0004F41F4000121F07F4118BF494292EA030F3FD0A2F1010241FA03FC10EB0C00F5
:40548000C3F1200301FA03F100F0004302D5494260EB4000B0F5000F13D3B0F1807F06D340084FEA310102F10102FE2A51D2B1F1004F40EBC25008BF20F0010040EA0300CC
:4054C0007047490040EB000010F4000FA2F10102EDD1B0FA80FCACF1080CB2EB0C0200FA0CF0AABF00EBC25052421843BCBFD0401843704792F0000F81F4000106BF80F470
:4055000000000132013BB5E74FEA41037FEA226C18BF7FEA236C21D092EA030F04D092F0000F08BF0846704790EA010F1CBF0020704712F07F4F04D1400028BF40F00040F5
:40554000704712F100723CBF00F50000704700F0004343F0FE4040F4000070477FEA226216BF08467FEA23630146420206BF5FEA412390EA010F40F4800070474FF0000396
:4055800004E000BF10F0004348BF40425FEA000C08BF704743F0964301464FF000001CE050EA010208BF70474FF000030AE000BF50EA010208BF704711F0004302D540421D
:4055C00061EB41015FEA010C02BF84460146002043F0B64308BFA3F18053A3F50003BCFA8CF2083AA3EBC25310DB01FA02FC634400FA02FCC2F12002BCF1004F20FA02F265
:4056000043EB020008BF20F00100704702F1200201FA02FCC2F1200250EA4C0021FA02F243EB020008BF20EADC7070474FF0FF3C06E000BF4FF0010C02E000BF4FF0010CD7
:405640004DF804CD4FEA40024FEA41037FEA226C18BF7FEA236C11D001B052EA530C18BF90EA010F58BFB2EB030088BFC81738BF6FEAE17018BF40F0010070477FEA226C94
:4056800002D15FEA402C05D17FEA236CE4D15FEA412CE1D05DF8040B704700BF844608466146FFE70FB5FFF7C9FF002848BF10F1000F0FBD4DF808EDFFF7F4FF0CBF01205D
:4056C00000205DF808FB00BF4DF808EDFFF7EAFF34BF012000205DF808FB00BF4DF808EDFFF7E0FF94BF012000205DF808FB00BF4DF808EDFFF7D2FF94BF012000205DF86B
:4057000008FB00BF4DF808EDFFF7C8FF34BF012000205DF808FB00BF014B1868704700BF6481FF1F0E4B70B51E460E4C0025E41AA410A54204D056F8253098470135F8E7BB
:4057400002F030FB084B094C1E46E41AA4100025A54204D056F8253098470135F8E770BDB07D0000B07D0000B07D0000B87D000010B5431E0A44914204D011F8014B03F883
:40578000014FF8E710BD03460244934202D003F8011BFAE770472DE9F04788B0149F002B1E461299B8BF03F1004327F02007B6BF1E4600232D23462F1446109DDDF84CA021
:4057C0000B7003D0452F03D1013501E0032300E0022307AA049206AA03928DE828042246334600F001FD472F804602D1119BDB0728D5462F08EB050911D198F80030302BC8
:405800000AD10022002320463146FFF7A7FD18B9C5F10105CAF80050DAF8003099440022002320463146FFF799FD08B9302202E0CDF81C9006E0079B994503D9591C0791F0
:405840001A70F8E74046079B159AC8EB0303136008B0BDE8F087034673B50029B8BF494203F8022BB4BF2D222B22092942701ADD0DF1070216460A2591FBF5F405FB14110E
:40588000092C01F1300102F8011D2146F4DC3031541E02F8011CB4421A460AD214F8012B03F8012BF7E71A463024214402F8024B5970101A02B070BD2DE9F04F91B00C46CE
:4058C000DDF8688016461F46054601F025FA03681846099300F0F4FB00230E93D8F800300A90073323F0070303F1080294F81890D4F800B0C8F80020D3E90023C4E9122387
:40590000D4F84CA0D4F848802AF000430B934FF0FF32A74B40460B9901F052FFA0B94FF0FF32A34B40460B99FFF72CFD60B90022002340465146FFF71BFD10B12D2384F83C
:4059400043309C4B9C4A0AE0424653464046514601F036FF002800F09281984B984AB9F1470F8CBF90469846032323612BF0040323604FF0000A3DE0B9F1670F00F08A81DA
:40598000B9F1470F00F0868123600193636800210DF13302059002920093424653460691CDF81090CDF80CE02846FFF7F4FE09F0DF03472B804600F08481B9F1650F0D990E
:4059C00000F28D8101394A4604F150000D91FFF742FF0E9A82468318012A236100F37C812268D10700F178819DF8333013B12D2384F84330009733460FAA2146284600F044
:405A00009FF9013002D14FF0FF3096E123685A0501D4236965E0B9F1650F40F2D580D4E9120100220023FFF799FC78B30123654A31462846B8470130E5D00E9B0D9A9A421C
:405A40000BDB2368D80708D423689B0740F111814FF0000804F1190906E10A9B099A31462846B8470130CED04FF0000804F11A090E9B013B9845E7DA01234A46314628464F
:405A8000B8470130BFD008F10108F1E70D9B002B29DC01234B4A31462846B8470130B2D00D9B23B90E9B13B92368D907CCD50A9B099A31462846B8470130A4D04FF0000907
:405AC00004F11A0A0D9B5B42994509DA0123524631462846B847013095D009F10109F1E70E9B4246A7E00E9AA36D9A42A8BF1A46002A914606DC4FF0000A29EAE97904F1CC
:405B00001A0B11E01346314642462846B8470130F1D178E701235A4631462846B84701303FF471AF0AF1010AA36DC9EB03029245F0DB08EB03090D9A0E9B9A420FDB2368FB
:405B4000DA070CD40E9B0D9A9844C9EB08089B1A9845A8BF9846B8F1000F08DC0FE00A9B099A31462846B8470130EBD14BE743464A4631462846B84701303FF444AF4FF034
:405B8000000928EAE87804F11A0A09E00123524631462846B84701303FF435AF09F101090D9A0E9B9B1AC8EB03039945EEDB4BE7FFFFEF7F427C0000467C00004A7C000033
:405BC0004E7C0000527C00000E9A012A01DCDB0738D50123424631462846B84701303FF412AF0A9B099A31462846B84701303FF40AAFD4E9120100220023FFF7AFFB20B1EA
:405C00004FF0000804F11A090EE00E9B08F10102013B19E001234A4631462846B84701303FF4F1AE08F101080E9B013B9845F1DB534604F1500231462846B84701307FF4AA
:405C400003AFE0E64246012331462846B8470130EED1D8E601234A4631462846B84701303FF4D1AE08F10108E3680F9A9B1A9845F0DBE0680F9B9842B8BF18465DE06268F8
:405C80000EA8531C0DF1340E4BF480637FF474AE062201E012B90122626075E6002106910DF133018DE80C00236005904246CDF81090CDF80CE0029153462846FFF76BFD9B
:405CC00080460D9BD81C02DB626893421DDDA9F102095FFA89F970E60133236184E6B9F1660F14D10029636807DD216113B92268D2071DD501330B4419E013B92268D007AC
:405D000001D5023313E0012311E04FF067090D9B0E9A934205DB22682361D10708D5013305E0002BD4BFC3F102030123134423610D9B4FF0000AA36556E611B0BDE8F08F30
:405D40002DE9F04791461F460A698B6806469342B8BF1346C9F8003091F843200C46DDF8208012B10133C9F800302368990642BFD9F800300233C9F80030256815F00605C8
:405D800010D104F1190A07E00123524639463046C04701301AD00135E368D9F800209B1A9D42F1DB94F843302268003318BF012392060FD5E118302081F843005A1C94F824
:405DC00045102244023382F8431003E04FF0FF30BDE8F08704F1430239463046C0470130F4D02268D9F80050E36802F00602042A08BF5D1B2269A3680CBF25EAE575002502
:405E00009342C4BF9B1AED184FF000091A344D4509D00123224639463046C0470130D5D009F10109F3E70020BDE8F0872DE9F04317460A7E85B06E2A984606460C460C9BB9
:405E400001F1430E00F0AE8011D8632A22D009D8002A00F0BB80582A40F0CA8081F84520834955E0642A1ED0692A1CD0C0E0732A00F0B08009D86F2A2ED0702A40F0B88076
:405E80000A6842F020020A603EE0752A24D0782A3AD0ADE01A6801F14205111D1960136884F84230A8E021681A6811F0800F02D0111D196008E011F0400F02F104011960B8
:405EC00002D0B2F9003000E01368002B3CDA2D225B4284F8432037E021681A6811F0800F02D0111D196007E011F0400F02F10401196001D0138800E01368227E5C496F2A16
:405F000014BF0A2208221BE078225A4984F845202268186812F0800F00F104051D6003D1550601D5038800E00368D00744BF42F0200222601BB9226822F02002226010223C
:405F4000002084F8430001E049490A226568002DA56008DB206820F0040020602BB9002D7DD175460CE0002B79D07546B3FBF2F002FB1033CB5C05F8013D03460028F5D107
:405F8000082A0BD12368DA0708D5236962689A42DEBF302305F8013C05F1FF35C5EB0E0323612EE008681A6810F0800F496903D0101D1860136808E010F0400F02F104005D
:405FC0001860136801D0198000E0196000232361754616E01A68111D1960156800216268284600F0A5FE08B1401B6060636804E004F1420584F8422001232361002384F81D
:406000004330CDF800803B4603AA21463046FFF797FE013002D14FF0FF3026E023692A4639463046C0470130F5D023689B0710D5002504F1190907E001234A4639463046CE
:40604000C0470130E7D00135E368039A9B1A9D42F2DBE068039B9842B8BF184605E00B7804F1420584F842308AE705B0BDE8F083547C0000657C00000EB400B54FF402716F
:406080009CB0ADF814106FF00041049107914FF6FF711DAB02900690084853F8042BADF81610006802A9019301F038FA029B00221A701CB05DF804EB03B070476481FF1F34
:4060C000034613F8012B002AFBD1181A013870472DE9F74F03690C6980469C427FDC013C01F114074FEA840E00F1140606EB0E0357F82450019356F824300135B3FBF5F5E3
:4061000007EB0E09C5B34FF0000A3846B446D34650F8043B9AB205FB02A21B0C4FEA124A05FB03A392B2C2EB0B0BBCF800204FEA134A5A441FFA83FBDCF800308145CBEB05
:40614000134303EB224392B242EA03424FEA234B4CF8042BDCD256F80E306BB9019B043B9E421A4602D3C8F8104005E01268043B002AF8D1013CF3E7404600F0F4FF002810
:406180002BDB304601354FF0000E57F8042B036891B2C1EB0E0E120C99B27144C2EB134303EB214389B24FEA234EB94541EA034340F8043BE9D256F8242006EB840362B9CE
:4061C000043B9E421A4602D3C8F8104005E01268043B002AF8D1013CF3E7284600E0002003B0BDE8F08F00002DE9F04F456A95B08246219CCDE9022345B9102000F090FDFA
:40620000CAF82400456085600560C560DAF82430196859B15A68012393404A608B60504600F0C9FDDAF8243000221A60039BA04A002BBDBF01232360039B0023BCBF23F032
:4062400000430393DDF80C80A8BF236028F000431B0D1B0593421DD142F20F73209A1360029B43B9934A944BC8F31300002814BF1846104600E09048229B002B00F0468584
:40628000C37813B100F1080300E0C31C229A136000F03CBDDDE902450022002320462946FFF75CF8074658B1209A01231360229B002B00F01E8581481860013800F026BD2C
:4062C00012AB019313AB009322462B46504600F0C5FFC8F30A56049056B1C5F3130343F07F51204641F44011A6F2FF3611971DE0139B129E1E4406F23243202B0ADD029AF9
:4063000006F21240C3F1400322FA00F008FA03F3184304E0C3F12000029B03FA00F0FEF73FFD0123A1F1F871013E11930022644BFEF7F8FB58A3D3E90023FEF7A7FD58A321
:40634000D3E90023FEF7F0FB044630460D46FEF737FD55A3D3E90023FEF798FD02460B4620462946FEF7E0FB04460D46FFF728F800228346002320462946FEF7F9FF58B1F7
:406380005846FEF71DFD02460B4620462946FEF7E5FF08B90BF1FF3BBBF1160F0DD8DDE90223484901EBCB01D1E90001FEF7FEFF30B10BF1FF3B002300E00123109300E09A
:4063C0001090129B9E1B731E079343BFC3F10008002307934FF00008BBF1000F06DB079BCDF82CB05B440793002705E00023CBEB0808CBF100070B931E9B092B28D8052B1F
:40640000C4BF043B1E931E9BC8BF0025A3F10203D8BF0125032B20D8DFE803F0060E0204012302E0012308E000230A931F9B002B1DDD9946059321E000230A931F9B0BEB9B
:40644000030909F10103012B0593B8BF012315E0012500231E930A9501E001230A934FF0FF390022CDF8149012231F9206E04FF001094B46CDF81490CDF87C90DAF824406B
:4064800000226260042101F114029A421CD86268490001326260F6E761436F63A787D23FB3C8608B288AC63FFB799F501344D33F0000F07F767C00007F7C0000537C00004D
:4064C0000000F83F907C00006168504600F03EFCDAF8243020601B680693059B0E2B00F25B81002D00F05881DDE90234BBF1000FCDE90E3430DD9F4A0BF00F034FEA2B1546
:4065000002EBC303E80618CBCDE908340CD5DDE90E01994B05F00F05D3E90823FEF7E0FD0324CDE9020100E00224934E6DB1E90708D5DDE90801D6E90023FEF7A7FCCDE9D8
:40654000080101346D100836F0E7DDE90823DDE90201FEF7C5FD20E0CBF1000505B3DDE90E01844B05F00F0203EBC203D3E90023FEF78CFCCDE902017F4E2D11002302249B
:4065800055B1EA0705D5D6E90023FEF77FFC013401236D100836F3E71BB1CDE9020100E00224109BE3B1DDE902560022734B28463146FEF7DDFE98B1059B8BB1B9F1000F6F
:4065C00040F3E6800BF1FF330893314600226C4B2846FEF75BFC0134CDE902014E4602E0059ECDF820B02046FEF7EAFBDDE90223FEF74CFC634B0022FEF796FAA1F1507381
:4066000004460C931D46D6B9DDE9020100225E4BFEF788FA22460C9BCDE90201FEF7C6FE002840F03F820C99224601F10043DDE90201FEF79DFE002840F02B82A8E00A9A0E
:406640004C4B711E002A49D003EBC103D3E9002300204E49FEF744FD22462B46FEF762FACDE90C01069CDDE90201FEF7A9FE0546FEF7A6FB02460B46DDE90201FEF752FABB
:40668000DDE90C23303504F8015BCDE90201FEF76FFE002840F01D83DDE9022300203749FEF740FADDE90C23FEF762FE002840F0D180069BE31AB3426ADADDE90C0100229C
:4066C0002F4BFEF7E3FB0022CDE90C01DDE902012B4BFEF7DBFBCDE90201C4E703EBC1012246D1E900012B46FEF7D0FB069BCDE90C011D469C19DDE90201FEF761FE064611
:40670000FEF75EFB02460B46DDE90201FEF70AFA303605F8016BAC42CDE902014FF0000222D11A4BDDE90C01FEF7FEF902460B46DDE90201FEF73AFE002840F08B80DDE92A
:406740000C2300201149FEF7EDF902460B46DDE90201FEF70DFED8B114F8013C621E302B40F0B7821446F7E7054BFEF78FFBCDE90201C0E7907C0000687D00000000F03F96
:406780000000244000001C40000014400000E03FDDE90E34CDE90234139B002B7CDBBBF10E0F79DCAB4B03EBCB03D3E900671F9B002B14DA059B002B11DC40F06C810022C5
:4067C000A54B30463946FEF761FBDDE90223FEF7E3FD059D2E46002840F05F8165E1069CDDE9028932463B4640464946FEF778FCFEF7E6FD0546FEF7E3FA32463B46FEF7C2
:4068000045FB0B46024649464046FEF78BF905F1300E069B04F801EBC3EB040E059B73452DD102460B46FEF77FF98046894602460B4630463946FEF79BFD78B942464B461E
:4068400030463946FEF78AFD002800F04482EB0704D440E2DDF820B000E01C4614F8012C631E392A07D1069A9A42F6D1069930220BF1010B0A701A7801321A702BE20022CD
:40688000764BFEF703FB0022002380468946FEF765FD0028A6D01EE20A9A002A2BD01E9A012A0ADC119A12B103F2334302E0129BC3F136033D46444613E0059B5D1EAF4262
:4068C000BFBF0B9BEA1B9B180B93059BB6BF2F467D1B0025002BA7BF4446059BC3EB08040023079A01211A4450469844079200F001FB064602E03D4644460A9E5CB1079B95
:40690000002B08DDA342A8BF2346079AC3EB0808E41AD31A0793002F1DDD0A9BABB18DB131462A46504600F07FFB049A01460646504600F0E8FA04990890504600F03BFAD6
:40694000089B04937A1B06D000E03A460499504600F06AFB04900121504600F0CBFA0B9B05465BB31A460146504600F05DFB1E9B0546012B18DC029B83B9039BC3F313039E
:4069800073B9039B23F000473F0D3F054FB1079B08F1010801330793012702E0002700E0029F0B9B73B100E000272B6905EB8303186900F052FAC0F1200004E01E9B012BCD
:4069C000D9DD0B9F0120079B184410F01F0008D0C0F12003042B02DDC0F11C0002E006D018461C30079B8044034404440793B8F1000F05DD42460499504600F063FB04904A
:406A0000079B002B05DD29461A46504600F05AFB0546109B23B32946049800F0A4FB00281EDA00230A220499504600F0DBF90A9B0BF1FF3B0490002B00F05F81314600232D
:406A40000A22504600F0CEF9B9F1000F06463FDC3BE000BF907C00000000144000002440059B002B2BDC1E9B022B28DDDDF81490B9F1000F11D129464B460522504600F061
:406A8000B1F901460546049800F06DFB00280CDC03E0354600E000252E461F9B069C6FEA030B09E03546DDF820B0069B069A5C1C312313700BF1010B05960026F7E00A9B1E
:406AC000DDF8149023B9069CB2E01E9B022BCFDC002C05DD31462246504600F0F3FA06469FB17168504600F031F90446326906F10C01023292000C30FEF73AFE0122214655
:406B0000504600F0DFFA059000E00596029B069F03F00103079329460498FFF7D9FA3146044600F13008049800F01DFB059A02902946504600F033FBC36802463BB90146AF
:406B40000A90049800F00FFB0A9A034600E00123114650460A9300F02EF90A9B53B91E9A42B9079A32B9B8F1390F2AD0029B002B1CDC1DE0029A002A04DB1BD11E9ACAB9EF
:406B8000079ABAB9002B13DD01220499504600F099FA2946049000F0E6FA002803DC07D118F0010F04D0B8F1390F0AD004F131087C1C0CE0002B07F101040BDDB8F1390FB1
:406BC00003D139233B70013756E008F1010887F800806CE0069B2746E31A4B4504F8018C3BD000230A220499504600F0FBF8059B04909E424FF00A024FF0000331465046BD
:406C000004D100F0EFF80646059084E700F0EAF8002306460A220599504600F0E3F8059079E700230A220499504600F0DBF8049029460498FFF74CFA069B00F1300804F815
:406C4000018BE31A4B45ECDB069B0596B9F1010FACBF4B4401331F46002601220499504600F030FA2946049000F07DFA002803DC15D118F0010F12D03C4614F8013C621E79
:406C8000392B09D1069B934204D10BF1010B3123069A02E01446F0E70133137007E03C4614F8013C621E302B01D11446F8E72946504600F080F8059B6BB12EB19E4203D032
:406CC0003146504600F077F80599504600F073F801E0DDF820B00499504600F06CF80023209A23700BF101031360229B1BB11C6001E008480AE0069808E0B9F1000F3FF714
:406D0000E2AE1E9B022B7FF7DEAEB1E615B0BDE8F08F00BF527C0000004870476881FF1F024B0146186800F041BB00BF6481FF1F10B5C9B202449042034605D01C780130CB
:406D40008C42F8D1184610BD002010BD70B5456A04460E463DB91020FFF7E2FF6062456085600560C560656AEB6843B1636ADB6853F8260078B1026843F8262017E021223A
:406D80000421204600F0B8FA636AE860DB68002BECD1002070BD012101FA06F56A1D9200204600F0A9FA0028F3D04660856000230361C36070BD70B5446A06460D463CB93B
:406DC0001020FFF7ADFF7062446084600460C4603DB1736A6A68DB6853F82210296043F8225070BD2DE9F04106460C460D691F4601F1140E0023DEF80000013381B202FBEE
:406E00000171000C0F0C02FB007089B201EB00419D424FEA10474EF8041BECDCD7B1A3689D4212DB616830460131FFF78FFF8046226904F10C01023292000C30FEF798FC16
:406E400021463046FFF7B7FF444604EB850301355F6125612046BDE8F081030C1B0413B90004102300E0002310F07F4F04BF0002083310F0704F04BF0001043310F0404F45
:406E800004BF80000233002803DB420003D5581C70471846704720207047036813F007020BD0D90722D49A074BBF5B089B08036003604CBF01200220704799B209B91B0C2B
:406EC000102213F0FF0F04BF1B0A0832190704BF1B090432990704BF9B080232D90702D45B0805D00132036010467047002070472020704710B50C460121FFF727FF0122DF
:406F00004461026110BD2DE9F74F14460A69236988469A42BEBF0B46A0461C46D8F81070D4F81090D8F80830D8F8041007EB09069E42C8BF0131FFF709FF00F114052B464C
:406F400005EB860C0022634502D243F8042BFAE704F1140208F1140102EB890301EB87070093009B0192934257D9B2F800B0BBF1000F23D08946AE464FF0000859F8044B22
:406F8000BEF800A0A3B20BFB03A34FEA144ADEF8004043444FEA14480BFB0A84F24604EB13449BB243EA04434F454FEA14484AF8043B01D9D646E1E7CEF80480019B04325A
:406FC000B3F802A0BAF1000F21D02C4689462B684FF00008B9F800E0B4F802B09BB20AFB0EBEA346F04443EA08434BF8043B59F8043BB4F804E01B0C0AFB03E34F4503EBA6
:4070000018434FEA134801D95C46E3E763600435A7E75CF8043D13B9013E002EF9DC066103B0BDE8F08F00002DE9F843154612F0030206460F4607D0214C013A002354F86E
:407040002220FFF7CFFE0746AD1036D0746A3CB91020FFF765FE7062446084600460C460D6F82480D8F808404CB940F271213046FFF740FF04460023C8F8080003604FF0E8
:407080000008EB070AD5394622463046FFF73BFF814639463046FFF78EFE4F466D100CD0206808B10446ECE7224621463046FFF72AFF2060C0F80080F4E73846BDE8F8834B
:4070C000587D00002DE9F0470C460746914626694FEA621A56444968A368751CAB4202DA01315B00FAE73846FFF730FE002380461A4600F11401534503DA41F82320013380
:40710000F9E72AEAEA73206901EB830319F01F0904F1140101EB800E14D0C9F1200C002208689A4600FA09F0024343F8042B51F8042B8E4522FA0CF2F2D8CAF8042042B168
:40714000B51C06E0043B51F8042B8E4543F8042FF9D8013D3846C8F810502146FFF72BFE4046BDE8F08703690A6910B59B1A11D192001430143183180A4453F8044D52F866
:40718000041D8C4202D007D3012010BD9842F4D3002010BD184610BD4FF0FF3010BD2DE9F8430C460746114620461546FFF7DBFF061E08D131463846FFF7C8FD0123036145
:4071C0004661BDE8F883BCBF23462C4638466168BABF1D4601260026FFF7B8FD2B69C660266905F1140904F1140101EB860709EB830800F114054FF0000C51F8042B59F8DB
:40720000044B93B29C44A3B2240CC3EB0C03C4EB124202EB23429BB24FEA224CC84543EA02428E4645F8042BE7D8BE450ED25EF8041B8AB26244131403EB114392B242EABF
