:400000000080002011000000552200005522000008B5044B1A6803F53F5302331A6002F039F900BFFA46004010B5054C237833B9044B13B10448AFF300800123237010BD55
:40004000A081FF1F00000000A47C0000084B10B51BB108490848AFF300800848036803B910BD074B002BFBD0BDE81040184700BF00000000A481FF1FA47C0000C880FF1F12
:400080000000000008B501F01FF808BD08B5642002F0C0F9044B1B682BB1044802F050FA0222014B5A6008BDBC81FF1FA87C000008B503F02FFB03F007FC0122C8216FF0EB
:4000C000130001F0FDFC0122C821142001F0F8FC03F036FBC82003F089FA03F00BFCC82003F060FB08BD00BF2DE9F04782B062B602F080F902F00AFACC4802F021FA02F09D
:400100004FFD02F031FF002002F040FFC84C207A02F0F8FE0025E560284603F055F9012003F04CF94FF4FA7002F074F9022003F045F94FF4FA7002F06DF9032003F03EF947
:400140004FF4FA7002F066F9284603F037F94FF4FA7002F05FF900F0A1FD03F0FDF84FF47A7003F0B1F84FF4FA7002F053F903F007F903F04FF84FF48C6003F003F84FF442
:40018000FA7002F047F903F053F803F087FA03F05FFB284603F02AFA284603F003FB03F0B9FA03F091FB03F0A1F903F0E7F90326A04B1E6002F068FF02F00EFF9E4803F078
:4001C00051F99E4803F026F99D4803F04DFD012727609C4802F0B4F900F0FAFF00F0F8FF00F0F6FF03F012FD03F0CAFC6560276102236361A6618E4B5B68012B78D101F0BA
:40020000F3FD072001F062FB01240194C82500950523042200216FF0630001F0F1F9019400950023042221464FF4C87001F0E8F922462946844801F043FC4FF4FA7002F078
:40024000E9F800F02BFD4FF4FA7002F0E3F822462946AA2001F034FC4FF4FA7002F0DAF8002414E000F04EFD714D05EB8405E8614FF4FA7002F0CEF80122C8213D2001F046
:400280001FFC4FF4FA71E86900F002FF0134042CE8DD6E4802F054F900240CE0644B03EB84036B4DDA696B49284606F041F9284602F046F90134042CF0DD012003F084F832
:4002C00001225B4BDA6000231A460CE0584901EB8301C86930B1032A04D0554901EB8201086101320133042BF0DD0222504B5A604F4B5B68022B40F00D8201F075FD002347
:4003000064226FF02201192001F036FD072001F0DDFA01210191C823009300230422822001F06EF9072001F0D1FA022000F0F0FE02E0022000F0ECFE474B9D68B5F58C7FE7
:40034000F7DCC5F503750135414C2A464349204606F0EEF8204602F0F3F801230193C8230093032304220021284601F049F94FF47A71022000F08CFE072001F0A7FA00204D
:4003800000F0C6FE3C2002F045F8334C23689633274EF363032000F0BBFE3C2002F03AF8022000F0B5FE3C2002F034F8A36803F1DC02E3681344B3639D4217DA0122C82164
:4003C0006FF02C0001F07CFB032000F0A1FE3C2002F020F8022000F09BFE3C2002F01AF8A36803F1DC02E3681344B36301230193C8230093032305220021284601F000F956
:400400004FF47A71022000F043FE134B5B696433074A5363C3F59662D31A5A2B20DD044A936BC3F58A63063313631FE0C07C0000BC81FF1FD882FF1F850000008D0000009C
:40044000B1000000D87C00003EFEFFFFF87C0000B482FF1F0C7D00003C82FF1F147D0000CD4A936BC3F56D7302331363CA4FCB4C3A6BCB49204606F05BF8204602F060F8DF
:400480007A6BC849204606F053F8204602F058F8BA6BC549204606F04BF8204602F050F8FA6BC249204606F043F8204602F048F8C821012000F09CFF4FF00109CDF80490AF
:4004C0004FF0C80ACDF800A0002304224946962001F096F8072001F0F9F9032000F018FE322001F097FFDFF8D082D8F80C20B049204606F01DF8204602F022F8D8F80C6030
:40050000C6F5527603363246AA49204606F010F8204602F015F8CDF80490CDF800A0022304220021304601F06BF8002000F0F0FD3C2001F06FFF052000F0EAFD3C2001F0D6
:4005400069FFD8F8008008F196047B6B9C4203DB994B9B689D421BDA974B986804F08CFE8BA3D3E9002304F0EDFE05F085F9B8F1C70F00DC00200319874A5364C3F5687362
:400580000233D3644FF47A71022000F081FD53E04FF47A71012000F07BFD01250195C8240094052304220021204601F029F82146032000F01DFF019500940023042229468C
:4005C000822001F01DF8072001F080F901950094032304220021304601F012F84FF47A71022000F055FD002000F092FD3C2001F011FF052000F08CFD3C2001F00BFF6E4C7D
:40060000E06804F039FE62A3D3E9002304F09AFE05F032F92368963318445F4AD064C0F56873023353646369632B05DC134664225A6440F23E32DA64574D584C6A6C5F4930
:40064000204605F075FF204601F07AFFEA6C5C49204605F06DFF204601F072FF6A6B5949204605F065FF204601F06AFFEA6B5649204605F05DFF204601F062FF6B6BB3F57A
:40068000847F02DD0122A5F85020434BDB6BB3F5847F03DD0122404BA3F852203E4B5B6CB3F5847F03DD01223B4BA3F854203A4BDB6CB3F5847F03DD0122374BA3F856206E
:4006C00001250195C8240094002305221946204600F096FF2146022000F08AFE2146284600F086FE072001F0F1F801950094002304222946AC2000F083FF009403230522DE
:4007000002219B2000F092FE072001F0DFF80322214B5A60204B5B68032B40F0FD801E4BB3F95020002A51D0B3F95430002B4DD001240194C8250095002305221946AF201C
:4007400000F05EFF072001F0C1F82946002000F04FFE114B986D6FF0360303FB00F001940095002304222146E13000F049FF072001F0ACF82946032000F03AFE01940095E5
:40078000062304222146962000F03AFFC1E000BF4FE92F37EFC6D33FBC81FF1FB482FF1F387D0000487D0000547D0000647D0000707D0000787D00003C82FF1F8C7D00003D
:4007C000A07D0000B47D0000C87D0000AF4BB3F95230ABB3AD49B1F9561089B301240194C82500950523042200210A2000F008FF072001F06BF82946002000F0F9FD0720BB
:4008000001F064F8A14B986D6FF0360303FB00F001940095002304222146E13000F0F0FE072001F053F82946204600F0E1FD01940095062304222146962000F0E1FE68E078
:400840009AB3924AB2F956207AB3904E706B01240194C8250095002305221946A73800F0CFFE072001F032F82946002000F0C0FDB06D6FF0360303FB00F001940095002359
:4008800004222146E13000F0BBFE072001F01EF82946204600F0ACFD01940095062304222146962000F0ACFE33E093B3774BB3F9543073B3754EF06B01240194C82500955A
:4008C000002305221946433000F09AFE072000F0FDFF2946002000F08BFDB06D6FF0360303FB00F001940095002304222146E13000F086FE072000F0E9FF2946032000F0B7
:4009000077FD01940095062304222146962000F077FE04225D4B5A605C4B5B68042B19D15A4C0125E5650221002000F0C3FC052000F0F6FC00F084FC2946032000F0BAFC86
:400940002A46C8216FF03B0001F0BAF80023E365052363604D4B5B68052B40F0CA804B4BB3F9502072B3B3F954305BB301240194C8250095052304220021322000F040FE46
:400980002946002000F034FD072000F09FFF01940095052304220021642000F031FE2946204600F025FD072000F090FF01940095002304222146AF2000F022FE072000F039
:4009C00085FF93E0314BB3F952307BB32F49B1F9561059B301240194C82500950523042200210A2000F00CFE2946002000F000FD072000F06BFF019400950523042200212F
:400A0000642000F0FDFD2946204600F0F1FC072000F05CFF01940095002304222146AF2000F0EEFD072000F051FF5FE082B3174AB2F9562062B3154B586B01240194C82564
:400A40000095052304220021C0F5AA60073000F0D7FD2946002000F0CBFC072000F036FF01940095052304220021642000F0C8FD2946204600F0BCFC019400950023042264
:400A80002146AF2000F0BCFD30E000BFBC81FF1F63B3804BB3F9543043B37E4BD86B01240194C8250095002305221946C0F58D60104400F0A5FD2946002000F099FC072072
:400AC00000F004FF01940095052304220021642000F096FD2946204600F08AFC01940095002304222146AF2000F08AFD0622694B5A60684B5B68062B40F09A80012002F05E
:400B000063FC644C0523E36000F0FCF8624B1A68A36D04EB830423699A421DD101250195C824009400230522194640F2262000F067FD2146002000F05BFC2146032000F053
:400B400057FC01950094002304222946AA2000F057FD072000F0BAFEC821022000F048FC0121032000F0A6FB4A4B9B6D63B9072000F0ACFE01210191C82300930023042259
:400B8000822000F03DFD09E000230193462300930623042201215F2000F032FD01213D4B986D00F087FB00F03DFB0021032000F081FB394B1B68022B03DD0722354B5A604E
:400BC00036E00133344A1360324EB36D0133B3650122C8216FF0810000F072FFC821032000F006FC072000F071FE01240194C825009500230522194640F2262000F000FDB3
:400C0000072000F063FE2946002000F0F1FB2946204600F0EDFB01940095002304222146B92000F0EDFC072000F050FE03237360184B5B68072B7FF4DEAA00240194C82541
:400C40000095234605222146D22000F0D9FC2946032000F0CDFB072000F038FE01260196009533460522214640F2F91000F0C8FC2946204600F0BCFB01960095052304225B
:400C80002146282000F0BCFC0221204600F012FBFEE700BFBC81FF1FCC80FF1F30B585B0002400940194029403940FE0E0B202F085FB0A2001F0AEFB01F0E4FF04AB03EB32
:400CC000840504F0BBFE45F8100C0134032CEDDD002002F073FB074B009A1A60064B019A1A60064B029A1A60054B039A1A6005B030BD00BFF882FF1FFC82FF1FF482FF1FF4
:400D00000483FF1FF0B585B0002400940194029403940FE0E0B202F051FB0A2001F07AFB01F0B0FF04AB03EB840504F087FE45F8100C0134032CEDDD002002F03FFB009FBA
:400D4000984B1F60019C984B1C60029D974B1D60039E974B1E60974B1B68052B00F2F880DFE813F0060054008100A000C300DC009149924B186804F0ADFD0146204604F0BD
:400D8000FFFEA8B18C498E4B186804F0A3FD0146284604F0F5FE58B187498A4B186804F099FD0146304604F0EBFE002840F0D9802946204604F002FF30B13146204604F000
:400DC000FDFE002840F0CF803146284604F0F6FE30B12946204604F0D3FE002840F0C5803146284604F0CCFE002800F0C0803146204604F0C5FE002800F0BB8029462046B5
:400E000004F0BEFE002840F0B68002E16E49204604F0B6FE58B16C49284604F0B1FE30B16949304604F0ACFE002840F0A6802946204604F0C3FE30B13146204604F0BEFEE0
:400E4000002840F09C803146284604F0B7FE002800F097802946204604F092FE002840F092800320D5E05949204604F0A7FE58B15649284604F0A2FE30B15549304604F072
:400E80007FFE002840F081805249204604F096FE00287CD15049284604F090FE002878D00220B6E04D49204604F088FE78B14B49284604F083FE50B14849304604F060FE3D
:400EC00028B14749384604F079FE002863D14149204604F073FE00285FD13E49284604F06DFE00285BD0022093E03E49204604F047FE00287ED03B49304604F041FE00286A
:400F00007AD03849284604F03BFE002876D03549384604F035FE002872D17AE02649384604F04CFE00286DD02F49204604F028FE002869D02C49284604F022FE002865D0B8
:400F40002A49304604F01CFE002861D1012060E0274801F0F5FA40F6B83001F05BFA002057E0002055E0012053E0022051E000204FE000204DE003204BE0002049E0012065
:400F800047E0032045E0022043E0002041E001203FE003203DE000203BE0012039E0032037E000BFE082FF1FE482FF1F3083FF1F0083FF1FC881FF1F0000FA44FC82FF1F97
:400FC000F482FF1F0483FF1F0000FA4500007A4600803B460050C34600F0D24600A08C4600007A4500409C4500409C4600C05A46EC7D000000200CE000200AE0002008E0FC
:40100000012006E0012004E0012002E0012000E0002005B0F0BD00BF30B585B0002400940194029403940FE0E0B202F0C7F90A2001F0F0F901F026FE04AB03EB840504F065
:40104000FDFC45F8100C0134032CEDDD002002F0B5F9002413E004AB03EB840353F8100C04F01CF902F02CFE074D02460B460749284605F05DFA284601F062FA0134032C53
:40108000E9DD05B030BD00BFB482FF1F107E000070B506460D4602F09DF90446002002F093F9F0B202F08AF9284601F0B3F9002002F084F94FF4967001F0ACF9204602F00B
:4010C00083F970BD0000000038B501F085FF01F09BFF0D4C206001F071FF0C4B1D682068C0F5803004F0C8F805A3D3E9002304F029F904EB850404F0BFFB606038BD00BF6C
:401100002BDF3312A111C63F3882FF1F3483FF1F10B50446C0B202F001F82B4B1C6001F0B3FF062C4BD8DFE804F0040E18222C364000012001F0B6FF0A2001F081F9002081
:4011400001F0B0FF10BD012001F0B8FF0A2001F077F9002001F0B2FF10BD012001F0BAFF0A2001F06DF9002001F0B4FF10BD012001F0BCFF0A2001F063F9002001F0B6FF38
:4011800010BD012001F0BEFF0A2001F059F9002001F0B8FF10BD012002F0B8FC0A2001F04FF9002002F0B2FC10BD012002F06AFD0A2001F045F9002002F064FD10BD03487C
:4011C00001F0BEF910BD00BF3483FF1F187E000038B50F4801F0B4F9002412E02046FFF797FF3C2001F016F90A4B03EB84030A4D5A680A49284605F09BF9284601F0A0F9E5
:401200000134042CEADD064801F09AF938BD00BF2C7E00003882FF1FB482FF1F707D0000487E000008B502F017F84FF48C6001F0A9FF4FF4FA7001F0EDF801F0F9FF08BDBC
:4012400008B502F009F840F2145001F09BFF4FF4FA7001F0DFF801F0EBFF08BDA0F57A7240F2DC539A4221D870B5054602F09CF802F080F80446281A0D4E86FB0036C017FC
:40128000C0EBA60606E03444A0B202F01DF80A2001F0C0F8AC42F6D1A8B202F015F84FF4FA7001F0B7F802F06BF870BD704700BF6766666638B505460C46012905D101F0E6
:4012C000CBFF40F2145001F05DFF2CB901F0C4FF4FF48C6001F056FF032D17D8DFE805F002070C1140F6C410FFF7B8FF12E040F26C70FFF7B3FF0DE040F24650FFF7AEFF7B
:4013000008E04FF47A70FFF7A9FF03E04FF41660FFF7A4FF012C01D801F08AFF38BD00BF2DE9F8430446002002F0F0FA002002F0F3FA02F005FA462002F058F902F0DAFA9B
:40134000462002F02FFAFFF76DFF012002F03CF8244B1C604FF04608C14600262EE002F0D7F8044602F08CF80546FFF7CBFC06460A2001F04FF81C4F32461C49384605F09E
:40138000D7F8384601F0DCF885EAE570A0EBE57084EAE473A3EBE473984203DD4FF04A084FF04209984203DA4FF042084FF04A09484602F01BF9404602F0F4F9002ECED061
:4013C000002002F065F8002002F0AAF802F0A2F902F07AFA00226421252000F071FBBDE8F88300BFC881FF1FB482FF1F4C7E000010B504460B4B1868201A5A2303FB00F0A1
:40140000B0F5877F02D010F5877F04D1064B83FB0023C3EBE070012200F022FC014B1C6010BD00BFD882FF1F565555552DE9F84380460F4691461C4640F21452484B43F802
:40144000242011E02046FFF763FE322000F0E2FF434B53F82450434E2A464349304605F067F8304601F06CF83D4B53F82430B3F5966FE7DCB9F1040F31D12AE03B4801F014
:401480005FF801F0FDFF02F043F8022F06D10023089A07216FF0040000F06EFC032F06D10023089A6FF00601052000F065FC2046FFF72EFE322000F0ADFF294B53F82450B6
:4014C000284E2A462849304605F032F8304601F037F888EAE873A3EBE8739D42CEDCB9F1050F31D12AE001F0CBFF02F011F8204801F026F8022F06D10023089A07216FF0E0
:40150000040000F039FC032F06D10023089A6FF00601052000F030FC2046FFF7F9FD322000F078FF0E4B53F824500E4E2A460E49304604F0FDFF304601F002F888EAE87333
:40154000A3EBE8739D42CEDB0A4800F0F9FF002001F09EFF002001F0E3FFBDE8F88300BF3C82FF1FB482FF1F707D0000547E00006C7E0000807E000010B51C4B1B68012B8E
:401580002DD0A0B90520FFF7C3FD322000F042FF174B5A69531E532B23D8164C1649204604F0C6FF204600F0CBFF012010BD012814D10020FFF7ACFD322000F02BFF0C4BEA
:4015C0001A68531E532B0ED80A4C0B49204604F0AFFF204600F0B4FF012010BD10BD002010BD002010BD002010BD00BF1882FF1F3C82FF1FB482FF1F8C7E000000000000A6
:401600002DE9F04F89B08346079105921C46129E012905D1002002F079F9002002F07CF9079B2BB9012002F071F9012002F074F940F21452A04B43F8242011E02046FFF735
:4016400067FD322000F0E6FE9B4B53F824509B4F2A469B49384604F06BFF384600F070FF954B53F82430B3F5966FE7DC02F068F85FFA86F8404601F0B9FF02F03BF9404651
:4016800002F090F8059B052B79D0B246B14600276FF4A763019387E001F0F2FE0746049001F036FF002FB8BF7F420028B8BF4042874203DDA6F1040906F1040A874203DAB1
:4016C000A6F1040A06F104095FFA89F001F08EFF5FFA8AF002F066F8072C0DD1069B5BB10020FFF715FD322000F094FE724B53F824500023069320E0072C0DD1069B5BB916
:401700000120FFF705FD322000F084FE6A4B53F824500123069310E02046FFF7F9FC322000F078FE644B53F824502A466449634804F0FEFE614800F003FF384603F09CFDD7
:40174000CDE90201019803F097FD57A3D3E9002303F046FC00225B4B03F040FC02460B46DDE9020104F07EF888B1139B012B0ED10798FFF701FF8046049B019307E0B24660
:40178000B14600276FF4A76301930697B8468BEAEB73A3EBEB739D4205DAB8F1000F3FF47BAF474600E04746059B042B5CD1B84651E001F065FE0746049001F0A9FE002FBC
:4017C000B8BF7F420028B8BF4042874203DDA6F1040906F1040A874203DAA6F1040A06F104095FFA89F001F001FF5FFA8AF001F0D9FF2046FFF78CFC322000F00BFE2E4BE8
:4018000053F824502A462E492C4804F091FE2B4800F096FE384603F02FFDCDE90201019803F02AFD22A3D3E9002303F0D9FB0022244B03F0D3FB02460B46DDE9020104F0F8
:4018400011F840B1139B012B05D10798FFF794FE8046049B01938BEAEB73A3EBEB739D4202DDB8F1000FA4D02046FFF751FC322000F0D0FD114D104B53F82420124928462C
:4018800004F056FE284600F05BFE002001F000FE002001F045FE01F03DFF02F015F809B0BDE8F08FAFF30080CCCCCCCCCC137540F6285C8FC2C56B403C82FF1FB482FF1F6C
:4018C000707D000000005940AC7E00002DE9F04182B0044602F09AF9072C02D10126002501E0052604254FF496742EE02846FFF70FFC322000F08EFD6A4CDFF8C0816A4F4B
:4019000054F825204146384604F012FE384600F017FE3046FFF7FCFB322000F07BFD54F826204146384604F003FE384600F008FE54F8252054F82630D41A22465B493846C2
:4019400004F0F6FD384600F0FBFD84EAE473A3EBE473B3F5487FC9DC01F0F2FE192001F045FE01F0C7FF192001F01CFF89E0002C24DD002001F0CAFF012001F0CDFF11E0D3
:401980002846FFF7C5FB322000F044FD3046FFF7BFFB322000F03EFD424B53F8254053F82630E41A84EAE473A3EBE473012B46DD002C44DDB3F5487FE2DB40E0002C3EDA2B
:4019C000012001F0A3FF002001F0A6FF2846FFF79FFB322000F01EFD3046FFF799FB322000F018FD2F4A52F8253052F826401C1B1AE02846FFF78CFB322000F00BFD304627
:401A0000FFF786FB322000F005FD264B53F8252053F82630D41A244F00942549384604F087FD384600F08CFD84EAE473A3EBE473012B04DD002C02DAB3F5487FD9DB2846A9
:401A4000FFF766FB322000F0E5FC3046FFF760FB322000F0DFFC134B53F8252053F82630D41A114F1349384604F062FD384600F067FD22461049384604F05AFD384600F034
:401A80005FFD84EAE473A3EBE473012B3FF76FAF01F040FE01F018FF02F058F802B0BDE8F08100BF3C82FF1FB482FF1FB87E0000CC7E0000E47E0000F07E0000707D000033
:401AC0002DE9F04F87B004460F460492E12901DC8A4601E04FF0C80A002C08DD002001F015FF002001F018FF0123059307E0012001F00CFF012001F00FFF0023059301F092
:401B00001FFE01F0F7FE204603F0B6FB4AA3D3E9002303F017FC02F0D3F803F0ADFE8346494C02464949204604F002FD204600F007FD01F0A5FC054601F0EAFC0646D14669
:401B4000002302936FF4A763039341E001F098FC0446054601F0DCFC064684EAE478A8EBE4780028B8BF4042804503DDA7F1040A07F10409804503DAA7F1040907F1040AE3
:401B80005FFA8AF001F032FD5FFA89F001F00AFE404603F071FBCDE90001039803F06CFB27A3D3E9002303F01BFA0022284B03F015FA02460B46DDE9000103F053FE38B101
:401BC000049B012B04D10598FFF7D6FC0290039485EAE572A2EBE5728BEAEB73A3EBEB739A4208DA86EAE672A2EBE672934202DD029B002BAAD0144C2A461649204604F064
:401C000097FC204600F09CFC32461349204604F08FFC204600F094FC01F07CFD01F054FE002001F035FC002001F07AFC07B0BDE8F08F00BFAFF30080295C8FC2F52815400A
:401C4000CDCCCCCCCC137540B482FF1FFC7E0000000059400C7F0000207F0000000000002DE9F84304460F46E12901DC0E4600E0C826002C06DD002001F048FE012001F09D
:401C80004BFE05E0012001F041FE002001F044FE01F056FDF5B2284601F0A8FC01F02AFE284601F07FFD6B2000FB04F003F0E4FA29A3D3E9002303F045FB29A3D3E900239C
:401CC00003F040FB28A3D3E9002303F03BFB0022274B03F061FC01F0F3FF03F0CDFD814601F0CEFB01F014FC0546B0461CE001F00FFC0446054601F0C3FB0028B8BF40423F
:401D0000002CB8BF6442A04202DD3E1F07F10408A04202DAA7F104083E1DF0B201F066FC5FFA88F001F03EFD002DB8BF6D4289EAE973A3EBE9739D42D9DB002001F0A8FB36
:401D4000002001F0EDFB01F0E5FC01F0BDFDBDE8F88300BFAFF30080182D4454FB210940295C8FC2F52815408FC2F5285C8FEE3F00806640000000002DE9F84307460E46C4
:401D800014461D46084603F077FA15A3D3E9002303F0D8FA01F0E4FF80468946384603F06BFA42464B4603F0F7FB03F065FD07462A4621463046FFF753FF2A46214638468F
:401DC000FFF77EFE2A4621467042FFF749FF2A4621467842FFF774FEBDE8F883AFF30080399D52A246DF913F38B5364B1B686BB300234BBB012001F0E7FA02210020FFF74C
:401E000059FA002407E0E0B201F0D8FA4FF4FA7000F000FB0134032CF5DD2B4800F090FB00240EE0294D22462949284604F080FB284600F085FBFFF7EFF8264800F080FB60
:401E40000134312CEEDD0123002BD2D11D4B5B683BB100231BB9204800F072FB0123002BF8D1184B9B6863B1002343B91B4800F067FB0720FFF72AFD01F0C8FE0123002B90
:401E8000F3D1174B1B68E3B1164800F059FB002411E02046FFF73CF9642000F0BBFA0B4D114B53F824200A49284604F041FB284600F046FB0134062CEBDD064800F040FBF9
:401EC000E5E738BD6882FF1F347F0000B482FF1F707D0000E07E00005C7F00006C7F0000E880FF1F807F00003C82FF1FFEE700BFF0B40022174611E050F82760F3B226F05E
:401F0000FF0608E001EB420511F812406D78A5550132013BDBB2002BF4D10137272FEBD9F0BC704710B4194B1B78DBB203F00701174A11701B090132137002232D3A137098
:401F40000421A2F5A4521B3A1170102102F6765211701032137002F6F302137080220D48027004300170032464300470202447300470013002702C30017007490A70074A3B
:401F800013704422064B1A7010BC7047CF0100496E580040245A0040045B0040585B00407658004008B50A46002103F048FE08BD08B503F039FE08BD38B500243B4B1C8052
:401FC000502202331A70012202331A801823384A1370172102321180023213703321023211800232137040F2AF41023211800232137041F63F7102321180023213700422D3
:4020000001F19041A1F6BB612A48FFF7D1FF0222294B1A7008224FF040231A70032103F500731970254B1B78DBB225490B70254B1A8041F25122023B1A8019250CE0224BCB
:402040001B7803F0010343EA440404F003044FF4F07001F025FE013D0DB1032CEFD115B90320FFF743FF194B4FF480721A8007221A70002216490A704820023108701A701D
:402080000222033B1A7004220A331A70114A137843F03F031370013A137843F001031370013A137843F08003137038BD804000408640004000410040004300400801004999
:4020C000A146004022420040254200400440004006400040A243004038B572B6454A137843F00403137000240CE0434D630019194A0011462A44084691882858FFF752FFE1
:402100000134E4B2062CF0D900240BE03A48A20011194B0003449A8E196BD86AFFF748FF0134E4B2012CF1D934494FF09040FFF7DFFE0A24324B1C7040F20322373B1A8004
:40214000304A03F52C438C331A602F4A03F580631A6002F5802203F538631A602B4A137843F0020313701032137843F002031370274D2B7843F040032B70A2F58632513A8C
:40218000137843F010031370082222492248FFF70FFF224621492248FFF70AFF082221492148FFF705FF224620492148FFF700FF224620492048FFF7FBFE08221F49204845
:4021C000FFF7F6FE1F4A137843F0080313701E4C61232370FFF7F0FE8123237001221B4B1A70FFF79FFE0E2229461948FFF7E0FE38BD00BFE8460040987F0000A000004809
:4022000083580040040404840404004403500140A0430040481000480251004050100048C05100405C100048F2510040641000481051004070100048205100407C100048E3
:4022400032510040224300400048004004000840B043004008B503F0BBFC03680C2B00D1FEE7FEE708B5094B1A681044084BC31AB3F5007F02DC054B186005E003F0A8FCEB
:402280000C2303604FF0FF32104608BDEC80FF1F4083FF1F08B5104E104D16E029686B68AC68002204E051F8040B43F8040B0432A242F8D1E868002203E0002143F8041B55
:4022C00004328242F9D11035013E002EE6D103F085FCFDF709FFFEE7010000003883000008B5104A104B1A60104A136843F40073136000230AE0032B03D80D4A52F82310D8
:4023000000E00C490C4A42F8231001332F2BF2D90A4B1A780A4B1A70074A0A4B1A60FFF7DBFE08BD0004FA050CED00E014ED00E000000000552200000080FF1FBC7600408E
:40234000C080FF1F08ED00E0084A137843F0040313701032137843F00403137002F5A5521E32137843F0800313707047A9430040044A137803F0FC0300F003001843107088
:40238000704700BF09580040072809D8054B1A7802F08F021A701A780001C0B210431870704700BF0A580040032809D8054B1A7802F0F3021A701A788000C0B21043187051
:4023C000704700BF0A58004038B50224084B1C700C2201331A70012501331D700420FFF7D3FF2846FFF7E0FF2046FFF7C1FF38BD0858004008B5054B1B7823B90122034B33
:402400001A70FFF7E1FFFFF79FFF08BD7482FF1F01BE704710B5044605E0084B186801F03FFCA4F50044B4F5004FF6D8034B586800FB04F001F034FC10BD00BFF080FF1F8B
:4024400008B5034B1B7A00FB03F001F029FC08BDF080FF1F70B504460E46074B1D681F2802D90020FFF7D4FF04F01F04103455F8240045F8246070BD08ED00E038B50446FA
:402480000D46072902D90020FFF7C2FF1F2C02D90020FFF7BDFF04F01F0000F1604000F564406D01EDB2057038BD00BF7222084B1A702022023B1A700622A3F265131A7043
:4024C000472210331A70002259331A70704700BF8A65004010B501F0EBFB04460A4A137843F020031370023A137843F010031370FC3A137843F01003137000F033F8204690
:4025000001F0DAFB10BD00BF9A65004008B5054B1B7823B9FFF7CAFF0122024B1A70FFF7D9FF08BD7582FF1F034B1B7813F0040FFAD1024B187070476C6400404B640040E0
:4025400038B5074B1B782BB938BDFFF7EDFF0134A4B201E005460024285D0028F5D138BD7582FF1F054A137843F0080313701032137843F008031370704700BFA2430040B2
:4025800038B59DF81040651EEDB2032D51D8013809282ED8DFE800F0052D2D052D2D0F192D230F2B03D92548007840B222E02448007840B21EE00F2B03D92248007840B2C4
:4025C00018E02148007840B214E00F2B03D91F48007840B20EE01E48007840B20AE00F2B03D91C48007840B204E01B48007840B200E0002001EB401101FB02F2D20B91B2AB
:402600000D2B0BD8C3F10E0192B20A4191B2621E124800EB82020133937005E0631E0F4A02EB83030F229A70013C0C4B23F8241038BD0020FFF7ECFE38BD00BF180100490F
:402640001C010049190100491D0100491A0100491E0100491B0100491F0100497882FF1FF8B5074601F024FB06460D4D2B7843F003032B700B4C237843F0030323700A4B3E
:402680001F700320FFF7DCFE2B7803F0FC032B70237803F0FC032370304601F00DFBF8BDF8460040F946004092580040F8B504460022BB4B1A7401285AD13822B94B1A7014
:4026C000042202331A70072201331A70002501331D7001331D703F2201331A7002331D7001331D7001331D7001260A331E70502203F527631A70272201331A702C2201330B
:402700001A7001331D70552203331A705A2201331A70052701331F7002331E70112201331A70192201331A70972201331A704420FFF796FF58229C4B1A7001331D700533F7
:402740001F7001331E7001331D700A2201331A704FF4FA42954B1A603146384600F0C6FA3146252000F046FB91491D20FFF772FE022C5AD138228B4B1A70042202331A707D
:40278000072201331A70002501331D7001331D703F2201331A7002331D7001331D7001331D7001260A331E70502203F527631A70272201331A702C2201331A7001331D70E4
:4027C000552203331A705A2201331A70052701331F7002331E70112201331A70192201331A70972201331A704420FFF739FF58226D4B1A7001331D7005331F7001331E70BD
:4028000001331D700A2201331A704FF4FA42674B1A603146384600F069FA3146252000F0E9FA64491D20FFF715FE032C5AD138225C4B1A70042202331A70072201331A70C7
:40284000002501331D7001331D703F2201331A7002331D7001331D7001331D7001260A331E70502203F527631A70272201331A702C2201331A7001331D70552203331A70D3
:402880005A2201331A70052701331F7002331E70112201331A70192201331A70972201331A704420FFF7DCFE58223F4B1A7001331D7005331F7001331E7001331D700A22D2
:4028C00001331A704FF4FA42384B1A603146384600F00CFA3146252000F08CFA36491D20FFF7B8FD042C5AD138222E4B1A70042202331A70072201331A70002401331C70B2
:4029000001331C703F2201331A7002331C7001331C7001331C7001250A331D70502203F527631A70272201331A702C2201331A7001331C70552203331A705A2201331A70C5
:40294000052601331E7002331D70112201331A70192201331A70972201331A704420FFF77FFE5822104B1A7001331C7005331E7001331D7001331C700A2201331A704FF4DD
:40298000FA420A4B1A602946304600F0AFF92946252000F02FFA09491D20FFF75BFDF8BD7882FF1F004E0040945800403883FF1FAD2C0000B12C0000B52C0000B92C000009
:4029C0002DE9F04182B0394E4FF0010886F80080374F00247C74102000F076F9102000F0F7F907211D20FFF749FD0425314B1D7001331C7007331C702F4A137843F01803AD
:402A000013702E4B1C7003F2F5231C7001331C700A22A3F209331A7001331C7002331C705B2205331A705E2201331A7004331C701422A3F68C231A70CDF8008010234FF4AA
:402A4000004249F2DA012846FFF79AFD0223009310234FF4004249F2DA012846FFF790FD0323009310234FF4004249F2DA012846FFF786FD009510234FF4004249F2DA01BB
:402A80002846FFF77DFD3378013B07EB83039A780B4B1A703378013B37F82320094B1A803078FFF703FE02B0BDE8F0810081FF1F7882FF1F96580040075B00409358004087
:402AC0000E4E00400C4E004070B501F0F1F806462A4B1B782A4B1A7842F001021A701A7842F010021A7010331A7842F001021A701A7842F010021A70224D2B7843F00203E9
:402B00002B70214C237843F0020323701F4A137843F0030313700320FFF792FC2B7803F0FD032B70237803F0FD032370184A137843F0060313707A22164B1A70164A137860
:402B400043F0010313701032137843F0010313700F3A137843F0010313701032137843F0010313704FF000530C4A1360A2F5C0721360304601F0A0F870BD00BF0081FF1FDE
:402B8000AA430040F8460040F9460040915800407758004082580040A143004080E200E008B5084B9B7C4BB9064BDB7C13F0FF0F01D1FFF705FF0122024B9A74FFF784FF8C
:402BC00008BD00BF7882FF1F024A137843F0010313707047004E0040024A137803F0FE0313707047004E0040094B1B7C13F0FF0F03D0074B5B7CDBB203E0064B1B7803F091
:402C00000103012B01D00028EED01846704700BF7882FF1F014E0040154B1B7803F00303012B07D8134B1888023B1B889BB243EA004013E0022B0AD10E4B1888023B1B78DF
:402C400043EA00430C4A107843EA002006E00B4B188883B2074A108843EA0040084B1B7C13F0FF0F02D00022054B5A74704700BF144E0040124E0040114E0040104E004050
:402C80007882FF1F10B5084A137843F004031370FFF79AFF0020FFF7A7FFFFF7BDFF0446FFF79AFF204610BD014E0040704700BF704700BF704700BF704700BF014B188841
:402CC00080B2704780400040034B1A7800F0F80010431870704700BF82400040024B187800F00700704700BF8240004070B505460E46FFF7F3FF0446FFF7E0FFA84256D0A9
:402D00002B4B1B7803F0010294B900B185B938B9284B1D80284A137803F0BF03137070BD254A137843F040031370224B1D8070BD22B3002321490B7001240F310C700431D8
:402D40000B700C390B7803F07F030B701A4B1B7813F0080F00D08DB9194B18800721013B1970164B1B7813F0010FFAD110490B7803F0FE030B700021104B19700C4B1B7803
:402D800013F0010F0DD00E4B1D800EB1032200E001220A4B1A70094B1B7813F0010FFAD170BD044B1D8002490B7813430B7070BDA243004080400040824000400140004015
:402DC00002400040014B188880B2704700410040034B1A7800F0F80010431870704700BF02410040024B187800F00700704700BF0241004070B505460E46FFF7F3FF04469C
:402E0000FFF7E0FFA84256D02B4B1B7803F0010294B900B185B938B9284B1D80284A137803F0BF03137070BD254A137843F040031370224B1D8070BD22B3002321490B7008
:402E4000012413310C7004390B7008390B7803F07F030B701A4B1B7813F0080F00D08DB9194B18800721013B1970164B1B7813F0010FFAD110490B7803F0FE030B700021B2
:402E8000104B19700C4B1B7813F0010F0DD00E4B1D800EB1032200E001220A4B1A70094B1B7813F0010FFAD170BD044B1D8002490B7813430B7070BDA14300400041004049
:402EC000024100400140004002400040054A137843F0020313701032137843F002031370704700BFA8430040054B1A7802F0FD021A701A7800F0020010431870704700BF5C
:402F000024580040014B1870704700BF815B0040094B1B7803F00C035B08084A127812F0040F00D0013303F1924393F83031DBB2034A1370704700BF24580040255800402D
:402F40000946004008B51022064B1A700133002018701A7842F004021A70FFF7C5FFFFF7D7FF08BD2458004008B5074B1B7823B9FFF7E8FF0122044B1A70FFF7A7FF782036
:402F8000FFF7C0FF08BD00BF9082FF1F08B5064B1A7802F0F3021A701A7800F00C0010431870FFF7B5FF08BD24580040024A137843F080031370704771640040024A137850
:402FC00003F07F031370704771640040014B1870704700BF85640040014B1878704700BF65640040014B1880704700BF48680040014B188880B2704788680040014B18800C
:40300000704700BF08680040024B1B78024B188880B27047046400408868004000F00300044B1A7802F0FC021A701A7810431870704700BF7164004008B501E0FFF7D8FF2B
:40304000FFF7CAFF10F0080FF8D108BD08B54FF6FF70FFF7C7FF4FF6FF70FFF7CFFF00F027FE084A137843F01003137000F024FE0020FFF7D3FFFFF7DFFF0220FFF7A6FF01
:4030800008BD00BF9564004008B5054B1B7823B9FFF7DCFF0122024B1A70FFF787FF08BD9182FF1F044A137803F0FB03800000F00400184310707047C0510040044A1378A0
:4030C00003F07F03C001C0B218431070704700BF20510040044A137803F0FE0300F0010018431070704700BF30510040044A137803F0FE0300F0010018431070704700BF47
:4031000000510040044A137803F0BF03800100F0400018431070704730510040014B1870704700BF75640040084A137843F0010313701032137843F00103137002F64D3274
:40314000137843F001031370704700BFA3430040084A137803F0FE031370A2F65D32137803F0FE0313701032137803F0FE031370704700BF004F0040014B1880704700BF4E
:40318000044F0040014B1880704700BF064F0040014B1870704700BF034F004008B51A4A137843F0020313700232137803F08F0343F010031370154B1A7802F0CF021A70FE
:4031C0001A7842F030021A701A7802F0F0021A701A7842F00F021A7044F61F60FFF7CCFF40F2DC50FFF7CEFF0020FFF7D1FF084A137843F00103137002F65E32137843F092
:403200000103137008BD00BF004F00400B4F0040A343004008B5054B1B7823B9FFF7BEFF0122024B1A70FFF77FFF08BD9282FF1F08B5074B1B7813F0010F03D00122054BA5
:403240001A7002E00022034B1A70FFF781FF08BD004F00409482FF1F08B5034B1B780BB1FFF762FF08BD00BF9482FF1F084A137843F0020313701032137843F00203137061
:4032800002F65932137843F001031370704700BFA3430040084A137803F0FE031370A2F66932137803F0FD0313701032137803F0FD031370704700BF0C4F0040014B1880EA
:4032C000704700BF104F0040014B1880704700BF124F0040014B1870704700BF0F4F004008B51A4A137843F0020313700232137803F08F0343F010031370154B1A7802F07E
:40330000CF021A701A7842F030021A701A7802F0F0021A701A7842F00F021A7044F61F60FFF7CCFF40F2DC50FFF7CEFF0020FFF7D1FF084A137843F00203137002F66A32A6
:40334000137843F00103137008BD00BF0C4F0040174F0040A343004008B5054B1B7823B9FFF7BEFF0122024B1A70FFF77FFF08BD9582FF1F014B188880B27047124F004010
:4033800008B5074B1B7813F0010F03D00122054B1A7002E00022034B1A70FFF77BFF08BD0C4F00409882FF1F08B5034B1B780BB1FFF75CFF08BD00BF9882FF1F014B187069
:4033C000704700BF79650040014B1870704700BF79640040014B1878704700BF79640040014B1B685864704708ED00E04001C0B2014B1870704700BF01E400E00222014B1A
:403400001A60704700E100E00222014B1A60704780E100E010B50446FFF7F6FF2046FFF7DFFF0720FFF7E2FFFFF7E8FF10BD00BF014B1B681864704708ED00E04001C0B293
:40344000014B1870704700BF00E400E00122014B1A60704700E100E00122014B1A60704780E100E010B50446FFF7F6FF2046FFF7DFFF0720FFF7E2FFFFF7E8FF10BD00BF61
:4034800008B500F069FAA0F5004000B208BD00BF08B5002803DB80B280F4004002E0A0F5004080B200F052FA08BD00BF024B187800F00F00704700BF67640040014B18706E
:4034C000704700BF8764004008B50F20FFF7F6FFFFF7ECFF00F0ECFB034A137843F01003137000F0E9FB08BD9764004008B500F085FA4FF4004000F029FA044B1B7813B9B7
:403500000122024B1A70FFF7DFFF08BD9982FF1F08B500F09BFAA0F5004000B208BD00BF08B5002803DB80B280F4004002E0A0F5004080B200F084FA08BD00BF024B187811
:4035400000F00F00704700BF6A640040014B1870704700BF8A64004008B50F20FFF7F6FFFFF7ECFF00F0A4FB034A137843F01003137000F0A1FB08BD9A64004008B500F02C
:40358000B7FA4FF4004000F05BFA044B1B7813B90122024B1A70FFF7DFFF08BD9A82FF1F024A137843F080031370704775650040024A137803F07F03137070477565004096
:4035C000014B1870704700BF04650040024B1B78024B1878704700BF1465004054650040014B1870704700BF44650040014B1870704700BF24650040014B1870704700BF63
:4036000087650040014B1878704700BF67650040014B1878704700BF75650040014B1870704700BF75650040014B1878704700BF5465004008B501E0FFF7F6FFFFF7E2FF85
:4036400010F0100FF8D108BD08B5124A137803F0C00343F0090313701F32137843F001031370FF20FFF7ACFFFF20FFF7B9FF7F20FFF7BCFF0020FFF7BFFF00F019FB064AE6
:40368000137843F01003137000F016FBFFF7D2FF08BD00BF756500409765004008B5054B1B7823B9FFF7D0FF0122024B1A70FFF777FF08BD9B82FF1F014B1878704700BF1B
:4036C0004465004010B5FFF7F7FF064CA070FFF77DFF6070044B1B78E370FFF799FF207110BD00BF9C82FF1F8765004010B5074CA078FFF775FF6078FFF762FFE278044BD2
:403700001A702079FFF78AFF10BD00BF9C82FF1F8765004008B5084B1B7813F0800F03D00122064B1A7002E00022044B1A70FFF73FFFFFF7C7FF08BD756500409C82FF1F05
:4037400008B5FFF7D3FF034B1B780BB1FFF728FF08BD00BF9C82FF1F024A137843F080031370704776650040024A137803F07F031370704776650040014B1870704700BF7D
:4037800005650040024B1B78024B1878704700BF1565004055650040014B1870704700BF45650040014B1870704700BF25650040014B1870704700BF85650040014B1878E0
:4037C000704700BF65650040014B1878704700BF76650040014B1870704700BF76650040014B1878704700BF5565004008B501E0FFF7F6FFFFF7E2FF10F0100FF8D108BD1E
:4038000010B5114A137803F0C00343F0090313700E4C237843F001032370FF20FFF7ACFFFF20FFF7B9FF7F20FFF7BCFF0020FFF7BFFF00F03DFA237843F01003237000F06A
:403840003BFAFFF7D3FF10BD766500409565004008B5054B1B7823B9FFF7D2FF0122024B1A70FFF779FF08BDA182FF1F014B1878704700BF4565004010B5FFF7F7FF064C39
:40388000A070FFF77FFF6070044B1B78E370FFF79BFF207110BD00BFA482FF1F8565004010B5074CA078FFF777FF6078FFF764FFE278044B1A702079FFF78CFF10BD00BFBE
:4038C000A482FF1F8565004008B5084B1B7813F0800F03D00122064B1A7002E00022044B1A70FFF741FFFFF7C7FF08BD76650040A482FF1F08B5FFF7D3FF034B1B780BB13F
:40390000FFF72AFF08BD00BFA482FF1F014B1870704700BF76640040014B1870704700BF78640040024A137843F080031370704777640040014B1870704700BF8465004081
:40394000014B1878704700BF64650040014B1880704700BF0C6A0040024B1B78024B188880B27047066500408C6A0040014B188880B270478C6A0040014B1880704700BFE0
:403980004C6A0040014B1880704700BF6C6A004008B501E0FFF7EAFFFFF7D2FF10F0400FF8D108BD08B5134B1A7802F0F8021A701A7802F0FC021A70FFF7EAFF4FF40040EF
:4039C000FFF7DAFF4FF40040FFF7C0FF0020FFF7B1FFFFF7B5FF4FF40040FFF7D3FF00F067F9054A137843F01003137000F064F908BD00BF776400409465004008B5054BE0
:403A00001B7823B9FFF7CEFF0122024B1A70FFF789FF08BDA982FF1F024A137843F08003137070477B650040014B1870704700BF89640040014B1878704700BF6964004011
:403A4000014B1880704700BF18680040024B1B78024B188880B270470C64004098680040014B188880B2704798680040014B1880704700BF58680040014B1880704700BFBD
:403A80007868004008B501E0FFF7EAFFFFF7D2FF10F0400FF8D108BD08B5134B1A7802F0F8021A701A7802F0FC021A70FFF7EAFF4FF40040FFF7DAFF4FF40040FFF7C0FF2D
:403AC0000020FFF7B1FFFFF7B5FF4FF40040FFF7D3FF00F0EDF8054A137843F01003137000F0EAF808BD00BF7B6500409964004008B5054B1B7823B9FFF7CEFF0122024B31
:403B00001A70FFF789FF08BDAA82FF1F044A137803F07F03C001C0B218431070704700BF00510040084A137843F0040313701032137843F00403137002F66532137843F09A
:403B400001031370704700BFA3430040084A137803F0FE031370A2F67532137803F0FB0313701032137803F0FB031370704700BF184F0040014B1870704700BF1B4F00403E
:403B8000014B1878704700BF1B4F0040014B1880704700BF1C4F0040014B1880704700BF1E4F004008B5164A137803F0010313700232137803F0FC031370124B1A7802F0C6
:403BC000CF021A701A7842F030021A701A7802F0F0021A701A7842F00F021A700A4A137843F0010313704FF6FF70FFF7CFFF4FF6FF70FFF7D1FF0020FFF7BCFF08BD00BFAB
:403C0000184F0040234F0040194F004008B5054B1B7823B9FFF7C6FF0122024B1A70FFF781FF08BDAB82FF1F024B1B68C3F88C00704700BF08ED00E04001C0B2014B1870E3
:403C4000704700BF13E400E04FF40022014B1A60704700BF00E100E04FF40022014B1A60704700BF80E100E010B50446FFF7F4FF2046FFF7D9FF0720FFF7DEFFFFF7E4FFB4
:403C800010BD00BF044A137803F0FD03400000F00200184310707047C0510040000000000230800803D000BF01380046FCD17047EFF3108072B6704780F31088704700BF76
:403CC000F8B5C1F30A56A6F2FF35132D0A460B460446864611DC002D2EDB0F461F4929410A4225D04FF400232B413B4423EA01030026194634462046F8BD332D05DDB5F54D
:403D0000806F1FD011462046F8BDA6F213464FF0FF3121FA06F63042F4D00122C5F1330502FA05F52D1828BF9B1825EA0606E0E70028D7D11146E6E7013501F0004307D089
:403D40000026D6E702460B4601F04AF90446D2E743F07F5343F440130026CAE7FFFF0F0030B5214A21F00043934287B01BDD1F4A934205DD02460B4601F030F907B030BDFE
:403D800002AA00F035F800F0030001281ED0022811D0DDE9042300B3DDE9020100F040FA01F10041EAE7002300930022002300F053FF07B030BD01230093DDE90201DDE967
:403DC000042300F049FF01F10041D7E7DDE90423DDE9020100F024FAD0E70124DDE90201009400F039FFC9E7FB21E93FFFFFEF7F2DE9F04F944C21F00047A7428FB040F306
:403E000081801446914A0E46974226DC84A3D3E90023002940F3A08101F0E0F88C4B80469F42894600F083807FA3D3E9002301F0D5F802460B464046C4E90023494601F063
:403E4000CDF879A3D3E9002301F0C8F80125C4E9020128460FB0BDE8F08F7E4A974240F383807D4A974258DC3D15A5F21645A7EB05518B46824601F0FFFC01F0FDF98046A1
:403E8000894642464B4650465946CDE9088901F0A5F80022714B01F055FA8B46824601F0EBFC01F0E9F98046894642464B4650465946CDE90A8901F091F80022674B01F043
:403EC00041FA00220023CDE90C0101F0A3FC002800F06A81002340464946002201F09AFC002814BF012302235D480221019000912A46214608A800F0B7FA002EC0F24A810A
:403F0000054606E0C2E9000100250024C2E90245002528460FB0BDE8F08F02460B4601F05DF80025C4E90201C4E90001F1E740A3D3E9002301F052F83FA3D3E900230646AF
:403F40000F4601F04BF802460B463046C4E90023394601F043F838A3D3E9002301F03EF80125C4E90201D4E700F02CFF34A3D3E900238046894601F0E5F90022394B01F0F0
:403F80002FF801F079FC054601F076F924A3D3E90023CDE9040101F0D5F902460B464046494601F01BF820A3D3E9002382468B46DDE9040101F0C6F91F2DCDE9020155DC0B
:403FC000294B6A1E53F822309F424FD002460B465046594601F002F802460B4681468846C4E900234A4643465046594600F0F6FFDDE9022300F0F2FF02460B46002EC4E9FE
:40400000022386DA4A4608F1004301F1004184E80C00E160A0606D427BE700BFAFF3008000004054FB21F93F3163621A61B4D03D0000601A61B4D03D7370032E8A19A33B06
:4040400083C8C96D305FE43FFB21E93F7BD90240FB21F93FFB213941FFFFEF7F00007041588000000000E03FD87F0000DDE902235046594600F0B2FF3F15C1F30A53FB1AA3
:40408000102B81468846C4E90001ABDD58A3D3E90023DDE9040101F055F98046894602460B465046594600F099FFCDE9060102460B465046594600F091FF42464B4600F017
:4040C0008DFF4DA3D3E9002380468946DDE9040101F038F942464B4600F080FF02460B46CDE90201DDE9060100F078FF0B4602468846C1F30A517F1A312F8146C4E90023CF
:4041000072DD3FA3D3E90023DDE9040101F01AF98046894602460B46DDE9060100F05EFF02460B4682468B46DDE9060100F056FF42464B4600F052FF33A3D3E9002380463F
:404140008946DDE9040101F0FDF842464B4600F045FFCDE9020139E700F042FF2E4B80469F42894622D02AA3D3E9002300F038FF02460B464046C4E90023494600F02EFF19
:4041800023A3D3E9002300F02BFF4FF0FF35C4E90201BEE66268E36802F1004203F1004345426260E360B4E603239DE610A3D3E9002300F015FF10A3D3E9002306460F4660
:4041C00000F00EFF02460B463046C4E90023394600F004FF08A3D3E9002300F001FF4FF0FF35C4E9020194E6DDE906ABFAE600BF0000601A61B4D03D7370032E8A19A33B13
:404200000000002E8A19A33BC14920259A837B393163621A61B4D03DFB21F93F000000002DE9F04F21F00046B6F1795F85B00C4692469B4605466BDA01F01EFB002800F00C
:40424000E7802A4623462846214601F07BF874A3D3E900238046894601F074F872A3D3E9002300F0BDFE42464B4601F06BF870A3D3E9002300F0B2FE42464B4601F062F8DB
:404280006DA3D3E9002300F0ABFE42464B4601F059F86BA3D3E9002300F0A0FE42464B4601F050F868A3D3E9002300F099FE42464B4601F047F8CDE900010022644B404686
:4042C000494601F03FF8DDE9002306460F464046494601F037F85246804689465B462846214601F02FF802460B464046494600F075FE02460B463046394600F06FFE024649
:404300000B460020534900F069FE05B0BDE8F08F02460B4601F016F841A3D3E900238046894601F00FF840A3D3E9002300F058FE42464B4601F006F83DA3D3E9002300F099
:404340004DFE42464B4600F0FDFF3BA3D3E9002300F046FE42464B4600F0F4FF38A3D3E9002300F03BFE42464B4600F0EBFF36A3D3E9002300F034FE4B46424600F0E2FF66
:40438000354BCDE900019E4297DD344B00229E4238DCA6F5001300202E4916461F4600F01DFECDE902010022294B4046494600F0C9FF32463B4600F011FEDDE90023064683
:4043C0000F464046494600F0BDFF5246804689465B462846214600F0B5FF02460B464046494600F0FBFD02460B463046394600F0F5FD02460B46DDE9020100F0EFFD05B067
:40440000BDE8F08F164B0026CDE90223154FCAE71049002005B0BDE8F08F00BFAFF30080D43888BEE9FAA8BDC4B1B4BD9EEE213EAD529C804F7E923E9015CB19A001FA3E29
:404440007751C1166CC1563F4C5555555555A53F0000E03F0000F03F3233D33F0000E93F0000E73F0000D23F2DE9F04F794CADF51D7D1F460B93D31E84FB0354DB17C3EB1E
:40448000A403A69E744C23EAE37554F826406B1C26460994A3EB83037C1E0D95029402EBC3032D1B341904900A91089316D42C44013422AEA79F08E057F8250000F0DCFEE7
:4044C0000135A542E6E9020108D0002DF4DA013500200021A542E6E90201F6D1099B002B2FDB099B74AADDF8089002EBC30B0DF5E47A029B002BC0F295810B9B0026C3EBD6
:40450000090824AB03EBC808049B0027A3F1080524AB03EBC904F5E9022374E8020100F011FF02460B463046394600F059FD444506460F46EFD1EAE90267DA4509F101096D
:40454000D7D1099B10A91D4603F18043023B9B001A1D0A440B440F920E939CAB03EBC503002D53E928672BDD9CAB03EBC504A83C0DF13C0A0DF5E47B0022384B3046394610
:4045800000F0E0FE01F078F900F076FE0022344B8046894600F0D6FE02460B463046394600F01CFD01F068F974E802234AF8040F4946404600F014FD5C4506460F46DBD1AA
:4045C000089C30463946224600F08AFC00224FF07F5306460F4600F0B5FE00F0F9FB0022204B00F0AFFE02460B463046394600F0F5FC0F46064601F03FF9814600F03CFE95
:4046000002460B463046394600F0E8FC002C06460F4640F3EE80681E10AB53F82030C4F1180243FA02F101FA02F29B1AC4F1170810AA42F82030894443FA08F8B8F1000F51
:404640003DDD002D09F1010940F3D382002214460FA911E0ABAAAA2A608100000000703E0000704100002040C3F180700BB108600124013295420DDD51F8043F002CF3D01D
:40468000C3F1FF13013203F57F4395420B604FF00104F1DC089B002B0DDD012B00F0B180022B08D16A1E10AB53F8223010A9C3F3150341F82230B8F1020F00F0818000222A
:4046C00000233046394601F0A5F8002800F05B82099B05F1FF3B5B4510DC05F1804310AA013B0F9802EB8303002253F80419834242EA0102F9D1002A40F0B180099B10AAC5
:40470000013B52F82330002B40F071820E9A012352F8041901330029FAD0E9186A1C8A420C914BDC0D990B985118DB0001F180410593A79B05440139E80003EB810A24AB14
:40474000D20003EB000B74AB13440193A2F10803069007934FF000095AF8040F00F08CFD029BEBE80201002B4FF000064FF000071BDB069B03EB0904079B09EB030824AB45
:404780001C449844049BA3F10805F5E9022374E8020100F0D7FD02460B463046394600F01FFC444506460F46EFD1019B09F10809E3E802670193059B9945CDD10C9DCCE6EE
:4047C00032463B460020B04900F008FC06460F46002C3FF474AF089A0020AB4900F080FB02460B463046394600F0F8FB06460F4665E710D16B1E10AA52F823304FEAE358DC
:404800001CE76A1E10AB53F8223010A9C3F3160341F822304FE700229C4B01F019F858B980464CE700260027EAE90267DA4509F101097FF45EAE84E6002D09F10109C8BFEA
:404840004FF002083FF702AF32463B4600208E4900F0C4FB4FF0020806460F462FE7089A10AB53F82B30183ACDF81490CDF8048008926BB90BF18043013B10A901EB83037E
:4048800053F804190BF1FF3B183A0029F8D00892089A00207C4900F023FBBBF1000F04460D46C0F2B6814FEACB030DF5E87810AA02EB8B0608EB03090493043609F108072D
:4048C00056F8040D00F0D8FC22462B4600F03AFD002267E902016E4B2046294600F032FDB84504460D46EBD14B46CDF818B09B460DF5987ACDF808A0DDF824A04FF00009BC
:40490000BAF1000FC0F226815DA3D3E90023DFF884815D4600260027002403E0A14510DBF8E90223F5E8020100F00CFD02460B463046394600F054FB0134A24506460F4678
:40494000ECDA029BABF1080B03EBC903C3E9006772AB5B4509F10109D2D1A69BDDF818B0DDF808A0032B00F28380DFE813F0D100950095000400BBF1000F40F35481049B4B
:40498000CDF808B053449846D3E90067D34658E9029A32463B464846514600F021FB04460D4602460B464846514600F017FB32463B4600F015FBC8E9000168E90245C3451A
:4049C00026462F46E3D1DA46DDF808B0BBF1010F40F32981049B0DF59C7B53449846D3E90067994659E902343046CDE902341A463946234600F0F4FA04460D4602460B4677
:404A0000DDE9020100F0EAFA32463B4600F0E8FAC9E9000169E90245CB4526462F46E1D100231D4608F1080850AC184678E90223294600F0D5FA444503460D46F5D1019AFC
:404A4000002A00F0D880DAF80440DAF80C200A9FDAF80010DAF8080005F1004504F1004402F100427D613B617C60FA603960B860059B03F007000DF51D7DBDE8F08F00BF28
:404A800000000040FB21F93F0000F03F0000E03F0000703E7081000000242146049D0835554475E90223204600F09AFA55450446F7D1019B002B50D00A9F01F100450B4642
:404AC000DAE9000187E83000224600F087FABBF1000F03460D460DDD01241846FAE90223294600F07DFA0134A34503460D46F4DA019A0AB105F10045184629460A9BC3E9A2
:404B00000201059B03F007000DF51D7DBDE8F08F00231C46049A0832924418467AE90223214600F05DFA0BF1FF3BBBF1FF3F03460C46F2D1019A0AB104F10044184621467F
:404B40000A9BC3E90001059B03F007000DF51D7DBDE8F08F00260027F3E626460F4622460A9C0B46DAE90001C4E9006700F036FABBF1000F03460D46AEDC184629460A9BF8
:404B8000C3E90201BDE7089B30465A423946CDF81490CDF8048000F0A3F900222C4B06460F4600F055FE002840D00022294B3046394600F0C7FB00F05FFE044600F05CFB60
:404BC0000022234B00F0BEFB0B4602463946304600F004FA00F050FE089B05F1010B1833089310AB43F8250043F82B4050E6012393E500244EE51846DAE90067DAE90223DD
:404C000029460A9DC5E90067C5E90401C5E902232EE7A69B032B3FF62BAFDFE803F0151010020DF5987A00231D4608E73046394600F022FE10ABAB4643F8250028E6002473
:404C400021460DF5987A34E700231C4672E700BF000070410000703E2DE9F04F21F00046B6F1795F85B00C4690469946054604DA00F002FE002800F085802A4623462846BE
:404C8000214600F05FFB06460F4602460B462846214600F057FB3EA3D3E9002382468B463046394600F04EFB3BA3D3E9002300F095F932463B4600F045FB39A3D3E900234C
:404CC00000F08EF932463B4600F03CFB36A3D3E9002300F083F932463B4600F033FB34A3D3E9002300F07CF90E9BCDE900019BB30022334B4046494600F024FBDDE900236C
:404D0000CDE902015046594600F01CFB02460B46DDE9020100F062F932463B4600F012FB42464B4600F05AF923A3D3E9002306460F465046594600F005FB02460B46304605
:404D4000394600F04DF902460B462846214600F045F905B0BDE8F08F02460B463046394600F0F0FA14A3D3E9002300F037F952465B4600F0E7FA2A46234600F031F905B039
:404D8000BDE8F08F2846214605B0BDE8F08F00BF7CD5CF5A3AD9E53DEB9C2B8AE6E55A3E7DFEB157E31DC73ED561C119A0012A3FA6F810111111813F495555555555C53FDB
:404DC0000000E03F21F00041704700BF00000000C1F30A522DE9F843A2F2FF36132E0B4604460D46884607461CDC002E3FDB3A4A864642FA06F901EA0902024317D034A394
:404E0000D3E9002300F0ECF80022002300F02AFD20B1002D40DB28EA0905002738462946BDE8F883332E06DDB6F5806F2FD020461946BDE8F883A2F213424FF0FF3929FAB1
:404E400002F910EA090FF2D021A3D3E9002300F0C7F80022002300F005FD0028DED0002D20DB454627EA090738462946D8E718A3D3E9002300F0B4F80022002300F0F2FC2B
:404E80000028CBD0002D18DB00273D46C6E702460B4600F0A5F8CCE74FF4801343FA06F6B044B8E7142E10D00123C6F1340603FA06F6371928BF9844D3E725F00042074B97
:404EC000224318BF1D460027A8E705F10108C8E79C7500883CE4377EFFFF0F000000F0BFF8B5C1F30A5604460D460B46174606BB21F00043034325D000222F4B00F022FA81
:404F00002E4A044697420D460B462ADBC1F30A56363E40F2FE723E44964228DC002E12DD23F0FF4323F4E00343EA065520462946F8BD40F2FF729642EBD102460B4600F067
:404F40004FF8F8BDF8BD16F1350F1DDA4CF250339F420CDC14A1D1E9000122462B4600F031F811A3D3E9002300F0ECF9F8BD22460FA1D1E900012B4600F024F80CA3D3E97A
:404F8000002300F0DFF9F8BD23F0FF4323F4E003363643EA0655204629460022084B00F0D1F9F8BDAFF3008059F3F8C21F6EA5019C7500883CE4377E00005043B03CFFFF0F
:404FC0000000903C03F0004321F0004242EA0301704700BF81F0004102E000BF83F0004330B54FEA41044FEA430594EA050F08BF90EA020F1FBF54EA000C55EA020C7FEA07
:40500000645C7FEA655C00F0E2804FEA5454D4EB5555B8BF6D420CDD2C4480EA020281EA030382EA000083EA010180EA020281EA0303362D88BF30BD11F0004F4FEA013180
:405040004FF4801C4CEA113102D0404261EB410113F0004F4FEA03334CEA133302D0524263EB430394EA050F00F0A780A4F10104D5F1200E0DDB02FA0EFC22FA05F28018F0
:4050800041F1000103FA0EF2801843FA05F359410EE0A5F120050EF1200E012A03FA0EFC28BF4CF0020C43FA05F3C01851EBE37101F0004507D54FF0000EDCF1000C7EEBE2
:4050C00000006EEB0101B1F5801F1BD3B1F5001F0CD349085FEA30004FEA3C0C04F101044FEA445212F5800F80F09A80BCF1004F08BF5FEA500C50F1000041EB045141EAF5
:40510000050130BD5FEA4C0C404141EB010111F4801FA4F10104E9D191F0000F04BF01460020B1FA81F308BF2033A3F10B03B3F120020CDA0C3208DD02F1140CC2F10C02FC
:4051400001FA0CF021FA02F10CE002F11402D8BFC2F1200C01FA02F120FA0CFCDCBF41EA0C019040E41AA2BF01EB0451294330BD6FEA04041F3C1CDA0C340EDC04F114042A
:40518000C4F1200220FA04F001FA02F340EA030021FA04F345EA030130BDC4F10C04C4F1200220FA02F001FA04F340EA0300294630BD21FA04F0294630BD94F0000F83F423
:4051C000801306BF81F480110134013D4EE77FEA645C18BF7FEA655C29D094EA050F08BF90EA020F05D054EA000C04BF1946104630BD91EA030F1EBF0021002030BD5FEA3D
:40520000545C05D14000494128BF41F0004130BD14F580043CBF01F5801130BD01F0004545F0FE4141F470014FF0000030BD7FEA645C1ABF194610467FEA655C1CBF0B4653
:40524000024650EA013406BF52EA033591EA030F41F4002130BD00BF90F0000F04BF0021704730B54FF4806404F132044FF000054FF0000150E700BF90F0000F04BF002161
:40528000704730B54FF4806404F1320410F0004548BF40424FF000013EE700BF42004FEAE2014FEA31014FEA02701FBF12F07F4393F07F4F81F06051704792F0000F14BF6A
:4052C00093F07F4F704730B54FF4607401F0004521F0004120E700BF50EA010208BF704730B54FF000050AE050EA010208BF704730B511F0004502D5404261EB41014FF47E
:40530000806404F132045FEA915C3FF4DCAE4FF003025FEADC0C18BF03325FEADC0C18BF033202EBDC02C2F1200300FA03FC20FA02F001FA03FE40EA0E0021FA02F114446D
:40534000C1E600BF70B54FF0FF0C4CF4E06C1CEA11541DBF1CEA135594EA0C0F95EA0C0F00F0DEF82C4481EA030621EA4C5123EA4C5350EA013518BF52EA033541F4801165
:4053800043F4801338D0A0FB02CE4FF00005E1FB02E506F00042E0FB03E54FF00006E1FB03569CF0000F18BF4EF0010EA4F1FF04B6F5007F64F5407404D25FEA4E0E6D417D
:4053C00046EB060642EAC62141EA55514FEAC52040EA5E504FEACE2EB4F1FD0C88BFBCF5E06F1ED8BEF1004F08BF5FEA500E50F1000041EB045170BD06F0004646EA0101AD
:4054000040EA020081EA0301B4EB5C04C2BFD4EB0C0541EA045170BD41F480114FF0000E013C00F3AB8014F1360FDEBF002001F0004170BDC4F10004203C35DA0C341BDCA5
:4054400004F11404C4F1200500FA05F320FA04F001FA05F240EA020001F0004221F0004110EBD37021FA04F642EB06015EEA430E08BF20EAD37070BDC4F10C04C4F12005A2
:4054800000FA04F320FA05F001FA04F240EA020001F0004110EBD37041F100015EEA430E08BF20EAD37070BDC4F1200500FA05F24EEA020E20FA04F301FA05F243EA02030A
:4054C00021FA04F001F0004121FA04F220EA020000EBD3705EEA430E08BF20EAD37070BD94F0000F0FD101F00046400041EB010111F4801F08BF013CF7D041EA060195F008
:40550000000F18BF704703F00046520043EB030313F4801F08BF013DF7D043EA0603704794EA0C0F0CEA135518BF95EA0C0F0CD050EA410618BF52EA4306D1D181EA03017E
:4055400001F000414FF0000070BD50EA410606BF1046194652EA430619D094EA0C0F02D150EA013613D195EA0C0F05D152EA03361CBF104619460AD181EA030101F0004172
:4055800041F0FE4141F470014FF0000070BD41F0FE4141F4780170BD70B54FF0FF0C4CF4E06C1CEA11541DBF1CEA135594EA0C0F95EA0C0F00F0A7F8A4EB050481EA030E98
:4055C00052EA03354FEA013100F088804FEA03334FF0805545EA131343EA12634FEA022245EA111545EA10654FEA00260EF000419D4208BF964244F1FD0404F5407402D231
:405600005B084FEA3202B61A65EB03055B084FEA32024FF480104FF4002CB6EB020E75EB030E22BFB61A754640EA0C005B084FEA3202B6EB020E75EB030E22BFB61A75463E
:4056400040EA5C005B084FEA3202B6EB020E75EB030E22BFB61A754640EA9C005B084FEA3202B6EB020E75EB030E22BFB61A754640EADC0055EA060E18D04FEA051545EA5F
:4056800016754FEA06164FEAC30343EA52734FEAC2025FEA1C1CC0D111F4801F0BD141EA00014FF000004FF0004CB6E711F4801F04BF01430020B4F1FD0C88BFBCF5E06F37
:4056C0003FF6AFAEB5EB030C04BFB6EB020C5FEA500C50F1000041EB045170BD0EF0004E4EEA113114EB5C04C2BFD4EB0C0541EA045170BD41F480114FF0000E013C90E67A
:4057000045EA060E8DE60CEA135594EA0C0F08BF95EA0C0F3FF43BAF94EA0C0F0AD150EA01347FF434AF95EA0C0F7FF425AF104619462CE795EA0C0F06D152EA03353FF444
:40574000FDAE1046194622E750EA410618BF52EA43067FF4C5AE50EA41047FF40DAF52EA43057FF4EBAE12E74FF0FF3C06E000BF4FF0010C02E000BF4FF0010C4DF804CD58
:405780004FEA410C7FEA6C5C4FEA430C18BF7FEA6C5C1BD001B050EA410C0CBF52EA430C91EA030F02BF90EA020F0020704710F1000F91EA030F58BF994208BF90422CBF66
:4057C000D8176FEAE37040F0010070474FEA410C7FEA6C5C02D150EA013C07D14FEA430C7FEA6C5CD6D152EA033CD3D05DF8040B704700BF8446104662468C461946634653
:4058000000E000BF01B5FFF7B7FF002848BF10F1000F01BD4DF808EDFFF7F4FF0CBF012000205DF808FB00BF4DF808EDFFF7EAFF34BF012000205DF808FB00BF4DF808ED86
:40584000FFF7E0FF94BF012000205DF808FB00BF4DF808EDFFF7CEFF94BF012000205DF808FB00BF4DF808EDFFF7C4FF34BF012000205DF808FB00BF4FEA410212F500122D
:4058800015D211D56FF47873B3EB625212D94FEAC12343F0004343EA505311F0004F23FA02F018BF404270474FF00000704750EA013005D111F0004008BF6FF00040704729
:4058C0004FF00000704700BF80F0004002E000BF81F0004142001FBF5FEA410392EA030F7FEA226C7FEA236C6AD04FEA1262D2EB1363C1BFD218414048404140B8BF5B42A4
:40590000192B88BF704710F0004F40F4000020F07F4018BF404211F0004F41F4000121F07F4118BF494292EA030F3FD0A2F1010241FA03FC10EB0C00C3F1200301FA03F187
:4059400000F0004302D5494260EB4000B0F5000F13D3B0F1807F06D340084FEA310102F10102FE2A51D2B1F1004F40EBC25008BF20F0010040EA03007047490040EB0000A2
:4059800010F4000FA2F10102EDD1B0FA80FCACF1080CB2EB0C0200FA0CF0AABF00EBC25052421843BCBFD0401843704792F0000F81F4000106BF80F400000132013BB5E7CB
:4059C0004FEA41037FEA226C18BF7FEA236C21D092EA030F04D092F0000F08BF0846704790EA010F1CBF0020704712F07F4F04D1400028BF40F00040704712F100723CBF15
:405A000000F50000704700F0004343F0FE4040F4000070477FEA226216BF08467FEA23630146420206BF5FEA412390EA010F40F4800070474FF0000304E000BF10F0004312
:405A400048BF40425FEA000C08BF704743F0964301464FF000001CE050EA010208BF70474FF000030AE000BF50EA010208BF704711F0004302D5404261EB41015FEA010C5A
:405A800002BF84460146002043F0B64308BFA3F18053A3F50003BCFA8CF2083AA3EBC25310DB01FA02FC634400FA02FCC2F12002BCF1004F20FA02F243EB020008BF20F07D
:405AC0000100704702F1200201FA02FCC2F1200250EA4C0021FA02F243EB020008BF20EADC7070474FF0FF3C06E000BF4FF0010C02E000BF4FF0010C4DF804CD4FEA400289
:405B00004FEA41037FEA226C18BF7FEA236C11D001B052EA530C18BF90EA010F58BFB2EB030088BFC81738BF6FEAE17018BF40F0010070477FEA226C02D15FEA402C05D102
:405B40007FEA236CE4D15FEA412CE1D05DF8040B704700BF844608466146FFE70FB5FFF7C9FF002848BF10F1000F0FBD4DF808EDFFF7F4FF0CBF012000205DF808FB00BFBF
:405B80004DF808EDFFF7EAFF34BF012000205DF808FB00BF4DF808EDFFF7E0FF94BF012000205DF808FB00BF4DF808EDFFF7D2FF94BF012000205DF808FB00BF4DF808EDE1
:405BC000FFF7C8FF34BF012000205DF808FB00BF014B1868704700BF6481FF1F0E4B70B51E460E4C0025E41AA410A54204D056F8253098470135F8E702F08CFB084B094CD2
:405C00001E46E41AA4100025A54204D056F8253098470135F8E770BD2083000020830000208300002883000010B5431E0A44914204D011F8014B03F8014FF8E710BD034666
:405C40000244934202D003F8011BFAE770472DE9F04788B0149F002B1E461299B8BF03F1004327F02007B6BF1E4600232D23462F1446109DDDF84CA00B7003D0452F03D10B
:405C8000013501E0032300E0022307AA049206AA03928DE828042246334600F001FD472F804602D1119BDB0728D5462F08EB050911D198F80030302B0AD100220023204613
:405CC0003146FFF7A7FD18B9C5F10105CAF80050DAF8003099440022002320463146FFF799FD08B9302202E0CDF81C9006E0079B994503D9591C07911A70F8E74046079B21
:405D0000159AC8EB0303136008B0BDE8F087034673B50029B8BF494203F8022BB4BF2D222B22092942701ADD0DF1070216460A2591FBF5F405FB1411092C01F1300102F888
:405D4000011D2146F4DC3031541E02F8011CB4421A460AD214F8012B03F8012BF7E71A463024214402F8024B5970101A02B070BD2DE9F04F91B00C46DDF8688016461F46DD
:405D8000054601F025FA03681846099300F0F4FB00230E93D8F800300A90073323F0070303F1080294F81890D4F800B0C8F80020D3E90023C4E91223D4F84CA0D4F84880F4
:405DC0002AF000430B934FF0FF32A74B40460B9901F052FFA0B94FF0FF32A34B40460B99FFF72CFD60B90022002340465146FFF71BFD10B12D2384F843309C4B9C4A0AE09A
:405E0000424653464046514601F036FF002800F09281984B984AB9F1470F8CBF90469846032323612BF0040323604FF0000A3DE0B9F1670F00F08A81B9F1470F00F0868148
:405E400023600193636800210DF13302059002920093424653460691CDF81090CDF80CE02846FFF7F4FE09F0DF03472B804600F08481B9F1650F0D9900F28D8101394A4676
:405E800004F150000D91FFF742FF0E9A82468318012A236100F37C812268D10700F178819DF8333013B12D2384F84330009733460FAA2146284600F09FF9013002D14FF06E
:405EC000FF3096E123685A0501D4236965E0B9F1650F40F2D580D4E9120100220023FFF799FC78B30123654A31462846B8470130E5D00E9B0D9A9A420BDB2368D80708D407
:405F000023689B0740F111814FF0000804F1190906E10A9B099A31462846B8470130CED04FF0000804F11A090E9B013B9845E7DA01234A4631462846B8470130BFD008F1FE
:405F40000108F1E70D9B002B29DC01234B4A31462846B8470130B2D00D9B23B90E9B13B92368D907CCD50A9B099A31462846B8470130A4D04FF0000904F11A0A0D9B5B429C
:405F8000994509DA0123524631462846B847013095D009F10109F1E70E9B4246A7E00E9AA36D9A42A8BF1A46002A914606DC4FF0000A29EAE97904F11A0B11E0134631467F
:405FC00042462846B8470130F1D178E701235A4631462846B84701303FF471AF0AF1010AA36DC9EB03029245F0DB08EB03090D9A0E9B9A420FDB2368DA070CD40E9B0D9A0C
:406000009844C9EB08089B1A9845A8BF9846B8F1000F08DC0FE00A9B099A31462846B8470130EBD14BE743464A4631462846B84701303FF444AF4FF0000928EAE87804F110
:406040001A0A09E00123524631462846B84701303FF435AF09F101090D9A0E9B9B1AC8EB03039945EEDB4BE7FFFFEF7FB2810000B6810000BA810000BE810000C2810000FD
:406080000E9A012A01DCDB0738D50123424631462846B84701303FF412AF0A9B099A31462846B84701303FF40AAFD4E9120100220023FFF7AFFB20B14FF0000804F11A095E
:4060C0000EE00E9B08F10102013B19E001234A4631462846B84701303FF4F1AE08F101080E9B013B9845F1DB534604F1500231462846B84701307FF403AFE0E64246012321
:4061000031462846B8470130EED1D8E601234A4631462846B84701303FF4D1AE08F10108E3680F9A9B1A9845F0DBE0680F9B9842B8BF18465DE062680EA8531C0DF1340EF2
:406140004BF480637FF474AE062201E012B90122626075E6002106910DF133018DE80C00236005904246CDF81090CDF80CE0029153462846FFF76BFD80460D9BD81C02DBFC
:40618000626893421DDDA9F102095FFA89F970E60133236184E6B9F1660F14D10029636807DD216113B92268D2071DD501330B4419E013B92268D00701D5023313E0012304
:4061C00011E04FF067090D9B0E9A934205DB22682361D10708D5013305E0002BD4BFC3F102030123134423610D9B4FF0000AA36556E611B0BDE8F08F2DE9F04791461F4605
:406200000A698B6806469342B8BF1346C9F8003091F843200C46DDF8208012B10133C9F800302368990642BFD9F800300233C9F80030256815F0060510D104F1190A07E0AC
:406240000123524639463046C04701301AD00135E368D9F800209B1A9D42F1DB94F843302268003318BF012392060FD5E118302081F843005A1C94F845102244023382F8D5
:40628000431003E04FF0FF30BDE8F08704F1430239463046C0470130F4D02268D9F80050E36802F00602042A08BF5D1B2269A3680CBF25EAE57500259342C4BF9B1AED1895
:4062C0004FF000091A344D4509D00123224639463046C0470130D5D009F10109F3E70020BDE8F0872DE9F04317460A7E85B06E2A984606460C460C9B01F1430E00F0AE80A6
:4063000011D8632A22D009D8002A00F0BB80582A40F0CA8081F84520834955E0642A1ED0692A1CD0C0E0732A00F0B08009D86F2A2ED0702A40F0B8800A6842F020020A60E2
:406340003EE0752A24D0782A3AD0ADE01A6801F14205111D1960136884F84230A8E021681A6811F0800F02D0111D196008E011F0400F02F10401196002D0B2F9003000E096
:406380001368002B3CDA2D225B4284F8432037E021681A6811F0800F02D0111D196007E011F0400F02F10401196001D0138800E01368227E5C496F2A14BF0A2208221BE0BA
:4063C00078225A4984F845202268186812F0800F00F104051D6003D1550601D5038800E00368D00744BF42F0200222601BB9226822F0200222601022002084F8430001E0DC
:4064000049490A226568002DA56008DB206820F0040020602BB9002D7DD175460CE0002B79D07546B3FBF2F002FB1033CB5C05F8013D03460028F5D1082A0BD12368DA0788
:4064400008D5236962689A42DEBF302305F8013C05F1FF35C5EB0E0323612EE008681A6810F0800F496903D0101D1860136808E010F0400F02F104001860136801D01980B5
:4064800000E0196000232361754616E01A68111D1960156800216268284600F0A5FE08B1401B6060636804E004F1420584F8422001232361002384F84330CDF800803B467C
:4064C00003AA21463046FFF797FE013002D14FF0FF3026E023692A4639463046C0470130F5D023689B0710D5002504F1190907E001234A4639463046C0470130E7D001351E
:40650000E368039A9B1A9D42F2DBE068039B9842B8BF184605E00B7804F1420584F842308AE705B0BDE8F083C4810000D58100000EB400B54FF402719CB0ADF814106FF071
:406540000041049107914FF6FF711DAB02900690084853F8042BADF81610006802A9019301F038FA029B00221A701CB05DF804EB03B070476481FF1F034613F8012B002A39
:40658000FBD1181A013870472DE9F74F03690C6980469C427FDC013C01F114074FEA840E00F1140606EB0E0357F82450019356F824300135B3FBF5F507EB0E09C5B34FF008
:4065C000000A3846B446D34650F8043B9AB205FB02A21B0C4FEA124A05FB03A392B2C2EB0B0BBCF800204FEA134A5A441FFA83FBDCF800308145CBEB134303EB224392B214
:4066000042EA03424FEA234B4CF8042BDCD256F80E306BB9019B043B9E421A4602D3C8F8104005E01268043B002AF8D1013CF3E7404600F0F4FF00282BDB304601354FF047
:40664000000E57F8042B036891B2C1EB0E0E120C99B27144C2EB134303EB214389B24FEA234EB94541EA034340F8043BE9D256F8242006EB840362B9043B9E421A4602D3A6
:40668000C8F8104005E01268043B002AF8D1013CF3E7284600E0002003B0BDE8F08F00002DE9F04F456A95B08246219CCDE9022345B9102000F090FDCAF824004560856019
:4066C0000560C560DAF82430196859B15A68012393404A608B60504600F0C9FDDAF8243000221A60039BA04A002BBDBF01232360039B0023BCBF23F000430393DDF80C80A4
:40670000A8BF236028F000431B0D1B0593421DD142F20F73209A1360029B43B9934A944BC8F31300002814BF1846104600E09048229B002B00F04685C37813B100F10803FE
:4067400000E0C31C229A136000F03CBDDDE902450022002320462946FFF75CF8074658B1209A01231360229B002B00F01E8581481860013800F026BD12AB019313AB0093C0
:4067800022462B46504600F0C5FFC8F30A56049056B1C5F3130343F07F51204641F44011A6F2FF3611971DE0139B129E1E4406F23243202B0ADD029A06F21240C3F1400395
:4067C00022FA00F008FA03F3184304E0C3F12000029B03FA00F0FEF73FFD0123A1F1F871013E11930022644BFEF7F8FB58A3D3E90023FEF7A7FD58A3D3E90023FEF7F0FBDF
:40680000044630460D46FEF737FD55A3D3E90023FEF798FD02460B4620462946FEF7E0FB04460D46FFF728F800228346002320462946FEF7F9FF58B15846FEF71DFD0246FC
:406840000B4620462946FEF7E5FF08B90BF1FF3BBBF1160F0DD8DDE90223484901EBCB01D1E90001FEF7FEFF30B10BF1FF3B002300E00123109300E01090129B9E1B731E33
:40688000079343BFC3F10008002307934FF00008BBF1000F06DB079BCDF82CB05B440793002705E00023CBEB0808CBF100070B931E9B092B28D8052BC4BF043B1E931E9BC5
:4068C000C8BF0025A3F10203D8BF0125032B20D8DFE803F0060E0204012302E0012308E000230A931F9B002B1DDD9946059321E000230A931F9B0BEB030909F10103012BCD
:406900000593B8BF012315E0012500231E930A9501E001230A934FF0FF390022CDF8149012231F9206E04FF001094B46CDF81490CDF87C90DAF8244000226260042101F1E1
:4069400014029A421CD86268490001326260F6E761436F63A787D23FB3C8608B288AC63FFB799F501344D33F0000F07FE6810000EF810000C38100000000F83F008200006B
:406980006168504600F03EFCDAF8243020601B680693059B0E2B00F25B81002D00F05881DDE90234BBF1000FCDE90E3430DD9F4A0BF00F034FEA2B1502EBC303E80618CB40
:4069C000CDE908340CD5DDE90E01994B05F00F05D3E90823FEF7E0FD0324CDE9020100E00224934E6DB1E90708D5DDE90801D6E90023FEF7A7FCCDE9080101346D1008369F
:406A0000F0E7DDE90823DDE90201FEF7C5FD20E0CBF1000505B3DDE90E01844B05F00F0203EBC203D3E90023FEF78CFCCDE902017F4E2D110023022455B1EA0705D5D6E93F
:406A40000023FEF77FFC013401236D100836F3E71BB1CDE9020100E00224109BE3B1DDE902560022734B28463146FEF7DDFE98B1059B8BB1B9F1000F40F3E6800BF1FF3373
:406A80000893314600226C4B2846FEF75BFC0134CDE902014E4602E0059ECDF820B02046FEF7EAFBDDE90223FEF74CFC634B0022FEF796FAA1F1507304460C931D46D6B9A8
:406AC000DDE9020100225E4BFEF788FA22460C9BCDE90201FEF7C6FE002840F03F820C99224601F10043DDE90201FEF79DFE002840F02B82A8E00A9A4C4B711E002A49D0BC
:406B000003EBC103D3E9002300204E49FEF744FD22462B46FEF762FACDE90C01069CDDE90201FEF7A9FE0546FEF7A6FB02460B46DDE90201FEF752FADDE90C23303504F809
:406B4000015BCDE90201FEF76FFE002840F01D83DDE9022300203749FEF740FADDE90C23FEF762FE002840F0D180069BE31AB3426ADADDE90C0100222F4BFEF7E3FB0022BE
:406B8000CDE90C01DDE902012B4BFEF7DBFBCDE90201C4E703EBC1012246D1E900012B46FEF7D0FB069BCDE90C011D469C19DDE90201FEF761FE0646FEF75EFB02460B46D4
:406BC000DDE90201FEF70AFA303605F8016BAC42CDE902014FF0000222D11A4BDDE90C01FEF7FEF902460B46DDE90201FEF73AFE002840F08B80DDE90C2300201149FEF7AF
:406C0000EDF902460B46DDE90201FEF70DFED8B114F8013C621E302B40F0B7821446F7E7054BFEF78FFBCDE90201C0E700820000D88200000000F03F0000244000001C40C4
:406C4000000014400000E03FDDE90E34CDE90234139B002B7CDBBBF10E0F79DCAB4B03EBCB03D3E900671F9B002B14DA059B002B11DC40F06C810022A54B30463946FEF7E6
:406C800061FBDDE90223FEF7E3FD059D2E46002840F05F8165E1069CDDE9028932463B4640464946FEF778FCFEF7E6FD0546FEF7E3FA32463B46FEF745FB0B46024649466F
:406CC0004046FEF78BF905F1300E069B04F801EBC3EB040E059B73452DD102460B46FEF77FF98046894602460B4630463946FEF79BFD78B942464B4630463946FEF78AFD51
:406D0000002800F04482EB0704D440E2DDF820B000E01C4614F8012C631E392A07D1069A9A42F6D1069930220BF1010B0A701A7801321A702BE20022764BFEF703FB0022A3
:406D4000002380468946FEF765FD0028A6D01EE20A9A002A2BD01E9A012A0ADC119A12B103F2334302E0129BC3F136033D46444613E0059B5D1EAF42BFBF0B9BEA1B9B1897
:406D80000B93059BB6BF2F467D1B0025002BA7BF4446059BC3EB08040023079A01211A4450469844079200F001FB064602E03D4644460A9E5CB1079B002B08DDA342A8BF50
:406DC0002346079AC3EB0808E41AD31A0793002F1DDD0A9BABB18DB131462A46504600F07FFB049A01460646504600F0E8FA04990890504600F03BFA089B04937A1B06D0C9
:406E000000E03A460499504600F06AFB04900121504600F0CBFA0B9B05465BB31A460146504600F05DFB1E9B0546012B18DC029B83B9039BC3F3130373B9039B23F000475A
:406E40003F0D3F054FB1079B08F1010801330793012702E0002700E0029F0B9B73B100E000272B6905EB8303186900F052FAC0F1200004E01E9B012BD9DD0B9F0120079B09
:406E8000184410F01F0008D0C0F12003042B02DDC0F11C0002E006D018461C30079B8044034404440793B8F1000F05DD42460499504600F063FB0490079B002B05DD29468A
:406EC0001A46504600F05AFB0546109B23B32946049800F0A4FB00281EDA00230A220499504600F0DBF90A9B0BF1FF3B0490002B00F05F81314600230A22504600F0CEF90E
:406F0000B9F1000F06463FDC3BE000BF008200000000144000002440059B002B2BDC1E9B022B28DDDDF81490B9F1000F11D129464B460522504600F0B1F9014605460498C7
:406F400000F06DFB00280CDC03E0354600E000252E461F9B069C6FEA030B09E03546DDF820B0069B069A5C1C312313700BF1010B05960026F7E00A9BDDF8149023B9069C3A
:406F8000B2E01E9B022BCFDC002C05DD31462246504600F0F3FA06469FB17168504600F031F90446326906F10C01023292000C30FEF73AFE01222146504600F0DFFA059093
:406FC00000E00596029B069F03F00103079329460498FFF7D9FA3146044600F13008049800F01DFB059A02902946504600F033FBC36802463BB901460A90049800F00FFBAF
:407000000A9A034600E00123114650460A9300F02EF90A9B53B91E9A42B9079A32B9B8F1390F2AD0029B002B1CDC1DE0029A002A04DB1BD11E9ACAB9079ABAB9002B13DD2B
:4070400001220499504600F099FA2946049000F0E6FA002803DC07D118F0010F04D0B8F1390F0AD004F131087C1C0CE0002B07F101040BDDB8F1390F03D139233B70013708
:4070800056E008F1010887F800806CE0069B2746E31A4B4504F8018C3BD000230A220499504600F0FBF8059B04909E424FF00A024FF000033146504604D100F0EFF8064613
:4070C000059084E700F0EAF8002306460A220599504600F0E3F8059079E700230A220499504600F0DBF8049029460498FFF74CFA069B00F1300804F8018BE31A4B45ECDB69
:40710000069B0596B9F1010FACBF4B4401331F46002601220499504600F030FA2946049000F07DFA002803DC15D118F0010F12D03C4614F8013C621E392B09D1069B9342E0
:4071400004D10BF1010B3123069A02E01446F0E70133137007E03C4614F8013C621E302B01D11446F8E72946504600F080F8059B6BB12EB19E4203D03146504600F077F8B5
:407180000599504600F073F801E0DDF820B00499504600F06CF80023209A23700BF101031360229B1BB11C6001E008480AE0069808E0B9F1000F3FF7E2AE1E9B022B7FF7CF
:4071C000DEAEB1E615B0BDE8F08F00BFC2810000004870476881FF1F024B0146186800F041BB00BF6481FF1F10B5C9B202449042034605D01C7801308C42F8D1184610BDBC
:40720000002010BD70B5456A04460E463DB91020FFF7E2FF6062456085600560C560656AEB6843B1636ADB6853F8260078B1026843F8262017E021220421204600F0B8FA0A
