:400000000080002011000000F10C0000F10C000008B5044B1A6803F53F5302331A6000F087FE00BFFA46004010B5054C237833B9044B13B10448AFF300800123237010BDF8
:40004000A081FF1F000000002C530000084B10B51BB108490848AFF300800848036803B910BD074B002BFBD0BDE81040184700BF00000000A481FF1F2C530000C880FF1F54
:400080000000000008B500F037FA08BD08B5642000F00EFF034B1B6813B10222014B5A6008BD00BFBC81FF1FF8B562B600F0F0FE00F078FF424800F08FFF01F0BDFA01F016
:4000C0009FFC002001F0AEFC3E4C207A01F066FC0025E560284601F0C3FE012001F0BAFE4FF4FA7000F0E4FE022001F0B3FE4FF4FA7000F0DDFE032001F0ACFE4FF4FA70B9
:4001000000F0D6FE284601F0A5FE4FF4FA7000F0CFFE00F063F801F06BFE4FF47A7001F01FFE4FF4FA7000F0C3FE01F075FE01F0BDFD4FF48C6001F071FD4FF4FA7000F017
:40014000B7FE01F0C1FD01F0EDFF02F0C5F8284601F092FF284602F069F802F01FF802F0F7F801F009FF01F04FFF0327164B1F6001F0D6FC01F07CFC144801F0B9FE144826
:4001800001F08EFE01262660124800F025FF00F021FA00F01FFA00F01DFA656025610E4B1E60A582E68225836683E661022121626762284600F070FA042000F0A3FAFEE736
:4001C00030530000BC81FF1FF082FF1F850000008D00000048530000CC80FF1F30B585B0002400940194029403940FE0E0B201F031FE0A2000F05CFE01F090FA04AB03EBB9
:40020000840502F05DFF45F8100C0134032CEDDD002001F01FFE074B009A1A60064B019A1A60064B029A1A60054B039A1A6005B030BD00BF2083FF1F2483FF1F1C83FF1FF4
:400240002C83FF1FF0B585B0002400940194029403940FE0E0B201F0FDFD0A2000F028FE01F05CFA04AB03EB840502F029FF45F8100C0134032CEDDD002001F0EBFD009F0B
:400280008B4B1F60019C8B4B1C60029D8A4B1D60039E8A4B1E608A4B1B68042B00F2D580DFE813F0050053007D009B00BE008549854B186802F050FE0146204602F0A2FFB1
:4002C000A8B18049814B186802F046FE0146284602F098FF58B17B497D4B186802F03CFE0146304602F08EFF002840F0B7802946204602F0A5FF30B13146204602F0A0FF56
:40030000002840F0AD803146284602F099FF30B12946204602F076FF002840F0A3803146284602F06FFF002800F09E803146204602F068FF002800F099802946204602F088
:4003400061FF002840F09480AFE06249204602F059FF58B15F49284602F054FF30B15D49304602F04FFF002840F084802946204602F066FF28B13146204602F061FF00286E
:400380007AD13146284602F05BFF002876D02946204602F037FF002872D1032085E04E49204602F04DFF50B14B49284602F048FF28B14A49304602F025FF002862D1484908
:4003C000204602F03DFF00285ED14649284602F037FF00285AD0022067E04349204602F02FFF78B14049284602F02AFF50B13E49304602F007FF28B13C49384602F020FF02
:40040000002845D13649204602F01AFF002841D13349284602F014FF00283DD0022044E03349204602F0EEFEC0B33149304602F0E9FEA8B32E49284602F0E4FE90B32C4922
:40044000384602F0DFFE78BB2FE02A4800F0C4FD40F6B83000F02CFD002026E0002024E0012022E0022020E000201EE000201CE003201AE0002018E0012016E0032014E067
:40048000022012E0002010E001200EE003200CE000200AE0012008E0032006E0002004E0002002E0002000E0012005B0F0BD00BF0883FF1F0C83FF1F5883FF1F2883FF1F7E
:4004C000C881FF1F0000FA442483FF1F1C83FF1F2C83FF1F0000FA4500007A4600803B460050C34600F0D24600A08C4600007A4500409C457853000038B501F0B9FA01F008
:40050000CFFA0D4C206001F0A5FA0C4B1D682068C0F5803002F0F2F905A3D3E9002302F053FA04EB850402F0E9FC606038BD00BF2BDF3312A111C63F4482FF1F5C83FF1F73
:4005400010B50446C0B201F035FB204B1C6001F0E7FA042C36D8DFE804F0030D17212B00012001F0EBFA0A2000F0B8FC002001F0E5FA10BD012001F0EDFA0A2000F0AEFC75
:40058000002001F0E7FA10BD012001F0EFFA0A2000F0A4FC002001F0E9FA10BD012001F0F1FA0A2000F09AFC002001F0EBFA10BD012001F0F3FA0A2000F090FC002001F0E0
:4005C000EDFA10BD024800F007FD10BD5C83FF1FB053000038B50F4800F0FEFC002412E02046FFF7ADFF3C2000F062FC0A4B03EB84030A4D5A680A49284603F0DBFA28466C
:4006000000F0EAFC0134042CEADD064800F0E4FC38BD00BFC45300004482FF1FC482FF1FE0530000E853000008B501F061FB4FF48C6001F0F3FA4FF4FA7000F039FC01F03F
:4006400043FB08BDA0F57A73B3F5AF6F21D870B5054601F0F5FB01F0D9FB0446281A0D4E86FB0036C017C0EBA60606E03444A0B201F076FB0A2000F01BFCAC42F6D1A8B202
:4006800001F06EFB4FF4FA7000F012FC01F0C4FB70BD70476766666638B505460C46012905D101F025FB40F2E24001F0B7FA2CB901F01EFB4FF48C6001F0B0FA032D17D89F
:4006C000DFE805F002070C114FF41660FFF7BAFF12E040F2A460FFF7B5FF0DE040F2E240FFF7B0FF08E04FF47A70FFF7ABFF03E04FF41660FFF7A6FF012C01D801F0E4FA37
:4007000038BD00BF38B50446002001F043FE002001F046FE01F058FD462001F0ADFC01F02DFE462001F082FDFFF77EFF012001F097FB124B1C6000240EE0FFF783FD04462D
:400740000A2000F0B5FB0E4D22460E49284603F031FA284600F040FC002CEED0002001F0DDFB002001F022FC01F018FD01F0F0FD01226421252000F04FF838BDC881FF1F09
:40078000C482FF1FEC53000010B51F4B1B68012B33D0A0B90420FFF7D3FE322000F088FB1A4B1A69531E532B29D8194C1949204603F000FA204600F00FFC012010BD012842
:4007C0001AD10020FFF7BCFE322000F071FB0120FFF7B6FE322000F06BFB0C4B1A68531E532B0ED80A4C0B49204603F0E3F9204600F0F2FB012010BD10BD002010BD002085
:4008000010BD002010BD00BFE881FF1F4882FF1FC482FF1F2C5400002DE9F04F85B004460D469146C82900DDAA25002C08DD002001F0B0FD002001F0B3FD0123039307E020
:40084000012001F0A7FD012001F0AAFD0023039301F0BAFC01F092FD204602F04FF846A3D3E9002302F0B0F801F0A6FE02F046FB834601F04BFB074601F090FB82462E465B
:400880004FF000086FF4E073029343E001F03EFB0446074601F082FB8246844207DDB54202D1043D043602E02B4635461E46844207DAB54202D1043E043502E02B463546B1
:4008C0001E46E8B201F0D8FBF0B201F0AFFC84EAE470A0EBE47002F011F8CDE90001029802F00CF826A3D3E9002301F0BBFE0022254B01F0B5FE02460B46DDE9000102F03B
:40090000F3FA38B1B9F1010F04D10398FFF73CFF8046029487EAE772A2EBE7728BEAEB73A3EBEB739A4208DA8AEAEA72A2EBEA72934202DDB8F1000FA8D0144C3A46144923
:40094000204603F037F9204600F046FB52461149204603F02FF9204600F03EFB01F01EFC01F0F6FC002001F0D9FA002001F01EFB05B0BDE8F08F00BF295C8FC2F528154079
:4009800066666666661A7C4000005940C482FF1F9C540000B0540000FEE700BFF0B40022174611E050F82760F3B226F0FF0608E001EB420511F812406D78A5550132013B67
:4009C000DBB2002BF4D10137282FEBD9F0BC704710B41A4B1B78DBB203F00701184A11701B090132137002232D3A13700421A2F5A4521B3A1170102102F676521170103278
:400A0000137001220F4B1A7020230F490B7080210E48017003247C3004704F300370013003702C3001700A490B700A4B1A704422A3F2E2231A7010BC704700BFCF01004972
:400A40006E580040005A0040035A0040085A0040045B0040585B004008B50A46002102F030FC08BD08B502F021FC08BD38B50024384B1C80502202331A70012202331A8010
:400A80001823354A1370172102321180023213703321023211800232137040F2AF410232118002321370042201F1904101F6CD312A48FFF7D7FF0222294B1A7008224FF030
:400AC00040231A70032103F500731970254B1B78DBB225490B70254B1A8041F25122023B1A8019250CE0224B1B7803F0010343EA440404F003044FF4F07001F04DFD013D44
:400B00000DB1032CEFD115B90320FFF745FF194B4FF480721A8007221A70002216490A704820023108701A700222033B1A7004220A331A70114A137843F01F031370013A8D
:400B4000137843F001031370013A137843F08003137038BD8040004086400040004100400043004008010049A146004022420040254200400440004006400040A24300403F
:400B800038B572B6424A137843F00403137000240CE0404D630019194A0011462A44084691882858FFF758FF0134E4B2062CF0D900240BE03749A3001819420088180622A4
:400BC000016BC06AFFF74EFF0134E4B2002CF1D031494FF09040FFF7E1FE0A242F4B1C7040F20322373B1A802D4A03F52A430C331A602C4A03F590631A602B4A137843F0CC
:400C0000020313701032137843F002031370274D2B7843F040032B70A2F58632513A137843F010031370082221492248FFF71AFF224621492148FFF715FF08222049214800
:400C4000FFF710FF224620492048FFF70BFF22461F492048FFF706FF08221F491F48FFF701FF1F4A137843F0080313701D4C61232370FFF7FBFE8123237001221A4B1A70A7
:400C8000FFF7A6FE0E2229461848FFF7EBFE38BDE8460040C4540000A400004883580040040400C40404044403500140A0430040401000480251004048100048C05100404B
:400CC00054100048F25100405C1000481051004068100048205100407410004832510040224300400048004004000840B043004008B502F0AFFA03680C2B00D1FEE7FEE72F
:400D000008B5094B1A681044084BC31AB3F5007F02DC054B186005E002F09CFA0C2303604FF0FF32104608BDEC80FF1F6883FF1F08B5104E104D16E029686B68AC680022AA
:400D400004E051F8040B43F8040B0432A242F8D1E868002203E0002143F8041B04328242F9D11035013E002EE6D102F079FAFFF79BF9FEE7010000008056000008B5104A4B
:400D8000104B1A60104A136843F40073136000230AE0032B03D80D4A52F8231000E00C490C4A42F8231001332F2BF2D90A4B1A780A4B1A70074A0A4B1A60FFF7E1FE08BDB1
:400DC0000004FA050CED00E014ED00E000000000F10C00000080FF1FBC760040C080FF1F08ED00E0084A137843F0010313701032137843F00103137002F5A5521E3213780F
:400E000043F0800313707047A9430040044A137803F0FC0300F0030018431070704700BF01580040072809D8054B1A7802F08F021A701A780001C0B210431870704700BF99
:400E400002580040032809D8054B1A7802F0F3021A701A788000C0B210431870704700BF0258004038B50224084B1C700C2201331A70012501331D700420FFF7D3FF2846EB
:400E8000FFF7E0FF2046FFF7C1FF38BD0058004008B5054B1B7823B90122034B1A70FFF7E1FFFFF79FFF08BD8082FF1F01BE704710B5044605E0084B186801F06DFBA4F5BF
:400EC0000044B4F5004FF6D8034B586800FB04F001F062FB10BD00BFF080FF1F08B5034B1B7A00FB03F001F057FB08BDF080FF1F70B504460E46074B1D681F2802D9002083
:400F0000FFF7D4FF04F01F04103455F8240045F8246070BD08ED00E038B504460D46072902D90020FFF7C2FF1F2C02D90020FFF7BDFF04F01F0000F1604000F564406D014A
:400F4000EDB2057038BD00BF7222074B1A702022FF331A700622613B1A70472210331A7000224E331A7070478964004010B501F01BFB04460A4A137843F020031370FF32A7
:400F8000137843F010031370033A137843F01003137000F033F8204601F00AFB10BD00BF9964004008B5054B1B7823B9FFF7CCFF0122024B1A70FFF7D9FF08BD8182FF1F21
:400FC000034B1B7813F0040FFAD1024B18707047656500404565004038B5074B1B782BB938BDFFF7EDFF0134A4B201E005460024285D0028F5D138BD8182FF1F054A1378E4
:4010000043F0080313701032137843F008031370704700BFA243004038B59DF81040651EEDB2032D51D8013809282ED8DFE800F0052D2D052D2D0F192D230F2B03D9254899
:40104000007840B222E02448007840B21EE00F2B03D92248007840B218E02148007840B214E00F2B03D91F48007840B20EE01E48007840B20AE00F2B03D91C48007840B214
:4010800004E01B48007840B200E0002001EB401101FB02F2D20B91B20D2B0BD8C3F10E0192B20A4191B2621E124800EB82020133937005E0631E0F4A02EB83030F229A7095
:4010C000013C0C4B23F8241038BD0020FFF7EEFE38BD00BF180100491C010049190100491D0100491A0100491E0100491B0100491F0100498482FF1FF8B5074601F054FAD9
:4011000006460D4D2B7843F003032B700B4C237843F0030323700A4B1F700320FFF7DEFE2B7803F0FC032B70237803F0FC032370304601F03DFAF8BDF8460040F94600405B
:4011400092580040F8B504460022BB4B1A7401285AD13822B94B1A70042202331A70072201331A70002501331D7001331D703F2201331A7002331D7001331D7001331D7086
:4011800001260A331E70502203F527631A70272201331A702C2201331A7001331D70552203331A705A2201331A70052701331F7002331E70112201331A70192201331A70DE
:4011C000972201331A704420FFF796FF58229C4B1A7001331D7005331F7001331E7001331D700A2201331A704FF4FA42954B1A603146384600F0C6FA3146252000F046FB3E
:4012000091491D20FFF774FE022C5AD138228B4B1A70042202331A70072201331A70002501331D7001331D703F2201331A7002331D7001331D7001331D7001260A331E7054
:40124000502203F527631A70272201331A702C2201331A7001331D70552203331A705A2201331A70052701331F7002331E70112201331A70192201331A70972201331A7098
:401280004420FFF739FF58226D4B1A7001331D7005331F7001331E7001331D700A2201331A704FF4FA42674B1A603146384600F069FA3146252000F0E9FA64491D20FFF789
:4012C00017FE032C5AD138225C4B1A70042202331A70072201331A70002501331D7001331D703F2201331A7002331D7001331D7001331D7001260A331E70502203F5276338
:401300001A70272201331A702C2201331A7001331D70552203331A705A2201331A70052701331F7002331E70112201331A70192201331A70972201331A704420FFF7DCFE97
:4013400058223F4B1A7001331D7005331F7001331E7001331D700A2201331A704FF4FA42384B1A603146384600F00CFA3146252000F08CFA36491D20FFF7BAFD042C5AD18D
:4013800038222E4B1A70042202331A70072201331A70002401331C7001331C703F2201331A7002331C7001331C7001331C7001250A331D70502203F527631A702722013315
:4013C0001A702C2201331A7001331C70552203331A705A2201331A70052601331E7002331D70112201331A70192201331A70972201331A704420FFF77FFE5822104B1A70E0
:4014000001331C7005331E7001331D7001331C700A2201331A704FF4FA420A4B1A602946304600F0AFF92946252000F02FFA09491D20FFF75DFDF8BD8482FF1F004E0040DD
:40144000945800406083FF1F45170000491700004D170000511700002DE9F04182B0394E4FF0010886F80080374F00247C74102000F076F9102000F0F7F907211D20FFF7DD
:401480004BFD0425314B1D7001331C7007331C702F4A137843F0180313702E4B1C7003F2F5231C7001331C700A22A3F209331A7001331C7002331C705B2205331A705E2232
:4014C00001331A7004331C701422A3F68C231A70CDF8008010234FF4004249F2DA012846FFF79AFD0223009310234FF4004249F2DA012846FFF790FD0323009310234FF4AF
:40150000004249F2DA012846FFF786FD009510234FF4004249F2DA012846FFF77DFD3378013B07EB83039A780B4B1A703378013B37F82320094B1A803078FFF703FE02B042
:40154000BDE8F0810081FF1F8482FF1F96580040075B0040935800400E4E00400C4E004070B501F021F806462A4B1B782A4B1A7842F001021A701A7842F010021A70103375
:401580001A7842F001021A701A7842F010021A70224D2B7843F002032B70214C237843F0020323701F4A137843F0030313700320FFF794FC2B7803F0FD032B70237803F0AA
:4015C000FD032370184A137843F0060313707A22164B1A70164A137843F0010313701032137843F0010313700F3A137843F0010313701032137843F0010313704FF0005352
:401600000C4A1360A2F5C0721360304600F0D0FF70BD00BF0081FF1FAA430040F8460040F9460040915800407758004082580040A143004080E200E008B5084B9B7C4BB9D8
:40164000064BDB7C13F0FF0F01D1FFF705FF0122024B9A74FFF784FF08BD00BF8482FF1F024A137843F0010313707047004E0040024A137803F0FE0313707047004E0040DD
:40168000094B1B7C13F0FF0F03D0074B5B7CDBB203E0064B1B7803F00103012B01D00028EED01846704700BF8482FF1F014E0040154B1B7803F00303012B07D8134B188888
:4016C000023B1B889BB243EA004013E0022B0AD10E4B1888023B1B7843EA00430C4A107843EA002006E00B4B188883B2074A108843EA0040084B1B7C13F0FF0F02D000229B
:40170000054B5A74704700BF144E0040124E0040114E0040104E00408482FF1F10B5084A137843F004031370FFF79AFF0020FFF7A7FFFFF7BDFF0446FFF79AFF204610BD0A
:40174000014E0040704700BF704700BF704700BF704700BF014B188880B2704780400040034B1A7800F0F80010431870704700BF82400040024B187800F00700704700BFC8
:401780008240004070B505460E46FFF7F3FF0446FFF7E0FFA84256D02B4B1B7803F0010294B900B185B938B9284B1D80284A137803F0BF03137070BD254A137843F040033E
:4017C0001370224B1D8070BD22B3002321490B7001240F310C7004310B700C390B7803F07F030B701A4B1B7813F0080F00D08DB9194B18800721013B1970164B1B7813F001
:40180000010FFAD110490B7803F0FE030B700021104B19700C4B1B7813F0010F0DD00E4B1D800EB1032200E001220A4B1A70094B1B7813F0010FFAD170BD044B1D800249BE
:401840000B7813430B7070BDA243004080400040824000400140004002400040014B188880B2704700410040034B1A7800F0F80010431870704700BF02410040024B1878EE
:4018800000F00700704700BF0241004070B505460E46FFF7F3FF0446FFF7E0FFA84256D02B4B1B7803F0010294B900B185B938B9284B1D80284A137803F0BF03137070BDBF
:4018C000254A137843F040031370224B1D8070BD22B3002321490B70012413310C7004390B7008390B7803F07F030B701A4B1B7813F0080F00D08DB9194B18800721013B08
:401900001970164B1B7813F0010FFAD110490B7803F0FE030B700021104B19700C4B1B7813F0010F0DD00E4B1D800EB1032200E001220A4B1A70094B1B7813F0010FFAD1A1
:4019400070BD044B1D8002490B7813430B7070BDA143004000410040024100400140004002400040054A137843F0010313701032137843F001031370704700BFA84300409B
:40198000054B1A7802F0FD021A701A7800F0020010431870704700BF20580040014B1870704700BF805B0040094B1B7803F00C035B08084A127812F0040F00D0013303F1A3
:4019C000924393F82031DBB2034A1370704700BF20580040215800400846004008B51022064B1A700133002018701A7842F004021A70FFF7C5FFFFF7D7FF08BD2058004067
:401A000008B5074B1B7823B9FFF7E8FF0122044B1A70FFF7A7FF7820FFF7C0FF08BD00BF9C82FF1F08B5064B1A7802F0F3021A701A7800F00C0010431870FFF7B5FF08BDBD
:401A400020580040024A137843F08003137070477E640040024A137803F07F03137070477E640040014B1870704700BF8D640040014B1878704700BF6D640040014B18805B
:401A8000704700BF58680040014B188880B2704798680040014B1880704700BF18680040024B1B78024B188880B270470C6400409868004000F00300044B1A7802F0FC0217
:401AC0001A701A7810431870704700BF7E64004008B501E0FFF7D8FFFFF7CAFF10F0080FF8D108BD08B54FF6FF70FFF7C7FF4FF6FF70FFF7CFFF00F057FD084A137843F08F
:401B00001003137000F054FD0020FFF7D3FFFFF7DFFF0220FFF7A6FF08BD00BF9D64004008B5054B1B7823B9FFF7DCFF0122024B1A70FFF787FF08BD9D82FF1F044A1378F2
:401B400003F0FB03800000F00400184310707047C0510040044A137803F07F03C001C0B218431070704700BF20510040044A137803F0FE0300F0010018431070704700BF8B
:401B800030510040044A137803F0FE0300F0010018431070704700BF00510040044A137803F0BF03800100F0400018431070704730510040014B1870704700BF7C640040C8
:401BC000084A137843F0010313701032137843F00103137002F64D32137843F001031370704700BFA3430040084A137803F0FE031370A2F65D32137803F0FE0313701032B0
:401C0000137803F0FE031370704700BF004F0040014B1880704700BF044F0040014B1880704700BF064F0040014B1870704700BF034F004008B51A4A137843F0020313707E
:401C40000232137803F08F0343F010031370154B1A7802F0CF021A701A7842F030021A701A7802F0F0021A701A7842F00F021A7044F61F60FFF7CCFF40F2DC50FFF7CEFF9E
:401C80000020FFF7D1FF084A137843F00103137002F65E32137843F00103137008BD00BF004F00400B4F0040A343004008B5054B1B7823B9FFF7BEFF0122024B1A70FFF7E8
:401CC0007FFF08BD9E82FF1F08B5074B1B7813F0010F03D00122054B1A7002E00022034B1A70FFF781FF08BD004F0040A082FF1F08B5034B1B780BB1FFF762FF08BD00BFC3
:401D0000A082FF1F084A137843F0020313701032137843F00203137002F65932137843F001031370704700BFA3430040084A137803F0FE031370A2F66932137803F0FD03DA
:401D400013701032137803F0FD031370704700BF0C4F0040014B1880704700BF104F0040014B1880704700BF124F0040014B1870704700BF0F4F004008B51A4A137843F0D1
:401D8000020313700232137803F08F0343F010031370154B1A7802F0CF021A701A7842F030021A701A7802F0F0021A701A7842F00F021A7044F61F60FFF7CCFF40F2DC5098
:401DC000FFF7CEFF0020FFF7D1FF084A137843F00203137002F66A32137843F00103137008BD00BF0C4F0040174F0040A343004008B5054B1B7823B9FFF7BEFF0122024B3F
:401E00001A70FFF77FFF08BDA182FF1F014B188880B27047124F004008B5074B1B7813F0010F03D00122054B1A7002E00022034B1A70FFF77BFF08BD0C4F0040A482FF1FB3
:401E400008B5034B1B780BB1FFF75CFF08BD00BFA482FF1F014B1870704700BF7A650040014B1870704700BF78640040014B1B685864704708ED00E04001C0B2014B187082
:401E8000704700BF01E400E00222014B1A60704700E100E00222014B1A60704780E100E010B50446FFF7F6FF2046FFF7DFFF0720FFF7E2FFFFF7E8FF10BD00BF014B1B6839
:401EC0001864704708ED00E04001C0B2014B1870704700BF00E400E00122014B1A60704700E100E00122014B1A60704780E100E010B50446FFF7F6FF2046FFF7DFFF07207C
:401F0000FFF7E2FFFFF7E8FF10BD00BF08B500F067FAA0F5004000B208BD00BF08B5002803DB80B280F4004002E0A0F5004080B200F050FA08BD00BF024B187800F00F001C
:401F4000704700BF63640040014B1870704700BF8364004008B50F20FFF7F6FFFFF7ECFF00F022FB034A137843F01003137000F01FFB08BD9364004008B500F083FA4FF49A
:401F8000004000F027FA044B1B7813B90122024B1A70FFF7DFFF08BDA582FF1F08B500F099FAA0F5004000B208BD00BF08B5002803DB80B280F4004002E0A0F5004080B26D
:401FC00000F082FA08BD00BF024B187800F00F00704700BF64640040014B1870704700BF8464004008B50F20FFF7F6FFFFF7ECFF00F0DAFA034A137843F01003137000F018
:40200000D7FA08BD9464004008B500F0B5FA4FF4004000F059FA044B1B7813B90122024B1A70FFF7DFFF08BDA682FF1F024A137843F080031370704776650040024A137870
:4020400003F07F031370704776650040014B1870704700BF06650040024B1B78024B1878704700BF1665004056650040014B1870704700BF46650040014B1870704700BF39
:4020800026650040014B1870704700BF86650040014B1878704700BF66650040014B1878704700BF76650040014B1870704700BF76650040014B1878704700BF5665004064
:4020C00008B501E0FFF7F6FFFFF7E2FF10F0100FF8D108BD10B5114A137803F0C00343F0090313700E4C237843F001032370FF20FFF7ACFFFF20FFF7B9FF7F20FFF7BCFF14
:402100000020FFF7BFFF00F04FFA237843F01003237000F04DFAFFF7D3FF10BD766500409665004008B5054B1B7823B9FFF7D2FF0122024B1A70FFF779FF08BDA782FF1F45
:40214000014B1878704700BF4665004010B5FFF7F7FF064CA070FFF77FFF6070044B1B78E370FFF79BFF207110BD00BFA882FF1F8665004010B5074CA078FFF777FF607802
:40218000FFF764FFE278044B1A702079FFF78CFF10BD00BFA882FF1F8665004008B5084B1B7813F0800F03D00122064B1A7002E00022044B1A70FFF741FFFFF7C7FF08BDE0
:4021C00076650040A882FF1F08B5FFF7D3FF034B1B780BB1FFF72AFF08BD00BFA882FF1F024A137843F08003137070477B650040024A137803F07F03137070477B650040E2
:40220000014B1870704700BF0A650040024B1B78024B1878704700BF1A6500405A650040014B1870704700BF4A650040014B1870704700BF2A650040014B1870704700BF18
:402240008A650040014B1878704700BF6A650040014B1878704700BF7B650040014B1870704700BF7B650040014B1878704700BF5A65004008B501E0FFF7F6FFFFF7E2FF41
:4022800010F0100FF8D108BD10B5114A137803F0C00343F0090313700E4C237843F001032370FF20FFF7ACFFFF20FFF7B9FF7F20FFF7BCFF0020FFF7BFFF00F075F92378E5
:4022C00043F01003237000F073F9FFF7D3FF10BD7B6500409A65004008B5054B1B7823B9FFF7D2FF0122024B1A70FFF779FF08BDAD82FF1F014B1878704700BF4A650040B7
:4023000010B5FFF7F7FF064CA070FFF77FFF6070044B1B78E370FFF79BFF207110BD00BFB082FF1F8A65004010B5074CA078FFF777FF6078FFF764FFE278044B1A7020794C
:40234000FFF78CFF10BD00BFB082FF1F8A65004008B5084B1B7813F0800F03D00122064B1A7002E00022044B1A70FFF741FFFFF7C7FF08BD7B650040B082FF1F08B5FFF714
:40238000D3FF034B1B780BB1FFF72AFF08BD00BFB082FF1F014B1870704700BF75640040014B1870704700BF79650040024A137843F080031370704774640040014B18703D
:4023C000704700BF82640040014B1878704700BF62640040014B1880704700BF08680040024B1B78024B188880B270470464004088680040014B188880B27047886800404C
:40240000014B1880704700BF48680040014B1880704700BF6868004008B501E0FFF7EAFFFFF7D2FF10F0400FF8D108BD08B5134B1A7802F0F8021A701A7802F0FC021A7098
:40244000FFF7EAFF4FF40040FFF7DAFF4FF40040FFF7C0FF0020FFF7B1FFFFF7B5FF4FF40040FFF7D3FF00F09FF8054A137843F01003137000F09CF808BD00BF74640040EE
:402480009264004008B5054B1B7823B9FFF7CEFF0122024B1A70FFF789FF08BDB582FF1F024A137843F080031370704772640040014B1870704700BF87640040014B1878E7
:4024C000704700BF67640040014B1880704700BF0C680040024B1B78024B188880B27047066400408C680040014B188880B270478C680040014B1880704700BF4C68004062
:40250000014B1880704700BF6C68004008B501E0FFF7EAFFFFF7D2FF10F0400FF8D108BD08B5134B1A7802F0F8021A701A7802F0FC021A70FFF7EAFF4FF40040FFF7DAFFAC
:402540004FF40040FFF7C0FF0020FFF7B1FFFFF7B5FF4FF40040FFF7D3FF00F025F8054A137843F01003137000F022F808BD00BF726400409764004008B5054B1B7823B95D
:40258000FFF7CEFF0122024B1A70FFF789FF08BDB682FF1F000000000230800803D000BF01380046FCD17047EFF3108072B6704780F31088704700BFF8B5C1F30A56A6F24B
:4025C000FF35132D0A460B460446864611DC002D2EDB0F461F4929410A4225D04FF400232B413B4423EA01030026194634462046F8BD332D05DDB5F5806F1FD01146204622
:40260000F8BDA6F213464FF0FF3121FA06F63042F4D00122C5F1330502FA05F52D1828BF9B1825EA0606E0E70028D7D11146E6E7013501F0004307D00026D6E702460B46BF
:4026400000F010F80446D2E743F07F5343F440130026CAE7FFFF0F0081F0004102E000BF83F0004330B54FEA41044FEA430594EA050F08BF90EA020F1FBF54EA000C55EAB4
:40268000020C7FEA645C7FEA655C00F0E2804FEA5454D4EB5555B8BF6D420CDD2C4480EA020281EA030382EA000083EA010180EA020281EA0303362D88BF30BD11F0004F1E
:4026C0004FEA01314FF4801C4CEA113102D0404261EB410113F0004F4FEA03334CEA133302D0524263EB430394EA050F00F0A780A4F10104D5F1200E0DDB02FA0EFC22FABE
:4027000005F2801841F1000103FA0EF2801843FA05F359410EE0A5F120050EF1200E012A03FA0EFC28BF4CF0020C43FA05F3C01851EBE37101F0004507D54FF0000EDCF171
:40274000000C7EEB00006EEB0101B1F5801F1BD3B1F5001F0CD349085FEA30004FEA3C0C04F101044FEA445212F5800F80F09A80BCF1004F08BF5FEA500C50F1000041EBA9
:40278000045141EA050130BD5FEA4C0C404141EB010111F4801FA4F10104E9D191F0000F04BF01460020B1FA81F308BF2033A3F10B03B3F120020CDA0C3208DD02F1140CE7
:4027C000C2F10C0201FA0CF021FA02F10CE002F11402D8BFC2F1200C01FA02F120FA0CFCDCBF41EA0C019040E41AA2BF01EB0451294330BD6FEA04041F3C1CDA0C340EDC20
:4028000004F11404C4F1200220FA04F001FA02F340EA030021FA04F345EA030130BDC4F10C04C4F1200220FA02F001FA04F340EA0300294630BD21FA04F0294630BD94F045
:40284000000F83F4801306BF81F480110134013D4EE77FEA645C18BF7FEA655C29D094EA050F08BF90EA020F05D054EA000C04BF1946104630BD91EA030F1EBF0021002096
:4028800030BD5FEA545C05D14000494128BF41F0004130BD14F580043CBF01F5801130BD01F0004545F0FE4141F470014FF0000030BD7FEA645C1ABF194610467FEA655CF3
:4028C0001CBF0B46024650EA013406BF52EA033591EA030F41F4002130BD00BF90F0000F04BF0021704730B54FF4806404F132044FF000054FF0000150E700BF90F0000FC3
:4029000004BF0021704730B54FF4806404F1320410F0004548BF40424FF000013EE700BF42004FEAE2014FEA31014FEA02701FBF12F07F4393F07F4F81F06051704792F011
:40294000000F14BF93F07F4F704730B54FF4607401F0004521F0004120E700BF50EA010208BF704730B54FF000050AE050EA010208BF704730B511F0004502D5404261EBCA
:4029800041014FF4806404F132045FEA915C3FF4DCAE4FF003025FEADC0C18BF03325FEADC0C18BF033202EBDC02C2F1200300FA03FC20FA02F001FA03FE40EA0E0021FADD
:4029C00002F11444C1E600BF70B54FF0FF0C4CF4E06C1CEA11541DBF1CEA135594EA0C0F95EA0C0F00F0DEF82C4481EA030621EA4C5123EA4C5350EA013518BF52EA03358A
:402A000041F4801143F4801338D0A0FB02CE4FF00005E1FB02E506F00042E0FB03E54FF00006E1FB03569CF0000F18BF4EF0010EA4F1FF04B6F5007F64F5407404D25FEA6A
:402A40004E0E6D4146EB060642EAC62141EA55514FEAC52040EA5E504FEACE2EB4F1FD0C88BFBCF5E06F1ED8BEF1004F08BF5FEA500E50F1000041EB045170BD06F000467E
:402A800046EA010140EA020081EA0301B4EB5C04C2BFD4EB0C0541EA045170BD41F480114FF0000E013C00F3AB8014F1360FDEBF002001F0004170BDC4F10004203C35DA54
:402AC0000C341BDC04F11404C4F1200500FA05F320FA04F001FA05F240EA020001F0004221F0004110EBD37021FA04F642EB06015EEA430E08BF20EAD37070BDC4F10C04EF
:402B0000C4F1200500FA04F320FA05F001FA04F240EA020001F0004110EBD37041F100015EEA430E08BF20EAD37070BDC4F1200500FA05F24EEA020E20FA04F301FA05F20B
:402B400043EA020321FA04F001F0004121FA04F220EA020000EBD3705EEA430E08BF20EAD37070BD94F0000F0FD101F00046400041EB010111F4801F08BF013CF7D041EA0B
:402B8000060195F0000F18BF704703F00046520043EB030313F4801F08BF013DF7D043EA0603704794EA0C0F0CEA135518BF95EA0C0F0CD050EA410618BF52EA4306D1D10B
:402BC00081EA030101F000414FF0000070BD50EA410606BF1046194652EA430619D094EA0C0F02D150EA013613D195EA0C0F05D152EA03361CBF104619460AD181EA0301DF
:402C000001F0004141F0FE4141F470014FF0000070BD41F0FE4141F4780170BD70B54FF0FF0C4CF4E06C1CEA11541DBF1CEA135594EA0C0F95EA0C0F00F0A7F8A4EB05048B
:402C400081EA030E52EA03354FEA013100F088804FEA03334FF0805545EA131343EA12634FEA022245EA111545EA10654FEA00260EF000419D4208BF964244F1FD0404F5E6
:402C8000407402D25B084FEA3202B61A65EB03055B084FEA32024FF480104FF4002CB6EB020E75EB030E22BFB61A754640EA0C005B084FEA3202B6EB020E75EB030E22BFEB
:402CC000B61A754640EA5C005B084FEA3202B6EB020E75EB030E22BFB61A754640EA9C005B084FEA3202B6EB020E75EB030E22BFB61A754640EADC0055EA060E18D04FEAC7
:402D0000051545EA16754FEA06164FEAC30343EA52734FEAC2025FEA1C1CC0D111F4801F0BD141EA00014FF000004FF0004CB6E711F4801F04BF01430020B4F1FD0C88BF97
:402D4000BCF5E06F3FF6AFAEB5EB030C04BFB6EB020C5FEA500C50F1000041EB045170BD0EF0004E4EEA113114EB5C04C2BFD4EB0C0541EA045170BD41F480114FF0000ED6
:402D8000013C90E645EA060E8DE60CEA135594EA0C0F08BF95EA0C0F3FF43BAF94EA0C0F0AD150EA01347FF434AF95EA0C0F7FF425AF104619462CE795EA0C0F06D152EAA6
:402DC00003353FF4FDAE1046194622E750EA410618BF52EA43067FF4C5AE50EA41047FF40DAF52EA43057FF4EBAE12E74FF0FF3C06E000BF4FF0010C02E000BF4FF0010CAD
:402E00004DF804CD4FEA410C7FEA6C5C4FEA430C18BF7FEA6C5C1BD001B050EA410C0CBF52EA430C91EA030F02BF90EA020F0020704710F1000F91EA030F58BF994208BFB6
:402E400090422CBFD8176FEAE37040F0010070474FEA410C7FEA6C5C02D150EA013C07D14FEA430C7FEA6C5CD6D152EA033CD3D05DF8040B704700BF8446104662468C4647
:402E80001946634600E000BF01B5FFF7B7FF002848BF10F1000F01BD4DF808EDFFF7F4FF0CBF012000205DF808FB00BF4DF808EDFFF7EAFF34BF012000205DF808FB00BF62
:402EC0004DF808EDFFF7E0FF94BF012000205DF808FB00BF4DF808EDFFF7CEFF94BF012000205DF808FB00BF4DF808EDFFF7C4FF34BF012000205DF808FB00BF4FEA4102B6
:402F000012F5001215D211D56FF47873B3EB625212D94FEAC12343F0004343EA505311F0004F23FA02F018BF404270474FF00000704750EA013005D111F0004008BF6FF0B0
:402F4000004070474FF00000704700BF80F0004002E000BF81F0004142001FBF5FEA410392EA030F7FEA226C7FEA236C6AD04FEA1262D2EB1363C1BFD2184140484041406A
:402F8000B8BF5B42192B88BF704710F0004F40F4000020F07F4018BF404211F0004F41F4000121F07F4118BF494292EA030F3FD0A2F1010241FA03FC10EB0C00C3F120030C
:402FC00001FA03F100F0004302D5494260EB4000B0F5000F13D3B0F1807F06D340084FEA310102F10102FE2A51D2B1F1004F40EBC25008BF20F0010040EA03007047490088
:4030000040EB000010F4000FA2F10102EDD1B0FA80FCACF1080CB2EB0C0200FA0CF0AABF00EBC25052421843BCBFD0401843704792F0000F81F4000106BF80F40000013221
:40304000013BB5E74FEA41037FEA226C18BF7FEA236C21D092EA030F04D092F0000F08BF0846704790EA010F1CBF0020704712F07F4F04D1400028BF40F00040704712F153
:4030800000723CBF00F50000704700F0004343F0FE4040F4000070477FEA226216BF08467FEA23630146420206BF5FEA412390EA010F40F4800070474FF0000304E000BF92
:4030C00010F0004348BF40425FEA000C08BF704743F0964301464FF000001CE050EA010208BF70474FF000030AE000BF50EA010208BF704711F0004302D5404261EB410117
:403100005FEA010C02BF84460146002043F0B64308BFA3F18053A3F50003BCFA8CF2083AA3EBC25310DB01FA02FC634400FA02FCC2F12002BCF1004F20FA02F243EB0200A7
:4031400008BF20F00100704702F1200201FA02FCC2F1200250EA4C0021FA02F243EB020008BF20EADC7070474FF0FF3C06E000BF4FF0010C02E000BF4FF0010C4DF804CDD6
:403180004FEA40024FEA41037FEA226C18BF7FEA236C11D001B052EA530C18BF90EA010F58BFB2EB030088BFC81738BF6FEAE17018BF40F0010070477FEA226C02D15FEA73
:4031C000402C05D17FEA236CE4D15FEA412CE1D05DF8040B704700BF844608466146FFE70FB5FFF7C9FF002848BF10F1000F0FBD4DF808EDFFF7F4FF0CBF012000205DF8E9
:4032000008FB00BF4DF808EDFFF7EAFF34BF012000205DF808FB00BF4DF808EDFFF7E0FF94BF012000205DF808FB00BF4DF808EDFFF7D2FF94BF012000205DF808FB00BF02
:403240004DF808EDFFF7C8FF34BF012000205DF808FB00BF014B1868704700BF6481FF1F0E4B70B51E460E4C0025E41AA410A54204D056F8253098470135F8E702F0EEF989
:40328000084B094C1E46E41AA4100025A54204D056F8253098470135F8E770BD6856000068560000685600007056000010B5431E0A44914204D011F8014B03F8014FF8E712
:4032C00010BD03460244934202D003F8011BFAE770472DE9F04788B0149F002B1E461299B8BF03F1004327F02007B6BF1E4600232D23462F1446109DDDF84CA00B7003D0E7
:40330000452F03D1013501E0032300E0022307AA049206AA03928DE828042246334600F003FD472F804602D1119BDB0728D5462F08EB050911D198F80030302B0AD10022FB
:40334000002320463146FFF7A7FD18B9C5F10105CAF80050DAF8003099440022002320463146FFF799FD08B9302202E0CDF81C9006E0079B994503D9591C07911A70F8E769
:403380004046079B159AC8EB0303136008B0BDE8F087034673B50029B8BF494203F8022BB4BF2D222B22092942701ADD0DF1070216460A2591FBF5F405FB1411092C01F135
:4033C000300102F8011D2146F4DC3031541E02F8011CB4421A460AD214F8012B03F8012BF7E71A463024214402F8024B5970101A02B070BD2DE9F04F91B00C46DDF868801D
:4034000016461F46054601F027FA03681846099300F0F4FB00230E93D8F800300A90073323F0070303F1080294F81890D4F800B0C8F80020D3E90023C4E91223D4F84CA06E
:40344000D4F848802AF000430B934FF0FF32A74B40460B9901F054FFA0B94FF0FF32A34B40460B99FFF72CFD60B90022002340465146FFF71BFD10B12D2384F843309C4B7D
:403480009C4A0AE0424653464046514601F038FF002800F09281984B984AB9F1470F8CBF90469846032323612BF0040323604FF0000A3DE0B9F1670F00F08A81B9F1470F17
:4034C00000F0868123600193636800210DF13302059002920093424653460691CDF81090CDF80CE02846FFF7F4FE09F0DF03472B804600F08481B9F1650F0D9900F28D81F3
:4035000001394A4604F150000D91FFF742FF0E9A82468318012A236100F37C812268D10700F178819DF8333013B12D2384F84330009733460FAA2146284600F09FF901305F
:4035400002D14FF0FF3096E123685A0501D4236965E0B9F1650F40F2D580D4E9120100220023FFF799FC78B30123654A31462846B8470130E5D00E9B0D9A9A420BDB236859
:40358000D80708D423689B0740F111814FF0000804F1190906E10A9B099A31462846B8470130CED04FF0000804F11A090E9B013B9845E7DA01234A4631462846B847013075
:4035C000BFD008F10108F1E70D9B002B29DC01234B4A31462846B8470130B2D00D9B23B90E9B13B92368D907CCD50A9B099A31462846B8470130A4D04FF0000904F11A0A03
:403600000D9B5B42994509DA0123524631462846B847013095D009F10109F1E70E9B4246A7E00E9AA36D9A42A8BF1A46002A914606DC4FF0000A29EAE97904F11A0B11E0B3
:403640001346314642462846B8470130F1D178E701235A4631462846B84701303FF471AF0AF1010AA36DC9EB03029245F0DB08EB03090D9A0E9B9A420FDB2368DA070CD435
:403680000E9B0D9A9844C9EB08089B1A9845A8BF9846B8F1000F08DC0FE00A9B099A31462846B8470130EBD14BE743464A4631462846B84701303FF444AF4FF0000928EABF
:4036C000E87804F11A0A09E00123524631462846B84701303FF435AF09F101090D9A0E9B9B1AC8EB03039945EEDB4BE7FFFFEF7FFC5400000055000004550000085500001E
:403700000C5500000E9A012A01DCDB0738D50123424631462846B84701303FF412AF0A9B099A31462846B84701303FF40AAFD4E9120100220023FFF7AFFB20B14FF00008BE
:4037400004F11A090EE00E9B08F10102013B19E001234A4631462846B84701303FF4F1AE08F101080E9B013B9845F1DB534604F1500231462846B84701307FF403AFE0E65E
:403780004246012331462846B8470130EED1D8E601234A4631462846B84701303FF4D1AE08F10108E3680F9A9B1A9845F0DBE0680F9B9842B8BF18465DE062680EA8531C30
:4037C0000DF1340E4BF480637FF474AE062201E012B90122626075E6002106910DF133018DE80C00236005904246CDF81090CDF80CE0029153462846FFF76BFD80460D9B37
:40380000D81C02DB626893421DDDA9F102095FFA89F970E60133236184E6B9F1660F14D10029636807DD216113B92268D2071DD501330B4419E013B92268D00701D50233F3
:4038400013E0012311E04FF067090D9B0E9A934205DB22682361D10708D5013305E0002BD4BFC3F102030123134423610D9B4FF0000AA36556E611B0BDE8F08F2DE9F047D3
:4038800091461F460A698B6806469342B8BF1346C9F8003091F843200C46DDF8208012B10133C9F800302368990642BFD9F800300233C9F80030256815F0060510D104F124
:4038C000190A07E00123524639463046C04701301AD00135E368D9F800209B1A9D42F1DB94F843302268003318BF012392060FD5E118302081F843005A1C94F84510224424
:40390000023382F8431003E04FF0FF30BDE8F08704F1430239463046C0470130F4D02268D9F80050E36802F00602042A08BF5D1B2269A3680CBF25EAE57500259342C4BF49
:403940009B1AED184FF000091A344D4509D00123224639463046C0470130D5D009F10109F3E70020BDE8F0872DE9F04317460A7E85B06E2A984606460C460C9B01F1430EB3
:4039800000F0AE8011D8632A22D009D8002A00F0BB80582A40F0CA8081F84520834955E0642A1ED0692A1CD0C0E0732A00F0B08009D86F2A2ED0702A40F0B8800A6842F0FA
:4039C00020020A603EE0752A24D0782A3AD0ADE01A6801F14205111D1960136884F84230A8E021681A6811F0800F02D0111D196008E011F0400F02F10401196002D0B2F9C4
:403A0000003000E01368002B3CDA2D225B4284F8432037E021681A6811F0800F02D0111D196007E011F0400F02F10401196001D0138800E01368227E5C496F2A14BF0A2278
:403A400008221BE078225A4984F845202268186812F0800F00F104051D6003D1550601D5038800E00368D00744BF42F0200222601BB9226822F0200222601022002084F884
:403A8000430001E049490A226568002DA56008DB206820F0040020602BB9002D7DD175460CE0002B79D07546B3FBF2F002FB1033CB5C05F8013D03460028F5D1082A0BD17A
:403AC0002368DA0708D5236962689A42DEBF302305F8013C05F1FF35C5EB0E0323612EE008681A6810F0800F496903D0101D1860136808E010F0400F02F10400186013685D
:403B000001D0198000E0196000232361754616E01A68111D1960156800216268284600F0A7FE08B1401B6060636804E004F1420584F8422001232361002384F84330CDF8BA
:403B400000803B4603AA21463046FFF797FE013002D14FF0FF3026E023692A4639463046C0470130F5D023689B0710D5002504F1190907E001234A4639463046C0470130B3
:403B8000E7D00135E368039A9B1A9D42F2DBE068039B9842B8BF184605E00B7804F1420584F842308AE705B0BDE8F0830E5500001F5500000EB400B54FF402719CB0ADF875
:403BC00014106FF00041049107914FF6FF711DAB02900690084853F8042BADF81610006802A9019301F03AFA029B00221A701CB05DF804EB03B070476481FF1F034613F8B4
:403C0000012B002AFBD1181A013870472DE9F74F03690C6980469C427FDC013C01F114074FEA840E00F1140606EB0E0357F82450019356F824300135B3FBF5F507EB0E0912
:403C4000C5B34FF0000A3846B446D34650F8043B9AB205FB02A21B0C4FEA124A05FB03A392B2C2EB0B0BBCF800204FEA134A5A441FFA83FBDCF800308145CBEB134303EBAF
:403C8000224392B242EA03424FEA234B4CF8042BDCD256F80E306BB9019B043B9E421A4602D3C8F8104005E01268043B002AF8D1013CF3E7404600F0F6FF00282BDB3046BB
:403CC00001354FF0000E57F8042B036891B2C1EB0E0E120C99B27144C2EB134303EB214389B24FEA234EB94541EA034340F8043BE9D256F8242006EB840362B9043B9E4210
:403D00001A4602D3C8F8104005E01268043B002AF8D1013CF3E7284600E0002003B0BDE8F08F0000000000002DE9F04F456A95B08246219CCDE9022345B9102000F090FDFD
:403D4000CAF82400456085600560C560DAF82430196859B15A68012393404A608B60504600F0C9FDDAF8243000221A60039BA04A002BBDBF01232360039B0023BCBF23F017
:403D800000430393DDF80C80A8BF236028F000431B0D1B0593421DD142F20F73209A1360029B43B9934A944BC8F31300002814BF1846104600E09048229B002B00F0468569
:403DC000C37813B100F1080300E0C31C229A136000F03CBDDDE902450022002320462946FFF75AF8074658B1209A01231360229B002B00F01E8581481860013800F026BD13
:403E000012AB019313AB009322462B46504600F0C5FFC8F30A56049056B1C5F3130343F07F51204641F44011A6F2FF3611971DE0139B129E1E4406F23243202B0ADD029ADD
:403E400006F21240C3F1400322FA00F008FA03F3184304E0C3F12000029B03FA00F0FEF73DFD0123A1F1F871013E11930022644BFEF7F6FB58A3D3E90023FEF7A5FD58A30C
:403E8000D3E90023FEF7EEFB044630460D46FEF735FD55A3D3E90023FEF796FD02460B4620462946FEF7DEFB04460D46FFF726F800228346002320462946FEF7F7FF58B1E8
:403EC0005846FEF71BFD02460B4620462946FEF7E3FF08B90BF1FF3BBBF1160F0DD8DDE90223484901EBCB01D1E90001FEF7FCFF30B10BF1FF3B002300E00123109300E085
:403F00001090129B9E1B731E079343BFC3F10008002307934FF00008BBF1000F06DB079BCDF82CB05B440793002705E00023CBEB0808CBF100070B931E9B092B28D8052B03
:403F4000C4BF043B1E931E9BC8BF0025A3F10203D8BF0125032B20D8DFE803F0060E0204012302E0012308E000230A931F9B002B1DDD9946059321E000230A931F9B0BEB80
:403F8000030909F10103012B0593B8BF012315E0012500231E930A9501E001230A934FF0FF390022CDF8149012231F9206E04FF001094B46CDF81490CDF87C90DAF8244050
:403FC00000226260042101F114029A421CD86268490001326260F6E761436F63A787D23FB3C8608B288AC63FFB799F501344D33F0000F07F30550000395500000D55000079
:404000000000F83F485500006168504600F03EFCDAF8243020601B680693059B0E2B00F25B81002D00F05881DDE90234BBF1000FCDE90E3430DD9F4A0BF00F034FEA2B1599
:4040400002EBC303E80618CBCDE908340CD5DDE90E01994B05F00F05D3E90823FEF7DEFD0324CDE9020100E00224934E6DB1E90708D5DDE90801D6E90023FEF7A5FCCDE9C1
:40408000080101346D100836F0E7DDE90823DDE90201FEF7C3FD20E0CBF1000505B3DDE90E01844B05F00F0203EBC203D3E90023FEF78AFCCDE902017F4E2D110023022484
:4040C00055B1EA0705D5D6E90023FEF77DFC013401236D100836F3E71BB1CDE9020100E00224109BE3B1DDE902560022734B28463146FEF7DBFE98B1059B8BB1B9F1000F58
:4041000040F3E6800BF1FF330893314600226C4B2846FEF759FC0134CDE902014E4602E0059ECDF820B02046FEF7E8FBDDE90223FEF74AFC634B0022FEF794FAA1F150736D
:4041400004460C931D46D6B9DDE9020100225E4BFEF786FA22460C9BCDE90201FEF7C4FE002840F03F820C99224601F10043DDE90201FEF79BFE002840F02B82A8E00A9AF9
:404180004C4B711E002A49D003EBC103D3E9002300204E49FEF742FD22462B46FEF760FACDE90C01069CDDE90201FEF7A7FE0546FEF7A4FB02460B46DDE90201FEF750FAAA
:4041C000DDE90C23303504F8015BCDE90201FEF76DFE002840F01D83DDE9022300203749FEF73EFADDE90C23FEF760FE002840F0D180069BE31AB3426ADADDE90C01002287
:404200002F4BFEF7E1FB0022CDE90C01DDE902012B4BFEF7D9FBCDE90201C4E703EBC1012246D1E900012B46FEF7CEFB069BCDE90C011D469C19DDE90201FEF75FFE0646FD
:40424000FEF75CFB02460B46DDE90201FEF708FA303605F8016BAC42CDE902014FF0000222D11A4BDDE90C01FEF7FCF902460B46DDE90201FEF738FE002840F08B80DDE917
:404280000C2300201149FEF7EBF902460B46DDE90201FEF70BFED8B114F8013C621E302B40F0B7821446F7E7054BFEF78DFBCDE90201C0E748550000205600000000F03F5F
:4042C0000000244000001C40000014400000E03FDDE90E34CDE90234139B002B7CDBBBF10E0F79DCAB4B03EBCB03D3E900671F9B002B14DA059B002B11DC40F06C810022AA
:40430000A54B30463946FEF75FFBDDE90223FEF7E1FD059D2E46002840F05F8165E1069CDDE9028932463B4640464946FEF776FCFEF7E4FD0546FEF7E1FA32463B46FEF7B0
:4043400043FB0B46024649464046FEF789F905F1300E069B04F801EBC3EB040E059B73452DD102460B46FEF77DF98046894602460B4630463946FEF799FD78B942464B460B
:4043800030463946FEF788FD002800F04482EB0704D440E2DDF820B000E01C4614F8012C631E392A07D1069A9A42F6D1069930220BF1010B0A701A7801321A702BE20022B4
:4043C000764BFEF701FB0022002380468946FEF763FD0028A6D01EE20A9A002A2BD01E9A012A0ADC119A12B103F2334302E0129BC3F136033D46444613E0059B5D1EAF424B
:40440000BFBF0B9BEA1B9B180B93059BB6BF2F467D1B0025002BA7BF4446059BC3EB08040023079A01211A4450469844079200F001FB064602E03D4644460A9E5CB1079B79
:40444000002B08DDA342A8BF2346079AC3EB0808E41AD31A0793002F1DDD0A9BABB18DB131462A46504600F07FFB049A01460646504600F0E8FA04990890504600F03BFABB
:40448000089B04937A1B06D000E03A460499504600F06AFB04900121504600F0CBFA0B9B05465BB31A460146504600F05DFB1E9B0546012B18DC029B83B9039BC3F3130383
:4044C00073B9039B23F000473F0D3F054FB1079B08F1010801330793012702E0002700E0029F0B9B73B100E000272B6905EB8303186900F052FAC0F1200004E01E9B012BB2
:40450000D9DD0B9F0120079B184410F01F0008D0C0F12003042B02DDC0F11C0002E006D018461C30079B8044034404440793B8F1000F05DD42460499504600F063FB04902E
:40454000079B002B05DD29461A46504600F05AFB0546109B23B32946049800F0A4FB00281EDA00230A220499504600F0DBF90A9B0BF1FF3B0490002B00F05F813146002312
:404580000A22504600F0CEF9B9F1000F06463FDC3BE000BF485500000000144000002440059B002B2BDC1E9B022B28DDDDF81490B9F1000F11D129464B460522504600F0B5
:4045C000B1F901460546049800F06DFB00280CDC03E0354600E000252E461F9B069C6FEA030B09E03546DDF820B0069B069A5C1C312313700BF1010B05960026F7E00A9B03
:40460000DDF8149023B9069CB2E01E9B022BCFDC002C05DD31462246504600F0F3FA06469FB17168504600F031F90446326906F10C01023292000C30FEF738FE012221463B
:40464000504600F0DFFA059000E00596029B069F03F00103079329460498FFF7D7FA3146044600F13008049800F01DFB059A02902946504600F033FBC36802463BB9014696
:404680000A90049800F00FFB0A9A034600E00123114650460A9300F02EF90A9B53B91E9A42B9079A32B9B8F1390F2AD0029B002B1CDC1DE0029A002A04DB1BD11E9ACAB9D4
:4046C000079ABAB9002B13DD01220499504600F099FA2946049000F0E6FA002803DC07D118F0010F04D0B8F1390F0AD004F131087C1C0CE0002B07F101040BDDB8F1390F96
:4047000003D139233B70013756E008F1010887F800806CE0069B2746E31A4B4504F8018C3BD000230A220499504600F0FBF8059B04909E424FF00A024FF0000331465046A1
:4047400004D100F0EFF80646059084E700F0EAF8002306460A220599504600F0E3F8059079E700230A220499504600F0DBF8049029460498FFF74AFA069B00F1300804F8FC
:40478000018BE31A4B45ECDB069B0596B9F1010FACBF4B4401331F46002601220499504600F030FA2946049000F07DFA002803DC15D118F0010F12D03C4614F8013C621E5E
:4047C000392B09D1069B934204D10BF1010B3123069A02E01446F0E70133137007E03C4614F8013C621E302B01D11446F8E72946504600F080F8059B6BB12EB19E4203D017
:404800003146504600F077F80599504600F073F801E0DDF820B00499504600F06CF80023209A23700BF101031360229B1BB11C6001E008480AE0069808E0B9F1000F3FF7F8
:40484000E2AE1E9B022B7FF7DEAEB1E615B0BDE8F08F00BF0C550000004870476881FF1F024B0146186800F041BB00BF6481FF1F10B5C9B202449042034605D01C7801301D
:404880008C42F8D1184610BD002010BD70B5456A04460E463DB91020FFF7E2FF6062456085600560C560656AEB6843B1636ADB6853F8260078B1026843F8262017E021221F
:4048C0000421204600F0B8FA636AE860DB68002BECD1002070BD012101FA06F56A1D9200204600F0A9FA0028F3D04660856000230361C36070BD70B5446A06460D463CB920
:404900001020FFF7ADFF7062446084600460C4603DB1736A6A68DB6853F82210296043F8225070BD2DE9F04106460C460D691F4601F1140E0023DEF80000013381B202FBD2
:404940000171000C0F0C02FB007089B201EB00419D424FEA10474EF8041BECDCD7B1A3689D4212DB616830460131FFF78FFF8046226904F10C01023292000C30FEF796FCFD
:4049800021463046FFF7B7FF444604EB850301355F6125612046BDE8F081030C1B0413B90004102300E0002310F07F4F04BF0002083310F0704F04BF0001043310F0404F2A
:4049C00004BF80000233002803DB420003D5581C70471846704720207047036813F007020BD0D90722D49A074BBF5B089B08036003604CBF01200220704799B209B91B0C10
:404A0000102213F0FF0F04BF1B0A0832190704BF1B090432990704BF9B080232D90702D45B0805D00132036010467047002070472020704710B50C460121FFF727FF0122C3
:404A40004461026110BD2DE9F74F14460A69236988469A42BEBF0B46A0461C46D8F81070D4F81090D8F80830D8F8041007EB09069E42C8BF0131FFF709FF00F114052B4631
:404A800005EB860C0022634502D243F8042BFAE704F1140208F1140102EB890301EB87070093009B0192934257D9B2F800B0BBF1000F23D08946AE464FF0000859F8044B07
:404AC000BEF800A0A3B20BFB03A34FEA144ADEF8004043444FEA14480BFB0A84F24604EB13449BB243EA04434F454FEA14484AF8043B01D9D646E1E7CEF80480019B04323F
:404B0000B3F802A0BAF1000F21D02C4689462B684FF00008B9F800E0B4F802B09BB20AFB0EBEA346F04443EA08434BF8043B59F8043BB4F804E01B0C0AFB03E34F4503EB8A
:404B400018434FEA134801D95C46E3E763600435A7E75CF8043D13B9013E002EF9DC066103B0BDE8F08F00002DE9F843154612F0030206460F4607D0214C013A002354F853
:404B80002220FFF7CFFE0746AD1036D0746A3CB91020FFF765FE7062446084600460C460D6F82480D8F808404CB940F271213046FFF740FF04460023C8F8080003604FF0CD
:404BC0000008EB070AD5394622463046FFF73BFF814639463046FFF78EFE4F466D100CD0206808B10446ECE7224621463046FFF72AFF2060C0F80080F4E73846BDE8F88330
:404C0000105600002DE9F0470C460746914626694FEA621A56444968A368751CAB4202DA01315B00FAE73846FFF730FE002380461A4600F11401534503DA41F823200133D3
:404C4000F9E72AEAEA73206901EB830319F01F0904F1140101EB800E14D0C9F1200C002208689A4600FA09F0024343F8042B51F8042B8E4522FA0CF2F2D8CAF8042042B14D
:404C8000B51C06E0043B51F8042B8E4543F8042FF9D8013D3846C8F810502146FFF72BFE4046BDE8F08703690A6910B59B1A11D192001430143183180A4453F8044D52F84B
:404CC000041D8C4202D007D3012010BD9842F4D3002010BD184610BD4FF0FF3010BD2DE9F8430C460746114620461546FFF7DBFF061E08D131463846FFF7C8FD012303612A
:404D00004661BDE8F883BCBF23462C4638466168BABF1D4601260026FFF7B8FD2B69C660266905F1140904F1140101EB860709EB830800F114054FF0000C51F8042B59F8BF
:404D4000044B93B29C44A3B2240CC3EB0C03C4EB124202EB23429BB24FEA224CC84543EA02428E4645F8042BE7D8BE450ED25EF8041B8AB26244131403EB114392B242EAA4
:404D800003424FEA234C45F8042BEEE755F8043D0BB9013EFAE70661BDE8F8832DE9F3411C4601219046089E099DFFF76FFDC4F31302C4F30A5407460CB142F48012019234
:404DC000B8F1000F19D002A840F8088DFFF705FE009B48B1019AC0F1200102FA01F10B43C2407B61019200E07B61019B002B14BF02210121BB61396107E001A8FFF7EDFD33
:404E0000019B01217B613961203034B1A4F2334404443460C0F1350009E0A0F2324007EB810330601869FFF7B8FDC0EB41102860384602B0BDE8F08138B502FB01F421460B
:404E400000F054F8054618B122460021FEF739FA284638BD38B50546002944D051F8043C0C1F002BB8BFE41800F017FA1E4A1368114613B96360146030E0A3420DD9226864
:404E8000A018834201BF18685B681218226063600C6023E0A24203D813465A68002AF9D118681918A1420BD12168014458188242196013D110685268014419605A600DE060
:404EC00002D90C232B6009E021686018824201BF106852680918216062605C602846BDE8384000F0DBB938BDBC82FF1F70B5CD1C25F0030508350C2D38BF0C25002D0646BB
:404F000001DBA94202D90C23336046E000F0C5F9234B1C681A462146A1B10B685B1B0ED40B2B03D90B60CC18CD501EE08C420BBF63684B681360636018BF0C4615E00C462B
:404F40004968E9E7174C23681BB9304600F07AF920602946304600F075F9431C18D0C41C24F00304A0420DD12560304600F096F904F10B00231D20F00700C31A0ED05A4228
:404F8000E25070BD211A304600F05CF90130EBD10C233360304600F081F9002070BD00BFBC82FF1FB882FF1F2DE9F0478E6882469E420C46914698463ED88A8912F4906F2D
:404FC0003AD02568096902236F1A656905EB450595FBF3F57B1C43449D4238BF1D4653050FD52946FFF782FF064698B13A462169FEF75CF9A38923F4906343F08003A38108
:4050000013E02A4600F04BF9064670B921695046FFF720FF0C23CAF80030A3894FF0FF3043F04003A381BDE8F08726613E44266046466561ED1BA560464528BF4646494643
:405040003246206800F00EF9A36800209B1BA36023681E442660BDE8F08700002DE9F04F9DB003938B8980461C060D4616460DD50B695BB94021FFF739FF2860286118B908
:405080000C23C8F80030CDE040236B610023099320238DF82930DFF89CB130238DF82A3037463C4614F8013B1BB9B7EB060910D003E0252BF9D02746F3E74B463246294658
:4050C0004046FFF771FF013000F0A780099B4B4409933B78002B00F0A08000234FF0FF3204930793059206938DF853301A930126052221784E48FFF7BBFB671C049B38B1E2
:405100004B4A3C46801A06FA00F018430490EFE7D90644BF20228DF853201A0744BF2B228DF8532022782A2A03D0079A00210A200BE0039A111D12680391002A10DA52426B
:4051400043F00200079204900BE027463B780134303B092B03D800FB02320121F5E701B107923B782E2B1ED17B782A2B0AD1039B02371A1D1B680392002BB8BF4FF0FF3344
:40518000059310E0002319460593781C0A2407463A780130303A092A03D804FB01210123F5E703B10591032239782248FFF760FB40B14023CBEB000003FA00F0049B013719
:4051C00018430490397806221B487E1C8DF82810FFF74EFB88B1194B33B9039B073323F007030833039314E003AB00932A46144B04A94046FEF7FEF807E003AB00932A46E5
:405200000F4B04A94046FEF7AFFBB0F1FF3F824603D0099B5344099342E7AB895B0601D4099801E04FF0FF301DB0BDE8F08F00BF485600004E56000052560000F5330000AC
:40524000A94F000038B5064C0023054608462360FBF756FD431C02D1236803B12B6038BD6483FF1F884210B501EB020301D8421E0BE09842FBD28118D21AD34204D013F8B9
:40528000014D01F8014DF8E710BD994204D011F8014B02F8014FF8E710BD70477047F8B5074615460E4621B91146BDE8F840FFF71DBE1AB9FFF7CEFD2846F8BD00F015F809
:4052C00085420ED929463846FFF710FE044650B131462A46FDF7EAFF31463846FFF7BAFD01E03046F8BD2046F8BD51F8040C0028BEBF091851F8043CC018043870470000C4
:405300004FEA410C7FEA6C5C02D150EA013C0AD14FEA430C7FEA6C5C02D152EA033C02D14FF0000070474FF001007047000000005541525420636F6D6D656E63696E672E20
:405340002E2E200A00000000556C747261736F6E69632043616C6962726174696F6E2074657374733A200A004E000000520000004700000042000000494E56414C494420F4
:40538000434F4C4F55522053454E53494E4720414C474F524954484D200A0000256620090000000025643A2025646D6D0A00000073656E736F72206973206661756C7479A2
:4053C00000000000556C747261736F6E69632073616665747920636865636B3A200A000025642009000000000A0A00002569200900000000656E746572696E672067726524
:4054000061746572207468616E0A0000656E746572696E67206C657373207468616E0A00657869746564206C6F6F7000534146455459204D415247494E2041435449564104
:4054400054454420402025640A0000000A2066696E3A202564200A00646966666572656E6365203D2025642C200A000025642C202564200A00000000202564202C2025643B
:40548000200900006469663A2025642C200A000025642C2025642C20000000006C656674206D6F746F723A202564200A000000007269676874206D6F746F723A2025642032
:4054C0000A000000004F0040180040510040300000000140001000140140000800400140000A004C014000020050014020000000605200403810004806004300494E4600D9
:40550000696E66004E414E006E616E00300030313233343536373839414243444546003031323334353637383961626364656600496E66696E697479004E614E00504F53A7
:405540004958002E00000000000000000000F03F000000000000244000000000000059400000000000408F40000000000088C34000000000006AF8400000000080842E4181
:4055800000000000D01263410000000084D797410000000065CDCD41000000205FA00242000000E876483742000000A2941A6D42000040E59C30A2420000901EC4BCD64256
:4055C00000003426F56B0C430080E03779C3414300A0D8855734764300C84E676DC1AB43003D9160E458E143408CB5781DAF154450EFE2D6E41A4B4492D54D06CFF0804404
:40560000F64AE1C7022DB544B49DD9794378EA4405000000190000007D000000000000000080E03779C34143176E05B5B5B89346F5F93FE9034F384D321D30F94877825A57
:405640003CBF737FDD4F1575232D302B2000686C4C0065666745464700000000F8B500BFF8BC08BC9E4670474D0000007D0D0000F8B500BFF8BC08BC9E467047290000009A
:4056800090560000C880FF1FD8000000C801000000000000010000000100000001000000D002000094020000580200001C020000E00100006883FF1F0000E02EC05D000005
:4056C0001800000000366E01010000000000000000000000000000000000000000000000000000000000000000000000FA540000000000000000000000000000000000009E
:4057000000000000000000000000000000000000000000000000000000000000000000000000000000000000000000000481FF1F435500004D5600004D5600004D56000045
:405740004D5600004D5600004D5600004D5600004D5600004D560000FFFFFFFFFFFFFFFFFFFFFFFFFFFF000000000000000000000000000000000000000000000000000065
:4057800000000000000000000000000000000000000000000000000000000000000000000000000000000000000000000000000000000000000000000000000000000000E9
:4057C00000000000000000000000000000000000000000000000000000000000000000000000000000000000000000000000000000000000000000000000000000000000A9
:405800000000000000000000000000000000000000000000000000000000000000000000000000000000000000000000000000000000000000000000000000000000000068
:405840000000000000000000000000000000000000000000000000000000000000000000000000000000000000000000000000000000000000000000000000000000000028
:020000040003F7
:0200000480007A
:40000000044F0040085200400664004004650040040101403E020140470301406B040140530501405D0601404D07014044080140480901404A0A0140470B0140600C014078
:40004000590D0140510E01403B0F01405914014054150140631601404C1701405A1801404F190140511A0140541B0140074001400C4101400D42014010430140054401407C
:40008000184501400E4601400A4701400C48014016490140134C01400F4D01400C5001400151014001200A4B0D201627083009A0100A11121810191078227920826F830FD4
:4000C000840F876F89728D0F850F860D88388A0D8A04E280E440E611010604080A100C0E0D05100211081204140E170818021A041D031E012208260E29082C012D063001E5
:40010000321E3308370739803E013F045280540F580459045B045C115D105F058A048C019004960499029D02A102A301A401AE02AF04B004B104B201B301B402B502B80861
:40014000B920BE01BF10D40FD804D904DB04DC11DD10DF0100100201042005080702080109080B800C0A0D200F0210201202140115011620181019141A801D081E401F085F
:400180002028220123082680271228022A012C022D402E202F08303032803401350436803C803D0144305A885B115C205E466604670476407E80845887018A018E809140EC
:4001C0009204A101A941C0E3C2FCC4B5CA39CCDCCE90D6FFD860DE80E088E202E42CE808EE050204052C0710080109300B080D200F0411011302173C191C1D301F0421012C
:400200002203234229012B022D022E012F01300431403202333C350336013B203E404016410349FF4AFF4BFF4DA04F0150185280540F580459045A045B045C115D115F01BF
:400240006040628064406540668068406A806C406D206E8081CF82038330859487608DFD8F02953097C998019D73A201AB0FAD9EAF60B001B3FFB402BE01BF04C053C1027B
:40028000C54CC620C73EC83BC9FFCAFFCBFFCDAFCE07CF01D018D804D904DA04DB04DC01DD01DF01E040E280E440E540E680E840EA80EC40ED20EE800010010205010E0831
:4002C00010021102164018101A431D021E0820042120222223102420280229102A022C042D402F0830903202330435083688380839803B103C843D014201430844044708A9
:4003000048044E014F065420560558405A045B126F0170028080814085018C048F02914094209501978499109A409B089D089E05A044A101A280A308A420A520A603A70180
:40034000A802AE84B601C01AC240C419CA3DCC5FCEDED06AD214D60FE20DE808EE010D0C0E01150119041A021B081E0427032A082F0C3002310132013304340835023604B2
:4003800037083F444045410249FF4AFF4BFF4DA04F015018580459045A045C415D015F016040628064406540668068406A806C406D206E8088088D01980199029F06A003BD
:4003C000A301A403A60CB002B102B204B408B504B601B701B882BE50BF41C045C106C543C6C2C70EC81FC9FFCAFFCBFFCDAFCE07CF01D018D40FD804D904DA04DB04DC11F7
:40040000DD11DF05E040E280E440E540E680E840EA80EC40ED20EE8000100440085009400A040E080F02108013041510181019801A081B021CC81E281F402251254027986A
:4004400029022F22308032103510372839403D403E4041024502472049924B044D8050805214538058205A8A621478108020838086048B10924093109408960497809B0185
:400480009C509D039E029F14A020A102A301A609B002B2A0B608C082C2C2C44CCA51CC6CCE18D0A1D21CD60FD806DE04E00AE401EC0202010301050F06020710084C0A304D
:4004C0000C540E280F1F11151240130A15131601170C183C19201A401E021F1022102304260827022A202B082E0430013202331F367C37203E053F40580459045B045C2294
:400500005F0180108101822883028F0190019424950196129C0A9E14A43FA83FB102B206B301B401B638B908BF04D602D711D804D904DB04DC93DD30DF010380040807450C
:4005400008800A900D880E841020111014561508164219201A101B801E011F0520802209242025402C54300836403715380239803E865B20682069106A806C016E4073190F
:4005800082088642898091089204942095809643978098069A809B059D889E40A114A240A408A602A708A804AA40AC10B20AB404B610B740C0F8C2FDC4F6CAE0CCF2CED940
:4005C000D604E004E481E8A0EC40030107140A020B010D040E040F10120517141B011D031E0122022302280429083002310332013308340435043710382039A03E113F54C9
:40060000580459045C295F0180108107840486C0870F8A018BF08C148D088EA88F0190409170940C95C096309720990C9A019B029D0B9E019F04A180A202A310A408A50CC0
:40064000A701A820A9B0AB40AC04ADC0AF10B2FFB3F0B50FBE04D804D904DC10DF01016004200520064007110A420C800D200EA8108813011486150A18181A801D08210152
:40068000229425042628270828802B042C202D802F48300831A0362A3740382439C03B013D203E0A3F80811487088C109108920494049580968998069A809B559C109D080E
:4006C0009E089F08A0A0A190A254A304A408A508A680A740AB16AD80AF10B688C0F3C2F9C4FACAF5CCFECEFFEC40EE060107020805030604070C09200A020B100D050E10F5
:400700000F0A111013201460150C170319101A011B201C601D0F22602453250A260C2705282F29102A102B202C152E0A310F34603530361F3B203E4040244101420349FFC8
:400740004AFF4BFF4F015018580459045A045B045C125D025F016040624064406540668068806A806C806E808A019602B202B401C065C101C203C5ECC602C807C9FFCAFF5D
:40078000CBFFCD83CE03CF01D018D403D604D804DA04DB04DC01DD22DF05E040E240E440E540E680E880EA80EC80EE800308058A06040B200C100D881540168017141B1826
:4007C0001C0A1DC01E0A2510260227402C202F083520374A3D203E0A3F8040104180440845844640480449054B8050805240534059155A805C085E086080640467086D40D1
:400800006E246F157A01810284408602871089248B048C208E069010940495C0960D9718980299109A809CE09D409E089F48A020A104A240A40DA618A740AA05AB01AC80FF
:40084000B310B580C0F2C2E4C4F0CA60CCF0CEF0D0FAD20CD60FD801DE08E0E0E42000FF01010457050106A809020B040C500D0C0EA40F32103212C1170119201B0C1D087C
:400880001F102408251226F7270C28312AC22D3E313E320F34F0350139203F105283580459045B045C225D205F0180368241837F8408877F884789808A108D058F4A900230
:4008C0009101927496089780984599039A229B2C9D109E01A104A473A501A770A806A908AA10AD02AE08B074B180B37FB408B607B820B980BE10BF45D804D904DC01DF0113
:400900000002010803010404074809020C280E0A0F801118142015801609191C1E021F11204021022210241125042602271029442C802D802E042F043008324033103442D5
:4009400035013658384439103A013C083D403E013F1069106A806B017280808082108A068C018D01C07DC2F8C4E6CAFACCFECEFFE280E444E630001C02020501070A0A0386
:400980000C090E10140C150216111701181019011B061D011F02241428102A0C321F3303350837043B08580459045C135F018208843386048B408D108E8091409433960C01
:4009C0009703980399019A149B269C0A9D2C9E349F03A440A615A708A901AA80AB0EAF2CB060B10FB20FB32AB410B510B680B740B802BA08BB0ABE50BF50C023C106C50C23
:400A0000C6CEC70BC81DC9FFCAFFCBFFCEF0CF44D00CD401D804D904DA04DB04DC33DD33DF01E6C0EA40EB02009003400408050106200721081009080C040E220F08100495
:400A400011081510161018301C801D911E201F012120224825082601276A2C102E202F113120324835043610374138043C203D103F80440446104C044F08550457505C4081
:400A80005D015F18633079017B4082828302861089888C408D108E41900493209420964099049A109B019E82A010A608A814A901AC80B138C0BBC2E6C466CA70CCFECE3233
:400AC000D060D220D6F0E220E408E604E8C4EE030204050107020D010F0215021601170119011B021E0527042D042E02310432013404350336023B203E103F0140104104AB
:400B000045D04612480E49FF4AFF4BFF4DA04F04501852805405580459045A045B045C145D445F01604062C06440654066C068C06AC06CC06EC0850E88308B0E8E08903541
:400B400091089208943E9708981B99029B049D029F04A02EA210A310A640A90EAC10AE20AF01B038B31EB407B501B640B820C004C640C9FFCA07CBFFCC40CD20CEF0CF05E8
:400B8000D008D804D904DA04DC11DD03DF01E040E1A8E240E320030605040650080409010A040B100E010F2010A01202174019911A041B021C201D801E09201421082320C6
:400BC000252026012704288029102A802C202D803084312032023610370438183C8842404580464049044D015310564057305D015E085F8077408080810482028A04931090
:400C00009408951096049B819D019E029F24A064A210A609A720C013C2AEC48DCA5DCC6FCE56D091D6D0E008E205E401E610059E076009300BC90D731DCF1F3021942360BB
:400C4000270F29FD2B0235FF3B023F104046410142034405460E470C481449FF4AFF4BFF4C624DA04EF04F41500C541859045A045B045C305D335F016640670269106A300E
:400C80006B106D106E106F1280C38110840F853986F0874289188AD38CF38E0C8F01901C917F92E394829C419D399F44A008A101A380A404A508A80CAB46ACFFAD67AF1868
:400CC000B00FB180B21CB320B420B558B6C0B71FB820BA02BBA0BF04D804D904DB04DC33DF01000401200202038008800A9010121319180819041A011B0120442240232064
:400D0000250226202740289029202A402B012E042F4830023106324033043580364038443B113DF83F04464047444D204F8055885E01670A6B017A027B01811589408C01D8
:400D40009250931B94089580978099A09B089C809D0C9F30A040A114A380A408A588A708B140B504B740C00FC20DC40FCAEFCC19CE7FD0D0D230D680D830E008E420E6108C
:400D80000208070E09080C0110011301160417021A021B011E042A0231013202330434013502360C37083E443F014060410245D24701481349FF4AFF4BFF4DA04F045018AC
:400DC0005405580459045A045B045C495D445F01604062C06440654066C068C06AC06CC06EC08302840F87088E10900C91089203980A9A059D06A301A403A506A60CA80559
:400E0000A904AA0AAC07B20FB301B410B506B708B920BF50D280D804D904DB04DC41DD40DF01008003800621088009200A500B080E800F041320155819181B401F2820146F
:400E400022522401260C27282A202B082D222E04321833013680370138183C043D02412049014A044B08500459095A8068086980750282028320868088808A048D208F086C
:400E8000915892509304940195809A019B019C809D10A040A101A240A380A408A748A910AB18AE20B104B204B340B508B601C0A9C25FC4E2CAE0CC97CEC6D004D204D60B8C
:400EC000E011E420E640E840ECA43240368082408A808F14CC30E6800102050881028440890A9B049E409F10AE40C030E430E810022007105B0496019B049C409E409F10EF
:400F0000A502AE01C030D640E8101B081D0277048308864096019B049C409E40A502AE20C630DC40E010E480EC407DA082808D10DE05E4080040031009200C2057045C80EE
:400F40006008618089608C209810A280A560B010B520C00AC203D402D606D802E404E609E804EE0246408C8098109B109C88A280A580A708A840AF08B704D001E008E80265
:400F80008004820198109B109E40A280A708B408B580E80A00022708550887088D0896019C409E40C010C820D440E0100108064007040A010C4059046608810483048A086C
:400FC00096019C409D089E40B001B508C0B0C2C0D640D880E080E68003085D086281641076808640900898109A019B309E40A280A708B320C002D603D803DE04EC04101054
:40100000700477208280881090089B209E80A908B710C408DC01DE04E204EE02001E010108020A120C0E0D010E06101A11011A1A1C1A1D01000F0000A090000040000000FC
:401040000201010000000000800048B4B400B000000000000122220022000000E00004EB0B00E010100000003C0041BC80003802020000008A71710030000000250018017C
:401080000000000000000000000000000000000000000000000000000000000000000000000000000000000000000000000000000000000000000000000000000000000030
:4010C00000000000000000000000000000000000000000000000000000000000000000000000000000000000000000000000000000000000000000000000000000000000F0
:4011000000000000000000000000000000000000000000000000000000000000000000000000000000000000000000000000000000000000000000000000000000000000AF
:40114000000000000000000000000000000000000000000000000000000000000000000000000000000000000000000000000000000000000000000000000000000000006F
:0200000490006A
:0400000000004005B7
:0200000490105A
:04000000BC90ACAF55
:0200000490303A
:020000007A097B
:0200000490402A
:4000000000000000000000000000000000000000000000000000000000000000000000000000000000000000000000000000000000000000000000000000000000000000C0
:400040000000000000000000000000000000000000000000000000000000000000000000000000000000000000000000000000000000000000000000000000000000000080
:400080000000000000000000000000000000000000000000000000000000000000000000000000000000000000000000000000000000000000000000000000000000000040
:4000C0000000000000000000000000000000000000000000000000000000000000000000000000000000000000000000000000000000000000000000000000000000000000
:0200000490501A
:0C00000000012E16106900012E3C8A72CF
:00000001FF