:400000000080002011000000B10D0000B10D000008B5044B1A6803F53F5302331A6000F0E7FE00BFFA46004010B5054C237833B9044B13B10448AFF300800123237010BD16
:40004000B081FF1F00000000F4530000084B10B51BB108490848AFF300800848036803B910BD074B002BFBD0BDE81040184700BF00000000B481FF1FF4530000C880FF1FA4
:400080000000000008B500F02FFA08BD08B5642000F06EFF0122034B1A600022024B1A6008BD00BFCC81FF1FCC80FF1F70B582B062B600F04DFF00F0D5FF4E4800F0ECFFFA
:4000C00001F01AFB01F0FCFC002001F00BFD4A4D287901F0C3FC0024AC60204601F020FF012001F017FF4FF4FA7000F041FF022001F010FF4FF4FA7000F03AFF032001F059
:4001000009FF4FF4FA7000F033FF204601F002FF4FF4FA7000F02CFF00F080F801F0C8FE4FF47A7001F07CFE4FF4FA7000F020FF01F0D2FE01F01AFE4FF48C6001F0CEFDA0
:400140004FF4FA7000F014FF01F01EFE02F04CF802F086F802F024F902F05EF901F06CFF01F0B2FF0122254B1A6001F039FD01F0DFFC234801F01CFF224801F0F1FE2C6079
:40018000214800F089FF19E0284600F0D1F9642000F0EEFE1D4E1E4B53F825201D49304603F06CFD304600F077FF013500E00025042DE9DD184800F06FFF0134022CF6DD3F
:4001C000002000F045FA032000F0F4FA00F008FA032000F03DFAAA216FF03B0000F058FAAA2300930323002211464FF4FA7000F047FBFEE7F8530000CC81FF1FF882FF1FBB
:40020000850000008D00000010540000C482FF1F4882FF1F305400003854000030B585B0002400940194029403940FE0E0B201F071FE0A2000F09CFE01F0D0FA04AB03EB6B
:40024000840502F0A1FF45F8100C0134032CEDDD002001F05FFE074B009A1A60064B019A1A60064B029A1A60054B039A1A6005B030BD00BF3083FF1F3483FF1F2C83FF1F00
:400280003C83FF1FF0B585B0002400940194029403940FE0E0B201F03DFE0A2000F068FE01F09CFA04AB03EB840502F06DFF45F8100C0134032CEDDD002001F02BFE009F75
:4002C000784B1F60019C784B1C60029D774B1D60039E774B1E60774B1B68032B00F2B780DFE803F0024E77957349744B186802F097FE0146204602F0E9FFA8B16E49704B9B
:40030000186802F08DFE0146284602F0DFFF58B169496C4B186802F083FE0146304602F0D5FF002840F09C802946204602F0ECFF30B13146204602F0E7FF002840F092802D
:400340003146284602F0E0FF30B12946204602F0BDFF002840F088803146284602F0B6FF002800F083803146204602F0AFFF00287ED02946204602F0A9FF00287AD18EE019
:400380005149204602F0A2FF50B14F49284602F09DFF28B14C49304602F098FF00286BD12946204602F0B0FF28B13146204602F0ABFF002862D13146284602F0A5FF00287E
:4003C0005ED02946204602F081FF00285AD1032065E03E49204602F097FF50B13B49284602F092FF28B13A49304602F06FFF00284AD13849204602F087FF002846D1364950
:40040000284602F081FF002842D0022047E03349204602F079FF70B13049284602F074FF48B12E49304602F051FF20B12C49384602F06AFF70BB2749204602F065FF58BBEF
:400440002449284602F060FF40B3022027E0254800F022FE40F6B83000F08AFD00201EE000201CE001201AE0022018E0002016E0002014E0032012E0002010E001200EE055
:4004800003200CE002200AE0002008E0012006E0032004E0002002E0012000E0032005B0F0BD00BF1883FF1F1C83FF1F6883FF1F3883FF1FD481FF1F0000FA443483FF1FE6
:4004C0002C83FF1F3C83FF1F0000FA4500007A4600803B460050C34600F0D24600A08C4600007A454C54000038B501F021FB01F037FB0D4C206001F00DFB0C4B1D682068CD
:40050000C0F5803002F05EFA05A3D3E9002302F0BFFA04EB850402F055FD606038BD00BF2BDF3312A111C63F4482FF1F6C83FF1F10B50446C0B201F09DFB204B1C6001F0D1
:400540004FFB042C36D8DFE804F0030D17212B00012001F053FB0A2000F020FD002001F04DFB10BD012001F055FB0A2000F016FD002001F04FFB10BD012001F057FB0A20C3
:4005800000F00CFD002001F051FB10BD012001F059FB0A2000F002FD002001F053FB10BD012001F05BFB0A2000F0F8FC002001F055FB10BD024800F06FFD10BD6C83FF1F49
:4005C0008454000008B501F0F3FB4FF48C6001F085FB4FF4FA7000F0CBFC01F0D5FB08BD08B501F0E5FB40F2E24001F077FB4FF4FA7000F0BDFC01F0C7FB08BDA0F57A7368
:40060000B3F5AF6F21D870B5054601F079FC01F05DFC0446281A0D4E86FB0036C017C0EBA60606E03444A0B201F0FAFB0A2000F09FFCAC42F6D1A8B201F0F2FB4FF4FA702A
:4006400000F096FC01F048FC70BD70476766666608B5032817D8DFE800F002070C114FF41660FFF7CBFF08BD40F2A460FFF7C6FF08BD40F2E240FFF7C1FF08BD4FF47A70A2
:40068000FFF7BCFF08BD4FF41660FFF7B7FF08BD2DE9F04F83B005460C46C82900DDAA24002D07DD002001F0D9FE002001F0DCFE012706E0012001F0D1FE012001F0D4FE22
:4006C000002701F0E3FDE4B2204601F035FD01F0B9FE204601F00CFE284602F073F92EA3D3E9002302F0D4F901F0CAFF02F06AFC834601F06BFC824601F0B0FC0546002696
:400700006FF40473019325E001F060FC0446824601F0A4FC054684EAE470A0EBE47002F051F980468946019802F04CF900221C4B01F0FCFF00221B4B01F0F6FF02460B464D
:400740004046494602F034FC20B1384600F074F8064601945D4501D0002ED5D0124C52461249204603F08AFA204600F095FC2A460F49204603F082FA204600F08DFC0020BF
:4007800001F02CFC002001F071FC01F069FD01F043FE03B0BDE8F08F295C8FC2F52815400088804000005940C482FF1FAC540000C054000038B50446002001F04FFE0020EC
:4007C00001F052FE01F062FD462001F0B5FC01F039FE462001F08CFDFFF7F4FE012001F09FFB124B1C6000240EE0FFF74BFD04460A2000F0BDFB0E4D22460E49284603F004
:400800003DFA284600F048FC002CEED0002001F0E5FB002001F02AFC01F022FD01F0FCFD64212520FFF734FF38BD00BFD481FF1FC482FF1FD454000008B558B90420FFF745
:4008400077FE322000F094FB0C4B1B69632B10DD002008BD01280BD10020FFF769FE322000F086FB054B1B68632B04DC012008BD08BD012008BD002008BD00BF4882FF1F54
:400880002DE9F04F85B00746894693461C46012905D1002001F0E2FD002001F0E5FDB9F1000F05D1012001F0D9FD012001F0DCFD40F21452624B43F8242011E02046FFF701
:4008C00037FE322000F054FB5D4B53F824505D4E2A465D49304603F0D1F9304600F0DCFB574B53F82430B3F5966FE7DC01F0CEFC9DF83860304601F01FFC01F0A3FD304678
:4009000001F0F6FCBBF1000F3DD000266FF40473019344E001F05AFB804601F09FFB2046FFF706FE322000F023FB454B53F82450DFF810A12A464449504603F09FF9504672
:4009400000F0AAFB88EAE870A0EBE87002F03AF8CDE90201019802F035F800223B4B01F0E5FE00223A4B01F0DFFE02460B46DDE9020102F01DFB50B14846FFF75DFF064616
:40098000CDF8048003E000266FF40473019387EAE773A3EBE7739D4201DD002EBAD0BBF1010F40D137E001F011FB804601F056FB2046FFF7BDFD322000F0DAFA204B53F884
:4009C0002450DFF880A02A461F49504603F056F9504600F061FB88EAE870A0EBE87001F0F1FF82468B46019801F0ECFF0022174B01F09CFE0022164B01F096FE02460B46AE
:400A00005046594602F0D4FA28B14846FFF714FF0646CDF8048087EAE773A3EBE7739D4201DA002EBFD0002001F0D8FA002001F01DFB01F015FC01F0EFFC05B0BDE8F08FCF
:400A40004882FF1FC482FF1F305400000088804000005940FEE700BFF0B40022174611E050F82760F3B226F0FF0608E001EB420511F812406D78A5550132013BDBB2002B02
:400A8000F4D10137282FEBD9F0BC704710B4194B1B78DBB203F00701174A11701B09013213700222154B1A700421A3F5A4531B3B19701023124803701030017006201149EA
:400AC000087020211048017005300370032464300470473001708021013001702C3003700A4B197054331A704422A3F2E2231A7010BC7047CF0100496E58004042580040AE
:400B00001D510040205A0040235A0040045B004008B50A46002102F038FC08BD08B502F029FC08BD38B50024384B1C80502202331A70012202331A801823354A1370172177
:400B400002321180023213703321023211800232137040F2AF410232118002321370042201F1904101F6BD312A48FFF7D7FF0222294B1A7008224FF040231A70032103F5EB
:400B800000731970254B1B78DBB225490B70254B1A8041F25122023B1A8019250CE0224B1B7803F0010343EA440404F003044FF4F07001F055FD013D0DB1032CEFD115B909
:400BC0000320FFF747FF194B4FF480721A8007221A70002216490A704820023108701A700222033B1A7004220A331A70114A137843F01F031370013A137843F00103137001
:400C0000013A137843F08003137038BD8040004086400040004100400043004008010049A146004022420040254200400440004006400040A243004038B572B6454A137894
:400C400043F00403137000240CE0434D630019194A0011462A44084691882858FFF758FF0134E4B2072CF0D900240BE03A48A20011194B0003441A8F596B186BFFF74EFF56
:400C80000134E4B2012CF1D934494FF09040FFF7E3FE0A24324B1C7040F20322373B1A80304A03F530430C331A6002F1004203F580631A6002F5802203F528631A602A4A43
:400CC000137843F0020313701032137843F002031370264D2B7843F040032B70A2F58632513A137843F010031370224620492148FFF714FF224620492048FFF70FFF082227
:400D00001F492048FFF70AFF22461F491F48FFF705FF22461E491F48FFF700FF08221E491E48FFF7FBFE1E4A137843F0080313701C4C61232370FFF7F5FE8123237001222C
:400D4000194B1A70FFF7A2FE0E2229461748FFF7E5FE38BDE846004014550000A400004883580040040400C403500140A04300402C1000480051004038100048C0510040CC
:400D800044100048F25100404C1000481051004058100048205100406410004832510040224300400048004004000840B043004008B502F0B3FA03680C2B00D1FEE7FEE7AA
:400DC00008B5094B1A681044084BC31AB3F5007F02DC054B186005E002F0A0FA0C2303604FF0FF32104608BDF880FF1F7883FF1F08B5104E104D16E029686B68AC680022CA
:400E000004E051F8040B43F8040B0432A242F8D1E868002203E0002143F8041B04328242F9D11035013E002EE6D102F07DFAFFF73DF9FEE701000000E056000008B5104A84
:400E4000104B1A60104A136843F40073136000230AE0032B03D80D4A52F8231000E00C490C4A42F8231001332F2BF2D90A4B1A780A4B1A70074A0A4B1A60FFF7DDFE08BDF4
:400E80000004FA050CED00E014ED00E000000000B10D00000080FF1FBC760040C080FF1F08ED00E0084A137843F0040313701032137843F00403137002F5A5521E32137887
:400EC00043F0800313707047A9430040044A137803F0FC0300F0030018431070704700BF09580040072809D8054B1A7802F08F021A701A780001C0B210431870704700BFD1
:400F00000A580040032809D8054B1A7802F0F3021A701A788000C0B210431870704700BF0A58004038B50224084B1C700C2201331A70012501331D700420FFF7D3FF28461A
:400F4000FFF7E0FF2046FFF7C1FF38BD0858004008B5054B1B7823B90122034B1A70FFF7E1FFFFF79FFF08BD8082FF1F01BE704710B5044605E0084B186801F071FBA4F5F2
:400F80000044B4F5004FF6D8034B586800FB04F001F066FB10BD00BFFC80FF1F08B5034B1B7A00FB03F001F05BFB08BDFC80FF1F70B504460E46074B1D681F2802D90020A2
:400FC000FFF7D4FF04F01F04103455F8240045F8246070BD08ED00E038B504460D46072902D90020FFF7C2FF1F2C02D90020FFF7BDFF04F01F0000F1604000F564406D018A
:40100000EDB2057038BD00BF7222074B1A702022033B1A7006229E331A70472210331A7000224F331A7070478A64004010B501F01FFB04460A4A137843F020031370033A93
:40104000137843F010031370FD32137843F01003137000F033F8204601F00EFB10BD00BF9A64004008B5054B1B7823B9FFF7CCFF0122024B1A70FFF7D9FF08BD8182FF1F69
:40108000034B1B7813F0040FFAD1024B18707047646500404465004038B5074B1B782BB938BDFFF7EDFF0134A4B201E005460024285D0028F5D138BD8182FF1F054A137825
:4010C00043F0080313701032137843F008031370704700BFA243004038B59DF81040651EEDB2032D51D8013809282ED8DFE800F0052D2D052D2D0F192D230F2B03D92548D9
:40110000007840B222E02448007840B21EE00F2B03D92248007840B218E02148007840B214E00F2B03D91F48007840B20EE01E48007840B20AE00F2B03D91C48007840B253
:4011400004E01B48007840B200E0002001EB401101FB02F2D20B91B20D2B0BD8C3F10E0192B20A4191B2621E124800EB82020133937005E0631E0F4A02EB83030F229A70D4
:40118000013C0C4B23F8241038BD0020FFF7EEFE38BD00BF180100491C010049190100491D0100491A0100491E0100491B0100491F0100498482FF1FF8B5074601F058FA14
:4011C00006460D4D2B7843F003032B700B4C237843F0030323700A4B1F700320FFF7DEFE2B7803F0FC032B70237803F0FC032370304601F041FAF8BDF8460040F946004097
:4012000092580040F8B504460022BB4B1A7401285AD13822B94B1A70042202331A70072201331A70002501331D7001331D703F2201331A7002331D7001331D7001331D70C5
:4012400001260A331E70502203F527631A70272201331A702C2201331A7001331D70552203331A705A2201331A70052701331F7002331E70112201331A70192201331A701D
:40128000972201331A704420FFF796FF58229C4B1A7001331D7005331F7001331E7001331D700A2201331A704FF4FA42954B1A603146384600F0C6FA3146252000F046FB7D
:4012C00091491D20FFF774FE022C5AD138228B4B1A70042202331A70072201331A70002501331D7001331D703F2201331A7002331D7001331D7001331D7001260A331E7094
:40130000502203F527631A70272201331A702C2201331A7001331D70552203331A705A2201331A70052701331F7002331E70112201331A70192201331A70972201331A70D7
:401340004420FFF739FF58226D4B1A7001331D7005331F7001331E7001331D700A2201331A704FF4FA42674B1A603146384600F069FA3146252000F0E9FA64491D20FFF7C8
:4013800017FE032C5AD138225C4B1A70042202331A70072201331A70002501331D7001331D703F2201331A7002331D7001331D7001331D7001260A331E70502203F5276377
:4013C0001A70272201331A702C2201331A7001331D70552203331A705A2201331A70052701331F7002331E70112201331A70192201331A70972201331A704420FFF7DCFED7
:4014000058223F4B1A7001331D7005331F7001331E7001331D700A2201331A704FF4FA42384B1A603146384600F00CFA3146252000F08CFA36491D20FFF7BAFD042C5AD1CC
:4014400038222E4B1A70042202331A70072201331A70002401331C7001331C703F2201331A7002331C7001331C7001331C7001250A331D70502203F527631A702722013354
:401480001A702C2201331A7001331C70552203331A705A2201331A70052601331E7002331D70112201331A70192201331A70972201331A704420FFF77FFE5822104B1A701F
:4014C00001331C7005331E7001331D7001331C700A2201331A704FF4FA420A4B1A602946304600F0AFF92946252000F02FFA09491D20FFF75DFDF8BD8482FF1F004E00401D
:40150000945800407083FF1F05180000091800000D180000111800002DE9F04182B0394E4FF0010886F80080374F00247C74102000F076F9102000F0F7F907211D20FFF708
:401540004BFD0425314B1D7001331C7007331C702F4A137843F0180313702E4B1C7003F2F5231C7001331C700A22A3F209331A7001331C7002331C705B2205331A705E2271
:4015800001331A7004331C701422A3F68C231A70CDF8008010234FF4004249F2DA012846FFF79AFD0223009310234FF4004249F2DA012846FFF790FD0323009310234FF4EE
:4015C000004249F2DA012846FFF786FD009510234FF4004249F2DA012846FFF77DFD3378013B07EB83039A780B4B1A703378013B37F82320094B1A803078FFF703FE02B082
:40160000BDE8F0810C81FF1F8482FF1F96580040075B0040935800400E4E00400C4E004070B501F025F806462A4B1B782A4B1A7842F001021A701A7842F010021A701033A4
:401640001A7842F001021A701A7842F010021A70224D2B7843F002032B70214C237843F0020323701F4A137843F0030313700320FFF794FC2B7803F0FD032B70237803F0E9
:40168000FD032370184A137843F0060313707A22164B1A70164A137843F0010313701032137843F0010313700F3A137843F0010313701032137843F0010313704FF0005391
:4016C0000C4A1360A2F5C0721360304600F0D4FF70BD00BF0C81FF1FAA430040F8460040F9460040915800407758004082580040A143004080E200E008B5084B9B7C4BB908
:40170000064BDB7C13F0FF0F01D1FFF705FF0122024B9A74FFF784FF08BD00BF8482FF1F024A137843F0010313707047004E0040024A137803F0FE0313707047004E00401C
:40174000094B1B7C13F0FF0F03D0074B5B7CDBB203E0064B1B7803F00103012B01D00028EED01846704700BF8482FF1F014E0040154B1B7803F00303012B07D8134B1888C7
:40178000023B1B889BB243EA004013E0022B0AD10E4B1888023B1B7843EA00430C4A107843EA002006E00B4B188883B2074A108843EA0040084B1B7C13F0FF0F02D00022DA
:4017C000054B5A74704700BF144E0040124E0040114E0040104E00408482FF1F10B5084A137843F004031370FFF79AFF0020FFF7A7FFFFF7BDFF0446FFF79AFF204610BD4A
:40180000014E0040704700BF704700BF704700BF704700BF014B188880B2704780400040034B1A7800F0F80010431870704700BF82400040024B187800F00700704700BF07
:401840008240004070B505460E46FFF7F3FF0446FFF7E0FFA84256D02B4B1B7803F0010294B900B185B938B9284B1D80284A137803F0BF03137070BD254A137843F040037D
:401880001370224B1D8070BD22B3002321490B7001240F310C7004310B700C390B7803F07F030B701A4B1B7813F0080F00D08DB9194B18800721013B1970164B1B7813F040
:4018C000010FFAD110490B7803F0FE030B700021104B19700C4B1B7813F0010F0DD00E4B1D800EB1032200E001220A4B1A70094B1B7813F0010FFAD170BD044B1D800249FE
:401900000B7813430B7070BDA243004080400040824000400140004002400040014B188880B2704700410040034B1A7800F0F80010431870704700BF02410040024B18782D
:4019400000F00700704700BF0241004070B505460E46FFF7F3FF0446FFF7E0FFA84256D02B4B1B7803F0010294B900B185B938B9284B1D80284A137803F0BF03137070BDFE
:40198000254A137843F040031370224B1D8070BD22B3002321490B70012413310C7004390B7008390B7803F07F030B701A4B1B7813F0080F00D08DB9194B18800721013B47
:4019C0001970164B1B7813F0010FFAD110490B7803F0FE030B700021104B19700C4B1B7813F0010F0DD00E4B1D800EB1032200E001220A4B1A70094B1B7813F0010FFAD1E1
:401A000070BD044B1D8002490B7813430B7070BDA143004000410040024100400140004002400040054A137843F0020313701032137843F002031370704700BFA8430040D8
:401A4000054B1A7802F0FD021A701A7800F0020010431870704700BF24580040014B1870704700BF815B0040094B1B7803F00C035B08084A127812F0040F00D0013303F1DD
:401A8000924393F83031DBB2034A1370704700BF24580040255800400946004008B51022064B1A700133002018701A7842F004021A70FFF7C5FFFFF7D7FF08BD2458004089
:401AC00008B5074B1B7823B9FFF7E8FF0122044B1A70FFF7A7FF7820FFF7C0FF08BD00BF9C82FF1F08B5064B1A7802F0F3021A701A7800F00C0010431870FFF7B5FF08BDFD
:401B000024580040024A137843F08003137070477A650040024A137803F07F03137070477A650040014B1870704700BF88640040014B1878704700BF68640040014B1880A6
:401B4000704700BF54680040014B188880B2704794680040014B1880704700BF14680040024B1B78024B188880B270470A6400409468004000F00300044B1A7802F0FC0268
:401B80001A701A7810431870704700BF7A65004008B501E0FFF7D8FFFFF7CAFF10F0080FF8D108BD08B54FF6FF70FFF7C7FF4FF6FF70FFF7CFFF00F05BFD084A137843F0CD
:401BC0001003137000F058FD0020FFF7D3FFFFF7DFFF0220FFF7A6FF08BD00BF9864004008B5054B1B7823B9FFF7DCFF0122024B1A70FFF787FF08BD9D82FF1F044A137833
:401C000003F0FB03800000F00400184310707047C0510040044A137803F07F03C001C0B218431070704700BF20510040044A137803F0FE0300F0010018431070704700BFCA
:401C400030510040044A137803F0FE0300F0010018431070704700BF00510040044A137803F0BF03800100F0400018431070704730510040014B1870704700BF796400400A
:401C8000084A137843F0010313701032137843F00103137002F64D32137843F001031370704700BFA3430040084A137803F0FE031370A2F65D32137803F0FE0313701032EF
:401CC000137803F0FE031370704700BF004F0040014B1880704700BF044F0040014B1880704700BF064F0040014B1870704700BF034F004008B51A4A137843F002031370BE
:401D00000232137803F08F0343F010031370154B1A7802F0CF021A701A7842F030021A701A7802F0F0021A701A7842F00F021A7044F61F60FFF7CCFF40F2DC50FFF7CEFFDD
:401D40000020FFF7D1FF084A137843F00103137002F65E32137843F00103137008BD00BF004F00400B4F0040A343004008B5054B1B7823B9FFF7BEFF0122024B1A70FFF727
:401D80007FFF08BD9E82FF1F08B5074B1B7813F0010F03D00122054B1A7002E00022034B1A70FFF781FF08BD004F0040A082FF1F08B5034B1B780BB1FFF762FF08BD00BF02
:401DC000A082FF1F084A137843F0020313701032137843F00203137002F65932137843F001031370704700BFA3430040084A137803F0FE031370A2F66932137803F0FD031A
:401E000013701032137803F0FD031370704700BF0C4F0040014B1880704700BF104F0040014B1880704700BF124F0040014B1870704700BF0F4F004008B51A4A137843F010
:401E4000020313700232137803F08F0343F010031370154B1A7802F0CF021A701A7842F030021A701A7802F0F0021A701A7842F00F021A7044F61F60FFF7CCFF40F2DC50D7
:401E8000FFF7CEFF0020FFF7D1FF084A137843F00203137002F66A32137843F00103137008BD00BF0C4F0040174F0040A343004008B5054B1B7823B9FFF7BEFF0122024B7E
:401EC0001A70FFF77FFF08BDA182FF1F014B188880B27047124F004008B5074B1B7813F0010F03D00122054B1A7002E00022034B1A70FFF77BFF08BD0C4F0040A482FF1FF3
:401F000008B5034B1B780BB1FFF75CFF08BD00BFA482FF1F014B1870704700BF7E640040014B1870704700BF78640040014B1B685864704708ED00E04001C0B2014B1870BE
:401F4000704700BF01E400E00222014B1A60704700E100E00222014B1A60704780E100E010B50446FFF7F6FF2046FFF7DFFF0720FFF7E2FFFFF7E8FF10BD00BF014B1B6878
:401F80001864704708ED00E04001C0B2014B1870704700BF00E400E00122014B1A60704700E100E00122014B1A60704780E100E010B50446FFF7F6FF2046FFF7DFFF0720BB
:401FC000FFF7E2FFFFF7E8FF10BD00BF08B500F06BFAA0F5004000B208BD00BF08B5002803DB80B280F4004002E0A0F5004080B200F054FA08BD00BF024B187800F00F0054
:40200000704700BF6F640040014B1870704700BF8F64004008B50F20FFF7F6FFFFF7ECFF00F026FB034A137843F01003137000F023FB08BD9F64004008B500F087FA4FF4A9
:40204000004000F02BFA044B1B7813B90122024B1A70FFF7DFFF08BDA582FF1F08B500F09DFAA0F5004000B208BD00BF08B5002803DB80B280F4004002E0A0F5004080B2A4
:4020800000F086FA08BD00BF024B187800F00F00704700BF65640040014B1870704700BF8564004008B50F20FFF7F6FFFFF7ECFF00F0DEFA034A137843F01003137000F04D
:4020C000DBFA08BD9564004008B500F0B9FA4FF4004000F05DFA044B1B7813B90122024B1A70FFF7DFFF08BDA682FF1F024A137843F080031370704776640040024A1378A4
:4021000003F07F031370704776640040014B1870704700BF06650040024B1B78024B1878704700BF1665004056650040014B1870704700BF46650040014B1870704700BF79
:4021400026650040014B1870704700BF85650040014B1878704700BF65650040014B1878704700BF76640040014B1870704700BF76640040014B1878704700BF56650040A7
:4021800008B501E0FFF7F6FFFFF7E2FF10F0100FF8D108BD08B5124A137803F0C00343F00903137002F59072137843F001031370FF20FFF7ABFFFF20FFF7B8FF7F20FFF798
:4021C000BBFF0020FFF7BEFF00F052FA054A137843F01003137000F04FFAFFF7D1FF08BD766400409565004008B5054B1B7823B9FFF7D0FF0122024B1A70FFF777FF08BDEF
:40220000A782FF1F014B1878704700BF4665004010B5FFF7F7FF064CA070FFF77DFF6070044B1B78E370FFF799FF207110BD00BFA882FF1F8565004010B5074CA078FFF74D
:4022400075FF6078FFF762FFE278044B1A702079FFF78AFF10BD00BFA882FF1F8565004008B5084B1B7813F0800F03D00122064B1A7002E00022044B1A70FFF73FFFFFF765
:40228000C7FF08BD76640040A882FF1F08B5FFF7D3FF034B1B780BB1FFF728FF08BD00BFA882FF1F024A137843F080031370704776650040024A137803F07F0313707047BE
:4022C00076650040014B1870704700BF07650040024B1B78024B1878704700BF1765004057650040014B1870704700BF47650040014B1870704700BF27650040014B1870C2
:40230000704700BF89650040014B1878704700BF69650040014B1878704700BF76650040014B1870704700BF76650040014B1878704700BF5765004008B501E0FFF7F6FFF0
:40234000FFF7E2FF10F0100FF8D108BD08B5124A137803F0C00343F0090313702132137843F001031370FF20FFF7ACFFFF20FFF7B9FF7F20FFF7BCFF0020FFF7BFFF00F084
:4023800077F9064A137843F01003137000F074F9FFF7D2FF08BD00BF766500409965004008B5054B1B7823B9FFF7D0FF0122024B1A70FFF777FF08BDAD82FF1F014B187873
:4023C000704700BF4765004010B5FFF7F7FF064CA070FFF77DFF6070044B1B78E370FFF799FF207110BD00BFB082FF1F8965004010B5074CA078FFF775FF6078FFF762FFFF
:40240000E278044B1A702079FFF78AFF10BD00BFB082FF1F8965004008B5084B1B7813F0800F03D00122064B1A7002E00022044B1A70FFF73FFFFFF7C7FF08BD7665004094
:40244000B082FF1F08B5FFF7D3FF034B1B780BB1FFF728FF08BD00BFB082FF1F014B1870704700BF75650040014B1870704700BF77650040024A137843F080031370704768
:4024800078650040014B1870704700BF8C640040014B1878704700BF6C640040014B1880704700BF1C680040024B1B78024B188880B270470E6400409C680040014B18886D
:4024C00080B270479C680040014B1880704700BF5C680040014B1880704700BF7C68004008B501E0FFF7EAFFFFF7D2FF10F0400FF8D108BD08B5134B1A7802F0F8021A708F
:402500001A7802F0FC021A70FFF7EAFF4FF40040FFF7DAFF4FF40040FFF7C0FF0020FFF7B1FFFFF7B5FF4FF40040FFF7D3FF00F09FF8054A137843F01003137000F09CF8BD
:4025400008BD00BF786500409C64004008B5054B1B7823B9FFF7CEFF0122024B1A70FFF789FF08BDB582FF1F024A137843F08003137070477C640040014B1870704700BF78
:4025800087650040014B1878704700BF67650040014B1880704700BF0C680040024B1B78024B188880B27047066400408C680040014B188880B270478C680040014B188002
:4025C000704700BF4C680040014B1880704700BF6C68004008B501E0FFF7EAFFFFF7D2FF10F0400FF8D108BD08B5134B1A7802F0F8021A701A7802F0FC021A70FFF7EAFFD4
:402600004FF40040FFF7DAFF4FF40040FFF7C0FF0020FFF7B1FFFFF7B5FF4FF40040FFF7D3FF00F025F8054A137843F01003137000F022F808BD00BF7C64004097650040BB
:4026400008B5054B1B7823B9FFF7CEFF0122024B1A70FFF789FF08BDB682FF1F000000000230800803D000BF01380046FCD17047EFF3108072B6704780F31088704700BF67
:40268000F8B5C1F30A56A6F2FF35132D0A460B460446864611DC002D2EDB0F461F4929410A4225D04FF400232B413B4423EA01030026194634462046F8BD332D05DDB5F5A3
:4026C000806F1FD011462046F8BDA6F213464FF0FF3121FA06F63042F4D00122C5F1330502FA05F52D1828BF9B1825EA0606E0E70028D7D11146E6E7013501F0004307D0E0
:402700000026D6E702460B4600F010F80446D2E743F07F5343F440130026CAE7FFFF0F0081F0004102E000BF83F0004330B54FEA41044FEA430594EA050F08BF90EA020FDE
:402740001FBF54EA000C55EA020C7FEA645C7FEA655C00F0E2804FEA5454D4EB5555B8BF6D420CDD2C4480EA020281EA030382EA000083EA010180EA020281EA0303362D7A
:4027800088BF30BD11F0004F4FEA01314FF4801C4CEA113102D0404261EB410113F0004F4FEA03334CEA133302D0524263EB430394EA050F00F0A780A4F10104D5F1200E83
:4027C0000DDB02FA0EFC22FA05F2801841F1000103FA0EF2801843FA05F359410EE0A5F120050EF1200E012A03FA0EFC28BF4CF0020C43FA05F3C01851EBE37101F000459D
:4028000007D54FF0000EDCF1000C7EEB00006EEB0101B1F5801F1BD3B1F5001F0CD349085FEA30004FEA3C0C04F101044FEA445212F5800F80F09A80BCF1004F08BF5FEABB
:40284000500C50F1000041EB045141EA050130BD5FEA4C0C404141EB010111F4801FA4F10104E9D191F0000F04BF01460020B1FA81F308BF2033A3F10B03B3F120020CDA93
:402880000C3208DD02F1140CC2F10C0201FA0CF021FA02F10CE002F11402D8BFC2F1200C01FA02F120FA0CFCDCBF41EA0C019040E41AA2BF01EB0451294330BD6FEA0404A4
:4028C0001F3C1CDA0C340EDC04F11404C4F1200220FA04F001FA02F340EA030021FA04F345EA030130BDC4F10C04C4F1200220FA02F001FA04F340EA0300294630BD21FADE
:4029000004F0294630BD94F0000F83F4801306BF81F480110134013D4EE77FEA645C18BF7FEA655C29D094EA050F08BF90EA020F05D054EA000C04BF1946104630BD91EA31
:40294000030F1EBF0021002030BD5FEA545C05D14000494128BF41F0004130BD14F580043CBF01F5801130BD01F0004545F0FE4141F470014FF0000030BD7FEA645C1ABFE1
:40298000194610467FEA655C1CBF0B46024650EA013406BF52EA033591EA030F41F4002130BD00BF90F0000F04BF0021704730B54FF4806404F132044FF000054FF00001A8
:4029C00050E700BF90F0000F04BF0021704730B54FF4806404F1320410F0004548BF40424FF000013EE700BF42004FEAE2014FEA31014FEA02701FBF12F07F4393F07F4F27
:402A000081F06051704792F0000F14BF93F07F4F704730B54FF4607401F0004521F0004120E700BF50EA010208BF704730B54FF000050AE050EA010208BF704730B511F098
:402A4000004502D5404261EB41014FF4806404F132045FEA915C3FF4DCAE4FF003025FEADC0C18BF03325FEADC0C18BF033202EBDC02C2F1200300FA03FC20FA02F001FA86
:402A800003FE40EA0E0021FA02F11444C1E600BF70B54FF0FF0C4CF4E06C1CEA11541DBF1CEA135594EA0C0F95EA0C0F00F0DEF82C4481EA030621EA4C5123EA4C5350EAF6
:402AC000013518BF52EA033541F4801143F4801338D0A0FB02CE4FF00005E1FB02E506F00042E0FB03E54FF00006E1FB03569CF0000F18BF4EF0010EA4F1FF04B6F5007F55
:402B000064F5407404D25FEA4E0E6D4146EB060642EAC62141EA55514FEAC52040EA5E504FEACE2EB4F1FD0C88BFBCF5E06F1ED8BEF1004F08BF5FEA500E50F1000041EB4F
:402B4000045170BD06F0004646EA010140EA020081EA0301B4EB5C04C2BFD4EB0C0541EA045170BD41F480114FF0000E013C00F3AB8014F1360FDEBF002001F0004170BDF9
:402B8000C4F10004203C35DA0C341BDC04F11404C4F1200500FA05F320FA04F001FA05F240EA020001F0004221F0004110EBD37021FA04F642EB06015EEA430E08BF20EA3F
:402BC000D37070BDC4F10C04C4F1200500FA04F320FA05F001FA04F240EA020001F0004110EBD37041F100015EEA430E08BF20EAD37070BDC4F1200500FA05F24EEA020E19
:402C000020FA04F301FA05F243EA020321FA04F001F0004121FA04F220EA020000EBD3705EEA430E08BF20EAD37070BD94F0000F0FD101F00046400041EB010111F4801F3D
:402C400008BF013CF7D041EA060195F0000F18BF704703F00046520043EB030313F4801F08BF013DF7D043EA0603704794EA0C0F0CEA135518BF95EA0C0F0CD050EA410652
:402C800018BF52EA4306D1D181EA030101F000414FF0000070BD50EA410606BF1046194652EA430619D094EA0C0F02D150EA013613D195EA0C0F05D152EA03361CBF1046C9
:402CC00019460AD181EA030101F0004141F0FE4141F470014FF0000070BD41F0FE4141F4780170BD70B54FF0FF0C4CF4E06C1CEA11541DBF1CEA135594EA0C0F95EA0C0F49
:402D000000F0A7F8A4EB050481EA030E52EA03354FEA013100F088804FEA03334FF0805545EA131343EA12634FEA022245EA111545EA10654FEA00260EF000419D4208BF05
:402D4000964244F1FD0404F5407402D25B084FEA3202B61A65EB03055B084FEA32024FF480104FF4002CB6EB020E75EB030E22BFB61A754640EA0C005B084FEA3202B6EB85
:402D8000020E75EB030E22BFB61A754640EA5C005B084FEA3202B6EB020E75EB030E22BFB61A754640EA9C005B084FEA3202B6EB020E75EB030E22BFB61A754640EADC0018
:402DC00055EA060E18D04FEA051545EA16754FEA06164FEAC30343EA52734FEAC2025FEA1C1CC0D111F4801F0BD141EA00014FF000004FF0004CB6E711F4801F04BF014378
:402E00000020B4F1FD0C88BFBCF5E06F3FF6AFAEB5EB030C04BFB6EB020C5FEA500C50F1000041EB045170BD0EF0004E4EEA113114EB5C04C2BFD4EB0C0541EA045170BD13
:402E400041F480114FF0000E013C90E645EA060E8DE60CEA135594EA0C0F08BF95EA0C0F3FF43BAF94EA0C0F0AD150EA01347FF434AF95EA0C0F7FF425AF104619462CE77F
:402E800095EA0C0F06D152EA03353FF4FDAE1046194622E750EA410618BF52EA43067FF4C5AE50EA41047FF40DAF52EA43057FF4EBAE12E74FF0FF3C06E000BF4FF0010C2C
:402EC00002E000BF4FF0010C4DF804CD4FEA410C7FEA6C5C4FEA430C18BF7FEA6C5C1BD001B050EA410C0CBF52EA430C91EA030F02BF90EA020F0020704710F1000F91EAD4
:402F0000030F58BF994208BF90422CBFD8176FEAE37040F0010070474FEA410C7FEA6C5C02D150EA013C07D14FEA430C7FEA6C5CD6D152EA033CD3D05DF8040B704700BF55
:402F40008446104662468C461946634600E000BF01B5FFF7B7FF002848BF10F1000F01BD4DF808EDFFF7F4FF0CBF012000205DF808FB00BF4DF808EDFFF7EAFF34BF01203E
:402F800000205DF808FB00BF4DF808EDFFF7E0FF94BF012000205DF808FB00BF4DF808EDFFF7CEFF94BF012000205DF808FB00BF4DF808EDFFF7C4FF34BF012000205DF8FC
:402FC00008FB00BF4FEA410212F5001215D211D56FF47873B3EB625212D94FEAC12343F0004343EA505311F0004F23FA02F018BF404270474FF00000704750EA013005D119
:4030000011F0004008BF6FF0004070474FF00000704700BF80F0004002E000BF81F0004142001FBF5FEA410392EA030F7FEA226C7FEA236C6AD04FEA1262D2EB1363C1BFB6
:40304000D218414048404140B8BF5B42192B88BF704710F0004F40F4000020F07F4018BF404211F0004F41F4000121F07F4118BF494292EA030F3FD0A2F1010241FA03FCB5
:4030800010EB0C00C3F1200301FA03F100F0004302D5494260EB4000B0F5000F13D3B0F1807F06D340084FEA310102F10102FE2A51D2B1F1004F40EBC25008BF20F0010016
:4030C00040EA03007047490040EB000010F4000FA2F10102EDD1B0FA80FCACF1080CB2EB0C0200FA0CF0AABF00EBC25052421843BCBFD0401843704792F0000F81F40001A0
:4031000006BF80F400000132013BB5E74FEA41037FEA226C18BF7FEA236C21D092EA030F04D092F0000F08BF0846704790EA010F1CBF0020704712F07F4F04D1400028BF50
:4031400040F00040704712F100723CBF00F50000704700F0004343F0FE4040F4000070477FEA226216BF08467FEA23630146420206BF5FEA412390EA010F40F4800070478C
:403180004FF0000304E000BF10F0004348BF40425FEA000C08BF704743F0964301464FF000001CE050EA010208BF70474FF000030AE000BF50EA010208BF704711F0004358
:4031C00002D5404261EB41015FEA010C02BF84460146002043F0B64308BFA3F18053A3F50003BCFA8CF2083AA3EBC25310DB01FA02FC634400FA02FCC2F12002BCF1004F3E
:4032000020FA02F243EB020008BF20F00100704702F1200201FA02FCC2F1200250EA4C0021FA02F243EB020008BF20EADC7070474FF0FF3C06E000BF4FF0010C02E000BF39
:403240004FF0010C4DF804CD4FEA40024FEA41037FEA226C18BF7FEA236C11D001B052EA530C18BF90EA010F58BFB2EB030088BFC81738BF6FEAE17018BF40F00100704763
:403280007FEA226C02D15FEA402C05D17FEA236CE4D15FEA412CE1D05DF8040B704700BF844608466146FFE70FB5FFF7C9FF002848BF10F1000F0FBD4DF808EDFFF7F4FF76
:4032C0000CBF012000205DF808FB00BF4DF808EDFFF7EAFF34BF012000205DF808FB00BF4DF808EDFFF7E0FF94BF012000205DF808FB00BF4DF808EDFFF7D2FF94BF012018
:4033000000205DF808FB00BF4DF808EDFFF7C8FF34BF012000205DF808FB00BF014B1868704700BF7081FF1F0E4B70B51E460E4C0025E41AA410A54204D056F82530984773
:403340000135F8E702F0BAF9084B094C1E46E41AA4100025A54204D056F8253098470135F8E770BDC8560000C8560000C8560000D056000010B5431E0A44914204D011F88D
:40338000014B03F8014FF8E710BD03460244934202D003F8011BFAE770472DE9F04788B0149F002B1E461299B8BF03F1004327F02007B6BF1E4600232D23462F1446109DBF
:4033C000DDF84CA00B7003D0452F03D1013501E0032300E0022307AA049206AA03928DE828042246334600F003FD472F804602D1119BDB0728D5462F08EB050911D198F8B4
:403400000030302B0AD10022002320463146FFF7A7FD18B9C5F10105CAF80050DAF8003099440022002320463146FFF799FD08B9302202E0CDF81C9006E0079B994503D996
:40344000591C07911A70F8E74046079B159AC8EB0303136008B0BDE8F087034673B50029B8BF494203F8022BB4BF2D222B22092942701ADD0DF1070216460A2591FBF5F44A
:4034800005FB1411092C01F1300102F8011D2146F4DC3031541E02F8011CB4421A460AD214F8012B03F8012BF7E71A463024214402F8024B5970101A02B070BD2DE9F04F60
:4034C00091B00C46DDF8688016461F46054601F027FA03681846099300F0F4FB00230E93D8F800300A90073323F0070303F1080294F81890D4F800B0C8F80020D3E90023F8
:40350000C4E91223D4F84CA0D4F848802AF000430B934FF0FF32A74B40460B9901F054FFA0B94FF0FF32A34B40460B99FFF72CFD60B90022002340465146FFF71BFD10B148
:403540002D2384F843309C4B9C4A0AE0424653464046514601F038FF002800F09281984B984AB9F1470F8CBF90469846032323612BF0040323604FF0000A3DE0B9F1670F2B
:4035800000F08A81B9F1470F00F0868123600193636800210DF13302059002920093424653460691CDF81090CDF80CE02846FFF7F4FE09F0DF03472B804600F08481B9F151
:4035C000650F0D9900F28D8101394A4604F150000D91FFF742FF0E9A82468318012A236100F37C812268D10700F178819DF8333013B12D2384F84330009733460FAA2146AC
:40360000284600F09FF9013002D14FF0FF3096E123685A0501D4236965E0B9F1650F40F2D580D4E9120100220023FFF799FC78B30123654A31462846B8470130E5D00E9B65
:403640000D9A9A420BDB2368D80708D423689B0740F111814FF0000804F1190906E10A9B099A31462846B8470130CED04FF0000804F11A090E9B013B9845E7DA01234A46D5
:4036800031462846B8470130BFD008F10108F1E70D9B002B29DC01234B4A31462846B8470130B2D00D9B23B90E9B13B92368D907CCD50A9B099A31462846B8470130A4D08E
:4036C0004FF0000904F11A0A0D9B5B42994509DA0123524631462846B847013095D009F10109F1E70E9B4246A7E00E9AA36D9A42A8BF1A46002A914606DC4FF0000A29EAFF
:40370000E97904F11A0B11E01346314642462846B8470130F1D178E701235A4631462846B84701303FF471AF0AF1010AA36DC9EB03029245F0DB08EB03090D9A0E9B9A423D
:403740000FDB2368DA070CD40E9B0D9A9844C9EB08089B1A9845A8BF9846B8F1000F08DC0FE00A9B099A31462846B8470130EBD14BE743464A4631462846B84701303FF415
:4037800044AF4FF0000928EAE87804F11A0A09E00123524631462846B84701303FF435AF09F101090D9A0E9B9B1AC8EB03039945EEDB4BE7FFFFEF7F5A5500005E55000009
:4037C00062550000665500006A5500000E9A012A01DCDB0738D50123424631462846B84701303FF412AF0A9B099A31462846B84701303FF40AAFD4E9120100220023FFF7F0
:40380000AFFB20B14FF0000804F11A090EE00E9B08F10102013B19E001234A4631462846B84701303FF4F1AE08F101080E9B013B9845F1DB534604F1500231462846B847F7
:4038400001307FF403AFE0E64246012331462846B8470130EED1D8E601234A4631462846B84701303FF4D1AE08F10108E3680F9A9B1A9845F0DBE0680F9B9842B8BF18467F
:403880005DE062680EA8531C0DF1340E4BF480637FF474AE062201E012B90122626075E6002106910DF133018DE80C00236005904246CDF81090CDF80CE002915346284616
:4038C000FFF76BFD80460D9BD81C02DB626893421DDDA9F102095FFA89F970E60133236184E6B9F1660F14D10029636807DD216113B92268D2071DD501330B4419E013B9D3
:403900002268D00701D5023313E0012311E04FF067090D9B0E9A934205DB22682361D10708D5013305E0002BD4BFC3F102030123134423610D9B4FF0000AA36556E611B017
:40394000BDE8F08F2DE9F04791461F460A698B6806469342B8BF1346C9F8003091F843200C46DDF8208012B10133C9F800302368990642BFD9F800300233C9F800302568D8
:4039800015F0060510D104F1190A07E00123524639463046C04701301AD00135E368D9F800209B1A9D42F1DB94F843302268003318BF012392060FD5E118302081F843003A
:4039C0005A1C94F845102244023382F8431003E04FF0FF30BDE8F08704F1430239463046C0470130F4D02268D9F80050E36802F00602042A08BF5D1B2269A3680CBF25EAA3
:403A0000E57500259342C4BF9B1AED184FF000091A344D4509D00123224639463046C0470130D5D009F10109F3E70020BDE8F0872DE9F04317460A7E85B06E2A9846064657
:403A40000C460C9B01F1430E00F0AE8011D8632A22D009D8002A00F0BB80582A40F0CA8081F84520834955E0642A1ED0692A1CD0C0E0732A00F0B08009D86F2A2ED0702A09
:403A800040F0B8800A6842F020020A603EE0752A24D0782A3AD0ADE01A6801F14205111D1960136884F84230A8E021681A6811F0800F02D0111D196008E011F0400F02F1F2
:403AC0000401196002D0B2F9003000E01368002B3CDA2D225B4284F8432037E021681A6811F0800F02D0111D196007E011F0400F02F10401196001D0138800E01368227EFA
:403B00005C496F2A14BF0A2208221BE078225A4984F845202268186812F0800F00F104051D6003D1550601D5038800E00368D00744BF42F0200222601BB9226822F02002D6
:403B400022601022002084F8430001E049490A226568002DA56008DB206820F0040020602BB9002D7DD175460CE0002B79D07546B3FBF2F002FB1033CB5C05F8013D034665
:403B80000028F5D1082A0BD12368DA0708D5236962689A42DEBF302305F8013C05F1FF35C5EB0E0323612EE008681A6810F0800F496903D0101D1860136808E010F0400F8A
:403BC00002F104001860136801D0198000E0196000232361754616E01A68111D1960156800216268284600F0A7FE08B1401B6060636804E004F1420584F8422001232361E7
:403C0000002384F84330CDF800803B4603AA21463046FFF797FE013002D14FF0FF3026E023692A4639463046C0470130F5D023689B0710D5002504F1190907E001234A4648
:403C400039463046C0470130E7D00135E368039A9B1A9D42F2DBE068039B9842B8BF184605E00B7804F1420584F842308AE705B0BDE8F0836C5500007D5500000EB400B572
:403C80004FF402719CB0ADF814106FF00041049107914FF6FF711DAB02900690084853F8042BADF81610006802A9019301F03AFA029B00221A701CB05DF804EB03B07047A3
:403CC0007081FF1F034613F8012B002AFBD1181A013870472DE9F74F03690C6980469C427FDC013C01F114074FEA840E00F1140606EB0E0357F82450019356F82430013590
:403D0000B3FBF5F507EB0E09C5B34FF0000A3846B446D34650F8043B9AB205FB02A21B0C4FEA124A05FB03A392B2C2EB0B0BBCF800204FEA134A5A441FFA83FBDCF800300D
:403D40008145CBEB134303EB224392B242EA03424FEA234B4CF8042BDCD256F80E306BB9019B043B9E421A4602D3C8F8104005E01268043B002AF8D1013CF3E7404600F0D3
:403D8000F6FF00282BDB304601354FF0000E57F8042B036891B2C1EB0E0E120C99B27144C2EB134303EB214389B24FEA234EB94541EA034340F8043BE9D256F8242006EB77
:403DC000840362B9043B9E421A4602D3C8F8104005E01268043B002AF8D1013CF3E7284600E0002003B0BDE8F08F0000000000002DE9F04F456A95B08246219CCDE9022327
:403E000045B9102000F090FDCAF82400456085600560C560DAF82430196859B15A68012393404A608B60504600F0C9FDDAF8243000221A60039BA04A002BBDBF01232360FA
:403E4000039B0023BCBF23F000430393DDF80C80A8BF236028F000431B0D1B0593421DD142F20F73209A1360029B43B9934A944BC8F31300002814BF1846104600E09048FC
:403E8000229B002B00F04685C37813B100F1080300E0C31C229A136000F03CBDDDE902450022002320462946FFF75AF8074658B1209A01231360229B002B00F01E85814833
:403EC0001860013800F026BD12AB019313AB009322462B46504600F0C5FFC8F30A56049056B1C5F3130343F07F51204641F44011A6F2FF3611971DE0139B129E1E4406F2DC
:403F00003243202B0ADD029A06F21240C3F1400322FA00F008FA03F3184304E0C3F12000029B03FA00F0FEF73DFD0123A1F1F871013E11930022644BFEF7F6FB58A3D3E9BD
:403F40000023FEF7A5FD58A3D3E90023FEF7EEFB044630460D46FEF735FD55A3D3E90023FEF796FD02460B4620462946FEF7DEFB04460D46FFF726F80022834600232046D5
:403F80002946FEF7F7FF58B15846FEF71BFD02460B4620462946FEF7E3FF08B90BF1FF3BBBF1160F0DD8DDE90223484901EBCB01D1E90001FEF7FCFF30B10BF1FF3B0023E8
:403FC00000E00123109300E01090129B9E1B731E079343BFC3F10008002307934FF00008BBF1000F06DB079BCDF82CB05B440793002705E00023CBEB0808CBF100070B93D9
:404000001E9B092B28D8052BC4BF043B1E931E9BC8BF0025A3F10203D8BF0125032B20D8DFE803F0060E0204012302E0012308E000230A931F9B002B1DDD9946059321E012
:4040400000230A931F9B0BEB030909F10103012B0593B8BF012315E0012500231E930A9501E001230A934FF0FF390022CDF8149012231F9206E04FF001094B46CDF8149026
:40408000CDF87C90DAF8244000226260042101F114029A421CD86268490001326260F6E761436F63A787D23FB3C8608B288AC63FFB799F501344D33F0000F07F8E55000043
:4040C000975500006B5500000000F83FA85500006168504600F03EFCDAF8243020601B680693059B0E2B00F25B81002D00F05881DDE90234BBF1000FCDE90E3430DD9F4A53
:404100000BF00F034FEA2B1502EBC303E80618CBCDE908340CD5DDE90E01994B05F00F05D3E90823FEF7DEFD0324CDE9020100E00224934E6DB1E90708D5DDE90801D6E9E9
:404140000023FEF7A5FCCDE9080101346D100836F0E7DDE90823DDE90201FEF7C3FD20E0CBF1000505B3DDE90E01844B05F00F0203EBC203D3E90023FEF78AFCCDE90201A8
:404180007F4E2D110023022455B1EA0705D5D6E90023FEF77DFC013401236D100836F3E71BB1CDE9020100E00224109BE3B1DDE902560022734B28463146FEF7DBFE98B1D8
:4041C000059B8BB1B9F1000F40F3E6800BF1FF330893314600226C4B2846FEF759FC0134CDE902014E4602E0059ECDF820B02046FEF7E8FBDDE90223FEF74AFC634B0022F0
:40420000FEF794FAA1F1507304460C931D46D6B9DDE9020100225E4BFEF786FA22460C9BCDE90201FEF7C4FE002840F03F820C99224601F10043DDE90201FEF79BFE002869
:4042400040F02B82A8E00A9A4C4B711E002A49D003EBC103D3E9002300204E49FEF742FD22462B46FEF760FACDE90C01069CDDE90201FEF7A7FE0546FEF7A4FB02460B46E8
:40428000DDE90201FEF750FADDE90C23303504F8015BCDE90201FEF76DFE002840F01D83DDE9022300203749FEF73EFADDE90C23FEF760FE002840F0D180069BE31AB342F7
:4042C0006ADADDE90C0100222F4BFEF7E1FB0022CDE90C01DDE902012B4BFEF7D9FBCDE90201C4E703EBC1012246D1E900012B46FEF7CEFB069BCDE90C011D469C19DDE9A5
:404300000201FEF75FFE0646FEF75CFB02460B46DDE90201FEF708FA303605F8016BAC42CDE902014FF0000222D11A4BDDE90C01FEF7FCF902460B46DDE90201FEF738FEDE
:40434000002840F08B80DDE90C2300201149FEF7EBF902460B46DDE90201FEF70BFED8B114F8013C621E302B40F0B7821446F7E7054BFEF78DFBCDE90201C0E7A8550000BA
:40438000805600000000F03F0000244000001C40000014400000E03FDDE90E34CDE90234139B002B7CDBBBF10E0F79DCAB4B03EBCB03D3E900671F9B002B14DA059B002B10
:4043C00011DC40F06C810022A54B30463946FEF75FFBDDE90223FEF7E1FD059D2E46002840F05F8165E1069CDDE9028932463B4640464946FEF776FCFEF7E4FD0546FEF78D
:40440000E1FA32463B46FEF743FB0B46024649464046FEF789F905F1300E069B04F801EBC3EB040E059B73452DD102460B46FEF77DF98046894602460B4630463946FEF761
:4044400099FD78B942464B4630463946FEF788FD002800F04482EB0704D440E2DDF820B000E01C4614F8012C631E392A07D1069A9A42F6D1069930220BF1010B0A701A78FF
:4044800001321A702BE20022764BFEF701FB0022002380468946FEF763FD0028A6D01EE20A9A002A2BD01E9A012A0ADC119A12B103F2334302E0129BC3F136033D4644469D
:4044C00013E0059B5D1EAF42BFBF0B9BEA1B9B180B93059BB6BF2F467D1B0025002BA7BF4446059BC3EB08040023079A01211A4450469844079200F001FB064602E03D469B
:4045000044460A9E5CB1079B002B08DDA342A8BF2346079AC3EB0808E41AD31A0793002F1DDD0A9BABB18DB131462A46504600F07FFB049A01460646504600F0E8FA04996C
:404540000890504600F03BFA089B04937A1B06D000E03A460499504600F06AFB04900121504600F0CBFA0B9B05465BB31A460146504600F05DFB1E9B0546012B18DC029B15
:4045800083B9039BC3F3130373B9039B23F000473F0D3F054FB1079B08F1010801330793012702E0002700E0029F0B9B73B100E000272B6905EB8303186900F052FAC0F134
:4045C000200004E01E9B012BD9DD0B9F0120079B184410F01F0008D0C0F12003042B02DDC0F11C0002E006D018461C30079B8044034404440793B8F1000F05DD42460499FD
:40460000504600F063FB0490079B002B05DD29461A46504600F05AFB0546109B23B32946049800F0A4FB00281EDA00230A220499504600F0DBF90A9B0BF1FF3B0490002B43
:4046400000F05F81314600230A22504600F0CEF9B9F1000F06463FDC3BE000BFA85500000000144000002440059B002B2BDC1E9B022B28DDDDF81490B9F1000F11D1294668
:404680004B460522504600F0B1F901460546049800F06DFB00280CDC03E0354600E000252E461F9B069C6FEA030B09E03546DDF820B0069B069A5C1C312313700BF1010B41
:4046C00005960026F7E00A9BDDF8149023B9069CB2E01E9B022BCFDC002C05DD31462246504600F0F3FA06469FB17168504600F031F90446326906F10C01023292000C30F3
:40470000FEF738FE01222146504600F0DFFA059000E00596029B069F03F00103079329460498FFF7D7FA3146044600F13008049800F01DFB059A02902946504600F033FBCE
:40474000C36802463BB901460A90049800F00FFB0A9A034600E00123114650460A9300F02EF90A9B53B91E9A42B9079A32B9B8F1390F2AD0029B002B1CDC1DE0029A002A6B
:4047800004DB1BD11E9ACAB9079ABAB9002B13DD01220499504600F099FA2946049000F0E6FA002803DC07D118F0010F04D0B8F1390F0AD004F131087C1C0CE0002B07F1AD
:4047C00001040BDDB8F1390F03D139233B70013756E008F1010887F800806CE0069B2746E31A4B4504F8018C3BD000230A220499504600F0FBF8059B04909E424FF00A0252
:404800004FF000033146504604D100F0EFF80646059084E700F0EAF8002306460A220599504600F0E3F8059079E700230A220499504600F0DBF8049029460498FFF74AFAB2
:40484000069B00F1300804F8018BE31A4B45ECDB069B0596B9F1010FACBF4B4401331F46002601220499504600F030FA2946049000F07DFA002803DC15D118F0010F12D022
:404880003C4614F8013C621E392B09D1069B934204D10BF1010B3123069A02E01446F0E70133137007E03C4614F8013C621E302B01D11446F8E72946504600F080F8059BB9
:4048C0006BB12EB19E4203D03146504600F077F80599504600F073F801E0DDF820B00499504600F06CF80023209A23700BF101031360229B1BB11C6001E008480AE0069861
:4049000008E0B9F1000F3FF7E2AE1E9B022B7FF7DEAEB1E615B0BDE8F08F00BF6A550000004870477481FF1F024B0146186800F041BB00BF7081FF1F10B5C9B202449042F2
:40494000034605D01C7801308C42F8D1184610BD002010BD70B5456A04460E463DB91020FFF7E2FF6062456085600560C560656AEB6843B1636ADB6853F8260078B1026836
:4049800043F8262017E021220421204600F0B8FA636AE860DB68002BECD1002070BD012101FA06F56A1D9200204600F0A9FA0028F3D04660856000230361C36070BD70B5E6
:4049C000446A06460D463CB91020FFF7ADFF7062446084600460C4603DB1736A6A68DB6853F82210296043F8225070BD2DE9F04106460C460D691F4601F1140E0023DEF834
:404A00000000013381B202FB0171000C0F0C02FB007089B201EB00419D424FEA10474EF8041BECDCD7B1A3689D4212DB616830460131FFF78FFF8046226904F10C0102322D
:404A400092000C30FEF796FC21463046FFF7B7FF444604EB850301355F6125612046BDE8F081030C1B0413B90004102300E0002310F07F4F04BF0002083310F0704F04BFDB
:404A80000001043310F0404F04BF80000233002803DB420003D5581C70471846704720207047036813F007020BD0D90722D49A074BBF5B089B08036003604CBF0120022073
:404AC000704799B209B91B0C102213F0FF0F04BF1B0A0832190704BF1B090432990704BF9B080232D90702D45B0805D00132036010467047002070472020704710B50C4679
:404B00000121FFF727FF01224461026110BD2DE9F74F14460A69236988469A42BEBF0B46A0461C46D8F81070D4F81090D8F80830D8F8041007EB09069E42C8BF0131FFF792
:404B400009FF00F114052B4605EB860C0022634502D243F8042BFAE704F1140208F1140102EB890301EB87070093009B0192934257D9B2F800B0BBF1000F23D08946AE46AA
:404B80004FF0000859F8044BBEF800A0A3B20BFB03A34FEA144ADEF8004043444FEA14480BFB0A84F24604EB13449BB243EA04434F454FEA14484AF8043B01D9D646E1E7B3
:404BC000CEF80480019B0432B3F802A0BAF1000F21D02C4689462B684FF00008B9F800E0B4F802B09BB20AFB0EBEA346F04443EA08434BF8043B59F8043BB4F804E01B0C1B
:404C00000AFB03E34F4503EB18434FEA134801D95C46E3E763600435A7E75CF8043D13B9013E002EF9DC066103B0BDE8F08F00002DE9F843154612F0030206460F4607D03C
:404C4000214C013A002354F82220FFF7CFFE0746AD1036D0746A3CB91020FFF765FE7062446084600460C460D6F82480D8F808404CB940F271213046FFF740FF044600235F
:404C8000C8F8080003604FF00008EB070AD5394622463046FFF73BFF814639463046FFF78EFE4F466D100CD0206808B10446ECE7224621463046FFF72AFF2060C0F800807E
:404CC000F4E73846BDE8F883705600002DE9F0470C460746914626694FEA621A56444968A368751CAB4202DA01315B00FAE73846FFF730FE002380461A4600F114015345C7
:404D000003DA41F823200133F9E72AEAEA73206901EB830319F01F0904F1140101EB800E14D0C9F1200C002208689A4600FA09F0024343F8042B51F8042B8E4522FA0CF2A2
:404D4000F2D8CAF8042042B1B51C06E0043B51F8042B8E4543F8042FF9D8013D3846C8F810502146FFF72BFE4046BDE8F08703690A6910B59B1A11D192001430143183181B
:404D80000A4453F8044D52F8041D8C4202D007D3012010BD9842F4D3002010BD184610BD4FF0FF3010BD2DE9F8430C460746114620461546FFF7DBFF061E08D13146384678
:404DC000FFF7C8FD012303614661BDE8F883BCBF23462C4638466168BABF1D4601260026FFF7B8FD2B69C660266905F1140904F1140101EB860709EB830800F114054FF091
:404E0000000C51F8042B59F8044B93B29C44A3B2240CC3EB0C03C4EB124202EB23429BB24FEA224CC84543EA02428E4645F8042BE7D8BE450ED25EF8041B8AB262441314C0
:404E400003EB114392B242EA03424FEA234C45F8042BEEE755F8043D0BB9013EFAE70661BDE8F8832DE9F3411C4601219046089E099DFFF76FFDC4F31302C4F30A540746D9
:404E80000CB142F480120192B8F1000F19D002A840F8088DFFF705FE009B48B1019AC0F1200102FA01F10B43C2407B61019200E07B61019B002B14BF02210121BB613961CA
:404EC00007E001A8FFF7EDFD019B01217B613961203034B1A4F2334404443460C0F1350009E0A0F2324007EB810330601869FFF7B8FDC0EB41102860384602B0BDE8F08121
:404F000038B502FB01F4214600F054F8054618B122460021FEF739FA284638BD38B50546002944D051F8043C0C1F002BB8BFE41800F017FA1E4A1368114613B963601460C2
:404F400030E0A3420DD92268A018834201BF18685B681218226063600C6023E0A24203D813465A68002AF9D118681918A1420BD12168014458188242196013D1106852689F
:404F8000014419605A600DE002D90C232B6009E021686018824201BF106852680918216062605C602846BDE8384000F0DBB938BDBC82FF1F70B5CD1C25F0030508350C2D36
:404FC00038BF0C25002D064601DBA94202D90C23336046E000F0C5F9234B1C681A462146A1B10B685B1B0ED40B2B03D90B60CC18CD501EE08C420BBF63684B68136063603A
:4050000018BF0C4615E00C464968E9E7174C23681BB9304600F07AF920602946304600F075F9431C18D0C41C24F00304A0420DD12560304600F096F904F10B00231D20F055
:405040000700C31A0ED05A42E25070BD211A304600F05CF90130EBD10C233360304600F081F9002070BD00BFBC82FF1FB882FF1F2DE9F0478E6882469E420C46914698463C
:405080003ED88A8912F4906F3AD02568096902236F1A656905EB450595FBF3F57B1C43449D4238BF1D4653050FD52946FFF782FF064698B13A462169FEF75CF9A38923F4E6
:4050C000906343F08003A38113E02A4600F04BF9064670B921695046FFF720FF0C23CAF80030A3894FF0FF3043F04003A381BDE8F08726613E44266046466561ED1BA56043
:40510000464528BF464649463246206800F00EF9A36800209B1BA36023681E442660BDE8F08700002DE9F04F9DB003938B8980461C060D4616460DD50B695BB94021FFF7D4
:4051400039FF2860286118B90C23C8F80030CDE040236B610023099320238DF82930DFF89CB130238DF82A3037463C4614F8013B1BB9B7EB060910D003E0252BF9D02746CF
:40518000F3E74B46324629464046FFF771FF013000F0A780099B4B4409933B78002B00F0A08000234FF0FF3204930793059206938DF853301A930126052221784E48FFF790
:4051C000BBFB671C049B38B14B4A3C46801A06FA00F018430490EFE7D90644BF20228DF853201A0744BF2B228DF8532022782A2A03D0079A00210A200BE0039A111D126826
:405200000391002A10DA524243F00200079204900BE027463B780134303B092B03D800FB02320121F5E701B107923B782E2B1ED17B782A2B0AD1039B02371A1D1B6803925A
:40524000002BB8BF4FF0FF33059310E0002319460593781C0A2407463A780130303A092A03D804FB01210123F5E703B10591032239782248FFF760FB40B14023CBEB000009
:4052800003FA00F0049B013718430490397806221B487E1C8DF82810FFF74EFB88B1194B33B9039B073323F007030833039314E003AB00932A46144B04A94046FEF7FEF8F8
:4052C00007E003AB00932A460F4B04A94046FEF7AFFBB0F1FF3F824603D0099B5344099342E7AB895B0601D4099801E04FF0FF301DB0BDE8F08F00BFA8560000AE56000064
:40530000B2560000BD3400007150000038B5064C0023054608462360FBF752FD431C02D1236803B12B6038BD7483FF1F884210B501EB020301D8421E0BE09842FBD281180A
:40534000D21AD34204D013F8014D01F8014DF8E710BD994204D011F8014B02F8014FF8E710BD70477047F8B5074615460E4621B91146BDE8F840FFF71DBE1AB9FFF7CEFD88
:405380002846F8BD00F015F885420ED929463846FFF710FE044650B131462A46FDF7EAFF31463846FFF7BAFD01E03046F8BD2046F8BD51F8040C0028BEBF091851F8043CAE
:4053C000C0180438704700004FEA410C7FEA6C5C02D150EA013C0AD14FEA430C7FEA6C5C02D152EA033C02D14FF0000070474FF001007047000000005541525420636F6DA4
:405400006D656E63696E672E2E2E200A00000000556C747261736F6E69632043616C6962726174696F6E2074657374733A200A0025642009000000000A0A00004E00000060
:40544000520000004700000042000000494E56414C494420434F4C4F55522053454E53494E4720414C474F524954484D200A0000256620090000000025643A2025646D6D34
:405480000A00000073656E736F72206973206661756C747900000000434845434B204245494E4720444F4E45000000006C656674206D6F746F723A202564200A0000000065
:4054C0007269676874206D6F746F723A202564200A0000002569200900000000646966666572656E6365203D2025642C200A000025642C202564200A0000000020256420C1
:405500002C202564200900006469663A2025642C200A0000004F0040180040510040300000000140800800090140000700140140000800400140000A004C01400002005078
:405540000140200060520040A40F0048060080080140AC0F004880004300494E4600696E66004E414E006E616E0030003031323334353637383941424344454600303132AF
:405580003334353637383961626364656600496E66696E697479004E614E00504F534958002E000000000000000000000000F03F00000000000024400000000000005940E8
:4055C0000000000000408F40000000000088C34000000000006AF8400000000080842E4100000000D01263410000000084D797410000000065CDCD41000000205FA00242A0
:40560000000000E876483742000000A2941A6D42000040E59C30A2420000901EC4BCD64200003426F56B0C430080E03779C3414300A0D8855734764300C84E676DC1AB43F7
:40564000003D9160E458E143408CB5781DAF154450EFE2D6E41A4B4492D54D06CFF08044F64AE1C7022DB544B49DD9794378EA4405000000190000007D0000000000000086
:405680000080E03779C34143176E05B5B5B89346F5F93FE9034F384D321D30F94877825A3CBF737FDD4F1575232D302B2000686C4C0065666745464700000000F8B500BF10
:4056C000F8BC08BC9E4670474D0000003D0E0000F8B500BFF8BC08BC9E46704729000000F0560000C880FF1FE8000000C801000000000000010000000100000001000000F7
:405700005A0000000100000001000000D002000094020000580200001C020000E00100007883FF1F0000E02EC05D00001800000000366E010100000000000000000000004A
:40574000000000000000000000000000000000000000000000000000585500000000000000000000000000000000000000000000000000000000000000000000000000007C
:405780000000000000000000000000000000000000000000000000001081FF1FA1550000AD560000AD560000AD560000AD560000AD560000AD560000AD560000AD5600002C
:4057C000AD560000FFFFFFFFFFFFFFFFFFFFFFFFFFFF00000000000000000000000000000000000000000000000000000000000000000000000000000000000000000000B4
:405800000000000000000000000000000000000000000000000000000000000000000000000000000000000000000000000000000000000000000000000000000000000068
:405840000000000000000000000000000000000000000000000000000000000000000000000000000000000000000000000000000000000000000000000000000000000028
:4058800000000000000000000000000000000000000000000000000000000000000000000000000000000000000000000000000000000000000000000000000000000000E8
:4058C00000000000000000000000000000000000000000000000000000000000000000000000000000000000000000000000000000000000000000000000000000000000A8
:020000040003F7
:0200000480007A
:40000000044F004008520040066400400465004053000140310101401D0301404204014049050140700601404B0701400F080140580901405D0A01404E0B0140470C0140A8
:40004000520D0140660E0140380F0140581401404D1501405D1601405517014047180140541901404E1A0140551B014003400140074101400D42014014430140044401408C
:400080000D4501400D460140084701401248014015490140154C01400D4D01400A5001400151014001200A1B0D20161B08300950101011341810191078207902850F873893
:4000C000880F8A728C6F8F0F840F850D876F890D03600430051E0604090E0A3C0C1C0D40103012081420150A16041714180119141A021B0A2001211822022306240225061C
:4001000026012718282C2A102B012C012E02303C3120331E3403350137403A203F40580459045C115F018001820284018606871089028B048C108D068E2891079402960180
:400140009701982099059A109B029C109E20A506A701A810A903AA20AC01AE02AF08B004B203B308B430B507B608B710BA28D804D904DC11DF0101100221050107120A50ED
:400180000B040E1910021104128814011608172019021A441D011E191F28210422582344271629122B202C052D082F0132203308361137043820390A3B403E883F205D04BF
:4001C0005E048110828083048D40C0B7C2EEC4CFCA77CCE6CE7FE0018B108F2490209140928493409502970299029C049D189F20A080A208A328A631A710A810AA11AC0200
:40020000AE84B110B208B328B480B502E410EA0CEC04000701010407091C0A070E040F40120813401401152C16021710180119301A021B081C401F012130221023042520B8
:400240002620270428042B3C2E402F023020310232403301340F353C361037403E043F44580459045C115F01870288048D02900497019A04A401AA02AB02B002B204B3016E
:40028000B401B702BE14BF40D40FD804D904DB04DC11DD10DF01000801290202052009090A060C080F641089114816081704180219201A501C101F1121A0222123102640E5
:4002C0002720280129022B282D2030803120320833013504382239803F445C105E805F0A8180840485018B10902091409284934095029610971299069B049C049D189F2086
:40030000A080A208A328A631A710A904AA10C04FC25FC46FCA2FCC4FCE5DD6F0E042E220E421E801ECC0EE0104CC05940621076008BB09FD0A440B0211CF1330140815733C
:4003400016F118801A1F1B0F253027C92877299E2B602CCC2E1231FF32F0360F39203F114041410649FF4AFF4BFF4DA04F0150185280580459045A045B045C015D415F01E2
:400380006040628064406540668068406A806C406D206E8080408280848A8654870188148A0A8C2090409281941E98069A189B01A220A440A680A80EAC18AE06B001B21EC9
:4003C000B4C0B620B701BA20BE40C041C106C523C6C0C74EC83BC9FFCAFFCBFFCDAFCE07CF01D018D418D804D904DA04DB04DC41DD31DF01E040E280E440E540E680E840AB
:40040000EA80EC40ED20EE8001420329042005040A540E040F201108120A130214061820190A1A101B701D0C1E221F0821402302250127042F28321034063520360B3708ED
:4004400038083E14420243024642488049204B084D2051015214580163097740834192C49582970499209C049D189E089F09A104A509A613A710A904AC04AF02B120C06FBB
:40048000C26EC4CFCA60CCE4CE62D099D224D601D80CE080E201E608E860EA04EC05020107010E012801330136013E4054035604580459045B045C105D205F05004001205A
:4004C0000480074009200A9110C01120121213081710184019181A011F40210822A12608280229183144330139103A043E0841204280430449144A02520459405A405E808E
:400500005F156502682F69406A206F017F808108822085028B048D108E808F10908891BA92509315940496249748980C9A419B5A9C809D019F80A080A140A3A0A42AA504F6
:40054000A608A708A902AA08B220B350B401C093C20FC44FCA0ECC0BCE46D007D20CD6F0D880DE80E080E401E860EC8100400301060207040A010B100C200F6011151201C1
:40058000130A140C15531630170C192F1A011B101C041D60201023082404256026C028082B022C142EA8316032FF371F3E043F4040424101420349FF4AFF4BFF4F0150182C
:4005C00056025710580459045A045B045C205D325F016040624064406540668068806A806C806E8081019101AF02B302B501B920C052C104C206C5ECC620C80BC9FFCAFF9B
:40060000CBFFCD83CE03CF01D018D904DA04DC10DD02DF01E040E240E440E540E680E880EA80EC80EE80002402810480058009420A24102612401908200121032241230275
:400640002714290A2B042D80302A32403380340238023B683F024011410242084320460847024E054F05541057205B8069A8708472107308830489408C088E809090911073
:400680009248931096A0978098069A419B409C809D019E209F06A301A422A546A680A708AB01B240B702C00FC20FC40FCA17CC8FCE8FD0AFD230D608E042E421E604ECC056
:4006C000EE01001C022004010A010B010C7C0E0210441208130214761A021C011E7021022280241A262427022C0E2E4032013302340E350136F03E043F045280540F58040B
:4007000059045B045C115D105F058010853287C189088A7F8BF78C088D578FA8927F9403962C99319A809BC29C019DFFA004A150A3A4A401A670A802AC05AE4AB080B10FA7
:40074000B27FB3F0B47FBE14D804D904DC21DF010281030A040A0580070409620A200DA510261240154016201701181019021A081DA01E201F2020C02310240825082880B7
:400780002D022F2030103240350138543F20441045045D205F496608670477407E0884048B088C019084915A9240934494189780980299A09A089B019C809F06A208A311CD
:4007C000A440A58CA610A808AA08AD20B181B201B314B560B641C0FBC2FFC4BFCAC1CC8CCE2ED6F0D860DE20E040E208E480E8E0EC80EE400406061908100A060C090D0624
:400800000E0615031C041E08201F2106240126022D053307341F39084035410149FF4AFF4BFF4DA04F015018580459045A045B045C125D015F016040628064406540668009
:4008400068406A806C406D206E80830F84038A018DCF8E018F30957396029C089DFD9F02A19EA360A408A530A7C9A994AA04AB60AC08B001B202B404B608B7FFB880BE4549
:40088000BF40C035C101C52CC640C73EC83BC9FFCAFFCBFFCDAFCE07CF01D018D40FD804D904DA04DB04DC01DD11DF01E040E280E440E540E680E840EA80EC40ED20EE80B1
:4008C000009404080602070408800F2211081302140A1508160118041C021D201E801F08210422082701284029802C402F54320835803608370839403D403E0241884202AA
:40090000458848014A024EC24F06560957105EA15F0869106A4080408B488E80C0E7C2A1C4ECCAE9CC52CE98D05AD218D6F0E24000050408050307040B8011CA133414022C
:400940001604173519131BE41D131E051F6C23C824052A04300331F034083604370F38023B823E504053410145EE460B470C481749FF4AFF4BFF4EF04F44500C540158046D
:4009800059045A045B045C335D335F0166C06A406B02870188048C028F01920293029A0DAA01AF02B001B102B208B404B501B602BE40BF11C006C504C9FFCA07CBFFCC40F3
:4009C000CD20CEF0CF05D008D405D804D904DA04DB04DC04DD43DF01E040E1A8E240E320000201080410070109080A020E400F0810201208160819421A041C101D101E4062
:400A00001F80200221802201274829022E40302031883201370138283C803D083E0840014108480149094C104F10508452085508582059415A045C405F09602062086F01D5
:400A4000801083808401890A8A018B108CE18D108F409301A040A104A304AB10AD10B204C0CCC255C446CA11CC8FCE56D00AD228D6DFE004E210E408E80216011A061C044B
:400A80001F0132043301340136023E044030410445D14602480749FF4AFF4BFF4DA04F0450185280580459045A045B045C415D445F01604062C06440654066C068C06AC0AF
:400AC0006CC06EC08202852089148A019102950C96049808A008A120A303A601A808A918AD18B008B101B202B31CB401B520B604B702B802B928BE11BF40C030C106C50220
:400B0000C6D0C701C819C9FFCAFFCBFFCDA0CF04D018D40FD804D904DA04DB04DC14DD14DF05E040E2C0E440E540E6C0E8C0EAC0ECC0EEC0001001020480060209080A04BA
:400B40000B080E060F2010E01208189019401A281D141E0222092306250428422B082C202F103209374038203B0840104504468048204B204F095004511854405680590481
:400B80005A805B126214694075027A0880808310840189408C04902092809308940895409620970498029A149B409C019D109E02A080A308A608AB04AE40AF02B608B704F9
:400BC000C00AC2E6C40ECA0DCC13CE06D0C2D204D60FD806DE04E202E811EA08EC800108060207040B010C0313081A011B02220127042A012B0131083403350337043F503E
:400C00005280580459045B045C425D105F01801581FF820A8413850C860C89048A608C408D1C8E208FE392609582961099F39B0C9D1F9E019FE0A108A204A40FA5C3A6101C
:400C4000A941AA02AE08AFE3B040B110B21FB3C0B420B50FB72CB822BBA0BE11BF01D405D804D904DB04DC32DD40DF01000A0110030104040702080809400A400E041024CD
:400C800012411502160818801B181C042120225023A026402744285029602D202E082F20310832503410362138483A103B013C103E043F0249404A02580159085B4066806C
:400CC00067017501805087608B018E49904891FA9240940496849740984C9A519B039C829D219E809F84A025A140A320A524A642A758AA08AB40AF40B201B680C0AFC24DA8
:400D0000C45FCA6FCCAECEEFD60BE09DE805EA40EC80EE0102040413053F060C0820093F0AC00D010E08121F15241610171218A019101A401B281E012202240F261028C0B4
:400D4000290A2A202B142C152E0A3080310132203306341F35383640388A3B803E455283580459045B045C325D205F01811083AC86088810890C8B718F2090019204930360
:400D80009418951499109B409C18A001A206A5DCA722A909ABD0B002B218B401B5E0B604B71FB808BB20BE04D804D904DC39DF0100080110024106080720081809400B4040
:400DC0000EA00F02102011411208170118201A041B421C201E801F50201021082222230125102610270229202E082F04310832203402371A39A83C803D203F025A025B0178
:400E00005C805E406A6073407D087E10831084108601870188508A088B248D308F0891F99430960497E198089A419B019C829D20A024A140A208A50CA622A742AB02AC05A4
:400E4000AD01B108B310C06FC2BFC41FCA64CCE6CEBEE0A0E460E690E88430403410CC30032005010F018F019C50C030C28001080780870188108B808E049C509E40A32032
:400E8000B240B501C030E0401B021F0861026604831084408B809CC09E409F01A604A708AB28B080B508C630D8C0E220E610ECA070047C01DC01DE0103400A010E0852207F
:400EC00053026320650186019409C008C203D405D8034508570882048308850894099D01A204A620A712AB40D001D40283108E2094019D01A620A712A804E0080340270121
:400F00005B1094109B109C809E409F01A604A780A902AA04B302B410C010C820D480EA8003800410064008800E085808660880088E0894109C809E40A604A780AB40C0B013
:400F4000C2C0D640D880E620EC80030859015C01620164108001810187029A20A004A70AA801A901AB08B004B220C002D603D803E804EC011220722074048E209A20A004B8
:400F8000AA01B010C408DC01DE04E208E804001E08020A1A0C0E0E06101E11011A1A1C1E1D01000F8090000040000000000000000000000201088000390044001900620835
:400FC00018000001670018000000010810000000080000027F000001000426001F04400138088002082002000000005525040600030C000E11FFFFFF62A0F0410C0000004E
:401000000000000004040404030300010000000000004002001030100010101200000000000000000000000000000000800002810100000000000000800048B4B400B000F1
:40104000000000000122220022000000E00004EB0B00E01010000000380041B880003804040000008A71710030000000250018010000000000000000000000000000000064
:401080000000000000000000000000000000000000000000000000000000000000000000000000000000000000000000000000000000000000000000000000000000000030
:4010C00000000000000000000000000000000000000000000000000000000000000000000000000000000000000000000000000000000000000000000000000000000000F0
:4011000000000000000000000000000000000000000000000000000000000000000000000000000000000000000000000000000000000000000000000000000000000000AF
:40114000000000000000000000000000000000000000000000000000000000000000000000000000000000000000000000000000000000000000000000000000000000006F
:0200000490006A
:0400000000004005B7
:0200000490105A
:04000000BC90ACAF55
:0200000490303A
:02000000A574E5
:0200000490402A
:4000000000000000000000000000000000000000000000000000000000000000000000000000000000000000000000000000000000000000000000000000000000000000C0
:400040000000000000000000000000000000000000000000000000000000000000000000000000000000000000000000000000000000000000000000000000000000000080
:400080000000000000000000000000000000000000000000000000000000000000000000000000000000000000000000000000000000000000000000000000000000000040
:4000C0000000000000000000000000000000000000000000000000000000000000000000000000000000000000000000000000000000000000000000000000000000000000
:0200000490501A
:0C00000000012E16106900012E3CB5DD39
:00000001FF