:400000000080002011000000F11C0000F11C000008B5044B1A6803F53F5302331A6001F087FE00BFFA46004010B5054C237833B9044B13B10448AFF300800123237010BDD7
:40004000A881FF1F000000003C630000084B10B51BB108490848AFF300800848036803B910BD074B002BFBD0BDE81040184700BF00000000AC81FF1F3C630000C880FF1F04
:400080000000000008B500F0B3FE08BD08B5642001F00EFF0122034B1A600022024B1A6008BD00BFC481FF1FCC80FF1FF0B583B062B601F0EDFE01F075FF794801F08CFF4B
:4000C00002F0BAFA02F09CFC002002F0ABFC754C207902F063FC0025A560284602F0C0FE012002F0B7FE4FF4FA7001F0E1FE022002F0B0FE4FF4FA7001F0DAFE032002F092
:40010000A9FE4FF4FA7001F0D3FE284602F0A2FE4FF4FA7001F0CCFE00F0ACFC02F068FE4FF47A7002F01CFE4FF4FA7001F0C0FE02F072FE02F0BAFD4FF48C6002F06EFD25
:400140004FF4FA7001F0B4FE02F0BEFD02F0F2FF03F02CF803F0CAF803F004F902F012FF02F058FF504F03263E6002F0D9FC02F07FFC4E4802F0C2FE4D4802F097FE256014
:400180004C4801F029FF00F0A1FE00F09FFE00F09DFE494A06235360E5600123936025826382A582E3823B60A3610223E361266201F05CFB404B5B68012B4CD101F020F98F
:4001C00001230193AA23009304231A4600216FF0630000F0C9FF00F04DFC00240AE000F07DFC304B03EB840358624FF4FA7001F05FFE0134042CF2DD304801F0EDFE0024C4
:400200000CE0284B03EB84032D4D5A6A2D49284604F0D8FC284601F0DFFE0134042CF0DD012002F01DFE01221E4B9A6000231A460CE01C4901EB8301486A30B1032A04D006
:40024000184901EB8201886101320133042BF0DD0222194B5A60184B5B68022B40F0EF800122AA216FF0220001F082FA0122AA216FF0630001F0B0F90122AA21232001F0E6
:4002800077FA01210191AA23009300230422822000F06AFF01F0B4F8022000F0CDFD16E040630000C481FF1F0483FF1F850000008D00000058630000CC80FF1F7863000049
:4002C000D882FF1F8C630000022000F0B5FDBE4B9C68B4F58C7FF7DCC4F503740134BB4D2246BB49284604F06DFC284601F074FE01260196AA2500950323042200212046D5
:4003000000F032FF4FF47A71022000F055FD324629466FF02C0001F05FF9032000F08CFD3C2001F0C5FD022000F086FD3C2001F0BFFD042000F080FD3C2001F0B9FD002052
:4003400000F07AFD3C2001F0B3FD042000F074FD3C2001F0ADFD9C4A1368106903446433B3F5966FF7DB7C2811DC11469368C3F59662CD68521BA2F5EB7296498A6300224F
:40038000CA63DC332B440B6440F256434B64B0F5967F11DA8C488368C3F59662D21AA2F5EB728C498A630022CA63DC33C26813440B6440F2B6334B6401250195AA260096B9
:4003C000032305220021204600F0CEFE4FF47A71022000F0F1FC4FF47A7001F069FD002000F02AFD3C2001F063FD284600F024FD3C2001F05DFD022000F01EFD3C2001F038
:4004000057FD714B9A6802F1DC01DA680A4471490A641B6896334B644FF47A7001F048FD3146284600F046FE01950096002304222946962000F098FE00F0E2FFFEE7032BA7
:4004400040F0B680634BB3F910204AB3B3F9143033B301240194AA250095002305221946E62000F081FE00F0CBFF2946002000F021FE00F0C5FF0194009500230422214697
:40048000822000F071FE2946032000F013FE01940095002304222146322000F065FE87E04C4BB3F9123053B34A49B1F9161031B301240194AA25009504231A460021F0201A
:4004C00000F052FE00F09CFF2946002000F0F2FD00F096FF01940095002304222146822000F042FE2946204600F0E4FD01940095002304222146322000F036FE58E05AB357
:40050000344AB2F916203AB301240194AA25009504231A4600214FF4877000F025FE00F06FFF2946002000F0C5FD00F069FF01940095002304222146822000F015FE294677
:40054000204600F0B7FD01940095002304222146322000F009FE2BE053B31E4BB3F9143033B301240194AA25009504231A4600214FF4877000F0F8FD00F042FF2946002059
:4005800000F098FD00F03CFF01940095002304222146822000F0E8FD2946032000F08AFD01940095002304222146322000F0DCFD094B5B68042B57D10123074A9360054A17
:4005C00093619364002539E04C82FF1FD882FF1F94630000C481FF1FCC80FF1F01224621322000F0F9FF012000F0E0FC00F076FA0446032000F0DAFC0122AA216FF03100E8
:4006000000F0EAFFBB4B9B685A1EBB4B03EB82039B699C4211D00122AA212D2001F0A8F80122AA216FF01D0000F0D6FF0122AA216FF01D0001F09CF800E00125002DCDD06A
:40064000002000F0B3FC022000F0F2FC00F076FC032000F0ABFC0122AA216FF03B0000F0BBFF0022A44B9A64A24B5B68052B40F0E780A14BB3F910206AB3B3F9143053B30C
:4006800001240194AA25009504231A460021642000F06AFD2946002000F00CFD00F0B0FE0194009504231A460021F02000F05CFD00F0A6FE2946204600F0FCFC00F0A0FE69
:4006C00001940095002304222146822000F04CFD00F096FEB1E0884BB3F91230002B53D08549B1F9161000294ED001240194AA25009504231A460021642000F035FD294661
:40070000002000F0D7FC00F07BFE0194009504231A460021F02000F027FD00F071FE2946204600F0C7FC00F06BFE01940095002304222146822000F017FD00F061FE0194D3
:40074000009504231A460021F02000F00DFD00F057FE2946002000F0ADFC00F051FE01940095002304222146822000F0FDFC2946204600F09FFC01940095002304222146E7
:40078000322000F0F1FC58E05AB35B4AB2F916203AB301240194AA25009504231A4600214FF4877000F0E0FC00F02AFE2946002000F080FC00F024FE0194009500230422EE
:4007C0002146822000F0D0FC2946204600F072FC01940095002304222146322000F0C4FC2BE053B3444BB3F9143033B301240194AA25009504231A4600214FF4877000F0BF
:40080000B3FC00F0FDFD2946002000F053FC00F0F7FD01940095002304222146822000F0A3FC2946032000F045FC01940095002304222146322000F097FC06222D4B5A6096
:400840002C4B5B68062B40F0EB80012002F008FB294C0223A36000F063FB00F00BF94FF4FA6001F025FB00F069FB00F037F9214B9D68E36804EB8304A3699D4223D1012425
:400880000194AA26009600230522194640F2262000F06AFC3146032000F00CFC01940096002304222146FA2000F05EFC00F0A8FD01940096002304222146FA2000F054FC2B
:4008C00000F09EFD24E00C4BDB699D4203D00A4B1B6A9D4212D101230193AA23009300230522194640F20D2000F03EFC00F088FD0EE000BFCC80FF1FC481FF1F012301938F
:40090000AA230093002305221946FA2000F02CFCAA21022000F0CEFB544CE068013000F045FB01210191AA230093002304228C2000F01AFCE3684BB901210191AA2300931B
:40094000002304228C2000F00FFC08E000230193AA220092042201215A2000F005FC434BD86803EB80039B699D4202D100F01EFB02E0002000F01AFB00F0D2FA3B4BD86850
:40098000013000F013FB3A4B9B68022B03DD0722374B5A6044E0364E0133B360334AD3680133D36001240194AA250095002305221946D22000F0D8FB2946032000F07AFB8D
:4009C0000194009500230522194640F2262000F0CBFB00F015FD0194009500230522194640F2262000F0C0FB00F00AFD2946204600F060FB019400950023052219467D2077
:400A000000F0B2FB00F0FCFC01940095002304222146AF2000F0A8FB00F0F2FC06237360134B5B68072B7FF4C3AB0122AA215A2000F09EFE00F0E4FC01240194AA25009505
:400A40002346052200214FF4027000F08DFB224629465A2000F08CFE0194009504231A460021282000F080FBFEE700BFC481FF1FCC80FF1F30B585B00024009401940294DA
:400A800003940FE0E0B202F0E5F90A2001F010FA01F044FE04AB03EB840503F019FB45F8100C0134032CEDDD002002F0D3F9074B009A1A60064B019A1A60064B029A1A6031
:400AC000054B039A1A6005B030BD00BF3483FF1F3883FF1F3083FF1F4083FF1FF0B585B0002400940194029403940FE0E0B202F0B1F90A2001F0DCF901F010FE04AB03EBD1
:400B0000840503F0E5FA45F8100C0134032CEDDD002002F09FF9009F784B1F60019C784B1C60029D774B1D60039E774B1E60774B1B68032B00F2B780DFE803F0024E7795FB
:400B40007349744B186803F00FFA0146204603F061FBA8B16E49704B186803F005FA0146284603F057FB58B169496C4B186803F0FBF90146304603F04DFB002840F09C8006
:400B80002946204603F064FB30B13146204603F05FFB002840F092803146284603F058FB30B12946204603F035FB002840F088803146284603F02EFB002800F083803146A2
:400BC000204603F027FB00287ED02946204603F021FB00287AD18EE05149204603F01AFB50B14F49284603F015FB28B14C49304603F010FB00286BD12946204603F028FBFC
:400C000028B13146204603F023FB002862D13146284603F01DFB00285ED02946204603F0F9FA00285AD1032065E03E49204603F00FFB50B13B49284603F00AFB28B13A49A5
:400C4000304603F0E7FA00284AD13849204603F0FFFA002846D13649284603F0F9FA002842D0022047E03349204603F0F1FA70B13049284603F0ECFA48B12E49304603F005
:400C8000C9FA20B12C49384603F0E2FA70BB2749204603F0DDFA58BB2449284603F0D8FA40B3022027E0254801F096F940F6B83001F0FEF800201EE000201CE001201AE0FD
:400CC000022018E0002016E0002014E0032012E0002010E001200EE003200CE002200AE0002008E0012006E0032004E0002002E0012000E0032005B0F0BD00BF1C83FF1F47
:400D00002083FF1F6C83FF1F3C83FF1FCC81FF1F0000FA443883FF1F3083FF1F4083FF1F0000FA4500007A4600803B460050C34600F0D24600A08C4600007A45C863000017
:400D400030B585B0002400940194029403940FE0E0B202F07FF80A2001F0AAF801F0DEFC04AB03EB840503F0B3F945F8100C0134032CEDDD002002F06DF8002413E004ABE4
:400D800003EB840353F8100C02F0D2FD02F01CFC074D02460B460749284603F013FF284601F01AF90134032CE9DD05B030BD00BFD882FF1FEC63000070B506460D4602F062
:400DC00055F80446002002F04BF8F0B202F042F8284601F06DF8002002F03CF84FF4967001F066F8204602F03BF870BD0000000038B501F03DFE01F053FE0D4C206001F0BA
:400E000029FE0C4B1D682068C0F5803002F07EFD05A3D3E9002302F0DFFD04EB850403F075F8606038BD00BF2BDF3312A111C63F4882FF1F7083FF1F10B50446C0B201F043
:400E4000B9FE204B1C6001F06BFE042C36D8DFE804F0030D17212B00012001F06FFE0A2001F03CF8002001F069FE10BD012001F071FE0A2001F032F8002001F06BFE10BDEE
:400E8000012001F073FE0A2001F028F8002001F06DFE10BD012001F075FE0A2001F01EF8002001F06FFE10BD012001F077FE0A2001F014F8002001F071FE10BD024801F0F4
:400EC0008BF810BD7083FF1F0064000038B50F4801F082F8002412E02046FFF7ADFF3C2000F0E6FF0A4B03EB84030A4D5A680A49284603F067FE284601F06EF80134042C09
:400F0000EADD064801F068F838BD00BF146400004882FF1FD882FF1F306400003864000008B501F0E5FE4FF48C6001F077FE4FF4FA7000F0BDFF01F0C7FE08BD08B501F0E7
:400F4000D7FE40F2E24001F069FE4FF4FA7000F0AFFF01F0B9FE08BDA0F57A73B3F5AF6F21D870B5054601F06BFF01F04FFF0446281A0D4E86FB0036C017C0EBA60606E03B
:400F80003444A0B201F0ECFE0A2000F091FFAC42F6D1A8B201F0E4FE4FF4FA7000F088FF01F03AFF70BD70476766666608B5032817D8DFE800F002070C114FF41660FFF7D2
:400FC000CBFF08BD40F2A460FFF7C6FF08BD40F2E240FFF7C1FF08BD4FF47A70FFF7BCFF08BD4FF41660FFF7B7FF08BD38B501220D4B5A600320FFF7D9FF002510E00120C7
:40100000FFF7D4FFFFF76AFD04460320FFF7CEFF064B1A68044B53F822309C4200D10125002DECD038BD00BFDC81FF1FD480FF1F38B50446002002F0B7F9002002F0BAF97E
:4010400002F0CAF8462002F01DF802F0A1F9462002F0F4F8FFF764FF012001F001FF124B1C6000240EE0FFF739FD04460A2000F01FFF0E4D22460E49284603F0A3FD2846F2
:4010800000F0AAFF002CEED0002001F04DFF002001F092FF02F08AF802F064F901226421252000F099FA38BDCC81FF1FD882FF1F3C64000010B504460B4B1B68C31A5A20C4
:4010C00000FB03F0B0F5877F02D013F5877F04D1064B83FB0023C3EBE070012200F048FB014B1C6010BD00BF0483FF1F5655555508B5194B1B68012B27D070B90420FFF704
:401100009BFE322000F0D4FE144B1B694A2B1EDC134800F061FF012008BD012814D10020FFF78AFE322000F0C3FE0120FFF784FE322000F0BDFE094B1B684A2B09DC084859
:4011400000F04AFF012008BD08BD002008BD002008BD002008BD00BF0C82FF1F4C82FF1F44640000000000002DE9F04F85B08146039190461C460E9E012905D1002002F002
:4011800013F9002002F016F9039B2BB9012002F00BF9012002F00EF940F21452904B43F8242011E02046FFF747FE322000F080FE8B4B53F824508B4F2A468B49384603F0E7
:4011C00001FD384600F008FF854B53F82430B3F5966FE7DC02F000F8F7B2384601F052FF02F0D6F8384602F029F8B8F1050F68D17E4800F0F1FE37464FF0000A7C4B02933C
:40120000C34653E001F088FE804601F0CDFE804507DDBE4202D1013E013702E033463E461F46804507DABE4202D1013F013602E033463E461F46F0B201F024FFF8B201F0BD
:40124000FDFF2046FFF7F8FD322000F031FE644B53F824502A466449624803F0B3FC614800F0BAFE88EAE870A0EBE87002F04EFBCDE90001029802F049FB57A3D3E9002340
:4012800002F0F8F900225B4B02F0F2F902460B46DDE9000102F030FE40B10F9B012B05D10398FFF725FF8246CDF8088089EAE973A3EBE9739D420ADABAF1000FA2D0D846F9
:4012C00006E037464FF0000A494B029300E0D846B8F1040F5FD1484800F07EFE52E001F01BFE804601F060FE804507DDBE4202D1013E013702E033463E461F46804507DA05
:40130000BE4202D1013F013602E033463E461F46F0B201F0B7FEF8B201F090FF2046FFF78BFD322000F0C4FD2D4B53F82450DFF8B4B02A462C49584603F044FC584600F010
:401340004BFE88EAE870A0EBE87002F0DFFACDE90001029802F0DAFA1FA3D3E9002302F089F90022234B02F083F902460B46DDE9000102F0C1FD28B10398FFF7B9FE824689
:40138000CDF8088089EAE973A3EBE9739D4202DDBAF1000FA3D02046FFF74EFD322000F087FD104D0E4B53F824201449284603F009FC284600F010FE002001F0B5FD002078
:4013C00001F0FAFD01F0F2FE01F0CCFF05B0BDE8F08F00BFAFF300800000000000CC78404C82FF1FD882FF1F306400006064000074FEFFFF00005940786400008C64000099
:4014000070B54FF4967429E00020FFF715FD322000F04EFD684E694C694D32682146284603F0D0FB284600F0D7FD0120FFF704FD322000F03DFD72682146284603F0C2FB09
:40144000284600F0C9FD34687368E41A22465D49284603F0B7FB284600F0BEFD84EAE473A3EBE473B3F5487FCEDC002C3CDD002001F09AFF012001F09DFF29E001F0ACFE95
:40148000192001F0FFFD01F083FF192001F0D6FE0020FFF7D1FC322000F00AFD0120FFF7CBFC322000F004FD434B1A685B68D41A434D4549284603F085FB284600F08CFDA1
:4014C00022464049284603F07DFB284600F084FD84EAE473A3EBE473032B41DD002C3FDDB3F5487FCADB3BE0012001F05DFF002001F060FF29E001F06FFE192001F0C2FDA8
:4015000001F046FF192001F099FE0020FFF794FC322000F0CDFC0120FFF78EFC322000F0C7FC254B1A685B68D41A254D2749284603F048FB284600F04FFD22462449284647
:4015400003F040FB284600F047FD84EAE473A3EBE473032B04DD002C02DDB3F5487FCADB0020FFF769FC322000F0A2FC0120FFF763FC322000F09CFC0F4B1A685B68D41A8B
:401580000F4D1149284603F01DFB284600F024FD22460C49284603F015FB284600F01CFD84EAE473A3EBE4730A2B3FF75EAF01F0FDFD01F0D7FE70BD4C82FF1F3064000058
:4015C000D882FF1F98640000AC640000B8640000C4640000000000002DE9F04F85B004460D469146C82900DDAA25002C08DD002001F0DAFE002001F0DDFE0123039307E001
:40160000012001F0D1FE012001F0D4FE0023039301F0E2FDEEB2304601F034FD01F0B8FE304601F00BFE204602F070F946A3D3E9002302F0D1F901F0C7FF02F067FC8346F3
:4016400001F06AFC074601F0AFFC82462E464FF00008414B029343E001F05EFC0446074601F0A2FC8246844207DDB54202D1013D013602E02B4635461E46844207DAB54271
:4016800002D1013E013502E02B4635461E46E8B201F0F8FCF0B201F0D1FD84EAE470A0EBE47002F033F9CDE90001029802F02EF927A3D3E9002301F0DDFF0022274B01F0AC
:4016C000D7FF02460B46DDE9000102F015FC38B1B9F1010F04D10398FFF70AFD8046029487EAE772A2EBE7728BEAEB73A3EBEB739A4208DA8AEAEA72A2EBEA72934202DDAB
:40170000B8F1000FA8D0164C3A461649204603F059FA204600F060FC52461349204603F051FA204600F058FC002001F0FDFB002001F042FC01F03AFD01F014FE05B0BDE8BB
:40174000F08F00BFAFF30080295C8FC2F52815400000000000CC784074FEFFFF00005940D882FF1FD0640000E4640000000000002DE9F04105460C46C82900DDAA24002D93
:4017800006DD002001F010FE012001F013FE05E0012001F009FE002001F00CFE01F01CFDE6B2304601F06EFC01F0F2FD304601F045FD6B2000FB05F002F0A8F826A3D3E95D
:4017C000002302F009F926A3D3E9002302F004F90022254B02F02AFA01F0F6FE02F096FB804601F099FB01F0DFFB0746254621E001F0DAFB0646074601F08EFB73429842F4
:4018000007DDAC4202D1013C013502E023462C461D464042864207DDAC4202D1013D013402E023462C461D46E0B201F02BFCE8B201F004FD17EB080FDAD1002001F074FB74
:40184000002001F0B9FB01F0B1FC01F08BFDBDE8F08100BFAFF300801F85EB51B81E0940295C8FC2F52815400080664030B583B03F4B1B6803B30023E3B9012001F0F0FA92
:401880000020FFF793FB3B4800F0A6FB00240EE0394D22463949284603F094F9284600F09BFBFFF74DFA364800F096FB0134312CEEDD0123002BDFD12D4B5B68ABB10023BA
:4018C0008BB9304800F088FBFFF790FB002407E02046FFF76BFB4FF47A7000F0E9FA0134032CF5DD0123002BEAD1214B9B686BB100234BB9244800F06FFB0122AA216FF066
:40190000B300FFF735FF0123002BF2D1184BDB6863B3002141BB1D4800F05EFB002411E02046FFF789FA642000F0C2FA124D184B53F824201149284603F044F9284600F066
:401940004BFB0134042CEBDD0D4800F045FB01240194AA2300930023042221469620FFF703FCFFF74DFD21460029D3D103B030BD8482FF1FF8640000D882FF1F306400005A
:40198000586500002065000030650000446500004C82FF1FFEE700BFF0B40022174611E050F82760F3B226F0FF0608E001EB420511F812406D78A5550132013BDBB2002BF8
:4019C000F4D10137282FEBD9F0BC704710B4194B1B78DBB203F00701174A11701B09013213700222154B1A700421A3F5A4531B3B197010231248037010300170062011499B
:401A0000087020211048017005300370032464300470473001708021013001702C3003700A4B197054331A704422A3F2E2231A7010BC7047CF0100496E580040425800405E
:401A40001D510040205A0040235A0040045B004008B50A46002102F03CFC08BD08B502F02DFC08BD38B50024384B1C80502202331A70012202331A801823354A1370172120
:401A800002321180023213703321023211800232137040F2AF410232118002321370042201F1904101F6BD312A48FFF7D7FF0222294B1A7008224FF040231A70032103F59C
:401AC00000731970254B1B78DBB225490B70254B1A8041F25122023B1A8019250CE0224B1B7803F0010343EA440404F003044FF4F07001F059FD013D0DB1032CEFD115B9B6
:401B00000320FFF747FF194B4FF480721A8007221A70002216490A704820023108701A700222033B1A7004220A331A70114A137843F01F031370013A137843F001031370B1
:401B4000013A137843F08003137038BD8040004086400040004100400043004008010049A146004022420040254200400440004006400040A243004038B572B6454A137845
:401B800043F00403137000240CE0434D630019194A0011462A44084691882858FFF758FF0134E4B2072CF0D900240BE03A48A20011194B0003441A8F596B186BFFF74EFF07
:401BC0000134E4B2012CF1D934494FF09040FFF7E3FE0A24324B1C7040F20322373B1A80304A03F530430C331A6002F1004203F580631A6002F5802203F528631A602A4AF4
:401C0000137843F0020313701032137843F002031370264D2B7843F040032B70A2F58632513A137843F010031370224620492148FFF714FF224620492048FFF70FFF0822D7
:401C40001F492048FFF70AFF22461F491F48FFF705FF22461E491F48FFF700FF08221E491E48FFF7FBFE1E4A137843F0080313701C4C61232370FFF7F5FE812323700122DD
:401C8000194B1A70FFF7A2FE0E2229461748FFF7E5FE38BDE84600405C650000A400004883580040040400C403500140A04300402C1000480051004038100048C051004025
:401CC00044100048F25100404C1000481051004058100048205100406410004832510040224300400048004004000840B043004008B502F0B7FA03680C2B00D1FEE7FEE757
:401D000008B5094B1A681044084BC31AB3F5007F02DC054B186005E002F0A4FA0C2303604FF0FF32104608BDF080FF1F8083FF1F08B5104E104D16E029686B68AC68002276
:401D400004E051F8040B43F8040B0432A242F8D1E868002203E0002143F8041B04328242F9D11035013E002EE6D102F081FAFEF79DF9FEE7010000002867000008B5104A79
:401D8000104B1A60104A136843F40073136000230AE0032B03D80D4A52F8231000E00C490C4A42F8231001332F2BF2D90A4B1A780A4B1A70074A0A4B1A60FFF7DDFE08BDA5
:401DC0000004FA050CED00E014ED00E000000000F11C00000080FF1FBC760040C080FF1F08ED00E0084A137843F0040313701032137843F00403137002F5A5521E321378E9
:401E000043F0800313707047A9430040044A137803F0FC0300F0030018431070704700BF09580040072809D8054B1A7802F08F021A701A780001C0B210431870704700BF81
:401E40000A580040032809D8054B1A7802F0F3021A701A788000C0B210431870704700BF0A58004038B50224084B1C700C2201331A70012501331D700420FFF7D3FF2846CB
:401E8000FFF7E0FF2046FFF7C1FF38BD0858004008B5054B1B7823B90122034B1A70FFF7E1FFFFF79FFF08BD9482FF1F01BE704710B5044605E0084B186801F075FBA4F58B
:401EC0000044B4F5004FF6D8034B586800FB04F001F06AFB10BD00BFF480FF1F08B5034B1B7A00FB03F001F05FFB08BDF480FF1F70B504460E46074B1D681F2802D900205B
:401F0000FFF7D4FF04F01F04103455F8240045F8246070BD08ED00E038B504460D46072902D90020FFF7C2FF1F2C02D90020FFF7BDFF04F01F0000F1604000F564406D013A
:401F4000EDB2057038BD00BF7222074B1A702022033B1A7006229E331A70472210331A7000224F331A7070478A64004010B501F023FB04460A4A137843F020031370033A40
:401F8000137843F010031370FD32137843F01003137000F033F8204601F012FB10BD00BF9A64004008B5054B1B7823B9FFF7CCFF0122024B1A70FFF7D9FF08BD9582FF1F02
:401FC000034B1B7813F0040FFAD1024B18707047646500404465004038B5074B1B782BB938BDFFF7EDFF0134A4B201E005460024285D0028F5D138BD9582FF1F054A1378C2
:4020000043F0080313701032137843F008031370704700BFA243004038B59DF81040651EEDB2032D51D8013809282ED8DFE800F0052D2D052D2D0F192D230F2B03D9254889
:40204000007840B222E02448007840B21EE00F2B03D92248007840B218E02148007840B214E00F2B03D91F48007840B20EE01E48007840B20AE00F2B03D91C48007840B204
:4020800004E01B48007840B200E0002001EB401101FB02F2D20B91B20D2B0BD8C3F10E0192B20A4191B2621E124800EB82020133937005E0631E0F4A02EB83030F229A7085
:4020C000013C0C4B23F8241038BD0020FFF7EEFE38BD00BF180100491C010049190100491D0100491A0100491E0100491B0100491F0100499882FF1FF8B5074601F05CFAAD
:4021000006460D4D2B7843F003032B700B4C237843F0030323700A4B1F700320FFF7DEFE2B7803F0FC032B70237803F0FC032370304601F045FAF8BDF8460040F946004043
:4021400092580040F8B504460022BB4B1A7401285AD13822B94B1A70042202331A70072201331A70002501331D7001331D703F2201331A7002331D7001331D7001331D7076
:4021800001260A331E70502203F527631A70272201331A702C2201331A7001331D70552203331A705A2201331A70052701331F7002331E70112201331A70192201331A70CE
:4021C000972201331A704420FFF796FF58229C4B1A7001331D7005331F7001331E7001331D700A2201331A704FF4FA42954B1A603146384600F0C6FA3146252000F046FB2E
:4022000091491D20FFF774FE022C5AD138228B4B1A70042202331A70072201331A70002501331D7001331D703F2201331A7002331D7001331D7001331D7001260A331E7044
:40224000502203F527631A70272201331A702C2201331A7001331D70552203331A705A2201331A70052701331F7002331E70112201331A70192201331A70972201331A7088
:402280004420FFF739FF58226D4B1A7001331D7005331F7001331E7001331D700A2201331A704FF4FA42674B1A603146384600F069FA3146252000F0E9FA64491D20FFF779
:4022C00017FE032C5AD138225C4B1A70042202331A70072201331A70002501331D7001331D703F2201331A7002331D7001331D7001331D7001260A331E70502203F5276328
:402300001A70272201331A702C2201331A7001331D70552203331A705A2201331A70052701331F7002331E70112201331A70192201331A70972201331A704420FFF7DCFE87
:4023400058223F4B1A7001331D7005331F7001331E7001331D700A2201331A704FF4FA42384B1A603146384600F00CFA3146252000F08CFA36491D20FFF7BAFD042C5AD17D
:4023800038222E4B1A70042202331A70072201331A70002401331C7001331C703F2201331A7002331C7001331C7001331C7001250A331D70502203F527631A702722013305
:4023C0001A702C2201331A7001331C70552203331A705A2201331A70052601331E7002331D70112201331A70192201331A70972201331A704420FFF77FFE5822104B1A70D0
:4024000001331C7005331E7001331D7001331C700A2201331A704FF4FA420A4B1A602946304600F0AFF92946252000F02FFA09491D20FFF75DFDF8BD9882FF1F004E0040B9
:40244000945800407483FF1F45270000492700004D270000512700002DE9F04182B0394E4FF0010886F80080374F00247C74102000F076F9102000F0F7F907211D20FFF779
:402480004BFD0425314B1D7001331C7007331C702F4A137843F0180313702E4B1C7003F2F5231C7001331C700A22A3F209331A7001331C7002331C705B2205331A705E2222
:4024C00001331A7004331C701422A3F68C231A70CDF8008010234FF4004249F2DA012846FFF79AFD0223009310234FF4004249F2DA012846FFF790FD0323009310234FF49F
:40250000004249F2DA012846FFF786FD009510234FF4004249F2DA012846FFF77DFD3378013B07EB83039A780B4B1A703378013B37F82320094B1A803078FFF703FE02B032
:40254000BDE8F0810481FF1F9882FF1F96580040075B0040935800400E4E00400C4E004070B501F029F806462A4B1B782A4B1A7842F001021A701A7842F010021A70103345
:402580001A7842F001021A701A7842F010021A70224D2B7843F002032B70214C237843F0020323701F4A137843F0030313700320FFF794FC2B7803F0FD032B70237803F09A
:4025C000FD032370184A137843F0060313707A22164B1A70164A137843F0010313701032137843F0010313700F3A137843F0010313701032137843F0010313704FF0005342
:402600000C4A1360A2F5C0721360304600F0D8FF70BD00BF0481FF1FAA430040F8460040F9460040915800407758004082580040A143004080E200E008B5084B9B7C4BB9BC
:40264000064BDB7C13F0FF0F01D1FFF705FF0122024B9A74FFF784FF08BD00BF9882FF1F024A137843F0010313707047004E0040024A137803F0FE0313707047004E0040B9
:40268000094B1B7C13F0FF0F03D0074B5B7CDBB203E0064B1B7803F00103012B01D00028EED01846704700BF9882FF1F014E0040154B1B7803F00303012B07D8134B188864
:4026C000023B1B889BB243EA004013E0022B0AD10E4B1888023B1B7843EA00430C4A107843EA002006E00B4B188883B2074A108843EA0040084B1B7C13F0FF0F02D000228B
:40270000054B5A74704700BF144E0040124E0040114E0040104E00409882FF1F10B5084A137843F004031370FFF79AFF0020FFF7A7FFFFF7BDFF0446FFF79AFF204610BDE6
:40274000014E0040704700BF704700BF704700BF704700BF014B188880B2704780400040034B1A7800F0F80010431870704700BF82400040024B187800F00700704700BFB8
:402780008240004070B505460E46FFF7F3FF0446FFF7E0FFA84256D02B4B1B7803F0010294B900B185B938B9284B1D80284A137803F0BF03137070BD254A137843F040032E
:4027C0001370224B1D8070BD22B3002321490B7001240F310C7004310B700C390B7803F07F030B701A4B1B7813F0080F00D08DB9194B18800721013B1970164B1B7813F0F1
:40280000010FFAD110490B7803F0FE030B700021104B19700C4B1B7813F0010F0DD00E4B1D800EB1032200E001220A4B1A70094B1B7813F0010FFAD170BD044B1D800249AE
:402840000B7813430B7070BDA243004080400040824000400140004002400040014B188880B2704700410040034B1A7800F0F80010431870704700BF02410040024B1878DE
:4028800000F00700704700BF0241004070B505460E46FFF7F3FF0446FFF7E0FFA84256D02B4B1B7803F0010294B900B185B938B9284B1D80284A137803F0BF03137070BDAF
:4028C000254A137843F040031370224B1D8070BD22B3002321490B70012413310C7004390B7008390B7803F07F030B701A4B1B7813F0080F00D08DB9194B18800721013BF8
:402900001970164B1B7813F0010FFAD110490B7803F0FE030B700021104B19700C4B1B7813F0010F0DD00E4B1D800EB1032200E001220A4B1A70094B1B7813F0010FFAD191
:4029400070BD044B1D8002490B7813430B7070BDA143004000410040024100400140004002400040054A137843F0020313701032137843F002031370704700BFA843004089
:40298000054B1A7802F0FD021A701A7800F0020010431870704700BF24580040014B1870704700BF815B0040094B1B7803F00C035B08084A127812F0040F00D0013303F18E
:4029C000924393F83031DBB2034A1370704700BF24580040255800400946004008B51022064B1A700133002018701A7842F004021A70FFF7C5FFFFF7D7FF08BD245800403A
:402A000008B5074B1B7823B9FFF7E8FF0122044B1A70FFF7A7FF7820FFF7C0FF08BD00BFB082FF1F08B5064B1A7802F0F3021A701A7800F00C0010431870FFF7B5FF08BD99
:402A400024580040024A137843F08003137070477A650040024A137803F07F03137070477A650040014B1870704700BF88640040014B1878704700BF68640040014B188057
:402A8000704700BF54680040014B188880B2704794680040014B1880704700BF14680040024B1B78024B188880B270470A6400409468004000F00300044B1A7802F0FC0219
:402AC0001A701A7810431870704700BF7A65004008B501E0FFF7D8FFFFF7CAFF10F0080FF8D108BD08B54FF6FF70FFF7C7FF4FF6FF70FFF7CFFF00F05FFD084A137843F07A
:402B00001003137000F05CFD0020FFF7D3FFFFF7DFFF0220FFF7A6FF08BD00BF9864004008B5054B1B7823B9FFF7DCFF0122024B1A70FFF787FF08BDB182FF1F044A1378CB
:402B400003F0FB03800000F00400184310707047C0510040044A137803F07F03C001C0B218431070704700BF20510040044A137803F0FE0300F0010018431070704700BF7B
:402B800030510040044A137803F0FE0300F0010018431070704700BF00510040044A137803F0BF03800100F0400018431070704730510040014B1870704700BF79640040BB
:402BC000084A137843F0010313701032137843F00103137002F64D32137843F001031370704700BFA3430040084A137803F0FE031370A2F65D32137803F0FE0313701032A0
:402C0000137803F0FE031370704700BF004F0040014B1880704700BF044F0040014B1880704700BF064F0040014B1870704700BF034F004008B51A4A137843F0020313706E
:402C40000232137803F08F0343F010031370154B1A7802F0CF021A701A7842F030021A701A7802F0F0021A701A7842F00F021A7044F61F60FFF7CCFF40F2DC50FFF7CEFF8E
:402C80000020FFF7D1FF084A137843F00103137002F65E32137843F00103137008BD00BF004F00400B4F0040A343004008B5054B1B7823B9FFF7BEFF0122024B1A70FFF7D8
:402CC0007FFF08BDB282FF1F08B5074B1B7813F0010F03D00122054B1A7002E00022034B1A70FFF781FF08BD004F0040B482FF1F08B5034B1B780BB1FFF762FF08BD00BF8B
:402D0000B482FF1F084A137843F0020313701032137843F00203137002F65932137843F001031370704700BFA3430040084A137803F0FE031370A2F66932137803F0FD03B6
:402D400013701032137803F0FD031370704700BF0C4F0040014B1880704700BF104F0040014B1880704700BF124F0040014B1870704700BF0F4F004008B51A4A137843F0C1
:402D8000020313700232137803F08F0343F010031370154B1A7802F0CF021A701A7842F030021A701A7802F0F0021A701A7842F00F021A7044F61F60FFF7CCFF40F2DC5088
:402DC000FFF7CEFF0020FFF7D1FF084A137843F00203137002F66A32137843F00103137008BD00BF0C4F0040174F0040A343004008B5054B1B7823B9FFF7BEFF0122024B2F
:402E00001A70FFF77FFF08BDB582FF1F014B188880B27047124F004008B5074B1B7813F0010F03D00122054B1A7002E00022034B1A70FFF77BFF08BD0C4F0040B882FF1F7B
:402E400008B5034B1B780BB1FFF75CFF08BD00BFB882FF1F014B1870704700BF7E640040014B1870704700BF78640040014B1878704700BF78640040014B1B685864704749
:402E800008ED00E04001C0B2014B1870704700BF01E400E00222014B1A60704700E100E00222014B1A60704780E100E010B50446FFF7F6FF2046FFF7DFFF0720FFF7E2FF05
:402EC000FFF7E8FF10BD00BF014B1B681864704708ED00E04001C0B2014B1870704700BF00E400E00122014B1A60704700E100E00122014B1A60704780E100E010B5044680
:402F0000FFF7F6FF2046FFF7DFFF0720FFF7E2FFFFF7E8FF10BD00BF08B500F06BFAA0F5004000B208BD00BF08B5002803DB80B280F4004002E0A0F5004080B200F054FA18
:402F400008BD00BF024B187800F00F00704700BF6F640040014B1870704700BF8F64004008B50F20FFF7F6FFFFF7ECFF00F024FB034A137843F01003137000F021FB08BDB2
:402F80009F64004008B500F087FA4FF4004000F02BFA044B1B7813B90122024B1A70FFF7DFFF08BDB982FF1F08B500F09DFAA0F5004000B208BD00BF08B5002803DB80B22A
:402FC00080F4004002E0A0F5004080B200F086FA08BD00BF024B187800F00F00704700BF65640040014B1870704700BF8564004008B50F20FFF7F6FFFFF7ECFF00F0DCFAF4
:40300000034A137843F01003137000F0D9FA08BD9564004008B500F0B9FA4FF4004000F05DFA044B1B7813B90122024B1A70FFF7DFFF08BDBA82FF1F024A137843F08003DC
:403040001370704776640040024A137803F07F031370704776640040014B1870704700BF06650040024B1B78024B1878704700BF1665004056650040014B1870704700BF34
:4030800046650040014B1870704700BF26650040014B1870704700BF85650040014B1878704700BF65650040014B1878704700BF76640040014B1870704700BF7664004070
:4030C000014B1878704700BF5665004008B501E0FFF7F6FFFFF7E2FF10F0100FF8D108BD08B5124A137803F0C00343F00903137002F59072137843F001031370FF20FFF707
:40310000ABFFFF20FFF7B8FF7F20FFF7BBFF0020FFF7BEFF00F050FA054A137843F01003137000F04DFAFFF7D1FF08BD766400409565004008B5054B1B7823B9FFF7D0FFC3
:403140000122024B1A70FFF777FF08BDBB82FF1F014B1878704700BF4665004010B5FFF7F7FF064CA070FFF77DFF6070044B1B78E370FFF799FF207110BD00BFBC82FF1FFB
:403180008565004010B5074CA078FFF775FF6078FFF762FFE278044B1A702079FFF78AFF10BD00BFBC82FF1F8565004008B5084B1B7813F0800F03D00122064B1A7002E0D7
:4031C0000022044B1A70FFF73FFFFFF7C7FF08BD76640040BC82FF1F08B5FFF7D3FF034B1B780BB1FFF728FF08BD00BFBC82FF1F024A137843F080031370704776650040A8
:40320000024A137803F07F031370704776650040014B1870704700BF07650040024B1B78024B1878704700BF1765004057650040014B1870704700BF47650040014B187002
:40324000704700BF27650040014B1870704700BF89650040014B1878704700BF69650040014B1878704700BF76650040014B1870704700BF76650040014B1878704700BF10
:403280005765004008B501E0FFF7F6FFFFF7E2FF10F0100FF8D108BD08B5124A137803F0C00343F0090313702132137843F001031370FF20FFF7ACFFFF20FFF7B9FF7F2025
:4032C000FFF7BCFF0020FFF7BFFF00F075F9064A137843F01003137000F072F9FFF7D2FF08BD00BF766500409965004008B5054B1B7823B9FFF7D0FF0122024B1A70FFF717
:4033000077FF08BDC182FF1F014B1878704700BF4765004010B5FFF7F7FF064CA070FFF77DFF6070044B1B78E370FFF799FF207110BD00BFC482FF1F8965004010B5074CD4
:40334000A078FFF775FF6078FFF762FFE278044B1A702079FFF78AFF10BD00BFC482FF1F8965004008B5084B1B7813F0800F03D00122064B1A7002E00022044B1A70FFF75A
:403380003FFFFFF7C7FF08BD76650040C482FF1F08B5FFF7D3FF034B1B780BB1FFF728FF08BD00BFC482FF1F014B1870704700BF75650040014B1870704700BF77650040DE
:4033C000024A137843F080031370704778650040014B1870704700BF8C640040014B1878704700BF6C640040014B1880704700BF1C680040024B1B78024B188880B2704739
:403400000E6400409C680040014B188880B270479C680040014B1880704700BF5C680040014B1880704700BF7C68004008B501E0FFF7EAFFFFF7D2FF10F0400FF8D108BD80
:4034400008B5134B1A7802F0F8021A701A7802F0FC021A70FFF7EAFF4FF40040FFF7DAFF4FF40040FFF7C0FF0020FFF7B1FFFFF7B5FF4FF40040FFF7D3FF00F09DF8054A25
:40348000137843F01003137000F09AF808BD00BF786500409C64004008B5054B1B7823B9FFF7CEFF0122024B1A70FFF789FF08BDC982FF1F024A137843F0800313707047A9
:4034C0007C640040014B1870704700BF87650040014B1878704700BF67650040014B1880704700BF0C680040024B1B78024B188880B27047066400408C680040014B18884A
:4035000080B270478C680040014B1880704700BF4C680040014B1880704700BF6C68004008B501E0FFF7EAFFFFF7D2FF10F0400FF8D108BD08B5134B1A7802F0F8021A706E
:403540001A7802F0FC021A70FFF7EAFF4FF40040FFF7DAFF4FF40040FFF7C0FF0020FFF7B1FFFFF7B5FF4FF40040FFF7D3FF00F023F8054A137843F01003137000F020F865
:4035800008BD00BF7C6400409765004008B5054B1B7823B9FFF7CEFF0122024B1A70FFF789FF08BDCA82FF1F0230800803D000BF01380046FCD17047EFF3108072B67047A5
:4035C00080F31088704700BFF8B5C1F30A56A6F2FF35132D0A460B460446864611DC002D2EDB0F461F4929410A4225D04FF400232B413B4423EA0103002619463446204674
:40360000F8BD332D05DDB5F5806F1FD011462046F8BDA6F213464FF0FF3121FA06F63042F4D00122C5F1330502FA05F52D1828BF9B1825EA0606E0E70028D7D11146E6E730
:40364000013501F0004307D00026D6E702460B4600F010F80446D2E743F07F5343F440130026CAE7FFFF0F0081F0004102E000BF83F0004330B54FEA41044FEA430594EAB4
:40368000050F08BF90EA020F1FBF54EA000C55EA020C7FEA645C7FEA655C00F0E2804FEA5454D4EB5555B8BF6D420CDD2C4480EA020281EA030382EA000083EA010180EA9D
:4036C000020281EA0303362D88BF30BD11F0004F4FEA01314FF4801C4CEA113102D0404261EB410113F0004F4FEA03334CEA133302D0524263EB430394EA050F00F0A780EA
:40370000A4F10104D5F1200E0DDB02FA0EFC22FA05F2801841F1000103FA0EF2801843FA05F359410EE0A5F120050EF1200E012A03FA0EFC28BF4CF0020C43FA05F3C01885
:4037400051EBE37101F0004507D54FF0000EDCF1000C7EEB00006EEB0101B1F5801F1BD3B1F5001F0CD349085FEA30004FEA3C0C04F101044FEA445212F5800F80F09A80B2
:40378000BCF1004F08BF5FEA500C50F1000041EB045141EA050130BD5FEA4C0C404141EB010111F4801FA4F10104E9D191F0000F04BF01460020B1FA81F308BF2033A3F1F2
:4037C0000B03B3F120020CDA0C3208DD02F1140CC2F10C0201FA0CF021FA02F10CE002F11402D8BFC2F1200C01FA02F120FA0CFCDCBF41EA0C019040E41AA2BF01EB045155
:40380000294330BD6FEA04041F3C1CDA0C340EDC04F11404C4F1200220FA04F001FA02F340EA030021FA04F345EA030130BDC4F10C04C4F1200220FA02F001FA04F340EA4E
:403840000300294630BD21FA04F0294630BD94F0000F83F4801306BF81F480110134013D4EE77FEA645C18BF7FEA655C29D094EA050F08BF90EA020F05D054EA000C04BF85
:403880001946104630BD91EA030F1EBF0021002030BD5FEA545C05D14000494128BF41F0004130BD14F580043CBF01F5801130BD01F0004545F0FE4141F470014FF0000064
:4038C00030BD7FEA645C1ABF194610467FEA655C1CBF0B46024650EA013406BF52EA033591EA030F41F4002130BD00BF90F0000F04BF0021704730B54FF4806404F13204EE
:403900004FF000054FF0000150E700BF90F0000F04BF0021704730B54FF4806404F1320410F0004548BF40424FF000013EE700BF42004FEAE2014FEA31014FEA02701FBF68
:4039400012F07F4393F07F4F81F06051704792F0000F14BF93F07F4F704730B54FF4607401F0004521F0004120E700BF50EA010208BF704730B54FF000050AE050EA010298
:4039800008BF704730B511F0004502D5404261EB41014FF4806404F132045FEA915C3FF4DCAE4FF003025FEADC0C18BF03325FEADC0C18BF033202EBDC02C2F1200300FAD9
:4039C00003FC20FA02F001FA03FE40EA0E0021FA02F11444C1E600BF70B54FF0FF0C4CF4E06C1CEA11541DBF1CEA135594EA0C0F95EA0C0F00F0DEF82C4481EA030621EA24
:403A00004C5123EA4C5350EA013518BF52EA033541F4801143F4801338D0A0FB02CE4FF00005E1FB02E506F00042E0FB03E54FF00006E1FB03569CF0000F18BF4EF0010E44
:403A4000A4F1FF04B6F5007F64F5407404D25FEA4E0E6D4146EB060642EAC62141EA55514FEAC52040EA5E504FEACE2EB4F1FD0C88BFBCF5E06F1ED8BEF1004F08BF5FEA09
:403A8000500E50F1000041EB045170BD06F0004646EA010140EA020081EA0301B4EB5C04C2BFD4EB0C0541EA045170BD41F480114FF0000E013C00F3AB8014F1360FDEBF5E
:403AC000002001F0004170BDC4F10004203C35DA0C341BDC04F11404C4F1200500FA05F320FA04F001FA05F240EA020001F0004221F0004110EBD37021FA04F642EB0601DB
:403B00005EEA430E08BF20EAD37070BDC4F10C04C4F1200500FA04F320FA05F001FA04F240EA020001F0004110EBD37041F100015EEA430E08BF20EAD37070BDC4F1200598
:403B400000FA05F24EEA020E20FA04F301FA05F243EA020321FA04F001F0004121FA04F220EA020000EBD3705EEA430E08BF20EAD37070BD94F0000F0FD101F00046400087
:403B800041EB010111F4801F08BF013CF7D041EA060195F0000F18BF704703F00046520043EB030313F4801F08BF013DF7D043EA0603704794EA0C0F0CEA135518BF95EAA9
:403BC0000C0F0CD050EA410618BF52EA4306D1D181EA030101F000414FF0000070BD50EA410606BF1046194652EA430619D094EA0C0F02D150EA013613D195EA0C0F05D1A8
:403C000052EA03361CBF104619460AD181EA030101F0004141F0FE4141F470014FF0000070BD41F0FE4141F4780170BD70B54FF0FF0C4CF4E06C1CEA11541DBF1CEA135586
:403C400094EA0C0F95EA0C0F00F0A7F8A4EB050481EA030E52EA03354FEA013100F088804FEA03334FF0805545EA131343EA12634FEA022245EA111545EA10654FEA002668
:403C80000EF000419D4208BF964244F1FD0404F5407402D25B084FEA3202B61A65EB03055B084FEA32024FF480104FF4002CB6EB020E75EB030E22BFB61A754640EA0C00C2
:403CC0005B084FEA3202B6EB020E75EB030E22BFB61A754640EA5C005B084FEA3202B6EB020E75EB030E22BFB61A754640EA9C005B084FEA3202B6EB020E75EB030E22BFE9
:403D0000B61A754640EADC0055EA060E18D04FEA051545EA16754FEA06164FEAC30343EA52734FEAC2025FEA1C1CC0D111F4801F0BD141EA00014FF000004FF0004CB6E742
:403D400011F4801F04BF01430020B4F1FD0C88BFBCF5E06F3FF6AFAEB5EB030C04BFB6EB020C5FEA500C50F1000041EB045170BD0EF0004E4EEA113114EB5C04C2BFD4EBD7
:403D80000C0541EA045170BD41F480114FF0000E013C90E645EA060E8DE60CEA135594EA0C0F08BF95EA0C0F3FF43BAF94EA0C0F0AD150EA01347FF434AF95EA0C0F7FF40E
:403DC00025AF104619462CE795EA0C0F06D152EA03353FF4FDAE1046194622E750EA410618BF52EA43067FF4C5AE50EA41047FF40DAF52EA43057FF4EBAE12E74FF0FF3C32
:403E000006E000BF4FF0010C02E000BF4FF0010C4DF804CD4FEA410C7FEA6C5C4FEA430C18BF7FEA6C5C1BD001B050EA410C0CBF52EA430C91EA030F02BF90EA020F0020D5
:403E4000704710F1000F91EA030F58BF994208BF90422CBFD8176FEAE37040F0010070474FEA410C7FEA6C5C02D150EA013C07D14FEA430C7FEA6C5CD6D152EA033CD3D09E
:403E80005DF8040B704700BF8446104662468C461946634600E000BF01B5FFF7B7FF002848BF10F1000F01BD4DF808EDFFF7F4FF0CBF012000205DF808FB00BF4DF808ED08
:403EC000FFF7EAFF34BF012000205DF808FB00BF4DF808EDFFF7E0FF94BF012000205DF808FB00BF4DF808EDFFF7CEFF94BF012000205DF808FB00BF4DF808EDFFF7C4FF43
:403F000034BF012000205DF808FB00BF4FEA410212F5001215D211D56FF47873B3EB625212D94FEAC12343F0004343EA505311F0004F23FA02F018BF404270474FF0000038
:403F4000704750EA013005D111F0004008BF6FF0004070474FF00000704700BF80F0004002E000BF81F0004142001FBF5FEA410392EA030F7FEA226C7FEA236C6AD04FEA96
:403F80001262D2EB1363C1BFD218414048404140B8BF5B42192B88BF704710F0004F40F4000020F07F4018BF404211F0004F41F4000121F07F4118BF494292EA030F3FD00F
:403FC000A2F1010241FA03FC10EB0C00C3F1200301FA03F100F0004302D5494260EB4000B0F5000F13D3B0F1807F06D340084FEA310102F10102FE2A51D2B1F1004F40EBE1
:40400000C25008BF20F0010040EA03007047490040EB000010F4000FA2F10102EDD1B0FA80FCACF1080CB2EB0C0200FA0CF0AABF00EBC25052421843BCBFD040184370476D
:4040400092F0000F81F4000106BF80F400000132013BB5E74FEA41037FEA226C18BF7FEA236C21D092EA030F04D092F0000F08BF0846704790EA010F1CBF0020704712F0C4
:404080007F4F04D1400028BF40F00040704712F100723CBF00F50000704700F0004343F0FE4040F4000070477FEA226216BF08467FEA23630146420206BF5FEA412390EAEE
:4040C000010F40F4800070474FF0000304E000BF10F0004348BF40425FEA000C08BF704743F0964301464FF000001CE050EA010208BF70474FF000030AE000BF50EA010250
:4041000008BF704711F0004302D5404261EB41015FEA010C02BF84460146002043F0B64308BFA3F18053A3F50003BCFA8CF2083AA3EBC25310DB01FA02FC634400FA02FCFD
:40414000C2F12002BCF1004F20FA02F243EB020008BF20F00100704702F1200201FA02FCC2F1200250EA4C0021FA02F243EB020008BF20EADC7070474FF0FF3C06E000BF06
:404180004FF0010C02E000BF4FF0010C4DF804CD4FEA40024FEA41037FEA226C18BF7FEA236C11D001B052EA530C18BF90EA010F58BFB2EB030088BFC81738BF6FEAE170E6
:4041C00018BF40F0010070477FEA226C02D15FEA402C05D17FEA236CE4D15FEA412CE1D05DF8040B704700BF844608466146FFE70FB5FFF7C9FF002848BF10F1000F0FBD8B
:404200004DF808EDFFF7F4FF0CBF012000205DF808FB00BF4DF808EDFFF7EAFF34BF012000205DF808FB00BF4DF808EDFFF7E0FF94BF012000205DF808FB00BF4DF808EDE0
:40424000FFF7D2FF94BF012000205DF808FB00BF4DF808EDFFF7C8FF34BF012000205DF808FB00BF014B1868704700BF6881FF1F0E4B70B51E460E4C0025E41AA410A54247
:4042800004D056F8253098470135F8E702F03AFA084B094C1E46E41AA4100025A54204D056F8253098470135F8E770BD1067000010670000106700001867000010B5431E01
:4042C0000A44914204D011F8014B03F8014FF8E710BD03460244934202D003F8011BFAE770472DE9F04788B0149F002B1E461299B8BF03F1004327F02007B6BF1E4600233E
:404300002D23462F1446109DDDF84CA00B7003D0452F03D1013501E0032300E0022307AA049206AA03928DE828042246334600F003FD472F804602D1119BDB0728D5462F0B
:4043400008EB050911D198F80030302B0AD10022002320463146FFF7A7FD18B9C5F10105CAF80050DAF8003099440022002320463146FFF799FD08B9302202E0CDF81C9016
:4043800006E0079B994503D9591C07911A70F8E74046079B159AC8EB0303136008B0BDE8F087034673B50029B8BF494203F8022BB4BF2D222B22092942701ADD0DF10702B9
:4043C00016460A2591FBF5F405FB1411092C01F1300102F8011D2146F4DC3031541E02F8011CB4421A460AD214F8012B03F8012BF7E71A463024214402F8024B5970101A45
:4044000002B070BD2DE9F04F91B00C46DDF8688016461F46054601F027FA03681846099300F0F4FB00230E93D8F800300A90073323F0070303F1080294F81890D4F800B033
:40444000C8F80020D3E90023C4E91223D4F84CA0D4F848802AF000430B934FF0FF32A74B40460B9901F054FFA0B94FF0FF32A34B40460B99FFF72CFD60B9002200234046A0
:404480005146FFF71BFD10B12D2384F843309C4B9C4A0AE0424653464046514601F038FF002800F09281984B984AB9F1470F8CBF90469846032323612BF0040323604FF0BD
:4044C000000A3DE0B9F1670F00F08A81B9F1470F00F0868123600193636800210DF13302059002920093424653460691CDF81090CDF80CE02846FFF7F4FE09F0DF03472B20
:40450000804600F08481B9F1650F0D9900F28D8101394A4604F150000D91FFF742FF0E9A82468318012A236100F37C812268D10700F178819DF8333013B12D2384F8433027
:40454000009733460FAA2146284600F09FF9013002D14FF0FF3096E123685A0501D4236965E0B9F1650F40F2D580D4E9120100220023FFF799FC78B30123654A3146284674
:40458000B8470130E5D00E9B0D9A9A420BDB2368D80708D423689B0740F111814FF0000804F1190906E10A9B099A31462846B8470130CED04FF0000804F11A090E9B013B4A
:4045C0009845E7DA01234A4631462846B8470130BFD008F10108F1E70D9B002B29DC01234B4A31462846B8470130B2D00D9B23B90E9B13B92368D907CCD50A9B099A3146FF
:404600002846B8470130A4D04FF0000904F11A0A0D9B5B42994509DA0123524631462846B847013095D009F10109F1E70E9B4246A7E00E9AA36D9A42A8BF1A46002A9146DB
:4046400006DC4FF0000A29EAE97904F11A0B11E01346314642462846B8470130F1D178E701235A4631462846B84701303FF471AF0AF1010AA36DC9EB03029245F0DB08EBE8
:4046800003090D9A0E9B9A420FDB2368DA070CD40E9B0D9A9844C9EB08089B1A9845A8BF9846B8F1000F08DC0FE00A9B099A31462846B8470130EBD14BE743464A4631465F
:4046C0002846B84701303FF444AF4FF0000928EAE87804F11A0A09E00123524631462846B84701303FF435AF09F101090D9A0E9B9B1AC8EB03039945EEDB4BE7FFFFEF7F4B
:40470000A2650000A6650000AA650000AE650000B26500000E9A012A01DCDB0738D50123424631462846B84701303FF412AF0A9B099A31462846B84701303FF40AAFD4E9D4
:40474000120100220023FFF7AFFB20B14FF0000804F11A090EE00E9B08F10102013B19E001234A4631462846B84701303FF4F1AE08F101080E9B013B9845F1DB534604F190
:40478000500231462846B84701307FF403AFE0E64246012331462846B8470130EED1D8E601234A4631462846B84701303FF4D1AE08F10108E3680F9A9B1A9845F0DBE06853
:4047C0000F9B9842B8BF18465DE062680EA8531C0DF1340E4BF480637FF474AE062201E012B90122626075E6002106910DF133018DE80C00236005904246CDF81090CDF8F4
:404800000CE0029153462846FFF76BFD80460D9BD81C02DB626893421DDDA9F102095FFA89F970E60133236184E6B9F1660F14D10029636807DD216113B92268D2071DD545
:4048400001330B4419E013B92268D00701D5023313E0012311E04FF067090D9B0E9A934205DB22682361D10708D5013305E0002BD4BFC3F102030123134423610D9B4FF08F
:40488000000AA36556E611B0BDE8F08F2DE9F04791461F460A698B6806469342B8BF1346C9F8003091F843200C46DDF8208012B10133C9F800302368990642BFD9F800302D
:4048C0000233C9F80030256815F0060510D104F1190A07E00123524639463046C04701301AD00135E368D9F800209B1A9D42F1DB94F843302268003318BF012392060FD53D
:40490000E118302081F843005A1C94F845102244023382F8431003E04FF0FF30BDE8F08704F1430239463046C0470130F4D02268D9F80050E36802F00602042A08BF5D1BBE
:404940002269A3680CBF25EAE57500259342C4BF9B1AED184FF000091A344D4509D00123224639463046C0470130D5D009F10109F3E70020BDE8F0872DE9F04317460A7E8F
:4049800085B06E2A984606460C460C9B01F1430E00F0AE8011D8632A22D009D8002A00F0BB80582A40F0CA8081F84520834955E0642A1ED0692A1CD0C0E0732A00F0B080D5
:4049C00009D86F2A2ED0702A40F0B8800A6842F020020A603EE0752A24D0782A3AD0ADE01A6801F14205111D1960136884F84230A8E021681A6811F0800F02D0111D1960BC
:404A000008E011F0400F02F10401196002D0B2F9003000E01368002B3CDA2D225B4284F8432037E021681A6811F0800F02D0111D196007E011F0400F02F10401196001D015
:404A4000138800E01368227E5C496F2A14BF0A2208221BE078225A4984F845202268186812F0800F00F104051D6003D1550601D5038800E00368D00744BF42F02002226083
:404A80001BB9226822F0200222601022002084F8430001E049490A226568002DA56008DB206820F0040020602BB9002D7DD175460CE0002B79D07546B3FBF2F002FB10332F
:404AC000CB5C05F8013D03460028F5D1082A0BD12368DA0708D5236962689A42DEBF302305F8013C05F1FF35C5EB0E0323612EE008681A6810F0800F496903D0101D186042
:404B0000136808E010F0400F02F104001860136801D0198000E0196000232361754616E01A68111D1960156800216268284600F0A7FE08B1401B6060636804E004F142056B
:404B400084F8422001232361002384F84330CDF800803B4603AA21463046FFF797FE013002D14FF0FF3026E023692A4639463046C0470130F5D023689B0710D5002504F130
:404B8000190907E001234A4639463046C0470130E7D00135E368039A9B1A9D42F2DBE068039B9842B8BF184605E00B7804F1420584F842308AE705B0BDE8F083B465000057
:404BC000C56500000EB400B54FF402719CB0ADF814106FF00041049107914FF6FF711DAB02900690084853F8042BADF81610006802A9019301F03AFA029B00221A701CB061
:404C00005DF804EB03B070476881FF1F034613F8012B002AFBD1181A013870472DE9F74F03690C6980469C427FDC013C01F114074FEA840E00F1140606EB0E0357F8245006
:404C4000019356F824300135B3FBF5F507EB0E09C5B34FF0000A3846B446D34650F8043B9AB205FB02A21B0C4FEA124A05FB03A392B2C2EB0B0BBCF800204FEA134A5A44ED
:404C80001FFA83FBDCF800308145CBEB134303EB224392B242EA03424FEA234B4CF8042BDCD256F80E306BB9019B043B9E421A4602D3C8F8104005E01268043B002AF8D176
:404CC000013CF3E7404600F0F6FF00282BDB304601354FF0000E57F8042B036891B2C1EB0E0E120C99B27144C2EB134303EB214389B24FEA234EB94541EA034340F8043BD9
:404D0000E9D256F8242006EB840362B9043B9E421A4602D3C8F8104005E01268043B002AF8D1013CF3E7284600E0002003B0BDE8F08F0000000000002DE9F04F456A95B0F9
:404D40008246219CCDE9022345B9102000F090FDCAF82400456085600560C560DAF82430196859B15A68012393404A608B60504600F0C9FDDAF8243000221A60039BA04A99
:404D8000002BBDBF01232360039B0023BCBF23F000430393DDF80C80A8BF236028F000431B0D1B0593421DD142F20F73209A1360029B43B9934A944BC8F31300002814BFCB
:404DC0001846104600E09048229B002B00F04685C37813B100F1080300E0C31C229A136000F03CBDDDE902450022002320462946FFF75AF8074658B1209A01231360229BFF
:404E0000002B00F01E8581481860013800F026BD12AB019313AB009322462B46504600F0C5FFC8F30A56049056B1C5F3130343F07F51204641F44011A6F2FF3611971DE0BD
:404E4000139B129E1E4406F23243202B0ADD029A06F21240C3F1400322FA00F008FA03F3184304E0C3F12000029B03FA00F0FEF73DFD0123A1F1F871013E11930022644B53
:404E8000FEF7F6FB58A3D3E90023FEF7A5FD58A3D3E90023FEF7EEFB044630460D46FEF735FD55A3D3E90023FEF796FD02460B4620462946FEF7DEFB04460D46FFF726F85D
:404EC00000228346002320462946FEF7F7FF58B15846FEF71BFD02460B4620462946FEF7E3FF08B90BF1FF3BBBF1160F0DD8DDE90223484901EBCB01D1E90001FEF7FCFF5F
:404F000030B10BF1FF3B002300E00123109300E01090129B9E1B731E079343BFC3F10008002307934FF00008BBF1000F06DB079BCDF82CB05B440793002705E00023CBEBC0
:404F40000808CBF100070B931E9B092B28D8052BC4BF043B1E931E9BC8BF0025A3F10203D8BF0125032B20D8DFE803F0060E0204012302E0012308E000230A931F9B002BC4
:404F80001DDD9946059321E000230A931F9B0BEB030909F10103012B0593B8BF012315E0012500231E930A9501E001230A934FF0FF390022CDF8149012231F9206E04FF069
:404FC00001094B46CDF81490CDF87C90DAF8244000226260042101F114029A421CD86268490001326260F6E761436F63A787D23FB3C8608B288AC63FFB799F501344D33F42
:405000000000F07FD6650000DF650000B36500000000F83FF06500006168504600F03EFCDAF8243020601B680693059B0E2B00F25B81002D00F05881DDE90234BBF1000F3F
:40504000CDE90E3430DD9F4A0BF00F034FEA2B1502EBC303E80618CBCDE908340CD5DDE90E01994B05F00F05D3E90823FEF7DEFD0324CDE9020100E00224934E6DB1E90717
:4050800008D5DDE90801D6E90023FEF7A5FCCDE9080101346D100836F0E7DDE90823DDE90201FEF7C3FD20E0CBF1000505B3DDE90E01844B05F00F0203EBC203D3E9002322
:4050C000FEF78AFCCDE902017F4E2D110023022455B1EA0705D5D6E90023FEF77DFC013401236D100836F3E71BB1CDE9020100E00224109BE3B1DDE902560022734B2846E3
:405100003146FEF7DBFE98B1059B8BB1B9F1000F40F3E6800BF1FF330893314600226C4B2846FEF759FC0134CDE902014E4602E0059ECDF820B02046FEF7E8FBDDE902231D
:40514000FEF74AFC634B0022FEF794FAA1F1507304460C931D46D6B9DDE9020100225E4BFEF786FA22460C9BCDE90201FEF7C4FE002840F03F820C99224601F10043DDE9C8
:405180000201FEF79BFE002840F02B82A8E00A9A4C4B711E002A49D003EBC103D3E9002300204E49FEF742FD22462B46FEF760FACDE90C01069CDDE90201FEF7A7FE05460D
:4051C000FEF7A4FB02460B46DDE90201FEF750FADDE90C23303504F8015BCDE90201FEF76DFE002840F01D83DDE9022300203749FEF73EFADDE90C23FEF760FE002840F05F
:40520000D180069BE31AB3426ADADDE90C0100222F4BFEF7E1FB0022CDE90C01DDE902012B4BFEF7D9FBCDE90201C4E703EBC1012246D1E900012B46FEF7CEFB069BCDE95C
:405240000C011D469C19DDE90201FEF75FFE0646FEF75CFB02460B46DDE90201FEF708FA303605F8016BAC42CDE902014FF0000222D11A4BDDE90C01FEF7FCF902460B4698
:40528000DDE90201FEF738FE002840F08B80DDE90C2300201149FEF7EBF902460B46DDE90201FEF70BFED8B114F8013C621E302B40F0B7821446F7E7054BFEF78DFBCDE91E
:4052C0000201C0E7F0650000C86600000000F03F0000244000001C40000014400000E03FDDE90E34CDE90234139B002B7CDBBBF10E0F79DCAB4B03EBCB03D3E900671F9B4E
:40530000002B14DA059B002B11DC40F06C810022A54B30463946FEF75FFBDDE90223FEF7E1FD059D2E46002840F05F8165E1069CDDE9028932463B4640464946FEF776FC6F
:40534000FEF7E4FD0546FEF7E1FA32463B46FEF743FB0B46024649464046FEF789F905F1300E069B04F801EBC3EB040E059B73452DD102460B46FEF77DF980468946024637
:405380000B4630463946FEF799FD78B942464B4630463946FEF788FD002800F04482EB0704D440E2DDF820B000E01C4614F8012C631E392A07D1069A9A42F6D10699302289
:4053C0000BF1010B0A701A7801321A702BE20022764BFEF701FB0022002380468946FEF763FD0028A6D01EE20A9A002A2BD01E9A012A0ADC119A12B103F2334302E0129B34
:40540000C3F136033D46444613E0059B5D1EAF42BFBF0B9BEA1B9B180B93059BB6BF2F467D1B0025002BA7BF4446059BC3EB08040023079A01211A4450469844079200F0FE
:4054400001FB064602E03D4644460A9E5CB1079B002B08DDA342A8BF2346079AC3EB0808E41AD31A0793002F1DDD0A9BABB18DB131462A46504600F07FFB049A0146064675
:40548000504600F0E8FA04990890504600F03BFA089B04937A1B06D000E03A460499504600F06AFB04900121504600F0CBFA0B9B05465BB31A460146504600F05DFB1E9BC9
:4054C0000546012B18DC029B83B9039BC3F3130373B9039B23F000473F0D3F054FB1079B08F1010801330793012702E0002700E0029F0B9B73B100E000272B6905EB83034B
:40550000186900F052FAC0F1200004E01E9B012BD9DD0B9F0120079B184410F01F0008D0C0F12003042B02DDC0F11C0002E006D018461C30079B8044034404440793B8F155
:40554000000F05DD42460499504600F063FB0490079B002B05DD29461A46504600F05AFB0546109B23B32946049800F0A4FB00281EDA00230A220499504600F0DBF90A9BD3
:405580000BF1FF3B0490002B00F05F81314600230A22504600F0CEF9B9F1000F06463FDC3BE000BFF06500000000144000002440059B002B2BDC1E9B022B28DDDDF81490D6
:4055C000B9F1000F11D129464B460522504600F0B1F901460546049800F06DFB00280CDC03E0354600E000252E461F9B069C6FEA030B09E03546DDF820B0069B069A5C1CC7
:40560000312313700BF1010B05960026F7E00A9BDDF8149023B9069CB2E01E9B022BCFDC002C05DD31462246504600F0F3FA06469FB17168504600F031F90446326906F1D3
:405640000C01023292000C30FEF738FE01222146504600F0DFFA059000E00596029B069F03F00103079329460498FFF7D7FA3146044600F13008049800F01DFB059A029093
:405680002946504600F033FBC36802463BB901460A90049800F00FFB0A9A034600E00123114650460A9300F02EF90A9B53B91E9A42B9079A32B9B8F1390F2AD0029B002BB4
:4056C0001CDC1DE0029A002A04DB1BD11E9ACAB9079ABAB9002B13DD01220499504600F099FA2946049000F0E6FA002803DC07D118F0010F04D0B8F1390F0AD004F131084A
:405700007C1C0CE0002B07F101040BDDB8F1390F03D139233B70013756E008F1010887F800806CE0069B2746E31A4B4504F8018C3BD000230A220499504600F0FBF8059B1A
:4057400004909E424FF00A024FF000033146504604D100F0EFF80646059084E700F0EAF8002306460A220599504600F0E3F8059079E700230A220499504600F0DBF80490E9
:4057800029460498FFF74AFA069B00F1300804F8018BE31A4B45ECDB069B0596B9F1010FACBF4B4401331F46002601220499504600F030FA2946049000F07DFA002803DC6E
:4057C00015D118F0010F12D03C4614F8013C621E392B09D1069B934204D10BF1010B3123069A02E01446F0E70133137007E03C4614F8013C621E302B01D11446F8E7294628
:40580000504600F080F8059B6BB12EB19E4203D03146504600F077F80599504600F073F801E0DDF820B00499504600F06CF80023209A23700BF101031360229B1BB11C602C
:4058400001E008480AE0069808E0B9F1000F3FF7E2AE1E9B022B7FF7DEAEB1E615B0BDE8F08F00BFB2650000004870476C81FF1F024B0146186800F041BB00BF6881FF1FFA
:4058800010B5C9B202449042034605D01C7801308C42F8D1184610BD002010BD70B5456A04460E463DB91020FFF7E2FF6062456085600560C560656AEB6843B1636ADB6893
:4058C00053F8260078B1026843F8262017E021220421204600F0B8FA636AE860DB68002BECD1002070BD012101FA06F56A1D9200204600F0A9FA0028F3D04660856000236C
:405900000361C36070BD70B5446A06460D463CB91020FFF7ADFF7062446084600460C4603DB1736A6A68DB6853F82210296043F8225070BD2DE9F04106460C460D691F4618
:4059400001F1140E0023DEF80000013381B202FB0171000C0F0C02FB007089B201EB00419D424FEA10474EF8041BECDCD7B1A3689D4212DB616830460131FFF78FFF804692
:40598000226904F10C01023292000C30FEF796FC21463046FFF7B7FF444604EB850301355F6125612046BDE8F081030C1B0413B90004102300E0002310F07F4F04BF000288
:4059C000083310F0704F04BF0001043310F0404F04BF80000233002803DB420003D5581C70471846704720207047036813F007020BD0D90722D49A074BBF5B089B08036018
:405A000003604CBF01200220704799B209B91B0C102213F0FF0F04BF1B0A0832190704BF1B090432990704BF9B080232D90702D45B0805D001320360104670470020704786
:405A40002020704710B50C460121FFF727FF01224461026110BD2DE9F74F14460A69236988469A42BEBF0B46A0461C46D8F81070D4F81090D8F80830D8F8041007EB0906C4
:405A80009E42C8BF0131FFF709FF00F114052B4605EB860C0022634502D243F8042BFAE704F1140208F1140102EB890301EB87070093009B0192934257D9B2F800B0BBF191
:405AC000000F23D08946AE464FF0000859F8044BBEF800A0A3B20BFB03A34FEA144ADEF8004043444FEA14480BFB0A84F24604EB13449BB243EA04434F454FEA14484AF89C
:405B0000043B01D9D646E1E7CEF80480019B0432B3F802A0BAF1000F21D02C4689462B684FF00008B9F800E0B4F802B09BB20AFB0EBEA346F04443EA08434BF8043B59F8C4
:405B4000043BB4F804E01B0C0AFB03E34F4503EB18434FEA134801D95C46E3E763600435A7E75CF8043D13B9013E002EF9DC066103B0BDE8F08F00002DE9F843154612F074
:405B8000030206460F4607D0214C013A002354F82220FFF7CFFE0746AD1036D0746A3CB91020FFF765FE7062446084600460C460D6F82480D8F808404CB940F27121304635
:405BC000FFF740FF04460023C8F8080003604FF00008EB070AD5394622463046FFF73BFF814639463046FFF78EFE4F466D100CD0206808B10446ECE7224621463046FFF76E
:405C00002AFF2060C0F80080F4E73846BDE8F883B86600002DE9F0470C460746914626694FEA621A56444968A368751CAB4202DA01315B00FAE73846FFF730FE002380463C
:405C40001A4600F11401534503DA41F823200133F9E72AEAEA73206901EB830319F01F0904F1140101EB800E14D0C9F1200C002208689A4600FA09F0024343F8042B51F871
:405C8000042B8E4522FA0CF2F2D8CAF8042042B1B51C06E0043B51F8042B8E4543F8042FF9D8013D3846C8F810502146FFF72BFE4046BDE8F08703690A6910B59B1A11D166
:405CC00092001430143183180A4453F8044D52F8041D8C4202D007D3012010BD9842F4D3002010BD184610BD4FF0FF3010BD2DE9F8430C460746114620461546FFF7DBFF65
:405D0000061E08D131463846FFF7C8FD012303614661BDE8F883BCBF23462C4638466168BABF1D4601260026FFF7B8FD2B69C660266905F1140904F1140101EB860709EB23
:405D4000830800F114054FF0000C51F8042B59F8044B93B29C44A3B2240CC3EB0C03C4EB124202EB23429BB24FEA224CC84543EA02428E4645F8042BE7D8BE450ED25EF8C5
:405D8000041B8AB26244131403EB114392B242EA03424FEA234C45F8042BEEE755F8043D0BB9013EFAE70661BDE8F8832DE9F3411C4601219046089E099DFFF76FFDC4F3D9
:405DC0001302C4F30A5407460CB142F480120192B8F1000F19D002A840F8088DFFF705FE009B48B1019AC0F1200102FA01F10B43C2407B61019200E07B61019B002B14BFFF
:405E000002210121BB61396107E001A8FFF7EDFD019B01217B613961203034B1A4F2334404443460C0F1350009E0A0F2324007EB810330601869FFF7B8FDC0EB411028601C
:405E4000384602B0BDE8F08138B502FB01F4214600F054F8054618B122460021FEF739FA284638BD38B50546002944D051F8043C0C1F002BB8BFE41800F017FA1E4A136887
:405E8000114613B96360146030E0A3420DD92268A018834201BF18685B681218226063600C6023E0A24203D813465A68002AF9D118681918A1420BD1216801445818824285
:405EC000196013D110685268014419605A600DE002D90C232B6009E021686018824201BF106852680918216062605C602846BDE8384000F0DBB938BDD082FF1F70B5CD1CD7
:405F000025F0030508350C2D38BF0C25002D064601DBA94202D90C23336046E000F0C5F9234B1C681A462146A1B10B685B1B0ED40B2B03D90B60CC18CD501EE08C420BBF0B
:405F400063684B681360636018BF0C4615E00C464968E9E7174C23681BB9304600F07AF920602946304600F075F9431C18D0C41C24F00304A0420DD12560304600F096F9A2
:405F800004F10B00231D20F00700C31A0ED05A42E25070BD211A304600F05CF90130EBD10C233360304600F081F9002070BD00BFD082FF1FCC82FF1F2DE9F0478E6882465C
:405FC0009E420C46914698463ED88A8912F4906F3AD02568096902236F1A656905EB450595FBF3F57B1C43449D4238BF1D4653050FD52946FFF782FF064698B13A4621693D
:40600000FEF75CF9A38923F4906343F08003A38113E02A4600F04BF9064670B921695046FFF720FF0C23CAF80030A3894FF0FF3043F04003A381BDE8F08726613E442660C5
:4060400046466561ED1BA560464528BF464649463246206800F00EF9A36800209B1BA36023681E442660BDE8F08700002DE9F04F9DB003938B8980461C060D4616460DD505
:406080000B695BB94021FFF739FF2860286118B90C23C8F80030CDE040236B610023099320238DF82930DFF89CB130238DF82A3037463C4614F8013B1BB9B7EB060910D00A
:4060C00003E0252BF9D02746F3E74B46324629464046FFF771FF013000F0A780099B4B4409933B78002B00F0A08000234FF0FF3204930793059206938DF853301A93012624
:40610000052221784E48FFF7BBFB671C049B38B14B4A3C46801A06FA00F018430490EFE7D90644BF20228DF853201A0744BF2B228DF8532022782A2A03D0079A00210A20BA
:406140000BE0039A111D12680391002A10DA524243F00200079204900BE027463B780134303B092B03D800FB02320121F5E701B107923B782E2B1ED17B782A2B0AD1039B63
:4061800002371A1D1B680392002BB8BF4FF0FF33059310E0002319460593781C0A2407463A780130303A092A03D804FB01210123F5E703B10591032239782248FFF760FB3C
:4061C00040B14023CBEB000003FA00F0049B013718430490397806221B487E1C8DF82810FFF74EFB88B1194B33B9039B073323F007030833039314E003AB00932A46144BBD
:4062000004A94046FEF7FEF807E003AB00932A460F4B04A94046FEF7AFFBB0F1FF3F824603D0099B5344099342E7AB895B0601D4099801E04FF0FF301DB0BDE8F08F00BFF8
:40624000F0660000F6660000FA66000005440000B95F000038B5064C0023054608462360FBF74EFD431C02D1236803B12B6038BD7883FF1F884210B501EB020301D8421E2D
:406280000BE09842FBD28118D21AD34204D013F8014D01F8014DF8E710BD994204D011F8014B02F8014FF8E710BD70477047F8B5074615460E4621B91146BDE8F840FFF77D
:4062C0001DBE1AB9FFF7CEFD2846F8BD00F015F885420ED929463846FFF710FE044650B131462A46FDF7EAFF31463846FFF7BAFD01E03046F8BD2046F8BD51F8040C002817
:40630000BEBF091851F8043CC0180438704700004FEA410C7FEA6C5C02D150EA013C0AD14FEA430C7FEA6C5C02D152EA033C02D14FF0000070474FF00100704700000000C8
:406340005541525420636F6D6D656E63696E672E2E2E200A00000000556C747261736F6E69632043616C6962726174696F6E2074657374733A200A00466F756E6420436FBC
:406380006C6F7572733A200A000000002569200A0000000064697374616E63652066726F6D20726F626F7420746F20626C6F636B3A202564200900004E000000520000004D
:4063C0004700000042000000494E56414C494420434F4C4F55522053454E53494E4720414C474F524954484D200A0000256620090000000025643A2025646D6D0A000000ED
:4064000073656E736F72206973206661756C747900000000556C747261736F6E69632073616665747920636865636B3A200A000025642009000000000A0A00002569200942
:4064400000000000534146455459204D415247494E204143544956415445440A000000000A2047524541544552205448414E204C4F4F503A200A00000A204C4553532054A1
:4064800048414E204C4F4F503A200A000A2066696E3A202564200A00646966666572656E6365203D2025642C200A000025642C202564200A00000000202564202C20256446
:4064C000200900006469663A2025642C200A00006C656674206D6F746F723A202564200A000000007269676874206D6F746F723A202564200A000000436F756E7420092030
:40650000424C414E4B200920524544200920475245454E200920424C55452009200A0000536572766F2054657374696E673A20004D6F746F722054657374696E673A200A77
:4065400000000000556C747261736F6E69632054657374696E673A200A000000004F0040180040510040300000000140800800090140000700140140000800400140000AEB
:40658000004C0140000200500140200060520040A40F0048060080080140AC0F004880004300494E4600696E66004E414E006E616E00300030313233343536373839414225
:4065C00043444546003031323334353637383961626364656600496E66696E697479004E614E00504F534958002E000000000000000000000000F03F00000000000024408C
:4066000000000000000059400000000000408F40000000000088C34000000000006AF8400000000080842E4100000000D01263410000000084D797410000000065CDCD4119
:40664000000000205FA00242000000E876483742000000A2941A6D42000040E59C30A2420000901EC4BCD64200003426F56B0C430080E03779C3414300A0D88557347643DD
:4066800000C84E676DC1AB43003D9160E458E143408CB5781DAF154450EFE2D6E41A4B4492D54D06CFF08044F64AE1C7022DB544B49DD9794378EA4405000000190000001A
:4066C0007D000000000000000080E03779C34143176E05B5B5B89346F5F93FE9034F384D321D30F94877825A3CBF737FDD4F1575232D302B2000686C4C00656667454647AF
:4067000000000000F8B500BFF8BC08BC9E4670474D0000007D1D0000F8B500BFF8BC08BC9E4670472900000038670000C880FF1FE0000000D801000000000000010000008C
:40674000010000000100000001000000D002000094020000580200001C020000E00100008083FF1F0000E02EC05D00001800000000366E010100000000000000000000004B
:40678000000000000000000000000000000000000000000000000000A0650000000000000000000000000000000000000000000000000000000000000000000000000000D4
:4067C0000000000000000000000000000000000000000000000000000881FF1FE9650000F5660000F5660000F5660000F5660000F5660000F5660000F5660000F5660000CC
:40680000F5660000FFFFFFFFFFFFFFFFFFFFFFFFFFFF000000000000000000000000000000000000000000000000000000000000000000000000000000000000000000000B
:406840000000000000000000000000000000000000000000000000000000000000000000000000000000000000000000000000000000000000000000000000000000000018
:4068800000000000000000000000000000000000000000000000000000000000000000000000000000000000000000000000000000000000000000000000000000000000D8
:4068C0000000000000000000000000000000000000000000000000000000000000000000000000000000000000000000000000000000000000000000000000000000000098
:406900000000000000000000000000000000000000000000000000000000000000000000000000000000000000000000000000000000000000000000000000000000000057
:020000040003F7
:0200000480007A
:40000000044F004008520040066400400465004053000140310101401D0301404204014049050140700601404B0701400F080140580901405D0A01404E0B0140470C0140A8
:40004000520D0140660E0140380F0140581401404D1501405D1601405517014047180140541901404E1A0140551B014003400140074101400D42014014430140044401408C
:400080000D4501400D460140084701401248014015490140154C01400D4D01400A5001400151014001200A1B0D20161B08300950101011341810191078207902850F873893
:4000C000880F8A728C6F8F0F840F850D876F890D03600430051E0604090E0A3C0C1C0D40103012081420150A16041714180119141A021B0A2001211822022306240225061C
:4001000026012718282C2A102B012C012E02303C3120331E3403350137403A203F40580459045C115F018001820284018606871089028B048C108D068E2891079402960180
:400140009701982099059A109B029C109E20A506A701A810A903AA20AC01AE02AF08B004B203B308B430B507B608B710BA28D804D904DC11DF0101100221050107120A50ED
:400180000B040E1910021104128814011608172019021A441D011E191F28210422582344271629122B202C052D082F0132203308361137043820390A3B403E883F205D04BF
:4001C0005E048110828083048D40C0B7C2EEC4CFCA77CCE6CE7FE0018B108F2490209140928493409502970299029C049D189F20A080A208A328A631A710A810AA11AC0200
:40020000AE84B110B208B328B480B502E410EA0CEC04000701010407091C0A070E040F40120813401401152C16021710180119301A021B081C401F012130221023042520B8
:400240002620270428042B3C2E402F023020310232403301340F353C361037403E043F44580459045C115F01870288048D02900497019A04A401AA02AB02B002B204B3016E
:40028000B401B702BE14BF40D40FD804D904DB04DC11DD10DF01000801290202052009090A060C080F641089114816081704180219201A501C101F1121A0222123102640E5
:4002C0002720280129022B282D2030803120320833013504382239803F445C105E805F0A8180840485018B10902091409284934095029610971299069B049C049D189F2086
:40030000A080A208A328A631A710A904AA10C04FC25FC46FCA2FCC4FCE5DD6F0E042E220E421E801ECC0EE0104CC05940621076008BB09FD0A440B0211CF1330140815733C
:4003400016F118801A1F1B0F253027C92877299E2B602CCC2E1231FF32F0360F39203F114041410649FF4AFF4BFF4DA04F0150185280580459045A045B045C015D415F01E2
:400380006040628064406540668068406A806C406D206E8080408280848A8654870188148A0A8C2090409281941E98069A189B01A220A440A680A80EAC18AE06B001B21EC9
:4003C000B4C0B620B701BA20BE40C041C106C523C6C0C74EC83BC9FFCAFFCBFFCDAFCE07CF01D018D418D804D904DA04DB04DC41DD31DF01E040E280E440E540E680E840AB
:40040000EA80EC40ED20EE8001420329042005040A540E040F201108120A130214061820190A1A101B701D0C1E221F0821402302250127042F28321034063520360B3708ED
:4004400038083E14420243024642488049204B084D2051015214580163097740834192C49582970499209C049D189E089F09A104A509A613A710A904AC04AF02B120C06FBB
:40048000C26EC4CFCA60CCE4CE62D099D224D601D80CE080E201E608E860EA04EC05020107010E012801330136013E4054035604580459045B045C105D205F05004001205A
:4004C0000480074009200A9110C01120121213081710184019181A011F40210822A12608280229183144330139103A043E0841204280430449144A02520459405A405E808E
:400500005F156502682F69406A206F017F808108822085028B048D108E808F10908891BA92509315940496249748980C9A419B5A9C809D019F80A080A140A3A0A42AA504F6
:40054000A608A708A902AA08B220B350B401C093C20FC44FCA0ECC0BCE46D007D20CD6F0D880DE80E080E401E860EC8100400301060207040A010B100C200F6011151201C1
:40058000130A140C15531630170C192F1A011B101C041D60201023082404256026C028082B022C142EA8316032FF371F3E043F4040424101420349FF4AFF4BFF4F0150182C
:4005C00056025710580459045A045B045C205D325F016040624064406540668068806A806C806E8081019101AF02B302B501B920C052C104C206C5ECC620C80BC9FFCAFF9B
:40060000CBFFCD83CE03CF01D018D904DA04DC10DD02DF01E040E240E440E540E680E880EA80EC80EE80002402810480058009420A24102612401908200121032241230275
:400640002714290A2B042D80302A32403380340238023B683F024011410242084320460847024E054F05541057205B8069A8708472107308830489408C088E809090911073
:400680009248931096A0978098069A419B409C809D019E209F06A301A422A546A680A708AB01B240B702C00FC20FC40FCA17CC8FCE8FD0AFD230D608E042E421E604ECC056
:4006C000EE01001C022004010A010B010C7C0E0210441208130214761A021C011E7021022280241A262427022C0E2E4032013302340E350136F03E043F045280540F58040B
:4007000059045B045C115D105F058010853287C189088A7F8BF78C088D578FA8927F9403962C99319A809BC29C019DFFA004A150A3A4A401A670A802AC05AE4AB080B10FA7
:40074000B27FB3F0B47FBE14D804D904DC21DF010281030A040A0580070409620A200DA510261240154016201701181019021A081DA01E201F2020C02310240825082880B7
:400780002D022F2030103240350138543F20441045045D205F496608670477407E0884048B088C019084915A9240934494189780980299A09A089B019C809F06A208A311CD
:4007C000A440A58CA610A808AA08AD20B181B201B314B560B641C0FBC2FFC4BFCAC1CC8CCE2ED6F0D860DE20E040E208E480E8E0EC80EE400406061908100A060C090D0624
:400800000E0615031C041E08201F2106240126022D053307341F39084035410149FF4AFF4BFF4DA04F015018580459045A045B045C125D015F016040628064406540668009
:4008400068406A806C406D206E80830F84038A018DCF8E018F30957396029C089DFD9F02A19EA360A408A530A7C9A994AA04AB60AC08B001B202B404B608B7FFB880BE4549
:40088000BF40C035C101C52CC640C73EC83BC9FFCAFFCBFFCDAFCE07CF01D018D40FD804D904DA04DB04DC01DD11DF01E040E280E440E540E680E840EA80EC40ED20EE80B1
