:400000000080002011000000252100002521000008B5044B1A6803F53F5302331A6002F0A1F800BFFA46004010B5054C237833B9044B13B10448AFF300800123237010BD50
:40004000A081FF1F000000000C7B0000084B10B51BB108490848AFF300800848036803B910BD074B002BFBD0BDE81040184700BF00000000A481FF1F0C7B0000C880FF1F44
:400080000000000008B500F0B3FF08BD08B5642002F028F9044B1B682BB1044802F0B8F90222014B5A6008BDBC81FF1F107B00002DE9F04782B062B602F004F902F08EF957
:4000C000B84802F0A5F902F0D3FC02F0B5FE002002F0C4FEB44C207A02F07CFE0025E560284603F0D9F8012003F0D0F84FF4FA7002F0F8F8022003F0C9F84FF4FA7002F0B4
:40010000F1F8032003F0C2F84FF4FA7002F0EAF8284603F0BBF84FF4FA7002F0E3F800F051FD03F081F84FF47A7003F035F84FF4FA7002F0D7F803F08BF802F0D3FF4FF415
:400140008C6002F087FF4FF4FA7002F0CBF802F0D7FF03F00BFA03F0E3FA284603F0AEF9284603F087FA03F03DFA03F015FB03F025F903F06BF903268C4B1E6002F0ECFE50
:4001800002F092FE8A4803F0D5F88A4803F0AAF801272760884802F03BF900F0A1FF00F09FFF00F09DFF03F099FC03F051FC284603F0A2FC6560276102236361A6617A4BAC
:4001C0005B68012B4FD101F07FFD072001F006FB01230193C823009304231A4600216FF0630001F095F900F0EDFC00240AE000F01DFD6D4B03EB8403D8614FF4FA7002F055
:4002000071F80134042CF2DD6C4802F001F900240CE0654B03EB8403694DDA696949284606F0BAF8284602F0F3F80134042CF0DD012003F031F801225B4BDA6000231A464B
:400240000CE0594901EB8301C86930B1032A04D0554901EB8201086101320133042BF0DD0222514B5A60504B5B68022B40F0058201F02AFD002364226FF02201192001F06B
:40028000EBFC072001F0AAFA01210191C823009300230422822001F03BF9072001F09EFA022000F0C9FE02E0022000F0C5FE464B9D68B5F58C7FF7DCC5F503750135404C07
:4002C0002A464249204606F067F8204602F0A0F801230193C8230093032304220021284601F016F94FF47A71022000F065FE072001F074FA002000F09FFE3C2001F0F2FF33
:40030000314C23689633284EF363032000F094FE3C2001F0E7FF022000F08EFE3C2001F0E1FFA36803F1DC02E3681344B3639D4217DA0122C8216FF02C0001F031FB032041
:4003400000F07AFE3C2001F0CDFF022000F074FE3C2001F0C7FFA36803F1DC02E3681344B36301230193C8230093032305220021284601F0CDF84FF47A71022000F01CFEAE
:40038000114B1B696433084A5363C3F59662D31A5A2B1DDD044A936BC3F58A63063313631CE000BF287B0000BC81FF1F0883FF1F850000008D000000407B0000607B0000F8
:4003C000DC82FF1F747B00004882FF1F7C7B0000C74A936BC3F56D7302331363C44FC54C3A6BC549204605F0D7FF204602F010F87A6BC249204605F0CFFF204602F008F888
:40040000BA6BBF49204605F0C7FF204602F000F8FA6BBC49204605F0BFFF204601F0F8FFC821012000F06CFF4FF00109CDF804904FF0C80ACDF800A0002304224946962042
:4004400001F066F8072001F0C9F9032000F0F4FD322001F047FFDFF8B882D8F80C20AA49204605F099FF204601F0D2FFD8F80C60C6F549764E443246A449204605F08CFF18
:40048000204601F0C5FFCDF80490CDF800A0022304220021304601F03BF8002000F0CCFD3C2001F01FFF042000F0C6FD3C2001F019FFD8F8004096347B6B9C4203DBD8F891
:4004C00008309D4217DA924B986804F009FE86A3D3E9002304F06AFE05F002F92044844A5064C0F568730233D3644FF47A71022000F062FD53E04FF47A71012000F05CFD7C
:4005000001250195C824009404231A460021204600F0FEFF2146032000F0F2FE01950094002304222946822000F0F2FF072001F055F901950094032304220021304600F052
:40054000E7FF4FF47A71022000F036FD002000F073FD3C2001F0C6FE042000F06DFD3C2001F0C0FE6A4CE06804F0BAFD5EA3D3E9002304F01BFE05F0B3F823689633184422
:400580005B4AD064C0F56873023353642369632B05DC134664225A6440F23E32DA64544D544C6A6C5B49204605F0F6FE204601F02FFFEA6C5849204605F0EEFE204601F04A
:4005C00027FF6A6B5549204605F0E6FE204601F01FFFEA6B5249204605F0DEFE204601F017FF6B6BB3F5847F02DD0122A5F850203F4BDB6BB3F5847F03DD01223C4BA3F8EA
:4006000052203B4B5B6CB3F5847F03DD0122384BA3F85420364BDB6CB3F5847F03DD0122334BA3F8562001250195C8240094002305221946204600F06BFF2146022000F098
:400640005FFE2146284600F05BFE072001F0C6F801950094002304222946AC2000F058FF00940323052202219B2000F067FE072001F0B4F803221E4B5A601D4B5B68032BBB
:4006800040F0DE801A4BB3F95020002A4AD0B3F95430002B46D001250195C8240094002305221946AF2000F033FF072001F096F82146002000F024FE0D4B986D6FF036036C
:4006C00003FB00F001950094002304222946E13000F01EFF072001F081F82146032000F00FFEAAE0AFF300804FE92F37EFC6D33FBC81FF1FDC82FF1FA07B0000B07B0000C6
:40070000BC7B0000CC7B0000D87B0000E07B00004882FF1FF47B0000087C00001C7C0000307C0000A34BB3F952306BB3A149B1F9561049B301240194C825009504231A467B
:4007400000210A2000F0E4FE072001F047F82946002000F0D5FD072001F040F8954B986D6FF0360303FB00F001940095002304222146E13000F0CCFE072001F02FF82946A6
:40078000204600F0BDFD58E05AB38A4AB2F956203AB3884E706B01240194C8250095002305221946A73800F0B3FE072001F016F82946002000F0A4FDB06D6FF0360303FBF3
:4007C00000F001940095002304222146E13000F09FFE072001F002F82946204600F090FD2BE053B3734BB3F9543033B3714EF06B01250195C82400940023052219464330D6
:4008000000F086FE072000F0E9FF2146002000F077FDB06D6FF0360303FB00F001950094002304222946E13000F072FE072000F0D5FF2146032000F063FD04225D4B5A6017
:400840005C4B5B68042B19D15A4C0125E5650221002000F0B7FC052000F0EAFC00F078FC2946032000F0AEFC2A46C8216FF03B0001F096F80023E365052363604D4B5B684B
:40088000052B40F0CA804B4BB3F9502072B3B3F954305BB301240194C825009504231A460021322000F034FE2946002000F028FD072000F093FF0194009504231A46002102
:4008C000642000F025FE2946204600F019FD072000F084FF01940095002304222146AF2000F016FE072000F079FF93E0314BB3F952307BB32F49B1F9561059B30124019417
:40090000C825009504231A4600210A2000F000FE2946002000F0F4FC072000F05FFF0194009504231A460021642000F0F1FD2946204600F0E5FC072000F050FF0194009527
:40094000002304222146AF2000F0E2FD072000F045FF5FE082B3174AB2F9562062B3154B586B01240194C825009504231A460021C0F5AA60073000F0CBFD2946002000F08F
:40098000BFFC072000F02AFF0194009504231A460021642000F0BCFD2946204600F0B0FC01940095002304222146AF2000F0B0FD30E000BFBC81FF1F63B3804BB3F954304B
:4009C00043B37E4BD86B01240194C8250095002305221946C0F58D60104400F099FD2946002000F08DFC072000F0F8FE0194009504231A460021642000F08AFD29462046DD
:400A000000F07EFC01940095002304222146AF2000F07EFD0622694B5A60684B5B68062B40F09A80012002F037FC644C0523E36000F0FCF8624B1A68A36D04EB830423692B
:400A40009A421DD101250195C824009400230522194640F2262000F05BFD2146002000F04FFC2146032000F04BFC01950094002304222946AA2000F04BFD072000F0AEFEDD
:400A8000C821022000F03CFC0121032000F09AFB4A4B9B6D63B9072000F0A0FE01210191C823009300230422822000F031FD09E000230193462300930523042201215F2005
:400AC00000F026FD01213D4B986D00F07BFB00F031FB0021032000F075FB394B1B68022B03DD0722354B5A6036E00133344A1360324EB36D0133B3650122C8216FF0810084
:400B000000F04EFFC821032000F0FAFB072000F065FE01240194C825009500230522194640F2262000F0F4FC072000F057FE2946002000F0E5FB2946204600F0E1FB0194CF
:400B40000095002304222146B92000F0E1FC072000F044FE03237360184B5B68072B7FF42EAB00240194C8250095234605222146D22000F0CDFC2946032000F0C1FB072052
:400B800000F02CFE01260196009533460522214640F2F91000F0BCFC2946204600F0B0FB0196009504231A462146282000F0B0FC0221204600F006FBFEE700BFBC81FF1FF7
:400BC000CC80FF1F30B585B0002400940194029403940FE0E0B202F059FB0A2001F082FB01F0B8FF04AB03EB840504F05BFE45F8100C0134032CEDDD002002F047FB074B50
:400C0000009A1A60064B019A1A60064B029A1A60054B039A1A6005B030BD00BF3883FF1F3C83FF1F3483FF1F4483FF1FF0B585B0002400940194029403940FE0E0B202F0D4
:400C400025FB0A2001F04EFB01F084FF04AB03EB840504F027FE45F8100C0134032CEDDD002002F013FB009F984B1F60019C984B1C60029D974B1D60039E974B1E60974BB8
:400C80001B68052B00F2F880DFE813F0060054008100A000C300DC009149924B186804F04DFD0146204604F09FFEA8B18C498E4B186804F043FD0146284604F095FE58B180
:400CC00087498A4B186804F039FD0146304604F08BFE002840F0D9802946204604F0A2FE30B13146204604F09DFE002840F0CF803146284604F096FE30B12946204604F046
:400D000073FE002840F0C5803146284604F06CFE002800F0C0803146204604F065FE002800F0BB802946204604F05EFE002840F0B68002E16E49204604F056FE58B16C49CA
:400D4000284604F051FE30B16949304604F04CFE002840F0A6802946204604F063FE30B13146204604F05EFE002840F09C803146284604F057FE002800F09780294620461F
:400D800004F032FE002840F092800320D5E05949204604F047FE58B15649284604F042FE30B15549304604F01FFE002840F081805249204604F036FE00287CD1504928463E
:400DC00004F030FE002878D00220B6E04D49204604F028FE78B14B49284604F023FE50B14849304604F000FE28B14749384604F019FE002863D14149204604F013FE0028EE
:400E00005FD13E49284604F00DFE00285BD0022093E03E49204604F0E7FD00287ED03B49304604F0E1FD00287AD03849284604F0DBFD002876D03549384604F0D5FD00281A
:400E400072D17AE02649384604F0ECFD00286DD02F49204604F0C8FD002869D02C49284604F0C2FD002865D02A49304604F0BCFD002861D1012060E0274801F0C9FA40F611
:400E8000B83001F02FFA002057E0002055E0012053E0022051E000204FE000204DE003204BE0002049E0012047E0032045E0022043E0002041E001203FE003203DE00020F4
:400EC0003BE0012039E0032037E000BF2083FF1F2483FF1F7083FF1F4083FF1FC881FF1F0000FA443C83FF1F3483FF1F4483FF1F0000FA4500007A4600803B460050C34697
:400F000000F0D24600A08C4600007A4500409C4500409C4600C05A46547C000000200CE000200AE0002008E0012006E0012004E0012002E0012000E0002005B0F0BD00BF96
:400F400030B585B0002400940194029403940FE0E0B202F09BF90A2001F0C4F901F0FAFD04AB03EB840504F09DFC45F8100C0134032CEDDD002002F089F9002413E004AB82
:400F800003EB840353F8100C04F0BCF802F0CCFD074D02460B460749284605F0FDF9284601F036FA0134032CE9DD05B030BD00BFDC82FF1F787C000070B506460D4602F01C
:400FC00071F90446002002F067F9F0B202F05EF9284601F087F9002002F058F94FF4967001F080F9204602F057F970BD0000000038B501F059FF01F06FFF0D4C206001F0B7
:4010000045FF0C4B1D682068C0F5803004F068F805A3D3E9002304F0C9F804EB850404F05FFB606038BD00BF2BDF3312A111C63F4482FF1F7483FF1F10B50446C0B201F068
:40104000D5FF254B1C6001F087FF052C40D8DFE804F0030D17212B35012001F08BFF0A2001F056F9002001F085FF10BD012001F08DFF0A2001F04CF9002001F087FF10BDC3
:40108000012001F08FFF0A2001F042F9002001F089FF10BD012001F091FF0A2001F038F9002001F08BFF10BD012001F093FF0A2001F02EF9002001F08DFF10BD012002F01B
:4010C0008DFC0A2001F024F9002002F087FC10BD024801F09DF910BD7483FF1F8C7C000038B50F4801F094F9002412E02046FFF7A3FF3C2001F0F6F80A4B03EB84030A4DE0
:401100005A680A49284605F047F9284601F080F90134042CEADD064801F07AF938BD00BFA07C00004482FF1FDC82FF1FD87B0000BC7C000008B501F0F7FF4FF48C6001F0C2
:4011400089FF4FF4FA7001F0CDF801F0D9FF08BD08B501F0E9FF40F2145001F07BFF4FF4FA7001F0BFF801F0CBFF08BDA0F57A7240F2DC539A4221D870B5054602F07CF8FD
:4011800002F060F80446281A0D4E86FB0036C017C0EBA60606E03444A0B201F0FDFF0A2001F0A0F8AC42F6D1A8B201F0F5FF4FF4FA7001F097F802F04BF870BD704700BFD0
:4011C0006766666638B505460C46012905D101F0ABFF40F2145001F03DFF2CB901F0A4FF4FF48C6001F036FF032D17D8DFE805F002070C1140F6C410FFF7B8FF12E040F2C4
:401200006C70FFF7B3FF0DE040F24650FFF7AEFF08E04FF47A70FFF7A9FF03E04FF41660FFF7A4FF012C01D801F06AFF38BD00BF2DE9F8430446002002F0D0FA002002F04D
:40124000D3FA02F0E5F9462002F038F902F0BAFA462002F00FFAFFF76DFF012002F01CF8244B1C604FF04608C14600262EE002F0B7F8044602F06CF80546FFF7D7FC064664
:401280000A2001F02FF81C4F32461C49384605F083F8384601F0BCF885EAE570A0EBE57084EAE473A3EBE473984203DD4FF04A084FF04209984203DA4FF042084FF04A099E
:4012C000484602F0FBF8404602F0D4F9002ECED0002002F045F8002002F08AF802F082F902F05AFA00226421252000F059FBBDE8F88300BFC881FF1FDC82FF1FC07C0000A6
:4013000010B504460B4B1868201A5A2303FB00F0B0F5877F02D010F5877F04D1064B83FB0023C3EBE070012200F00AFC014B1C6010BD00BF0883FF1F565555552DE9F8431A
:4013400080460F4691461C4640F21452484B43F8242011E02046FFF76FFE322000F0C2FF434B53F82450434E2A464349304605F013F8304601F04CF83D4B53F82430B3F5E8
:40138000966FE7DCB9F1040F31D12AE03B4801F03FF801F0DDFF02F023F8022F06D10023089A07216FF0040000F056FC032F06D10023089A6FF00601052000F04DFC204685
:4013C000FFF73AFE322000F08DFF294B53F82450284E2A462849304604F0DEFF304601F017F888EAE873A3EBE8739D42CEDCB9F1050F31D12AE001F0ABFF01F0F1FF2048BD
:4014000001F006F8022F06D10023089A07216FF0040000F021FC032F06D10023089A6FF00601052000F018FC2046FFF705FE322000F058FF0E4B53F824500E4E2A460E49C8
:40144000304604F0A9FF304600F0E2FF88EAE873A3EBE8739D42CEDB0A4800F0D9FF002001F07EFF002001F0C3FFBDE8F88300BF4882FF1FDC82FF1FD87B0000C87C000080
:40148000E07C0000F47C000010B51C4B1B68012B2DD0A0B90420FFF7CFFD322000F022FF174B1A69531E532B23D8164C1649204604F072FF204600F0ABFF012010BD012874
:4014C00014D10020FFF7B8FD322000F00BFF0C4B1A68531E532B0ED80A4C0B49204604F05BFF204600F094FF012010BD10BD002010BD002010BD002010BD00BF1882FF1F02
:401500004882FF1FDC82FF1F007D0000000000002DE9F04F89B08346079105921C46129E012905D1002002F059F9002002F05CF9079B2BB9012002F051F9012002F054F924
:4015400040F21452A04B43F8242011E02046FFF773FD322000F0C6FE9B4B53F824509B4F2A469B49384604F017FF384600F050FF954B53F82430B3F5966FE7DC02F048F85D
:401580005FFA86F8404601F099FF02F01BF9404602F070F8059B052B79D0B246B14600276FF4A763019387E001F0D2FE0746049001F016FF002FB8BF7F420028B8BF404298
:4015C000874203DDA6F1040906F1040A874203DAA6F1040A06F104095FFA89F001F06EFF5FFA8AF002F046F8072C0DD1069B5BB10020FFF721FD322000F074FE724B53F869
:4016000024500023069320E0072C0DD1069B5BB90120FFF711FD322000F064FE6A4B53F824500123069310E02046FFF705FD322000F058FE644B53F824502A46644963489E
:4016400004F0AAFE614800F0E3FE384603F048FDCDE90201019803F043FD57A3D3E9002303F0F2FB00225B4B03F0ECFB02460B46DDE9020104F02AF888B1139B012B0ED154
:401680000798FFF701FF8046049B019307E0B246B14600276FF4A76301930697B8468BEAEB73A3EBEB739D4205DAB8F1000F3FF47BAF474600E04746059B042B5CD1B8467D
:4016C00051E001F045FE0746049001F089FE002FB8BF7F420028B8BF4042874203DDA6F1040906F1040A874203DAA6F1040A06F104095FFA89F001F0E1FE5FFA8AF001F09D
:40170000B9FF2046FFF798FC322000F0EBFD2E4B53F824502A462E492C4804F03DFE2B4800F076FE384603F0DBFCCDE90201019803F0D6FC22A3D3E9002303F085FB0022A6
:40174000244B03F07FFB02460B46DDE9020103F0BDFF40B1139B012B05D10798FFF794FE8046049B01938BEAEB73A3EBEB739D4202DDB8F1000FA4D02046FFF75DFC32200B
:4017800000F0B0FD114D104B53F824201249284604F002FE284600F03BFE002001F0E0FD002001F025FE01F01DFF01F0F5FF09B0BDE8F08FAFF30080CCCCCCCCCC13754019
:4017C000F6285C8FC2C56B404882FF1FDC82FF1FD87B000000005940207D000070B582B002F07CF94FF4967429E00020FFF724FC322000F077FD634C634E644D22683146AF
:40180000284604F0C9FD284600F002FE0120FFF713FC322000F066FD62683146284604F0BBFD284600F0F4FD236864681C1B22465749284604F0B0FD284600F0E9FD84EA56
:40184000E473A3EBE473B3F5487FCEDC01F0E0FE192001F033FE01F0B5FF192001F00AFF81E0002C22DD002001F0B8FF012001F0BBFF0FE00020FFF7DFFB322000F032FDA1
:401880000120FFF7D9FB322000F02CFD3D4A136854681C1B84EAE473A3EBE473012B42DD002C40DDB3F5487FE4DB3CE0002C3ADA012001F093FF002001F096FF0020FFF7B5
:4018C000BBFB322000F00EFD0120FFF7B5FB322000F008FD2B4A136854681C1B18E00020FFF7AAFB322000F0FDFC0120FFF7A4FB322000F0F7FC234B1A685B68D41A234D0A
:4019000000942449284604F047FD284600F080FD84EAE473A3EBE473012B04DD002C02DAB3F5487FDBDB0020FFF786FB322000F0D9FC0120FFF780FB322000F0D3FC114B94
:401940001A685B68D41A114D1349284604F024FD284600F05DFD22461049284604F01CFD284600F055FD84EAE473A3EBE473012B3FF777AF01F036FE01F00EFF02F04EF8C6
:4019800002B070BD4882FF1FD87B0000DC82FF1F2C7D0000407D0000587D0000647D00002DE9F04F87B004460F460492E12901DC8A4601E04FF0C80A002C08DD002001F0E9
:4019C0000DFF002001F010FF0123059307E0012001F004FF012001F007FF0023059301F017FE01F0EFFE204603F07AFB4AA3D3E9002303F0DBFB02F097F803F071FE83463D
:401A0000494C02464949204604F0C6FC204600F0FFFC01F09DFC054601F0E2FC0646D146002302936FF4A763039341E001F090FC0446054601F0D4FC064684EAE478A8EB6B
:401A4000E4780028B8BF4042804503DDA7F1040A07F10409804503DAA7F1040907F1040A5FFA8AF001F02AFD5FFA89F001F002FE404603F035FBCDE90001039803F030FB85
:401A800027A3D3E9002303F0DFF90022284B03F0D9F902460B46DDE9000103F017FE38B1049B012B04D10598FFF7EEFC0290039485EAE572A2EBE5728BEAEB73A3EBEB7358
:401AC0009A4208DA86EAE672A2EBE672934202DD029B002BAAD0144C2A461649204604F05BFC204600F094FC32461349204604F053FC204600F08CFC01F074FD01F04CFEC7
:401B0000002001F02DFC002001F072FC07B0BDE8F08F00BFAFF30080295C8FC2F5281540CDCCCCCCCC137540DC82FF1F707D000000005940807D0000947D00000000000013
:401B40002DE9F84304460F46E12901DC0E4600E0C826002C06DD002001F040FE012001F043FE05E0012001F039FE002001F03CFE01F04EFDF5B2284601F0A0FC01F022FE53
:401B8000284601F077FD6B2000FB04F003F0A8FA29A3D3E9002303F009FB29A3D3E9002303F004FB28A3D3E9002303F0FFFA0022274B03F025FC01F0B7FF03F091FD8146D7
:401BC00001F0C6FB01F00CFC0546B0461CE001F007FC0446054601F0BBFB0028B8BF4042002CB8BF6442A04202DD3E1F07F10408A04202DAA7F104083E1DF0B201F05EFC97
:401C00005FFA88F001F036FD002DB8BF6D4289EAE973A3EBE9739D42D9DB002001F0A0FB002001F0E5FB01F0DDFC01F0B5FDBDE8F88300BFAFF30080182D4454FB210940C3
:401C4000295C8FC2F52815408FC2F5285C8FEE3F00806640000000002DE9F84307460E4614461D46084603F03BFA15A3D3E9002303F09CFA01F0A8FF80468946384603F08D
:401C80002FFA42464B4603F0BBFB03F029FD07462A4621463046FFF753FF2A4621463846FFF77EFE2A4621467042FFF749FF2A4621467842FFF774FEBDE8F883AFF3008075
:401CC000399D52A246DF913F38B5364B1B686BB300234BBB012001F0DFFA02210020FFF771FA002407E0E0B201F0D0FA4FF4FA7000F0F8FA0134032CF5DD2B4800F088FB5B
:401D000000240EE0294D22462949284604F044FB284600F07DFBFFF713F9264800F078FB0134312CEEDD0123002BD2D11D4B5B683BB100231BB9204800F06AFB0123002B8E
:401D4000F8D1184B9B685BB11C4800F061FB0720FFF744FD4FF47A710220FFF72DF9F6E7104BDB68E3B1164800F052FB002411E02046FFF761F9642000F0B4FA0B4D114B63
:401D800053F824200A49284604F006FB284600F03FFB0134042CEBDD064800F039FBE5E738BD00BF8882FF1FA87D0000DC82FF1FD87B0000547D0000D07D0000E07D000090
:401DC000F47D00004882FF1FFEE700BFF0B40022174611E050F82760F3B226F0FF0608E001EB420511F812406D78A5550132013BDBB2002BF4D10137282FEBD9F0BC70474C
:401E000010B4194B1B78DBB203F00701174A11701B090132137002232D3A13700421A2F5A4521B3A1170102102F6765211701032137002F6F302137080220D4802700430C8
:401E40000170032464300470202447300470013002702C30017007490A70074A13704422064B1A7010BC7047CF0100496E580040245A0040045B0040585B00407658004044
:401E800008B50A46002103F00EFE08BD08B503F0FFFD08BD38B500243B4B1C80502202331A70012202331A801823384A137017210232118002321370332102321180023228
:401EC000137040F2AF41023211800232137040F69F710232118002321370042201F19041C5312B48FFF7D2FF02222A4B1A7008224FF040231A70032103F500731970264BE4
:401F00001B78DBB225490B70254B1A8041F25122023B1A8019250CE0224B1B7803F0010343EA440404F003044FF4F07001F0ECFD013D0DB1032CEFD115B90320FFF744FFEE
:401F4000194B4FF480721A8007221A70002217490A704820023108701A700222033B1A7004220A331A70124A137843F03F031370013A137843F001031370013A137843F0B1
:401F80008003137038BD00BF8040004086400040004100400043004008010049A146004022420040254200400440004006400040A243004038B572B6424A137843F0040304
:401FC000137000240CE0404D630019194A0011462A44084691882858FFF752FF0134E4B2062CF0D900240BE03749A3001819420088180622016BC06AFFF748FF0134E4B21E
:40200000002CF1D031494FF09040FFF7DFFE0A242F4B1C7040F20322373B1A802D4A03F530438C331A602C4A03F578631A602B4A137843F0020313701032137843F0020322
:402040001370274D2B7843F040032B70A2F58632513A137843F010031370082221492248FFF714FF224621492148FFF70FFF082220492148FFF70AFF224620492048FFF717
:4020800005FF22461F492048FFF700FF08221F491F48FFF7FBFE1F4A137843F0080313701D4C61232370FFF7F5FE8123237001221A4B1A70FFF7A4FE0E2229461848FFF713
:4020C000E5FE38BDE84600400C7E0000A400004883580040000404C40404008403500140A0430040281000480251004030100048C05100403C100048F2510040441000485B
:402100001051004050100048205100405C10004832510040224300400048004004000840B043004008B503F087FC03680C2B00D1FEE7FEE708B5094B1A681044084BC31AFB
:40214000B3F5007F02DC054B186005E003F074FC0C2303604FF0FF32104608BDEC80FF1F8083FF1F08B5104E104D16E029686B68AC68002204E051F8040B43F8040B0432BE
:40218000A242F8D1E868002203E0002143F8041B04328242F9D11035013E002EE6D103F051FCFDF785FFFEE701000000A881000008B5104A104B1A60104A136843F4007343
:4021C000136000230AE0032B03D80D4A52F8231000E00C490C4A42F8231001332F2BF2D90A4B1A780A4B1A70074A0A4B1A60FFF7E1FE08BD0004FA050CED00E014ED00E0F4
:4022000000000000252100000080FF1FBC760040C080FF1F08ED00E0084A137843F0040313701032137843F00403137002F5A5521E32137843F0800313707047A94300400C
:40224000044A137803F0FC0300F0030018431070704700BF09580040072809D8054B1A7802F08F021A701A780001C0B210431870704700BF0A580040032809D8054B1A78C9
:4022800002F0F3021A701A788000C0B210431870704700BF0A58004038B50224084B1C700C2201331A70012501331D700420FFF7D3FF2846FFF7E0FF2046FFF7C1FF38BD31
:4022C0000858004008B5054B1B7823B90122034B1A70FFF7E1FFFFF79FFF08BD9882FF1F01BE704710B5044605E0084B186801F00BFCA4F50044B4F5004FF6D8034B58687A
:4023000000FB04F001F000FC10BD00BFF080FF1F08B5034B1B7A00FB03F001F0F5FB08BDF080FF1F70B504460E46074B1D681F2802D90020FFF7D4FF04F01F04103455F898
:40234000240045F8246070BD08ED00E038B504460D46072902D90020FFF7C2FF1F2C02D90020FFF7BDFF04F01F0000F1604000F564406D01EDB2057038BD00BF7222084BB8
:402380001A702022013B1A7006225C3B1A70472210331A70002203F5A9731A70704700BF8264004010B501F0B7FB04460A4A137843F020031370013A137843F010031370B7
:4023C00002F58372137843F01003137000F032F8204601F0A5FB10BD9264004008B5054B1B7823B9FFF7CAFF0122024B1A70FFF7D9FF08BD9982FF1F034B1B7813F0040F91
:40240000FAD1024B18707047676500404464004038B5074B1B782BB938BDFFF7EDFF0134A4B201E005460024285D0028F5D138BD9982FF1F054A137843F00803137010326B
:40244000137843F008031370704700BFA243004038B59DF81040651EEDB2032D51D8013809282ED8DFE800F0052D2D052D2D0F192D230F2B03D92548007840B222E0244870
:40248000007840B21EE00F2B03D92248007840B218E02148007840B214E00F2B03D91F48007840B20EE01E48007840B20AE00F2B03D91C48007840B204E01B48007840B2E7
:4024C00000E0002001EB401101FB02F2D20B91B20D2B0BD8C3F10E0192B20A4191B2621E124800EB82020133937005E0631E0F4A02EB83030F229A70013C0C4B23F824100F
:4025000038BD0020FFF7ECFE38BD00BF180100491C010049190100491D0100491A0100491E0100491B0100491F0100499C82FF1FF8B5074601F0F0FA06460D4D2B7843F039
:4025400003032B700B4C237843F0030323700A4B1F700320FFF7DCFE2B7803F0FC032B70237803F0FC032370304601F0D9FAF8BDF8460040F946004092580040F8B50446C8
:402580000022BB4B1A7401285AD13822B94B1A70042202331A70072201331A70002501331D7001331D703F2201331A7002331D7001331D7001331D7001260A331E705022EF
:4025C00003F527631A70272201331A702C2201331A7001331D70552203331A705A2201331A70052701331F7002331E70112201331A70192201331A70972201331A70442013
:40260000FFF796FF58229C4B1A7001331D7005331F7001331E7001331D700A2201331A704FF4FA42954B1A603146384600F0C6FA3146252000F046FB91491D20FFF772FE47
:40264000022C5AD138228B4B1A70042202331A70072201331A70002501331D7001331D703F2201331A7002331D7001331D7001331D7001260A331E70502203F527631A7001
:40268000272201331A702C2201331A7001331D70552203331A705A2201331A70052701331F7002331E70112201331A70192201331A70972201331A704420FFF739FF5822B6
:4026C0006D4B1A7001331D7005331F7001331E7001331D700A2201331A704FF4FA42674B1A603146384600F069FA3146252000F0E9FA64491D20FFF715FE032C5AD138227A
:402700005C4B1A70042202331A70072201331A70002501331D7001331D703F2201331A7002331D7001331D7001331D7001260A331E70502203F527631A70272201331A701B
:402740002C2201331A7001331D70552203331A705A2201331A70052701331F7002331E70112201331A70192201331A70972201331A704420FFF7DCFE58223F4B1A70013312
:402780001D7005331F7001331E7001331D700A2201331A704FF4FA42384B1A603146384600F00CFA3146252000F08CFA36491D20FFF7B8FD042C5AD138222E4B1A7004227A
:4027C00002331A70072201331A70002401331C7001331C703F2201331A7002331C7001331C7001331C7001250A331D70502203F527631A70272201331A702C2201331A70AE
:4028000001331C70552203331A705A2201331A70052601331E7002331D70112201331A70192201331A70972201331A704420FFF77FFE5822104B1A7001331C7005331E709B
:4028400001331D7001331C700A2201331A704FF4FA420A4B1A602946304600F0AFF92946252000F02FFA09491D20FFF75BFDF8BD9C82FF1F004E0040945800407883FF1FB4
:402880007D2B0000812B0000852B0000892B00002DE9F04182B0394E4FF0010886F80080374F00247C74102000F076F9102000F0F7F907211D20FFF749FD0425314B1D700E
:4028C00001331C7007331C702F4A137843F0180313702E4B1C7003F2F5231C7001331C700A22A3F209331A7001331C7002331C705B2205331A705E2201331A7004331C70D7
:402900001422A3F68C231A70CDF8008010234FF4004249F2DA012846FFF79AFD0223009310234FF4004249F2DA012846FFF790FD0323009310234FF4004249F2DA01284615
:40294000FFF786FD009510234FF4004249F2DA012846FFF77DFD3378013B07EB83039A780B4B1A703378013B37F82320094B1A803078FFF703FE02B0BDE8F0810081FF1FFF
:402980009C82FF1F96580040075B0040935800400E4E00400C4E004070B501F0BDF806462A4B1B782A4B1A7842F001021A701A7842F010021A7010331A7842F001021A70D1
:4029C0001A7842F010021A70224D2B7843F002032B70214C237843F0020323701F4A137843F0030313700320FFF792FC2B7803F0FD032B70237803F0FD032370184A137829
:402A000043F0060313707A22164B1A70164A137843F0010313701032137843F0010313700F3A137843F0010313701032137843F0010313704FF000530C4A1360A2F5C072EB
:402A40001360304601F06CF870BD00BF0081FF1FAA430040F8460040F9460040915800407758004082580040A143004080E200E008B5084B9B7C4BB9064BDB7C13F0FF0FC7
:402A800001D1FFF705FF0122024B9A74FFF784FF08BD00BF9C82FF1F024A137843F0010313707047004E0040024A137803F0FE0313707047004E0040094B1B7C13F0FF0F2E
:402AC00003D0074B5B7CDBB203E0064B1B7803F00103012B01D00028EED01846704700BF9C82FF1F014E0040154B1B7803F00303012B07D8134B1888023B1B889BB243EABE
:402B0000004013E0022B0AD10E4B1888023B1B7843EA00430C4A107843EA002006E00B4B188883B2074A108843EA0040084B1B7C13F0FF0F02D00022054B5A74704700BF0C
:402B4000144E0040124E0040114E0040104E00409C82FF1F10B5084A137843F004031370FFF79AFF0020FFF7A7FFFFF7BDFF0446FFF79AFF204610BD014E0040704700BF2D
:402B8000704700BF704700BF704700BF014B188880B2704780400040034B1A7800F0F80010431870704700BF82400040024B187800F00700704700BF8240004070B5054607
:402BC0000E46FFF7F3FF0446FFF7E0FFA84256D02B4B1B7803F0010294B900B185B938B9284B1D80284A137803F0BF03137070BD254A137843F040031370224B1D8070BDA2
:402C000022B3002321490B7001240F310C7004310B700C390B7803F07F030B701A4B1B7813F0080F00D08DB9194B18800721013B1970164B1B7813F0010FFAD110490B78AF
:402C400003F0FE030B700021104B19700C4B1B7813F0010F0DD00E4B1D800EB1032200E001220A4B1A70094B1B7813F0010FFAD170BD044B1D8002490B7813430B7070BDA0
:402C8000A243004080400040824000400140004002400040014B188880B2704700410040034B1A7800F0F80010431870704700BF02410040024B187800F00700704700BFAE
:402CC0000241004070B505460E46FFF7F3FF0446FFF7E0FFA84256D02B4B1B7803F0010294B900B185B938B9284B1D80284A137803F0BF03137070BD254A137843F0400368
:402D00001370224B1D8070BD22B3002321490B70012413310C7004390B7008390B7803F07F030B701A4B1B7813F0080F00D08DB9194B18800721013B1970164B1B7813F0A3
:402D4000010FFAD110490B7803F0FE030B700021104B19700C4B1B7813F0010F0DD00E4B1D800EB1032200E001220A4B1A70094B1B7813F0010FFAD170BD044B1D80024969
:402D80000B7813430B7070BDA143004000410040024100400140004002400040054A137843F0020313701032137843F002031370704700BFA8430040054B1A7802F0FD02D6
:402DC0001A701A7800F0020010431870704700BF24580040014B1870704700BF815B0040094B1B7803F00C035B08084A127812F0040F00D0013303F1924393F83031DBB2CF
:402E0000034A1370704700BF24580040255800400946004008B51022064B1A700133002018701A7842F004021A70FFF7C5FFFFF7D7FF08BD2458004008B5074B1B7823B9C5
:402E4000FFF7E8FF0122044B1A70FFF7A7FF7820FFF7C0FF08BD00BFB482FF1F08B5064B1A7802F0F3021A701A7800F00C0010431870FFF7B5FF08BD24580040024A13783C
:402E800043F080031370704777640040024A137803F07F031370704777640040014B1870704700BF80640040014B1878704700BF60640040014B1880704700BF446800405C
:402EC000014B188880B2704784680040014B1880704700BF04680040024B1B78024B188880B27047026400408468004000F00300044B1A7802F0FC021A701A781043187088
:402F0000704700BF7764004008B501E0FFF7D8FFFFF7CAFF10F0080FF8D108BD08B54FF6FF70FFF7C7FF4FF6FF70FFF7CFFF00F0F3FD084A137843F01003137000F0F0FD29
:402F40000020FFF7D3FFFFF7DFFF0220FFF7A6FF08BD00BF9064004008B5054B1B7823B9FFF7DCFF0122024B1A70FFF787FF08BDB582FF1F044A137803F0FB03800000F009
:402F80000400184310707047C0510040044A137803F07F03C001C0B218431070704700BF20510040044A137803F0FE0300F0010018431070704700BF30510040044A1378FE
:402FC00003F0FE0300F0010018431070704700BF00510040044A137803F0BF03800100F0400018431070704730510040014B1870704700BF75640040084A137843F0010301
:4030000013701032137843F00103137002F64D32137843F001031370704700BFA3430040084A137803F0FE031370A2F65D32137803F0FE0313701032137803F0FE0313706D
:40304000704700BF004F0040014B1880704700BF044F0040014B1880704700BF064F0040014B1870704700BF034F004008B51A4A137843F0020313700232137803F08F03E8
:4030800043F010031370154B1A7802F0CF021A701A7842F030021A701A7802F0F0021A701A7842F00F021A7044F61F60FFF7CCFF40F2DC50FFF7CEFF0020FFF7D1FF084A56
:4030C000137843F00103137002F65E32137843F00103137008BD00BF004F00400B4F0040A343004008B5054B1B7823B9FFF7BEFF0122024B1A70FFF77FFF08BDB682FF1F33
:4031000008B5074B1B7813F0010F03D00122054B1A7002E00022034B1A70FFF781FF08BD004F0040B882FF1F08B5034B1B780BB1FFF762FF08BD00BFB882FF1F084A1378A2
:4031400043F0020313701032137843F00203137002F65932137843F001031370704700BFA3430040084A137803F0FE031370A2F66932137803F0FD0313701032137803F060
:40318000FD031370704700BF0C4F0040014B1880704700BF104F0040014B1880704700BF124F0040014B1870704700BF0F4F004008B51A4A137843F0020313700232137879
:4031C00003F08F0343F010031370154B1A7802F0CF021A701A7842F030021A701A7802F0F0021A701A7842F00F021A7044F61F60FFF7CCFF40F2DC50FFF7CEFF0020FFF7B2
:40320000D1FF084A137843F00203137002F66A32137843F00103137008BD00BF0C4F0040174F0040A343004008B5054B1B7823B9FFF7BEFF0122024B1A70FFF77FFF08BD00
:40324000B982FF1F014B188880B27047124F004008B5074B1B7813F0010F03D00122054B1A7002E00022034B1A70FFF77BFF08BD0C4F0040BC82FF1F08B5034B1B780BB198
:40328000FFF75CFF08BD00BFBC82FF1F014B1870704700BF79640040014B1870704700BF7A640040014B1878704700BF7A640040014B1B685864704708ED00E04001C0B2D4
:4032C000014B1870704700BF01E400E00222014B1A60704700E100E00222014B1A60704780E100E010B50446FFF7F6FF2046FFF7DFFF0720FFF7E2FFFFF7E8FF10BD00BFE0
:40330000014B1B681864704708ED00E04001C0B2014B1870704700BF00E400E00122014B1A60704700E100E00122014B1A60704780E100E010B50446FFF7F6FF2046FFF75D
:40334000DFFF0720FFF7E2FFFFF7E8FF10BD00BF08B500F069FAA0F5004000B208BD00BF08B5002803DB80B280F4004002E0A0F5004080B200F052FA08BD00BF024B1878BE
:4033800000F00F00704700BF64650040014B1870704700BF8465004008B50F20FFF7F6FFFFF7ECFF00F0B8FB034A137843F01003137000F0B5FB08BD9465004008B500F0D5
:4033C00085FA4FF4004000F029FA044B1B7813B90122024B1A70FFF7DFFF08BDBD82FF1F08B500F09BFAA0F5004000B208BD00BF08B5002803DB80B280F4004002E0A0F5AD
:40340000004080B200F084FA08BD00BF024B187800F00F00704700BF6B650040014B1870704700BF8B65004008B50F20FFF7F6FFFFF7ECFF00F070FB034A137843F010031B
:40344000137000F06DFB08BD9B65004008B500F0B7FA4FF4004000F05BFA044B1B7813B90122024B1A70FFF7DFFF08BDBE82FF1F024A137843F08003137070477C640040C0
:40348000024A137803F07F03137070477C640040014B1870704700BF0B640040024B1B78024B1878704700BF1B6400405B640040014B1870704700BF4B640040014B18706F
:4034C000704700BF2B640040014B1870704700BF8C640040014B1878704700BF6C640040014B1878704700BF7C640040014B1870704700BF7C640040014B1878704700BF7D
:403500005B64004008B501E0FFF7F6FFFFF7E2FF10F0100FF8D108BD08B5124A137803F0C00343F0090313701F32137843F001031370FF20FFF7ACFFFF20FFF7B9FF7F20A1
:40354000FFF7BCFF0020FFF7BFFF00F0E5FA064A137843F01003137000F0E2FAFFF7D2FF08BD00BF7C6400409C64004008B5054B1B7823B9FFF7D0FF0122024B1A70FFF7AB
:4035800077FF08BDBF82FF1F014B1878704700BF4B64004010B5FFF7F7FF064CA070FFF77DFF6070044B1B78E370FFF799FF207110BD00BFC082FF1F8C64004010B5074C53
:4035C000A078FFF775FF6078FFF762FFE278044B1A702079FFF78AFF10BD00BFC082FF1F8C64004008B5084B1B7813F0800F03D00122064B1A7002E00022044B1A70FFF7DA
:403600003FFFFFF7C7FF08BD7C640040C082FF1F08B5FFF7D3FF034B1B780BB1FFF728FF08BD00BFC082FF1F024A137843F08003137070477D640040024A137803F07F03F4
:40364000137070477D640040014B1870704700BF0D640040024B1B78024B1878704700BF1D6400405D640040014B1870704700BF4D640040014B1870704700BF2D640040A9
:40368000014B1870704700BF8D640040014B1878704700BF6D640040014B1878704700BF7D640040014B1870704700BF7D640040014B1878704700BF5D64004008B501E05D
:4036C000FFF7F6FFFFF7E2FF10F0100FF8D108BD10B5114A137803F0C00343F0090313700E4C237843F001032370FF20FFF7ACFFFF20FFF7B9FF7F20FFF7BCFF0020FFF786
:40370000BFFF00F009FA237843F01003237000F007FAFFF7D3FF10BD7D6400409D64004008B5054B1B7823B9FFF7D2FF0122024B1A70FFF779FF08BDC582FF1F014B1878CB
:40374000704700BF4D64004010B5FFF7F7FF064CA070FFF77FFF6070044B1B78E370FFF79BFF207110BD00BFC882FF1F8D64004010B5074CA078FFF777FF6078FFF764FF43
:40378000E278044B1A702079FFF78CFF10BD00BFC882FF1F8D64004008B5084B1B7813F0800F03D00122064B1A7002E00022044B1A70FFF741FFFFF7C7FF08BD7D640040DC
:4037C000C882FF1F08B5FFF7D3FF034B1B780BB1FFF72AFF08BD00BFC882FF1F014B1870704700BF76640040014B1870704700BF7B640040024A137843F0800313707047A0
:4038000074650040014B1870704700BF89640040014B1878704700BF69640040014B1880704700BF10680040024B1B78024B188880B270470864004090680040014B188801
:4038400080B2704790680040014B1880704700BF50680040014B1880704700BF7068004008B501E0FFF7EAFFFFF7D2FF10F0400FF8D108BD08B5134B1A7802F0F8021A701F
:403880001A7802F0FC021A70FFF7EAFF4FF40040FFF7DAFF4FF40040FFF7C0FF0020FFF7B1FFFFF7B5FF4FF40040FFF7D3FF00F033F9054A137843F01003137000F030F900
:4038C00008BD00BF746500409964004008B5054B1B7823B9FFF7CEFF0122024B1A70FFF789FF08BDCD82FF1F024A137843F080031370704779650040014B1870704700BFD6
:4039000088650040014B1878704700BF68650040014B1880704700BF146A0040024B1B78024B188880B270470A650040946A0040014B188880B27047946A0040014B188049
:40394000704700BF546A0040014B1880704700BF746A004008B501E0FFF7EAFFFFF7D2FF10F0400FF8D108BD08B5134B1A7802F0F8021A701A7802F0FC021A70FFF7EAFF2C
:403980004FF40040FFF7DAFF4FF40040FFF7C0FF0020FFF7B1FFFFF7B5FF4FF40040FFF7D3FF00F0B9F8054A137843F01003137000F0B6F808BD00BF796500409865004001
:4039C00008B5054B1B7823B9FFF7CEFF0122024B1A70FFF789FF08BDCE82FF1F044A137803F07F03C001C0B218431070704700BF00510040084A137843F00403137010329E
:403A0000137843F00403137002F66532137843F001031370704700BFA3430040084A137803F0FE031370A2F67532137803F0FB0313701032137803F0FB031370704700BF85
:403A4000184F0040014B1870704700BF1B4F0040014B1878704700BF1B4F0040014B1880704700BF1C4F0040014B1880704700BF1E4F004008B5164A137803F00103137081
:403A80000232137803F0FC031370124B1A7802F0CF021A701A7842F030021A701A7802F0F0021A701A7842F00F021A700A4A137843F0010313704FF6FF70FFF7CFFF4FF661
:403AC000FF70FFF7D1FF0020FFF7BCFF08BD00BF184F0040234F0040194F004008B5054B1B7823B9FFF7C6FF0122024B1A70FFF781FF08BDCF82FF1F014B1870704700BF16
:403B00007A650040000000000230800803D000BF01380046FCD17047EFF3108072B6704780F31088704700BFF8B5C1F30A56A6F2FF35132D0A460B460446864611DC002DA7
:403B40002EDB0F461F4929410A4225D04FF400232B413B4423EA01030026194634462046F8BD332D05DDB5F5806F1FD011462046F8BDA6F213464FF0FF3121FA06F6304233
:403B8000F4D00122C5F1330502FA05F52D1828BF9B1825EA0606E0E70028D7D11146E6E7013501F0004307D00026D6E702460B4601F04AF90446D2E743F07F5343F4401302
:403BC0000026CAE7FFFF0F0030B5214A21F00043934287B01BDD1F4A934205DD02460B4601F030F907B030BD02AA00F035F800F0030001281ED0022811D0DDE9042300B344
:403C0000DDE9020100F040FA01F10041EAE7002300930022002300F053FF07B030BD01230093DDE90201DDE9042300F049FF01F10041D7E7DDE90423DDE9020100F024FA52
:403C4000D0E70124DDE90201009400F039FFC9E7FB21E93FFFFFEF7F2DE9F04F944C21F00047A7428FB040F381801446914A0E46974226DC84A3D3E90023002940F3A081B3
:403C800001F0E0F88C4B80469F42894600F083807FA3D3E9002301F0D5F802460B464046C4E90023494601F0CDF879A3D3E9002301F0C8F80125C4E9020128460FB0BDE8B4
:403CC000F08F7E4A974240F383807D4A974258DC3D15A5F21645A7EB05518B46824601F0FFFC01F0FDF98046894642464B4650465946CDE9088901F0A5F80022714B01F07B
:403D000055FA8B46824601F0EBFC01F0E9F98046894642464B4650465946CDE90A8901F091F80022674B01F041FA00220023CDE90C0101F0A3FC002800F06A810023404606
:403D40004946002201F09AFC002814BF012302235D480221019000912A46214608A800F0B7FA002EC0F24A81054606E0C2E9000100250024C2E90245002528460FB0BDE8FB
:403D8000F08F02460B4601F05DF80025C4E90201C4E90001F1E740A3D3E9002301F052F83FA3D3E9002306460F4601F04BF802460B463046C4E90023394601F043F838A352
:403DC000D3E9002301F03EF80125C4E90201D4E700F02CFF34A3D3E900238046894601F0E5F90022394B01F02FF801F079FC054601F076F924A3D3E90023CDE9040101F0D6
:403E0000D5F902460B464046494601F01BF820A3D3E9002382468B46DDE9040101F0C6F91F2DCDE9020155DC294B6A1E53F822309F424FD002460B465046594601F002F8C4
:403E400002460B4681468846C4E900234A4643465046594600F0F6FFDDE9022300F0F2FF02460B46002EC4E9022386DA4A4608F1004301F1004184E80C00E160A0606D42E5
:403E80007BE700BFAFF3008000004054FB21F93F3163621A61B4D03D0000601A61B4D03D7370032E8A19A33B83C8C96D305FE43FFB21E93F7BD90240FB21F93FFB2139417D
:403EC000FFFFEF7F00007041C47E00000000E03F447E0000DDE902235046594600F0B2FF3F15C1F30A53FB1A102B81468846C4E90001ABDD58A3D3E90023DDE9040101F0AB
:403F000055F98046894602460B465046594600F099FFCDE9060102460B465046594600F091FF42464B4600F08DFF4DA3D3E9002380468946DDE9040101F038F942464B463E
:403F400000F080FF02460B46CDE90201DDE9060100F078FF0B4602468846C1F30A517F1A312F8146C4E9002372DD3FA3D3E90023DDE9040101F01AF98046894602460B4639
:403F8000DDE9060100F05EFF02460B4682468B46DDE9060100F056FF42464B4600F052FF33A3D3E9002380468946DDE9040101F0FDF842464B4600F045FFCDE9020139E728
:403FC00000F042FF2E4B80469F42894622D02AA3D3E9002300F038FF02460B464046C4E90023494600F02EFF23A3D3E9002300F02BFF4FF0FF35C4E90201BEE66268E368A6
:4040000002F1004203F1004345426260E360B4E603239DE610A3D3E9002300F015FF10A3D3E9002306460F4600F00EFF02460B463046C4E90023394600F004FF08A3D3E9C7
:40404000002300F001FF4FF0FF35C4E9020194E6DDE906ABFAE600BF0000601A61B4D03D7370032E8A19A33B0000002E8A19A33BC14920259A837B393163621A61B4D03D48
:40408000FB21F93F000000002DE9F04F21F00046B6F1795F85B00C4692469B4605466BDA01F01EFB002800F0E7802A4623462846214601F07BF874A3D3E90023804689468B
:4040C00001F074F872A3D3E9002300F0BDFE42464B4601F06BF870A3D3E9002300F0B2FE42464B4601F062F86DA3D3E9002300F0ABFE42464B4601F059F86BA3D3E9002391
:4041000000F0A0FE42464B4601F050F868A3D3E9002300F099FE42464B4601F047F8CDE900010022644B4046494601F03FF8DDE9002306460F464046494601F037F85246C9
:40414000804689465B462846214601F02FF802460B464046494600F075FE02460B463046394600F06FFE02460B460020534900F069FE05B0BDE8F08F02460B4601F016F803
:4041800041A3D3E900238046894601F00FF840A3D3E9002300F058FE42464B4601F006F83DA3D3E9002300F04DFE42464B4600F0FDFF3BA3D3E9002300F046FE42464B4696
:4041C00000F0F4FF38A3D3E9002300F03BFE42464B4600F0EBFF36A3D3E9002300F034FE4B46424600F0E2FF354BCDE900019E4297DD344B00229E4238DCA6F50013002054
:404200002E4916461F4600F01DFECDE902010022294B4046494600F0C9FF32463B4600F011FEDDE9002306460F464046494600F0BDFF5246804689465B462846214600F049
:40424000B5FF02460B464046494600F0FBFD02460B463046394600F0F5FD02460B46DDE9020100F0EFFD05B0BDE8F08F164B0026CDE90223154FCAE71049002005B0BDE823
:40428000F08F00BFAFF30080D43888BEE9FAA8BDC4B1B4BD9EEE213EAD529C804F7E923E9015CB19A001FA3E7751C1166CC1563F4C5555555555A53F0000E03F0000F03F91
:4042C0003233D33F0000E93F0000E73F0000D23F2DE9F04F794CADF51D7D1F460B93D31E84FB0354DB17C3EBA403A69E744C23EAE37554F826406B1C26460994A3EB8303C2
:404300007C1E0D95029402EBC3032D1B341904900A91089316D42C44013422AEA79F08E057F8250000F0DCFE0135A542E6E9020108D0002DF4DA013500200021A542E6E9DF
:404340000201F6D1099B002B2FDB099B74AADDF8089002EBC30B0DF5E47A029B002BC0F295810B9B0026C3EB090824AB03EBC808049B0027A3F1080524AB03EBC904F5E9D9
:40438000022374E8020100F011FF02460B463046394600F059FD444506460F46EFD1EAE90267DA4509F10109D7D1099B10A91D4603F18043023B9B001A1D0A440B440F92F0
:4043C0000E939CAB03EBC503002D53E928672BDD9CAB03EBC504A83C0DF13C0A0DF5E47B0022384B3046394600F0E0FE01F078F900F076FE0022344B8046894600F0D6FE70
:4044000002460B463046394600F01CFD01F068F974E802234AF8040F4946404600F014FD5C4506460F46DBD1089C30463946224600F08AFC00224FF07F5306460F4600F07E
:40444000B5FE00F0F9FB0022204B00F0AFFE02460B463046394600F0F5FC0F46064601F03FF9814600F03CFE02460B463046394600F0E8FC002C06460F4640F3EE80681EFB
:4044800010AB53F82030C4F1180243FA02F101FA02F29B1AC4F1170810AA42F82030894443FA08F8B8F1000F3DDD002D09F1010940F3D382002214460FA911E0ABAAAA2A08
:4044C000CC7F00000000703E0000704100002040C3F180700BB108600124013295420DDD51F8043F002CF3D0C3F1FF13013203F57F4395420B604FF00104F1DC089B002B82
:404500000DDD012B00F0B180022B08D16A1E10AB53F8223010A9C3F3150341F82230B8F1020F00F08180002200233046394601F0A5F8002800F05B82099B05F1FF3B5B4570
:4045400010DC05F1804310AA013B0F9802EB8303002253F80419834242EA0102F9D1002A40F0B180099B10AA013B52F82330002B40F071820E9A012352F80419013300299E
:40458000FAD0E9186A1C8A420C914BDC0D990B985118DB0001F180410593A79B05440139E80003EB810A24ABD20003EB000B74AB13440193A2F10803069007934FF0000962
:4045C0005AF8040F00F08CFD029BEBE80201002B4FF000064FF000071BDB069B03EB0904079B09EB030824AB1C449844049BA3F10805F5E9022374E8020100F0D7FD0246C8
:404600000B463046394600F01FFC444506460F46EFD1019B09F10809E3E802670193059B9945CDD10C9DCCE632463B460020B04900F008FC06460F46002C3FF474AF089A8E
:404640000020AB4900F080FB02460B463046394600F0F8FB06460F4665E710D16B1E10AA52F823304FEAE3581CE76A1E10AB53F8223010A9C3F3160341F822304FE70022DA
:404680009C4B01F019F858B980464CE700260027EAE90267DA4509F101097FF45EAE84E6002D09F10109C8BF4FF002083FF702AF32463B4600208E4900F0C4FB4FF00208A2
:4046C00006460F462FE7089A10AB53F82B30183ACDF81490CDF8048008926BB90BF18043013B10A901EB830353F804190BF1FF3B183A0029F8D00892089A00207C4900F026
:4047000023FBBBF1000F04460D46C0F2B6814FEACB030DF5E87810AA02EB8B0608EB03090493043609F1080756F8040D00F0D8FC22462B4600F03AFD002267E902016E4B4F
:404740002046294600F032FDB84504460D46EBD14B46CDF818B09B460DF5987ACDF808A0DDF824A04FF00009BAF1000FC0F226815DA3D3E90023DFF884815D4600260027D0
:40478000002403E0A14510DBF8E90223F5E8020100F00CFD02460B463046394600F054FB0134A24506460F46ECDA029BABF1080B03EBC903C3E9006772AB5B4509F1010918
:4047C000D2D1A69BDDF818B0DDF808A0032B00F28380DFE813F0D100950095000400BBF1000F40F35481049BCDF808B053449846D3E90067D34658E9029A32463B464846DB
:40480000514600F021FB04460D4602460B464846514600F017FB32463B4600F015FBC8E9000168E90245C34526462F46E3D1DA46DDF808B0BBF1010F40F32981049B0DF5B1
:404840009C7B53449846D3E90067994659E902343046CDE902341A463946234600F0F4FA04460D4602460B46DDE9020100F0EAFA32463B4600F0E8FAC9E9000169E90245C0
:40488000CB4526462F46E1D100231D4608F1080850AC184678E90223294600F0D5FA444503460D46F5D1019A002A00F0D880DAF80440DAF80C200A9FDAF80010DAF8080047
:4048C00005F1004504F1004402F100427D613B617C60FA603960B860059B03F007000DF51D7DBDE8F08F00BF00000040FB21F93F0000F03F0000E03F0000703EE07F0000A6
:4049000000242146049D0835554475E90223204600F09AFA55450446F7D1019B002B50D00A9F01F100450B46DAE9000187E83000224600F087FABBF1000F03460D460DDDC7
:4049400001241846FAE90223294600F07DFA0134A34503460D46F4DA019A0AB105F10045184629460A9BC3E90201059B03F007000DF51D7DBDE8F08F00231C46049A0832E6
:40498000924418467AE90223214600F05DFA0BF1FF3BBBF1FF3F03460C46F2D1019A0AB104F10044184621460A9BC3E90001059B03F007000DF51D7DBDE8F08F00260027C2
:4049C000F3E626460F4622460A9C0B46DAE90001C4E9006700F036FABBF1000F03460D46AEDC184629460A9BC3E90201BDE7089B30465A423946CDF81490CDF8048000F04A
:404A0000A3F900222C4B06460F4600F055FE002840D00022294B3046394600F0C7FB00F05FFE044600F05CFB0022234B00F0BEFB0B4602463946304600F004FA00F050FE17
:404A4000089B05F1010B1833089310AB43F8250043F82B4050E6012393E500244EE51846DAE90067DAE9022329460A9DC5E90067C5E90401C5E902232EE7A69B032B3FF6E7
:404A80002BAFDFE803F0151010020DF5987A00231D4608E73046394600F022FE10ABAB4643F8250028E6002421460DF5987A34E700231C4672E700BF000070410000703ECD
:404AC0002DE9F04F21F00046B6F1795F85B00C4690469946054604DA00F002FE002800F085802A4623462846214600F05FFB06460F4602460B462846214600F057FB3EA3EF
:404B0000D3E9002382468B463046394600F04EFB3BA3D3E9002300F095F932463B4600F045FB39A3D3E9002300F08EF932463B4600F03CFB36A3D3E9002300F083F932467D
:404B40003B4600F033FB34A3D3E9002300F07CF90E9BCDE900019BB30022334B4046494600F024FBDDE90023CDE902015046594600F01CFB02460B46DDE9020100F062F97E
:404B800032463B4600F012FB42464B4600F05AF923A3D3E9002306460F465046594600F005FB02460B463046394600F04DF902460B462846214600F045F905B0BDE8F08FFF
:404BC00002460B463046394600F0F0FA14A3D3E9002300F037F952465B4600F0E7FA2A46234600F031F905B0BDE8F08F2846214605B0BDE8F08F00BF7CD5CF5A3AD9E53DA5
:404C0000EB9C2B8AE6E55A3E7DFEB157E31DC73ED561C119A0012A3FA6F810111111813F495555555555C53F0000E03F21F00041704700BF00000000C1F30A522DE9F84354
:404C4000A2F2FF36132E0B4604460D46884607461CDC002E3FDB3A4A864642FA06F901EA0902024317D034A3D3E9002300F0ECF80022002300F02AFD20B1002D40DB28EA23
:404C80000905002738462946BDE8F883332E06DDB6F5806F2FD020461946BDE8F883A2F213424FF0FF3929FA02F910EA090FF2D021A3D3E9002300F0C7F80022002300F017
:404CC00005FD0028DED0002D20DB454627EA090738462946D8E718A3D3E9002300F0B4F80022002300F0F2FC0028CBD0002D18DB00273D46C6E702460B4600F0A5F8CCE7F0
:404D00004FF4801343FA06F6B044B8E7142E10D00123C6F1340603FA06F6371928BF9844D3E725F00042074B224318BF1D460027A8E705F10108C8E79C7500883CE4377EBA
:404D4000FFFF0F000000F0BFF8B5C1F30A5604460D460B46174606BB21F00043034325D000222F4B00F022FA2E4A044697420D460B462ADBC1F30A56363E40F2FE723E4483
:404D8000964228DC002E12DD23F0FF4323F4E00343EA065520462946F8BD40F2FF729642EBD102460B4600F04FF8F8BDF8BD16F1350F1DDA4CF250339F420CDC14A1D1E9ED
:404DC000000122462B4600F031F811A3D3E9002300F0ECF9F8BD22460FA1D1E900012B4600F024F80CA3D3E9002300F0DFF9F8BD23F0FF4323F4E003363643EA065520469F
:404E000029460022084B00F0D1F9F8BDAFF3008059F3F8C21F6EA5019C7500883CE4377E00005043B03CFFFF0000903C03F0004321F0004242EA0301704700BF81F000412C
:404E400002E000BF83F0004330B54FEA41044FEA430594EA050F08BF90EA020F1FBF54EA000C55EA020C7FEA645C7FEA655C00F0E2804FEA5454D4EB5555B8BF6D420CDDA0
:404E80002C4480EA020281EA030382EA000083EA010180EA020281EA0303362D88BF30BD11F0004F4FEA01314FF4801C4CEA113102D0404261EB410113F0004F4FEA03339D
:404EC0004CEA133302D0524263EB430394EA050F00F0A780A4F10104D5F1200E0DDB02FA0EFC22FA05F2801841F1000103FA0EF2801843FA05F359410EE0A5F120050EF12D
:404F0000200E012A03FA0EFC28BF4CF0020C43FA05F3C01851EBE37101F0004507D54FF0000EDCF1000C7EEB00006EEB0101B1F5801F1BD3B1F5001F0CD349085FEA3000A6
:404F40004FEA3C0C04F101044FEA445212F5800F80F09A80BCF1004F08BF5FEA500C50F1000041EB045141EA050130BD5FEA4C0C404141EB010111F4801FA4F10104E9D137
:404F800091F0000F04BF01460020B1FA81F308BF2033A3F10B03B3F120020CDA0C3208DD02F1140CC2F10C0201FA0CF021FA02F10CE002F11402D8BFC2F1200C01FA02F15B
:404FC00020FA0CFCDCBF41EA0C019040E41AA2BF01EB0451294330BD6FEA04041F3C1CDA0C340EDC04F11404C4F1200220FA04F001FA02F340EA030021FA04F345EA0301C3
:4050000030BDC4F10C04C4F1200220FA02F001FA04F340EA0300294630BD21FA04F0294630BD94F0000F83F4801306BF81F480110134013D4EE77FEA645C18BF7FEA655CBB
:4050400029D094EA050F08BF90EA020F05D054EA000C04BF1946104630BD91EA030F1EBF0021002030BD5FEA545C05D14000494128BF41F0004130BD14F580043CBF01F5DA
:40508000801130BD01F0004545F0FE4141F470014FF0000030BD7FEA645C1ABF194610467FEA655C1CBF0B46024650EA013406BF52EA033591EA030F41F4002130BD00BF6A
:4050C00090F0000F04BF0021704730B54FF4806404F132044FF000054FF0000150E700BF90F0000F04BF0021704730B54FF4806404F1320410F0004548BF40424FF0000166
:405100003EE700BF42004FEAE2014FEA31014FEA02701FBF12F07F4393F07F4F81F06051704792F0000F14BF93F07F4F704730B54FF4607401F0004521F0004120E700BF95
:4051400050EA010208BF704730B54FF000050AE050EA010208BF704730B511F0004502D5404261EB41014FF4806404F132045FEA915C3FF4DCAE4FF003025FEADC0C18BF03
:4051800003325FEADC0C18BF033202EBDC02C2F1200300FA03FC20FA02F001FA03FE40EA0E0021FA02F11444C1E600BF70B54FF0FF0C4CF4E06C1CEA11541DBF1CEA135527
:4051C00094EA0C0F95EA0C0F00F0DEF82C4481EA030621EA4C5123EA4C5350EA013518BF52EA033541F4801143F4801338D0A0FB02CE4FF00005E1FB02E506F00042E0FBA6
:4052000003E54FF00006E1FB03569CF0000F18BF4EF0010EA4F1FF04B6F5007F64F5407404D25FEA4E0E6D4146EB060642EAC62141EA55514FEAC52040EA5E504FEACE2E09
:40524000B4F1FD0C88BFBCF5E06F1ED8BEF1004F08BF5FEA500E50F1000041EB045170BD06F0004646EA010140EA020081EA0301B4EB5C04C2BFD4EB0C0541EA045170BDE2
:4052800041F480114FF0000E013C00F3AB8014F1360FDEBF002001F0004170BDC4F10004203C35DA0C341BDC04F11404C4F1200500FA05F320FA04F001FA05F240EA0200BA
:4052C00001F0004221F0004110EBD37021FA04F642EB06015EEA430E08BF20EAD37070BDC4F10C04C4F1200500FA04F320FA05F001FA04F240EA020001F0004110EBD3709C
:4053000041F100015EEA430E08BF20EAD37070BDC4F1200500FA05F24EEA020E20FA04F301FA05F243EA020321FA04F001F0004121FA04F220EA020000EBD3705EEA430EF3
:4053400008BF20EAD37070BD94F0000F0FD101F00046400041EB010111F4801F08BF013CF7D041EA060195F0000F18BF704703F00046520043EB030313F4801F08BF013DA7
:40538000F7D043EA0603704794EA0C0F0CEA135518BF95EA0C0F0CD050EA410618BF52EA4306D1D181EA030101F000414FF0000070BD50EA410606BF1046194652EA4306E9
:4053C00019D094EA0C0F02D150EA013613D195EA0C0F05D152EA03361CBF104619460AD181EA030101F0004141F0FE4141F470014FF0000070BD41F0FE4141F4780170BD45
:4054000070B54FF0FF0C4CF4E06C1CEA11541DBF1CEA135594EA0C0F95EA0C0F00F0A7F8A4EB050481EA030E52EA03354FEA013100F088804FEA03334FF0805545EA131337
:4054400043EA12634FEA022245EA111545EA10654FEA00260EF000419D4208BF964244F1FD0404F5407402D25B084FEA3202B61A65EB03055B084FEA32024FF480104FF483
:40548000002CB6EB020E75EB030E22BFB61A754640EA0C005B084FEA3202B6EB020E75EB030E22BFB61A754640EA5C005B084FEA3202B6EB020E75EB030E22BFB61A7546BA
:4054C00040EA9C005B084FEA3202B6EB020E75EB030E22BFB61A754640EADC0055EA060E18D04FEA051545EA16754FEA06164FEAC30343EA52734FEAC2025FEA1C1CC0D1E5
:4055000011F4801F0BD141EA00014FF000004FF0004CB6E711F4801F04BF01430020B4F1FD0C88BFBCF5E06F3FF6AFAEB5EB030C04BFB6EB020C5FEA500C50F1000041EBD3
:40554000045170BD0EF0004E4EEA113114EB5C04C2BFD4EB0C0541EA045170BD41F480114FF0000E013C90E645EA060E8DE60CEA135594EA0C0F08BF95EA0C0F3FF43BAF95
:4055800094EA0C0F0AD150EA01347FF434AF95EA0C0F7FF425AF104619462CE795EA0C0F06D152EA03353FF4FDAE1046194622E750EA410618BF52EA43067FF4C5AE50EA8B
:4055C00041047FF40DAF52EA43057FF4EBAE12E74FF0FF3C06E000BF4FF0010C02E000BF4FF0010C4DF804CD4FEA410C7FEA6C5C4FEA430C18BF7FEA6C5C1BD001B050EA23
:40560000410C0CBF52EA430C91EA030F02BF90EA020F0020704710F1000F91EA030F58BF994208BF90422CBFD8176FEAE37040F0010070474FEA410C7FEA6C5C02D150EABD
:40564000013C07D14FEA430C7FEA6C5CD6D152EA033CD3D05DF8040B704700BF8446104662468C461946634600E000BF01B5FFF7B7FF002848BF10F1000F01BD4DF808EDE3
:40568000FFF7F4FF0CBF012000205DF808FB00BF4DF808EDFFF7EAFF34BF012000205DF808FB00BF4DF808EDFFF7E0FF94BF012000205DF808FB00BF4DF808EDFFF7CEFFC3
:4056C00094BF012000205DF808FB00BF4DF808EDFFF7C4FF34BF012000205DF808FB00BF4FEA410212F5001215D211D56FF47873B3EB625212D94FEAC12343F0004343EA14
:40570000505311F0004F23FA02F018BF404270474FF00000704750EA013005D111F0004008BF6FF0004070474FF00000704700BF80F0004002E000BF81F0004142001FBFEA
:405740005FEA410392EA030F7FEA226C7FEA236C6AD04FEA1262D2EB1363C1BFD218414048404140B8BF5B42192B88BF704710F0004F40F4000020F07F4018BF404211F00F
:40578000004F41F4000121F07F4118BF494292EA030F3FD0A2F1010241FA03FC10EB0C00C3F1200301FA03F100F0004302D5494260EB4000B0F5000F13D3B0F1807F06D3C4
:4057C00040084FEA310102F10102FE2A51D2B1F1004F40EBC25008BF20F0010040EA03007047490040EB000010F4000FA2F10102EDD1B0FA80FCACF1080CB2EB0C0200FA74
:405800000CF0AABF00EBC25052421843BCBFD0401843704792F0000F81F4000106BF80F400000132013BB5E74FEA41037FEA226C18BF7FEA236C21D092EA030F04D092F017
:40584000000F08BF0846704790EA010F1CBF0020704712F07F4F04D1400028BF40F00040704712F100723CBF00F50000704700F0004343F0FE4040F4000070477FEA226286
:4058800016BF08467FEA23630146420206BF5FEA412390EA010F40F4800070474FF0000304E000BF10F0004348BF40425FEA000C08BF704743F0964301464FF000001CE0D2
:4058C00050EA010208BF70474FF000030AE000BF50EA010208BF704711F0004302D5404261EB41015FEA010C02BF84460146002043F0B64308BFA3F18053A3F50003BCFA29
:405900008CF2083AA3EBC25310DB01FA02FC634400FA02FCC2F12002BCF1004F20FA02F243EB020008BF20F00100704702F1200201FA02FCC2F1200250EA4C0021FA02F26B
:4059400043EB020008BF20EADC7070474FF0FF3C06E000BF4FF0010C02E000BF4FF0010C4DF804CD4FEA40024FEA41037FEA226C18BF7FEA236C11D001B052EA530C18BFF3
:4059800090EA010F58BFB2EB030088BFC81738BF6FEAE17018BF40F0010070477FEA226C02D15FEA402C05D17FEA236CE4D15FEA412CE1D05DF8040B704700BF84460846C5
:4059C0006146FFE70FB5FFF7C9FF002848BF10F1000F0FBD4DF808EDFFF7F4FF0CBF012000205DF808FB00BF4DF808EDFFF7EAFF34BF012000205DF808FB00BF4DF808EDA9
:405A0000FFF7E0FF94BF012000205DF808FB00BF4DF808EDFFF7D2FF94BF012000205DF808FB00BF4DF808EDFFF7C8FF34BF012000205DF808FB00BF014B1868704700BFB6
:405A40006481FF1F0E4B70B51E460E4C0025E41AA410A54204D056F8253098470135F8E702F090FB084B094C1E46E41AA4100025A54204D056F8253098470135F8E770BDDF
:405A80009081000090810000908100009881000010B5431E0A44914204D011F8014B03F8014FF8E710BD03460244934202D003F8011BFAE770472DE9F04788B0149F002BEB
:405AC0001E461299B8BF03F1004327F02007B6BF1E4600232D23462F1446109DDDF84CA00B7003D0452F03D1013501E0032300E0022307AA049206AA03928DE828042246B5
:405B0000334600F001FD472F804602D1119BDB0728D5462F08EB050911D198F80030302B0AD10022002320463146FFF7A7FD18B9C5F10105CAF80050DAF8003099440022BA
:405B4000002320463146FFF799FD08B9302202E0CDF81C9006E0079B994503D9591C07911A70F8E74046079B159AC8EB0303136008B0BDE8F087034673B50029B8BF494208
:405B800003F8022BB4BF2D222B22092942701ADD0DF1070216460A2591FBF5F405FB1411092C01F1300102F8011D2146F4DC3031541E02F8011CB4421A460AD214F8012BAC
:405BC00003F8012BF7E71A463024214402F8024B5970101A02B070BD2DE9F04F91B00C46DDF8688016461F46054601F025FA03681846099300F0F4FB00230E93D8F80030A5
:405C00000A90073323F0070303F1080294F81890D4F800B0C8F80020D3E90023C4E91223D4F84CA0D4F848802AF000430B934FF0FF32A74B40460B9901F052FFA0B94FF077
:405C4000FF32A34B40460B99FFF72CFD60B90022002340465146FFF71BFD10B12D2384F843309C4B9C4A0AE0424653464046514601F036FF002800F09281984B984AB9F17E
:405C8000470F8CBF90469846032323612BF0040323604FF0000A3DE0B9F1670F00F08A81B9F1470F00F0868123600193636800210DF133020590029200934246534606911E
:405CC000CDF81090CDF80CE02846FFF7F4FE09F0DF03472B804600F08481B9F1650F0D9900F28D8101394A4604F150000D91FFF742FF0E9A82468318012A236100F37C81DE
:405D00002268D10700F178819DF8333013B12D2384F84330009733460FAA2146284600F09FF9013002D14FF0FF3096E123685A0501D4236965E0B9F1650F40F2D580D4E91B
:405D4000120100220023FFF799FC78B30123654A31462846B8470130E5D00E9B0D9A9A420BDB2368D80708D423689B0740F111814FF0000804F1190906E10A9B099A31462C
:405D80002846B8470130CED04FF0000804F11A090E9B013B9845E7DA01234A4631462846B8470130BFD008F10108F1E70D9B002B29DC01234B4A31462846B8470130B2D06B
:405DC0000D9B23B90E9B13B92368D907CCD50A9B099A31462846B8470130A4D04FF0000904F11A0A0D9B5B42994509DA0123524631462846B847013095D009F10109F1E754
:405E00000E9B4246A7E00E9AA36D9A42A8BF1A46002A914606DC4FF0000A29EAE97904F11A0B11E01346314642462846B8470130F1D178E701235A4631462846B8470130B3
:405E40003FF471AF0AF1010AA36DC9EB03029245F0DB08EB03090D9A0E9B9A420FDB2368DA070CD40E9B0D9A9844C9EB08089B1A9845A8BF9846B8F1000F08DC0FE00A9B06
:405E8000099A31462846B8470130EBD14BE743464A4631462846B84701303FF444AF4FF0000928EAE87804F11A0A09E00123524631462846B84701303FF435AF09F1010940
:405EC0000D9A0E9B9B1AC8EB03039945EEDB4BE7FFFFEF7F22800000268000002A8000002E800000328000000E9A012A01DCDB0738D50123424631462846B84701303FF4BA
:405F000012AF0A9B099A31462846B84701303FF40AAFD4E9120100220023FFF7AFFB20B14FF0000804F11A090EE00E9B08F10102013B19E001234A4631462846B8470130E1
:405F40003FF4F1AE08F101080E9B013B9845F1DB534604F1500231462846B84701307FF403AFE0E64246012331462846B8470130EED1D8E601234A4631462846B8470130D8
:405F80003FF4D1AE08F10108E3680F9A9B1A9845F0DBE0680F9B9842B8BF18465DE062680EA8531C0DF1340E4BF480637FF474AE062201E012B90122626075E6002106914C
:405FC0000DF133018DE80C00236005904246CDF81090CDF80CE0029153462846FFF76BFD80460D9BD81C02DB626893421DDDA9F102095FFA89F970E60133236184E6B9F1C6
:40600000660F14D10029636807DD216113B92268D2071DD501330B4419E013B92268D00701D5023313E0012311E04FF067090D9B0E9A934205DB22682361D10708D5013324
:4060400005E0002BD4BFC3F102030123134423610D9B4FF0000AA36556E611B0BDE8F08F2DE9F04791461F460A698B6806469342B8BF1346C9F8003091F843200C46DDF8C7
:40608000208012B10133C9F800302368990642BFD9F800300233C9F80030256815F0060510D104F1190A07E00123524639463046C04701301AD00135E368D9F800209B1A8F
:4060C0009D42F1DB94F843302268003318BF012392060FD5E118302081F843005A1C94F845102244023382F8431003E04FF0FF30BDE8F08704F1430239463046C04701302A
:40610000F4D02268D9F80050E36802F00602042A08BF5D1B2269A3680CBF25EAE57500259342C4BF9B1AED184FF000091A344D4509D00123224639463046C0470130D5D0DE
:4061400009F10109F3E70020BDE8F0872DE9F04317460A7E85B06E2A984606460C460C9B01F1430E00F0AE8011D8632A22D009D8002A00F0BB80582A40F0CA8081F845200E
:40618000834955E0642A1ED0692A1CD0C0E0732A00F0B08009D86F2A2ED0702A40F0B8800A6842F020020A603EE0752A24D0782A3AD0ADE01A6801F14205111D1960136815
:4061C00084F84230A8E021681A6811F0800F02D0111D196008E011F0400F02F10401196002D0B2F9003000E01368002B3CDA2D225B4284F8432037E021681A6811F0800FA6
:4062000002D0111D196007E011F0400F02F10401196001D0138800E01368227E5C496F2A14BF0A2208221BE078225A4984F845202268186812F0800F00F104051D6003D170
:40624000550601D5038800E00368D00744BF42F0200222601BB9226822F0200222601022002084F8430001E049490A226568002DA56008DB206820F0040020602BB9002D94
:406280007DD175460CE0002B79D07546B3FBF2F002FB1033CB5C05F8013D03460028F5D1082A0BD12368DA0708D5236962689A42DEBF302305F8013C05F1FF35C5EB0E03B3
:4062C00023612EE008681A6810F0800F496903D0101D1860136808E010F0400F02F104001860136801D0198000E0196000232361754616E01A68111D196015680021626819
:40630000284600F0A5FE08B1401B6060636804E004F1420584F8422001232361002384F84330CDF800803B4603AA21463046FFF797FE013002D14FF0FF3026E023692A46B6
:4063400039463046C0470130F5D023689B0710D5002504F1190907E001234A4639463046C0470130E7D00135E368039A9B1A9D42F2DBE068039B9842B8BF184605E00B78E2
:4063800004F1420584F842308AE705B0BDE8F08334800000458000000EB400B54FF402719CB0ADF814106FF00041049107914FF6FF711DAB02900690084853F8042BADF8D9
:4063C0001610006802A9019301F038FA029B00221A701CB05DF804EB03B070476481FF1F034613F8012B002AFBD1181A013870472DE9F74F03690C6980469C427FDC013CD6
:4064000001F114074FEA840E00F1140606EB0E0357F82450019356F824300135B3FBF5F507EB0E09C5B34FF0000A3846B446D34650F8043B9AB205FB02A21B0C4FEA124A22
:4064400005FB03A392B2C2EB0B0BBCF800204FEA134A5A441FFA83FBDCF800308145CBEB134303EB224392B242EA03424FEA234B4CF8042BDCD256F80E306BB9019B043B9F
:406480009E421A4602D3C8F8104005E01268043B002AF8D1013CF3E7404600F0F4FF00282BDB304601354FF0000E57F8042B036891B2C1EB0E0E120C99B27144C2EB13436A
:4064C00003EB214389B24FEA234EB94541EA034340F8043BE9D256F8242006EB840362B9043B9E421A4602D3C8F8104005E01268043B002AF8D1013CF3E7284600E0002025
:4065000003B0BDE8F08F00002DE9F04F456A95B08246219CCDE9022345B9102000F090FDCAF82400456085600560C560DAF82430196859B15A68012393404A608B605046A1
:4065400000F0C9FDDAF8243000221A60039BA04A002BBDBF01232360039B0023BCBF23F000430393DDF80C80A8BF236028F000431B0D1B0593421DD142F20F73209A136011
:40658000029B43B9934A944BC8F31300002814BF1846104600E09048229B002B00F04685C37813B100F1080300E0C31C229A136000F03CBDDDE902450022002320462946B5
:4065C000FFF75CF8074658B1209A01231360229B002B00F01E8581481860013800F026BD12AB019313AB009322462B46504600F0C5FFC8F30A56049056B1C5F3130343F066
:406600007F51204641F44011A6F2FF3611971DE0139B129E1E4406F23243202B0ADD029A06F21240C3F1400322FA00F008FA03F3184304E0C3F12000029B03FA00F0FEF75A
:406640003FFD0123A1F1F871013E11930022644BFEF7F8FB58A3D3E90023FEF7A7FD58A3D3E90023FEF7F0FB044630460D46FEF737FD55A3D3E90023FEF798FD02460B46C0
:4066800020462946FEF7E0FB04460D46FFF728F800228346002320462946FEF7F9FF58B15846FEF71DFD02460B4620462946FEF7E5FF08B90BF1FF3BBBF1160F0DD8DDE942
:4066C0000223484901EBCB01D1E90001FEF7FEFF30B10BF1FF3B002300E00123109300E01090129B9E1B731E079343BFC3F10008002307934FF00008BBF1000F06DB079B8D
:40670000CDF82CB05B440793002705E00023CBEB0808CBF100070B931E9B092B28D8052BC4BF043B1E931E9BC8BF0025A3F10203D8BF0125032B20D8DFE803F0060E0204E4
:40674000012302E0012308E000230A931F9B002B1DDD9946059321E000230A931F9B0BEB030909F10103012B0593B8BF012315E0012500231E930A9501E001230A934FF0A8
:40678000FF390022CDF8149012231F9206E04FF001094B46CDF81490CDF87C90DAF8244000226260042101F114029A421CD86268490001326260F6E761436F63A787D23F85
:4067C000B3C8608B288AC63FFB799F501344D33F0000F07F568000005F800000338000000000F83F708000006168504600F03EFCDAF8243020601B680693059B0E2B00F29C
:406800005B81002D00F05881DDE90234BBF1000FCDE90E3430DD9F4A0BF00F034FEA2B1502EBC303E80618CBCDE908340CD5DDE90E01994B05F00F05D3E90823FEF7E0FD89
:406840000324CDE9020100E00224934E6DB1E90708D5DDE90801D6E90023FEF7A7FCCDE9080101346D100836F0E7DDE90823DDE90201FEF7C5FD20E0CBF1000505B3DDE9E7
:406880000E01844B05F00F0203EBC203D3E90023FEF78CFCCDE902017F4E2D110023022455B1EA0705D5D6E90023FEF77FFC013401236D100836F3E71BB1CDE9020100E062
:4068C0000224109BE3B1DDE902560022734B28463146FEF7DDFE98B1059B8BB1B9F1000F40F3E6800BF1FF330893314600226C4B2846FEF75BFC0134CDE902014E4602E0D2
:40690000059ECDF820B02046FEF7EAFBDDE90223FEF74CFC634B0022FEF796FAA1F1507304460C931D46D6B9DDE9020100225E4BFEF788FA22460C9BCDE90201FEF7C6FEA6
:40694000002840F03F820C99224601F10043DDE90201FEF79DFE002840F02B82A8E00A9A4C4B711E002A49D003EBC103D3E9002300204E49FEF744FD22462B46FEF762FA21
:40698000CDE90C01069CDDE90201FEF7A9FE0546FEF7A6FB02460B46DDE90201FEF752FADDE90C23303504F8015BCDE90201FEF76FFE002840F01D83DDE902230020374939
:4069C000FEF740FADDE90C23FEF762FE002840F0D180069BE31AB3426ADADDE90C0100222F4BFEF7E3FB0022CDE90C01DDE902012B4BFEF7DBFBCDE90201C4E703EBC10159
:406A00002246D1E900012B46FEF7D0FB069BCDE90C011D469C19DDE90201FEF761FE0646FEF75EFB02460B46DDE90201FEF70AFA303605F8016BAC42CDE902014FF00002BD
:406A400022D11A4BDDE90C01FEF7FEF902460B46DDE90201FEF73AFE002840F08B80DDE90C2300201149FEF7EDF902460B46DDE90201FEF70DFED8B114F8013C621E302BB4
:406A800040F0B7821446F7E7054BFEF78FFBCDE90201C0E770800000488100000000F03F0000244000001C40000014400000E03FDDE90E34CDE90234139B002B7CDBBBF11B
:406AC0000E0F79DCAB4B03EBCB03D3E900671F9B002B14DA059B002B11DC40F06C810022A54B30463946FEF761FBDDE90223FEF7E3FD059D2E46002840F05F8165E1069C59
:406B0000DDE9028932463B4640464946FEF778FCFEF7E6FD0546FEF7E3FA32463B46FEF745FB0B46024649464046FEF78BF905F1300E069B04F801EBC3EB040E059B73456E
:406B40002DD102460B46FEF77FF98046894602460B4630463946FEF79BFD78B942464B4630463946FEF78AFD002800F04482EB0704D440E2DDF820B000E01C4614F8012CBC
:406B8000631E392A07D1069A9A42F6D1069930220BF1010B0A701A7801321A702BE20022764BFEF703FB0022002380468946FEF765FD0028A6D01EE20A9A002A2BD01E9AE1
:406BC000012A0ADC119A12B103F2334302E0129BC3F136033D46444613E0059B5D1EAF42BFBF0B9BEA1B9B180B93059BB6BF2F467D1B0025002BA7BF4446059BC3EB0804ED
:406C00000023079A01211A4450469844079200F001FB064602E03D4644460A9E5CB1079B002B08DDA342A8BF2346079AC3EB0808E41AD31A0793002F1DDD0A9BABB18DB176
:406C400031462A46504600F07FFB049A01460646504600F0E8FA04990890504600F03BFA089B04937A1B06D000E03A460499504600F06AFB04900121504600F0CBFA0B9B70
:406C800005465BB31A460146504600F05DFB1E9B0546012B18DC029B83B9039BC3F3130373B9039B23F000473F0D3F054FB1079B08F1010801330793012702E0002700E058
:406CC000029F0B9B73B100E000272B6905EB8303186900F052FAC0F1200004E01E9B012BD9DD0B9F0120079B184410F01F0008D0C0F12003042B02DDC0F11C0002E006D0E4
:406D000018461C30079B8044034404440793B8F1000F05DD42460499504600F063FB0490079B002B05DD29461A46504600F05AFB0546109B23B32946049800F0A4FB0028FC
:406D40001EDA00230A220499504600F0DBF90A9B0BF1FF3B0490002B00F05F81314600230A22504600F0CEF9B9F1000F06463FDC3BE000BF708000000000144000002440B6
:406D8000059B002B2BDC1E9B022B28DDDDF81490B9F1000F11D129464B460522504600F0B1F901460546049800F06DFB00280CDC03E0354600E000252E461F9B069C6FEA89
:406DC000030B09E03546DDF820B0069B069A5C1C312313700BF1010B05960026F7E00A9BDDF8149023B9069CB2E01E9B022BCFDC002C05DD31462246504600F0F3FA0646E1
:406E00009FB17168504600F031F90446326906F10C01023292000C30FEF73AFE01222146504600F0DFFA059000E00596029B069F03F00103079329460498FFF7D9FA31464A
:406E4000044600F13008049800F01DFB059A02902946504600F033FBC36802463BB901460A90049800F00FFB0A9A034600E00123114650460A9300F02EF90A9B53B91E9ACE
:406E800042B9079A32B9B8F1390F2AD0029B002B1CDC1DE0029A002A04DB1BD11E9ACAB9079ABAB9002B13DD01220499504600F099FA2946049000F0E6FA002803DC07D11D
:406EC00018F0010F04D0B8F1390F0AD004F131087C1C0CE0002B07F101040BDDB8F1390F03D139233B70013756E008F1010887F800806CE0069B2746E31A4B4504F8018C6E
:406F00003BD000230A220499504600F0FBF8059B04909E424FF00A024FF000033146504604D100F0EFF80646059084E700F0EAF8002306460A220599504600F0E3F805903A
:406F400079E700230A220499504600F0DBF8049029460498FFF74CFA069B00F1300804F8018BE31A4B45ECDB069B0596B9F1010FACBF4B4401331F460026012204995046E6
:406F800000F030FA2946049000F07DFA002803DC15D118F0010F12D03C4614F8013C621E392B09D1069B934204D10BF1010B3123069A02E01446F0E70133137007E03C4663
:406FC00014F8013C621E302B01D11446F8E72946504600F080F8059B6BB12EB19E4203D03146504600F077F80599504600F073F801E0DDF820B00499504600F06CF800237C
:40700000209A23700BF101031360229B1BB11C6001E008480AE0069808E0B9F1000F3FF7E2AE1E9B022B7FF7DEAEB1E615B0BDE8F08F00BF32800000004870476881FF1F8C
:40704000024B0146186800F041BB00BF6481FF1F10B5C9B202449042034605D01C7801308C42F8D1184610BD002010BD70B5456A04460E463DB91020FFF7E2FF606245608E
:4070800085600560C560656AEB6843B1636ADB6853F8260078B1026843F8262017E021220421204600F0B8FA636AE860DB68002BECD1002070BD012101FA06F56A1D920091
:4070C000204600F0A9FA0028F3D04660856000230361C36070BD70B5446A06460D463CB91020FFF7ADFF7062446084600460C4603DB1736A6A68DB6853F82210296043F80E
:40710000225070BD2DE9F04106460C460D691F4601F1140E0023DEF80000013381B202FB0171000C0F0C02FB007089B201EB00419D424FEA10474EF8041BECDCD7B1A368E2
:407140009D4212DB616830460131FFF78FFF8046226904F10C01023292000C30FEF798FC21463046FFF7B7FF444604EB850301355F6125612046BDE8F081030C1B0413B9F4
:407180000004102300E0002310F07F4F04BF0002083310F0704F04BF0001043310F0404F04BF80000233002803DB420003D5581C70471846704720207047036813F0070238
:4071C0000BD0D90722D49A074BBF5B089B08036003604CBF01200220704799B209B91B0C102213F0FF0F04BF1B0A0832190704BF1B090432990704BF9B080232D90702D49C
:407200005B0805D00132036010467047002070472020704710B50C460121FFF727FF01224461026110BD2DE9F74F14460A69236988469A42BEBF0B46A0461C46D8F8107093
