:400000000080002011000000B5140000B514000008B5044B1A6803F53F5302331A6001F069FA00BFFA46004010B5054C237833B9044B13B10448AFF300800123237010BD81
:40004000B881FF1F000000006C770000084B10B51BB108490848AFF300800848036803B910BD074B002BFBD0BDE81040184700BF00000000BC81FF1F6C770000C880FF1F5C
:400080000000000008B500F00FFB08BD08B5642001F0F0FA0122034B1A600022024B1A6008BD00BFD481FF1FCC80FF1F08B500F0C3FE08BD08B500F0DFFE08BD08B502F042
:4000C00081FD02F065FD02F0FBFA044B186002F077FA034B186000F0D7FD08BDF882FF1F0083FF1F10B5002003F036F8002003F039F802F04BFF124C207802F09DFE03F099
:400100001FF8207802F074FF02220E4B1A61002405E000F0AFF904460A2001F0ABFA002CF7D0002002F0DAFD002002F01FFE02F017FF02F0EFFF1E2000F02AFF10BD00BF32
:40014000FC80FF1FD481FF1F38B562B601F082FA01F00CFBA14801F023FB01F051FE02F033F8002002F042F89D4D287D01F0FAFF00242C61204602F051FC012002F048FC41
:400180004FF4FA7001F076FA022002F041FC4FF4FA7001F06FFA032002F03AFC4FF4FA7001F068FA204602F033FC4FF4FA7001F061FA00F02BF902F0F9FB4FF47A7002F0F5
:4001C000ADFB4FF4FA7001F055FA02F003FC02F04BFB4FF48C6002F0FFFA4FF4FA7001F049FA02F04FFB02F07FFE02F0B9FE02F055FF02F08FFF02F09FFD02F0E5FD02F0D8
:4002000073F802F019F8774802F050FC764802F025FC2C6002F0A4F902F026F9002003460246014600F0F8FC02F09AFA02F018FA02F010FD6D4802F061FC6D4802F086FCC4
:400240006C4802F035FD6C4B9B68012B19D100238BB96A4801F0A4FA00F04EFB002407E0204600F069FE4FF47A7001F003FA0134032CF5DD0123002BEAD1E62000F088FE56
:40028000FEE7022B17D16FF02C0000F0E5FE6FF0950000F07DFE2D2000F0DEFEC82000F077FE5A2000F0D8FE4FF4FA7000F070FE0322514B9A60504B9B68032B25D1504BBE
:4002C0001B68032B0FD14F4B1B68032B05D000228221102000F0F0FD14E05A226621102000F0EAFD0EE0474B1B68012B05D0B4228221682000F0E0FD04E05A22662168203C
:4003000000F0DAFD04223C4B9A603B4B9B68042B2DD146223C4B1A600122314B9A60002414E0322000F034FE012000F005FE00F0A1F80546032000F0FFFD6FF0310000F094
:4003400027FE274B9B689D4200D10124002CE8D0002000F0F1FDFFF7C5FE00F0B5FD032000F0EAFD6FF03B0000F012FEFEE7052B28D14FF487720F211E2000F09DFD184C97
:40038000A06900F0F9FD4FF4877205211E2000F093FDA069013000F0CFFD4FF4877205211E2000F089FD144C606800F0E5FD6068013000F0C1FD636801336360032B01D1BF
:4003C0000622A2600C4B9B68062B7FF43CAF5A2203213C2000F070FD35E700BF70770000D481FF1F850000008D000000AD000000B5000000BD000000CC80FF1F88770000C2
:40040000D882FF1FE882FF1FFC80FF1F30B585B0002400940194029403940FE0E0B202F0F7FA0A2001F026F901F05CFD04AB03EB840504F0F7FE45F8100C0134032CEDDD10
:40044000002002F0E5FA074B009A1A60064B019A1A60064B029A1A60054B039A1A6005B030BD00BF2883FF1F2C83FF1F2483FF1F3483FF1F70B584B0002400940194029424
:4004800003940FE0E0B202F0C3FA0A2001F0F2F801F028FD04AB03EB840504F0C3FE45F8100C0134032CEDDD002002F0B1FA624B009A1A60019C614B1C60029D604B1D60EE
:4004C000039E604B1E60604B1B68012B4CD0022B73D0002B40F08C805C495D4B186804F0EDFD0146204605F08FF8A0B15749594B186804F0E3FD0146284605F085F850B100
:400500005249554B186804F0D9FD0146304605F07BF8002875D12946204605F093F828B13146204605F08EF800286CD13146284605F088F828B12946204605F065F8002836
:4005400063D13146284605F05FF800285FD03146204605F059F800285BD02946204605F053F8002857D165E03C49204605F04CF850B13A49284605F047F828B13749304686
:4005800005F042F8002848D12946204605F05AF828B13146204605F055F800283FD13146284605F04FF800283BD02946204605F02BF8002837D103203CE02949204605F002
:4005C00041F848B12649284605F03CF820B12549304605F019F840BB2349204605F032F828BB2249284605F02DF810B3022021E01F4801F0D5F840F6B83001F03BF80020D9
:4006000018E0002016E0012014E0022012E0002010E000200EE003200CE000200AE0012008E0032006E0022004E0002002E0012000E0032004B070BD1083FF1F1483FF1FC7
:400640006083FF1F3083FF1FE481FF1F0000FA442C83FF1F2483FF1F3483FF1F0000FA4500007A4600803B460050C34600F0D246B077000030B583B00546084C084604F0FF
:40068000B1F9CDE900012A460549204605F0B4FC204601F085F803B030BD00BFB082FF1FDC7700000000000070B501F0C5FD01F0DBFD614C206001F0B1FD25792068C0F5F2
:4006C000803004F07DF95AA3D3E9002304F0DEF900225A4B04F004FB04F09AFC014604EB850398602846FFF7C5FF5549E06804F08BFF20B95249206904F086FF40B1514BB0
:40070000B3F90030012B03D100F096FB00F0B4FB4D4B1B68012B3CD1474B1969D86800F02DFC0446494B1B68B3B1494B1A68494B53F82200053804F075FD0146204604F0DC
:4007400081FF30B300F078FB00F096FB0023424A13603E4A13601CE03D4B1A683D4B53F82200143804F05EFD0146204604F04CFF78B100F061FB00F07FFB0022364B1A6097
:40078000334A136801331360042B02D102222E4B1A602D4B1B68022B46D1304B1B68002B42D0254B9C6859692D4804F085FC2D4904F082FC05462C4904F07EFC0146204624
:4007C00004F022FF60B11C4BDB69BBB91A4B0122DA612649986904F071FC254BD8600DE0154BDB6953B1144B0026DE611F49986904F064FC1E4B5860184B1E601B4928468E
:4008000004F05AFC05460146204604F0FDFE58B12946204604F016FF30B11449064B986904F04CFC134B186070BD00BFAFF300802BDF3312A111C63F3482FF1F00002440B2
:400840000000A0400682FF1FD480FF1FF880FF1F3082FF1FE480FF1FF081FF1F1882FF1F0000F0420000C84100002041000070410882FF1FF082FF1F10B50446C0B201F05A
:400880007DFD01F031FD042C35D8DFE804F0030D17212B00012001F035FD0A2000F000FF002001F02FFD10BD012001F037FD0A2000F0F6FE002001F031FD10BD012001F05B
:4008C00039FD0A2000F0ECFE002001F033FD10BD012001F03BFD0A2000F0E2FE002001F035FD10BD012001F03DFD0A2000F0D8FE002001F037FD10BD38B50120FFF7BCFF4F
:400900000220FFF7B9FF174BDC681D69164800F047FF204604F066F8144C02460B461449204605F069FB204600F03AFF284604F059F802460B460F49204605F05DFB20460E
:4009400000F02EFF05E00120FFF796FF0220FFF793FF044B1969D86804F04CFE0028F2D038BD00BF3482FF1FE8770000B082FF1FF87700000C7800002DE9F04707460C46D0
:400980001546514B186804F01BF84BA3D3E9002304F07CF800224D4B04F0A2F904F038FB0646012C40D1384604F00AF844A3D3E9002304F06BF804460D46304604F012F8E8
:4009C00006460F4602F0D8FC02460B462046294604F05CF880468946DFF8F4A0DAF8000004F000F842464B4603F09EFE04F010FBCAF800003046394602F056FD02460B46E0
:400A00002046294604F042F804460D46DAF8040003F0E8FF22462B4603F086FE04F0F8FACAF80400BDE8F087012D43D1384603F0C7FF23A3D3E9002304F028F804460D467F
:400A4000304603F0CFFF1CA3D3E9002303F06CFE06460F4602F090FC02460B462046294604F014F880468946DFF864A0DAF8000003F0B8FF42464B4603F056FE04F0C8FAB5
:400A8000CAF800003046394602F00EFD02460B462046294603F0FAFF04460D46DAF8040003F0A0FF22462B4603F03EFE04F0B0FACAF80400BDE8F087182D4454FB21094059
:400AC00012A5BDC11726933FDC80FF1F00806640F481FF1F0000000038B50C46154603F06FFF17A3D3E9002303F0D0FF04F068FA012C0FD114490B681844144A80FB02239C
:400B0000C218C317C3EB22234FF4B47202FB13030B6038BD012D12D10B490B68181A0B4A80FB0223C218C317C3EB22234FF4B47202FB13030B60002B01DA13440B6038BDE8
:400B4000E17A14AE47E1BA3FDC80FF1FB7600BB608B5294BB3F90030002B4BD1274BB3F90030002B46D1264BB3F90030012B04D0244BB3F90030012B0AD101F0A1FD214B67
:400B8000B3F900201E4BB3F90010FFF7F5FE1EE01D4BB3F90030012B0AD101F011FD1B4BB3F90020184BB3F90010FFF795FF0EE0164BB3F90030012B09D101F081FD134B3A
:400BC000B3F90020104BB3F90010FFF785FF002001F070FD002001F0EDFC00230C4A13600C4A1360064A1380064A1380064A1380064A138008BD00BFE082FF1FF482FF1F47
:400C00000682FF1F0482FF1F0282FF1F0082FF1FF882FF1F0083FF1F70B50D4616461C46174904F007FC174904F050FB04F014FD80B201F03BFC1249304604F0FBFB11494F
:400C400004F044FB04F008FD80B201F0B1FB0C49284604F0EFFB0B4904F038FB04F0FCFC80B201F029FC0649204604F0E3FB054904F02CFB04F0F0FC80B201F09FFB70BD6F
:400C80000000C8420000964370B5614B1A68614B1B689A424FDD604BB3F90030012B0ED15E4B1A685E4B1B689A4203D1013B5B4A136091E059490B60594B1A608CE0594B2E
:400CC000B3F90030012B0ED1574B1A68574B1B689A4203D1013B544A13607DE052490B60524B1A6078E0524BB3F90030012B0ED14D4B1A684A4B1B689A4203D1013B4A4ABF
:400D0000136069E048490B60454B1A6064E0494BB3F90030012B5FD1404B1A68434B1B689A4203D1013B3D4A136055E03B490B603E4B1A6050E09A424EDA374BB3F9003024
:400D4000012B0ED1354B1B68354A1268934203D1013B334A13603FE030490A60304A13603AE0304BB3F90030012B0ED12E4B1B682E4A1268934203D1013B2C4A13602BE065
:400D800029490A60294A136026E0294BB3F90030012B0ED1244B1A68214B1B689A4203D1013B214A136017E01F490B601C4B1A6012E0204BB3F90030012B0DD1174B1A6894
:400DC0001A4B1B689A4203D1013B144A136003E012490B60154B1A60144B186804F022FA06460F4B186804F01DFA05460E4B186804F018FA0446094B186804F013FA3346E9
:400E00002A462146FFF708FF01F024FF70BD00BFF882FF1F0083FF1F0682FF1FEC82FF1F0C83FF1F0482FF1FE482FF1FAC82FF1F0282FF1F0082FF1F10B5002001F036FB09
:400E4000002001F039FB01F021FC0024064B1C60064B1C60064800F0A3FC064B1C80FFF777FE01F021FC10BDEC82FF1FE482FF1F20780000E082FF1F10B5002001F098FAC1
:400E8000002001F09BFA01F081FB0024064B1C60064B1C60064800F083FC064B1C80FFF757FE01F081FB10BD0C83FF1FAC82FF1F38780000F482FF1F08B5024800F070FC92
:400EC00008BD00BF5078000008B501F0EFFC40F2E24001F081FC4FF4FA7000F0CBFB01F0D1FC08BDA0F57A73B3F5AF6F21D870B5054601F083FD01F067FD0446281A0D4E07
:400F000086FB0036C017C0EBA60606E03444A0B201F004FD0A2000F0ADFBAC42F6D1A8B201F0FCFC4FF4FA7000F0A4FB01F052FD70BD70476766666608B5032817D8DFE8D9
:400F400000F002070C114FF41660FFF7CBFF08BD40F2A460FFF7C6FF08BD40F2E240FFF7C1FF08BD4FF47A70FFF7BCFF08BD4FF41660FFF7B7FF08BD704700BF08B504F0A4
:400F80009DF84FF07C5104F0A1F908BD0000000070B52D4B1C68051E06DD002002F0DCF8002002F0DFF805E0012002F0D5F8012002F0D8F801F0EAFFE4B2204601F03CFF9D
:400FC00002F0BEF8204602F013F8284603F0F8FC1BA3D3E9002303F059FD02F015FA03F0EFFF064601F072FE054601F0B7FE044605E001F06BFE054601F0B0FE0446B44278
:40100000F7D1124E2A461249304604F0F5FF304600F0C6FB22460F49304604F0EDFF304600F0BEFB002001F059FE002001F09EFE01F096FF02F06EF870BD00BFAFF3008002
:40104000295C8FC2F5281540FC80FF1FB082FF1F687800007C78000070B5334B1C68051E06DD002002F078F8012002F07BF805E0012002F071F8002002F074F801F086FFE0
:40108000E4B2204601F0D8FE02F05AF8204601F0AFFF6B2000FB05F003F092FC1EA3D3E9002303F0F3FC1EA3D3E9002303F0EEFC00221E4B03F014FE02F0A6F903F080FF96
:4010C000054601F003FE064601F048FE044602E001F044FE0446EC42FAD1154D32461549284604F089FF284600F05AFB22461249284604F081FF284600F052FB002001F058
:40110000EDFD002001F032FE01F02AFF02F002F870BD00BFAFF300801F85EB51B81E0940295C8FC2F5281540FC80FF1F00806640B082FF1F687800007C780000FEE700BFA1
:40114000F0B40022174611E050F82760F3B226F0FF0608E001EB420511F812406D78A5550132013BDBB2002BF4D10137292FEBD9F0BC704710B4194B1B78DBB203F0070191
:40118000174A11701B09013213700222154B1A700421A3F5A4531B3B19701023124803701030017006201149087020211048017005300370032464300470473001708021BF
:4011C000013001702C3003700A4B197054331A704422A3F2E2231A7010BC7047CF0100496E580040425800401D510040205A0040235A0040045B004008B50A46002104F0A3
:4012000082FA08BD08B504F073FA08BD38B500243B4B1C80502202331A70012202331A801823384A1370072102321180023213701721023211800232137033210232118083
:401240000232137040F2AF422F490A8002310B7002310A802D4A137004222D492D48FFF7D1FF02222C4B1A7008224FF040231A70032103F500731970284B1B78DBB22849BF
:401280000B70284B1A8041F25122023B1A8019250CE0254B1B7803F0010343EA440404F003044FF4F07002F057F8013D0DB1032CEFD115B90320FFF741FF1C4B4FF4807203
:4012C0001A8007221A70002219490A704820023108701A700222033B1A7004220A331A70144A137843F07F031370013A137843F001031370013A137843F08003137038BD98
:401300008040004086400040944000409A400040B8120048004100400043004008010049A146004022420040254200400440004006400040A243004038B572B6454A137841
:4013400043F00403137000240CE0434D630019194A0011462A44084691882858FFF74CFF0134E4B2062CF0D900240BE03A49A3001819420088180622016BC06AFFF742FF41
:401380000134E4B2002CF1D034494FF09040FFF7D7FE0A24324B1C7040F20322373B1A80304A03F52A430C331A602F4A03F5C0631A6002F5802203F5D0631A602B4A1378A0
:4013C00043F0020313701032137843F002031370274D2B7843F040032B70A2F58632513A137843F010031370224622492248FFF709FF224621492248FFF704FF0822214950
:401400002148FFF7FFFE224620492148FFF7FAFE224620492048FFF7F5FE08221F492048FFF7F0FE1F4A137843F0080313701E4C61232370FFF7EAFE8123237001221B4B54
:401440001A70FFF797FE0E2229461948FFF7DAFE38BD00BFE846004090780000A800004883580040040404840404004403500140A043004078120048005100408412004880
:40148000C051004090120048F25100409812004810510040A412004820510040B012004832510040224300400048004004000840B043004008B504F0EFF803680C2B00D1A8
:4014C000FEE7FEE708B5094B1A681044084BC31AB3F5007F02DC054B186005E004F0DCF80C2303604FF0FF32104608BD0081FF1F7083FF1F08B5104E104D16E029686B68F2
:40150000AC68002204E051F8040B43F8040B0432A242F8D1E868002203E0002143F8041B04328242F9D11035013E002EE6D104F0B9F8FEF709FEFEE701000000287C0000E4
:4015400008B5104A104B1A60104A136843F40073136000230AE0032B03D80D4A52F8231000E00C490C4A42F8231001332F2BF2D90A4B1A780A4B1A70074A0A4B1A60FFF776
:40158000DBFE08BD0004FA050CED00E014ED00E000000000B51400000080FF1FBC760040C080FF1F08ED00E0084A137843F0040313701032137843F00403137002F5A552B2
:4015C0001E32137843F0800313707047A9430040044A137803F0FC0300F0030018431070704700BF09580040072809D8054B1A7802F08F021A701A780001C0B21043187065
:40160000704700BF0A580040032809D8054B1A7802F0F3021A701A788000C0B210431870704700BF0A58004038B50224084B1C700C2201331A70012501331D700420FFF7DD
:40164000D3FF2846FFF7E0FF2046FFF7C1FF38BD0858004008B5054B1B7823B90122034B1A70FFF7E1FFFFF79FFF08BD6082FF1F01BE704710B5044605E0084B186801F0D0
:401680006BFEA4F50044B4F5004FF6D8034B586800FB04F001F060FE10BD00BF0481FF1F08B5034B1B7A00FB03F001F055FE08BD0481FF1F70B504460E46074B1D681F2888
:4016C00002D90020FFF7D4FF04F01F04103455F8240045F8246070BD08ED00E038B504460D46072902D90020FFF7C2FF1F2C02D90020FFF7BDFF04F01F0000F1604000F59A
:4017000064406D01EDB2057038BD00BF7222084B1A702022A3F580731A700622A2331A70472210331A700022AF3B1A70704700BF8665004010B501F017FE04460A4A13781F
:4017400043F020031370A2F58072137843F0100313700332137843F01003137000F032F8204601F005FE10BD9665004008B5054B1B7823B9FFF7CAFF0122024B1A70FFF783
:40178000D9FF08BD6182FF1F034B1B7813F0040FFAD1024B18707047696400404965004038B5074B1B782BB938BDFFF7EDFF0134A4B201E005460024285D0028F5D138BD72
:4017C0006182FF1F054A137843F0100313701032137843F010031370704700BFA243004038B59DF81040651EEDB2032D51D8013809282ED8DFE800F0052D2D052D2D0F19BA
:401800002D230F2B03D92548007840B222E02448007840B21EE00F2B03D92248007840B218E02148007840B214E00F2B03D91F48007840B20EE01E48007840B20AE00F2B23
:4018400003D91C48007840B204E01B48007840B200E0002001EB401101FB02F2D20B91B20D2B0BD8C3F10E0192B20A4191B2621E124800EB82020133937005E0631E0F4AD1
:4018800002EB83030F229A70013C0C4B23F8241038BD0020FFF7ECFE38BD00BF180100491C010049190100491D0100491A0100491E0100491B0100491F0100496482FF1FBE
:4018C000F8B5074601F050FD06460D4D2B7843F003032B700B4C237843F0030323700A4B1F700320FFF7DCFE2B7803F0FC032B70237803F0FC032370304601F039FDF8BD5C
:40190000F8460040F946004092580040F8B504460022BB4B1A7401285AD13822B94B1A70042202331A70072201331A70002501331D7001331D703F2201331A7002331D7043
:4019400001331D7001331D7001260A331E70502203F527631A70272201331A702C2201331A7001331D70552203331A705A2201331A70052701331F7002331E701122013317
:401980001A70192201331A70972201331A704420FFF796FF58229C4B1A7001331D7005331F7001331E7001331D700A2201331A704FF4FA42954B1A603146384600F0C6FAE0
:4019C0003146252000F046FB91491D20FFF772FE022C5AD138228B4B1A70042202331A70072201331A70002501331D7001331D703F2201331A7002331D7001331D70013321
:401A00001D7001260A331E70502203F527631A70272201331A702C2201331A7001331D70552203331A705A2201331A70052701331F7002331E70112201331A701922013352
:401A40001A70972201331A704420FFF739FF58226D4B1A7001331D7005331F7001331E7001331D700A2201331A704FF4FA42674B1A603146384600F069FA3146252000F083
:401A8000E9FA64491D20FFF715FE032C5AD138225C4B1A70042202331A70072201331A70002501331D7001331D703F2201331A7002331D7001331D7001331D7001260A3331
:401AC0001E70502203F527631A70272201331A702C2201331A7001331D70552203331A705A2201331A70052701331F7002331E70112201331A70192201331A70972201330C
:401B00001A704420FFF7DCFE58223F4B1A7001331D7005331F7001331E7001331D700A2201331A704FF4FA42384B1A603146384600F00CFA3146252000F08CFA36491D200F
:401B4000FFF7B8FD042C5AD138222E4B1A70042202331A70072201331A70002401331C7001331C703F2201331A7002331C7001331C7001331C7001250A331D70502203F5D8
:401B800027631A70272201331A702C2201331A7001331C70552203331A705A2201331A70052601331E7002331D70112201331A70192201331A70972201331A704420FFF763
:401BC0007FFE5822104B1A7001331C7005331E7001331D7001331C700A2201331A704FF4FA420A4B1A602946304600F0AFF92946252000F02FFA09491D20FFF75BFDF8BDEE
:401C00006482FF1F004E0040945800406483FF1F0D1F0000111F0000151F0000191F00002DE9F04182B0394E4FF0010886F80080374F00247C74102000F076F9102000F08A
:401C4000F7F907211D20FFF749FD0425314B1D7001331C7007331C702F4A137843F0180313702E4B1C7003F2F5231C7001331C700A22A3F209331A7001331C7002331C70E0
:401C80005B2205331A705E2201331A7004331C701422A3F68C231A70CDF8008010234FF4004249F2DA012846FFF79AFD0223009310234FF4004249F2DA012846FFF790FD57
:401CC0000323009310234FF4004249F2DA012846FFF786FD009510234FF4004249F2DA012846FFF77DFD3378013B07EB83039A780B4B1A703378013B37F82320094B1A809D
:401D00003078FFF703FE02B0BDE8F0811481FF1F6482FF1F96580040075B0040935800400E4E00400C4E004070B501F01DFB06462A4B1B782A4B1A7842F001021A701A787A
:401D400042F010021A7010331A7842F001021A701A7842F010021A70224D2B7843F002032B70214C237843F0020323701F4A137843F0030313700320FFF792FC2B7803F0FC
:401D8000FD032B70237803F0FD032370184A137843F0060313707A22164B1A70164A137843F0010313701032137843F0010313700F3A137843F0010313701032137843F07A
:401DC000010313704FF000530C4A1360A2F5C0721360304601F0CCFA70BD00BF1481FF1FAA430040F8460040F9460040915800407758004082580040A143004080E200E017
:401E000008B5084B9B7C4BB9064BDB7C13F0FF0F01D1FFF705FF0122024B9A74FFF784FF08BD00BF6482FF1F024A137843F0010313707047004E0040024A137803F0FE03D2
:401E400013707047004E0040094B1B7C13F0FF0F03D0074B5B7CDBB203E0064B1B7803F00103012B01D00028EED01846704700BF6482FF1F014E0040154B1B7803F0030321
:401E8000012B07D8134B1888023B1B889BB243EA004013E0022B0AD10E4B1888023B1B7843EA00430C4A107843EA002006E00B4B188883B2074A108843EA0040084B1B7CCF
:401EC00013F0FF0F02D00022054B5A74704700BF144E0040124E0040114E0040104E00406482FF1F10B5084A137843F004031370FFF79AFF0020FFF7A7FFFFF7BDFF044620
:401F0000FFF79AFF204610BD014E0040704700BF704700BF704700BF704700BF014B188880B2704780400040034B1A7800F0F80010431870704700BF82400040024B1878AB
:401F400000F00700704700BF8240004070B505460E46FFF7F3FF0446FFF7E0FFA84256D02B4B1B7803F0010294B900B185B938B9284B1D80284A137803F0BF03137070BD79
:401F8000254A137843F040031370224B1D8070BD22B3002321490B7001240F310C7004310B700C390B7803F07F030B701A4B1B7813F0080F00D08DB9194B18800721013B49
:401FC0001970164B1B7813F0010FFAD110490B7803F0FE030B700021104B19700C4B1B7813F0010F0DD00E4B1D800EB1032200E001220A4B1A70094B1B7813F0010FFAD1DB
:4020000070BD044B1D8002490B7813430B7070BDA243004080400040824000400140004002400040014B188880B2704700410040034B1A7800F0F80010431870704700BF22
:4020400002410040024B187800F00700704700BF0241004070B505460E46FFF7F3FF0446FFF7E0FFA84256D02B4B1B7803F0010294B900B185B938B9284B1D80284A1378FC
:4020800003F0BF03137070BD254A137843F040031370224B1D8070BD22B3002321490B70012413310C7004390B7008390B7803F07F030B701A4B1B7813F0080F00D08DB93B
:4020C000194B18800721013B1970164B1B7813F0010FFAD110490B7803F0FE030B700021104B19700C4B1B7813F0010F0DD00E4B1D800EB1032200E001220A4B1A70094BEB
:402100001B7813F0010FFAD170BD044B1D8002490B7813430B7070BDA143004000410040024100400140004002400040054A137843F0020313701032137843F00203137001
:40214000704700BFA8430040054B1A7802F0FD021A701A7800F0020010431870704700BF24580040014B1870704700BF815B0040094B1B7803F00C035B08084A127812F040
:40218000040F00D0013303F1924393F83031DBB2034A1370704700BF24580040255800400946004008B51022064B1A700133002018701A7842F004021A70FFF7C5FFFFF7CE
:4021C000D7FF08BD2458004008B5074B1B7823B9FFF7E8FF0122044B1A70FFF7A7FF7820FFF7C0FF08BD00BF7C82FF1F08B5064B1A7802F0F3021A701A7800F00C001043B6
:402200001870FFF7B5FF08BD24580040024A137843F080031370704778650040024A137803F07F031370704778650040014B1870704700BF88640040014B1878704700BF9C
:4022400068640040014B1880704700BF54680040014B188880B2704794680040014B1880704700BF14680040024B1B78024B188880B270470A6400409468004000F0030042
:40228000044B1A7802F0FC021A701A7810431870704700BF7865004008B501E0FFF7D8FFFFF7CAFF10F0080FF8D108BD08B54FF6FF70FFF7C7FF4FF6FF70FFF7CFFF01F05E
:4022C00053F8084A137843F01003137001F050F80020FFF7D3FFFFF7DFFF0220FFF7A6FF08BD00BF9864004008B5054B1B7823B9FFF7DCFF0122024B1A70FFF787FF08BDF3
:402300007D82FF1F044A137803F0FB03800000F00400184310707047C0510040044A137803F07F03C001C0B218431070704700BF20510040044A137803F0FE0300F001001E
:4023400018431070704700BF30510040044A137803F0FE0300F0010018431070704700BF00510040044A137803F0BF03800100F0400018431070704730510040014B187045
:40238000704700BF7C640040024A137843F080031370704775650040014B1880704700BF0C680040014B1880704700BF8C680040014B1880704700BF4C680040014B1880D8
:4023C000704700BF6C680040014B1870704700BF84650040014B1878704700BF64650040014B188880B27047AC68004008B501E0FFF7F6FFFFF7EEFF10F0100FF8D108BD43
:4024000008B5174A137803F0C00343F009031370DF3A137843F0010313700132137843F00103137040F22B10FFF7B6FF40F22B10FFF7B8FF0020FFF7BBFF0020FFF7BEFFD0
:402440000020FFF7C1FF00F08FFF064A137843F01003137000F08CFFFFF7C8FF08BD00BF756500409465004008B5054B1B7823B9FFF7C6FF0122024B1A70FFF785FF08BDE5
:402480007E82FF1F024A137843F080031370704775640040014B1880704700BF08680040014B1880704700BF88680040014B1880704700BF48680040014B1880704700BFE6
:4024C00068680040014B1870704700BF85640040014B1878704700BF65640040014B188880B27047A868004008B501E0FFF7F6FFFFF7EEFF10F0100FF8D108BD10B5164A9B
:40250000137803F0C00343F0090313701F32137843F001031370114C237843F00103237040F22B10FFF7B6FF40F22B10FFF7B8FF0020FFF7BBFF0020FFF7BEFF0020FFF755
:40254000C1FF00F011FF237843F01003237000F00FFFFFF7C9FF10BD756400409564004008B5054B1B7823B9FFF7C8FF0122024B1A70FFF787FF08BD7F82FF1F024A1378E2
:4025800043F080031370704773640040024A137803F07F031370704773640040014B1870704700BF83640040014B1878704700BF63640040014B1880704700BF04680040A7
:4025C000024B1B78024B188880B270470264004084680040014B188880B2704784680040014B1880704700BF44680040014B1880704700BF6468004008B501E0FFF7EAFF29
:40260000FFF7D2FF10F0400FF8D108BD08B5124B1A7802F0F8021A701A7802F0FC021A70FFF7EAFF4FF4FA60FFF7DAFF0020FFF7C1FF0C20FFF7B2FFFFF7B6FF0020FFF713
:40264000D5FF00F091FE054A137843F01003137000F08EFE08BD00BF736400409364004008B5054B1B7823B9FFF7D0FF0122024B1A70FFF783FF08BD8082FF1F024A1378A7
:4026800043F08003137070477A640040024A137803F07F03137070477A640040014B1870704700BF8D640040014B1878704700BF6D640040014B1880704700BF1868004070
:4026C000024B1B78024B188880B270470C64004098680040014B188880B2704798680040014B1880704700BF58680040014B1880704700BF7868004008B501E0FFF7EAFFCE
:40270000FFF7D2FF10F0400FF8D108BD08B5124B1A7802F0F8021A701A7802F0FC021A70FFF7EAFF4FF47A70FFF7DAFF0020FFF7C1FF0C20FFF7B2FFFFF7B6FF0020FFF782
:40274000D5FF00F011FE054A137843F01003137000F00EFE08BD00BF7A6400409D64004008B5054B1B7823B9FFF7D0FF0122024B1A70FFF783FF08BD8182FF1F084A13788E
:4027800043F0020313701032137843F00203137002F65932137843F001031370704700BFA3430040084A137803F0FE031370A2F66932137803F0FD0313701032137803F02A
:4027C000FD031370704700BF0C4F0040014B1880704700BF104F0040014B1880704700BF124F0040014B1870704700BF0F4F004008B51A4A137843F0020313700232137843
:4028000003F08F0343F010031370154B1A7802F0CF021A701A7842F030021A701A7802F0F0021A701A7842F00F021A7044F61F60FFF7CCFF40F2DC50FFF7CEFF0020FFF77B
:40284000D1FF084A137843F00203137002F66A32137843F00103137008BD00BF0C4F0040174F0040A343004008B5054B1B7823B9FFF7BEFF0122024B1A70FFF77FFF08BDCA
:402880008282FF1F08B5074B1B7813F0010F03D00122054B1A7002E00022034B1A70FFF781FF08BD0C4F00408482FF1F08B5034B1B780BB1FFF762FF08BD00BF8482FF1F42
:4028C000084A137843F0040313701032137843F00403137002F66532137843F001031370704700BFA3430040084A137803F0FE031370A2F67532137803F0FB031370103270
:40290000137803F0FB031370704700BF184F0040014B1880704700BF1C4F0040014B1880704700BF1E4F0040014B1870704700BF1B4F004008B51A4A137843F00203137014
:402940000232137803F08F0343F010031370154B1A7802F0CF021A701A7842F030021A701A7802F0F0021A701A7842F00F021A7044F61F60FFF7CCFF40F2DC50FFF7CEFF91
:402980000020FFF7D1FF084A137843F00403137002F67632137843F00103137008BD00BF184F0040234F0040A343004008B5054B1B7823B9FFF7BEFF0122024B1A70FFF790
:4029C0007FFF08BD8582FF1F014B188880B270471E4F004008B5074B1B7813F0010F03D00122054B1A7002E00022034B1A70FFF77BFF08BD184F00408882FF1F08B5034B7D
:402A00001B780BB1FFF75CFF08BD00BF8882FF1F014B1870704700BF79650040014B1870704700BF77640040014B1B68D864704708ED00E04001C0B2014B1870704700BFE9
:402A400003E400E00822014B1A60704700E100E00822014B1A60704780E100E010B50446FFF7F6FF2046FFF7DFFF0720FFF7E2FFFFF7E8FF10BD00BF014B1B689864704722
:402A800008ED00E04001C0B2014B1870704700BF02E400E00422014B1A60704700E100E00422014B1A60704780E100E010B50446FFF7F6FF2046FFF7DFFF0720FFF7E2FF04
:402AC000FFF7E8FF10BD00BF014B1B681864704708ED00E04001C0B2014B1870704700BF00E400E00122014B1A60704700E100E00122014B1A60704780E100E010B5044684
:402B0000FFF7F6FF2046FFF7DFFF0720FFF7E2FFFFF7E8FF10BD00BF014B1B685864704708ED00E04001C0B2014B1870704700BF01E400E00222014B1A60704700E100E0CE
:402B40000222014B1A60704780E100E010B50446FFF7F6FF2046FFF7DFFF0720FFF7E2FFFFF7E8FF10BD00BF084A137843F0010313701032137843F00103137002F64D3243
:402B8000137843F001031370704700BFA3430040084A137803F0FE031370A2F65D32137803F0FE0313701032137803F0FE031370704700BF004F0040014B1870704700BF24
:402BC000034F0040014B1878704700BF034F0040014B1880704700BF044F0040014B1880704700BF064F004008B5174B1A7802F001021A7015490A7802F0FC020A701A7877
:402C000042F004021A700B331A7802F0CF021A701A7842F030021A701A7802F0F0021A701A7842F00F021A70094A137843F0010313701320FFF7CCFF1320FFF7CFFF08202B
:402C4000FFF7BAFF08BD00BF004F0040024F0040014F004008B5054B1B7823B9FFF7C4FF0122024B1A70FFF77FFF08BD8982FF1F024B1B68C3F88400704700BF08ED00E086
:402C80004001C0B2014B1870704700BF11E400E04FF40032014B1A60704700BF00E100E04FF40032014B1A60704700BF80E100E010B50446FFF7F4FF2046FFF7D9FF07208B
:402CC000FFF7DEFFFFF7E4FF10BD00BF08B500F069FAA0F5004000B208BD00BF08B5002803DB80B280F4004002E0A0F5004080B200F052FA08BD00BF024B187800F00F0053
:402D0000704700BF60640040014B1870704700BF8064004008B50F20FFF7F6FFFFF7ECFF00F022FB034A137843F01003137000F01FFB08BD9064004008B500F085FA4FF4D3
:402D4000004000F029FA044B1B7813B90122024B1A70FFF7DFFF08BD8A82FF1F08B500F09BFAA0F5004000B208BD00BF08B5002803DB80B280F4004002E0A0F5004080B2B6
:402D800000F084FA08BD00BF024B187800F00F00704700BF64640040014B1870704700BF8464004008B50F20FFF7F6FFFFF7ECFF00F0DAFA034A137843F01003137000F048
:402DC000D7FA08BD9464004008B500F0B7FA4FF4004000F05BFA044B1B7813B90122024B1A70FFF7DFFF08BD8B82FF1F024A137843F080031370704777650040024A1378B9
:402E000003F07F031370704777650040014B1870704700BF04650040024B1B78024B1878704700BF1465004054650040014B1870704700BF44650040014B1870704700BF72
:402E400024650040014B1870704700BF87650040014B1878704700BF67650040014B1878704700BF77650040014B1870704700BF77650040014B1878704700BF5465004096
:402E800008B501E0FFF7F6FFFFF7E2FF10F0100FF8D108BD08B5124A137803F0C00343F0090313701D32137843F001031370FF20FFF7ACFFFF20FFF7B9FF7F20FFF7BCFF78
:402EC0000020FFF7BFFF00F04FFA064A137843F01003137000F04CFAFFF7D2FF08BD00BF776500409765004008B5054B1B7823B9FFF7D0FF0122024B1A70FFF777FF08BDDC
:402F00008C82FF1F014B1878704700BF4465004010B5FFF7F7FF064CA070FFF77DFF6070044B1B78E370FFF799FF207110BD00BF9082FF1F8765004010B5074CA078FFF773
:402F400075FF6078FFF762FFE278044B1A702079FFF78AFF10BD00BF9082FF1F8765004008B5084B1B7813F0800F03D00122064B1A7002E00022044B1A70FFF73FFFFFF76E
:402F8000C7FF08BD776500409082FF1F08B5FFF7D3FF034B1B780BB1FFF728FF08BD00BF9082FF1F024A137843F08003137070477B650040024A137803F07F0313707047DA
:402FC0007B650040014B1870704700BF0B650040024B1B78024B1878704700BF1B6500405B650040014B1870704700BF4B650040014B1870704700BF2B650040014B18709C
:40300000704700BF8B650040014B1878704700BF6B650040014B1878704700BF7B650040014B1870704700BF7B650040014B1878704700BF5B65004008B501E0FFF7F6FFD1
:40304000FFF7E2FF10F0100FF8D108BD10B5114A137803F0C00343F0090313700E4C237843F001032370FF20FFF7ACFFFF20FFF7B9FF7F20FFF7BCFF0020FFF7BFFF00F049
:4030800073F9237843F01003237000F071F9FFF7D3FF10BD7B6500409B65004008B5054B1B7823B9FFF7D2FF0122024B1A70FFF779FF08BD9582FF1F014B1878704700BFEA
:4030C0004B65004010B5FFF7F7FF064CA070FFF77FFF6070044B1B78E370FFF79BFF207110BD00BF9882FF1F8B65004010B5074CA078FFF777FF6078FFF764FFE278044BC9
:403100001A702079FFF78CFF10BD00BF9882FF1F8B65004008B5084B1B7813F0800F03D00122064B1A7002E00022044B1A70FFF741FFFFF7C7FF08BD7B6500409882FF1F05
:4031400008B5FFF7D3FF034B1B780BB1FFF72AFF08BD00BF9882FF1F014B1870704700BF76640040014B1870704700BF78640040024A137843F080031370704774640040A9
:40318000014B1870704700BF8F640040014B1878704700BF6F640040014B1880704700BF1C680040024B1B78024B188880B270470E6400409C680040014B188880B270478E
:4031C0009C680040014B1880704700BF5C680040014B1880704700BF7C68004008B501E0FFF7EAFFFFF7D2FF10F0400FF8D108BD08B5134B1A7802F0F8021A701A7802F0E7
:40320000FC021A70FFF7EAFF4FF40040FFF7DAFF4FF40040FFF7C0FF0020FFF7B1FFFFF7B5FF4FF40040FFF7D3FF00F09DF8054A137843F01003137000F09AF808BD00BFB4
:40324000746400409F64004008B5054B1B7823B9FFF7CEFF0122024B1A70FFF789FF08BD9D82FF1F024A137843F080031370704771640040014B1870704700BF82640040EE
:40328000014B1878704700BF62640040014B1880704700BF00680040024B1B78024B188880B270470064004080680040014B188880B2704780680040014B1880704700BFDB
:4032C00040680040014B1880704700BF6068004008B501E0FFF7EAFFFFF7D2FF10F0400FF8D108BD08B5134B1A7802F0F8021A701A7802F0FC021A70FFF7EAFF4FF40040D2
:40330000FFF7DAFF4FF40040FFF7C0FF0020FFF7B1FFFFF7B5FF4FF40040FFF7D3FF00F023F8054A137843F01003137000F020F808BD00BF716400409264004008B5054B39
:403340001B7823B9FFF7CEFF0122024B1A70FFF789FF08BD9E82FF1F0230800803D000BF01380046FCD17047EFF3108072B6704780F31088704700BF30B5214A21F00043DB
:40338000934287B01BDD1F4A934205DD02460B4601F0C8F907B030BD02AA00F0CDF800F0030001281AD002280FD008B3DDE9020101230093DDE9042300F0F2FFEAE700228E
:4033C000002300F0D1FA07B030BDDDE90423DDE9020100F0C9FA01F10041DBE70090DDE90423DDE9020100F0DBFF01F10041D1E7DDE90423DDE9020100F0B6FACAE700BF2C
:40340000FB21E93FFFFFEF7FF8B5C1F30A56A6F2FF35132D0A460B460446864611DC002D2EDB0F461F4929410A4225D04FF400232B413B4423EA0103002619463446204606
:40344000F8BD332D05DDB5F5806F1FD011462046F8BDA6F213464FF0FF3121FA06F63042F4D00122C5F1330502FA05F52D1828BF9B1825EA0606E0E70028D7D11146E6E7F2
:40348000013501F0004307D00026D6E702460B4601F04AF90446D2E743F07F5343F440130026CAE7FFFF0F0030B5214A21F00043934287B01BDD1F4A934205DD02460B4644
:4034C00001F030F907B030BD02AA00F035F800F0030001281ED0022811D0DDE9042300B3DDE9020100F040FA01F10041EAE7002300930022002300F053FF07B030BD012394
:403500000093DDE90201DDE9042300F049FF01F10041D7E7DDE90423DDE9020100F024FAD0E70124DDE90201009400F039FFC9E7FB21E93FFFFFEF7F2DE9F04F944C21F04E
:403540000047A7428FB040F381801446914A0E46974226DC84A3D3E90023002940F3A08101F0E0F88C4B80469F42894600F083807FA3D3E9002301F0D5F802460B464046DA
:40358000C4E90023494601F0CDF879A3D3E9002301F0C8F80125C4E9020128460FB0BDE8F08F7E4A974240F383807D4A974258DC3D15A5F21645A7EB05518B46824601F0C2
:4035C000FFFC01F0FDF98046894642464B4650465946CDE9088901F0A5F80022714B01F055FA8B46824601F0EBFC01F0E9F98046894642464B4650465946CDE90A8901F0B2
:4036000091F80022674B01F041FA00220023CDE90C0101F0A3FC002800F06A81002340464946002201F09AFC002814BF012302235D480221019000912A46214608A800F0E0
:40364000B7FA002EC0F24A81054606E0C2E9000100250024C2E90245002528460FB0BDE8F08F02460B4601F05DF80025C4E90201C4E90001F1E740A3D3E9002301F052F829
:403680003FA3D3E9002306460F4601F04BF802460B463046C4E90023394601F043F838A3D3E9002301F03EF80125C4E90201D4E700F02CFF34A3D3E900238046894601F021
:4036C000E5F90022394B01F02FF801F079FC054601F076F924A3D3E90023CDE9040101F0D5F902460B464046494601F01BF820A3D3E9002382468B46DDE9040101F0C6F995
:403700001F2DCDE9020155DC294B6A1E53F822309F424FD002460B465046594601F002F802460B4681468846C4E900234A4643465046594600F0F6FFDDE9022300F0F2FF04
:4037400002460B46002EC4E9022386DA4A4608F1004301F1004184E80C00E160A0606D427BE700BFAFF3008000004054FB21F93F3163621A61B4D03D0000601A61B4D03DF0
:403780007370032E8A19A33B83C8C96D305FE43FFB21E93F7BD90240FB21F93FFB213941FFFFEF7F00007041487900000000E03FC8780000DDE902235046594600F0B2FF7F
:4037C0003F15C1F30A53FB1A102B81468846C4E90001ABDD58A3D3E90023DDE9040101F055F98046894602460B465046594600F099FFCDE9060102460B465046594600F0FF
:4038000091FF42464B4600F08DFF4DA3D3E9002380468946DDE9040101F038F942464B4600F080FF02460B46CDE90201DDE9060100F078FF0B4602468846C1F30A517F1AF5
:40384000312F8146C4E9002372DD3FA3D3E90023DDE9040101F01AF98046894602460B46DDE9060100F05EFF02460B4682468B46DDE9060100F056FF42464B4600F052FF8C
:4038800033A3D3E9002380468946DDE9040101F0FDF842464B4600F045FFCDE9020139E700F042FF2E4B80469F42894622D02AA3D3E9002300F038FF02460B464046C4E936
:4038C0000023494600F02EFF23A3D3E9002300F02BFF4FF0FF35C4E90201BEE66268E36802F1004203F1004345426260E360B4E603239DE610A3D3E9002300F015FF10A3DA
:40390000D3E9002306460F4600F00EFF02460B463046C4E90023394600F004FF08A3D3E9002300F001FF4FF0FF35C4E9020194E6DDE906ABFAE600BF0000601A61B4D03DF0
:403940007370032E8A19A33B0000002E8A19A33BC14920259A837B393163621A61B4D03DFB21F93F000000002DE9F04F21F00046B6F1795F85B00C4692469B4605466BDA62
:4039800001F01EFB002800F0E7802A4623462846214601F07BF874A3D3E900238046894601F074F872A3D3E9002300F0BDFE42464B4601F06BF870A3D3E9002300F0B2FEE6
:4039C00042464B4601F062F86DA3D3E9002300F0ABFE42464B4601F059F86BA3D3E9002300F0A0FE42464B4601F050F868A3D3E9002300F099FE42464B4601F047F8CDE943
:403A000000010022644B4046494601F03FF8DDE9002306460F464046494601F037F85246804689465B462846214601F02FF802460B464046494600F075FE02460B463046DD
:403A4000394600F06FFE02460B460020534900F069FE05B0BDE8F08F02460B4601F016F841A3D3E900238046894601F00FF840A3D3E9002300F058FE42464B4601F006F8ED
:403A80003DA3D3E9002300F04DFE42464B4600F0FDFF3BA3D3E9002300F046FE42464B4600F0F4FF38A3D3E9002300F03BFE42464B4600F0EBFF36A3D3E9002300F034FE6A
:403AC0004B46424600F0E2FF354BCDE900019E4297DD344B00229E4238DCA6F5001300202E4916461F4600F01DFECDE902010022294B4046494600F0C9FF32463B4600F0A6
:403B000011FEDDE9002306460F464046494600F0BDFF5246804689465B462846214600F0B5FF02460B464046494600F0FBFD02460B463046394600F0F5FD02460B46DDE97F
:403B4000020100F0EFFD05B0BDE8F08F164B0026CDE90223154FCAE71049002005B0BDE8F08F00BFAFF30080D43888BEE9FAA8BDC4B1B4BD9EEE213EAD529C804F7E923EC0
:403B80009015CB19A001FA3E7751C1166CC1563F4C5555555555A53F0000E03F0000F03F3233D33F0000E93F0000E73F0000D23F2DE9F04F794CADF51D7D1F460B93D31EFB
:403BC00084FB0354DB17C3EBA403A69E744C23EAE37554F826406B1C26460994A3EB83037C1E0D95029402EBC3032D1B341904900A91089316D42C44013422AEA79F08E078
:403C000057F8250000F0DCFE0135A542E6E9020108D0002DF4DA013500200021A542E6E90201F6D1099B002B2FDB099B74AADDF8089002EBC30B0DF5E47A029B002BC0F2F0
:403C400095810B9B0026C3EB090824AB03EBC808049B0027A3F1080524AB03EBC904F5E9022374E8020100F011FF02460B463046394600F059FD444506460F46EFD1EAE932
:403C80000267DA4509F10109D7D1099B10A91D4603F18043023B9B001A1D0A440B440F920E939CAB03EBC503002D53E928672BDD9CAB03EBC504A83C0DF13C0A0DF5E47BE7
:403CC0000022384B3046394600F0E0FE01F078F900F076FE0022344B8046894600F0D6FE02460B463046394600F01CFD01F068F974E802234AF8040F4946404600F014FDC7
:403D00005C4506460F46DBD1089C30463946224600F08AFC00224FF07F5306460F4600F0B5FE00F0F9FB0022204B00F0AFFE02460B463046394600F0F5FC0F46064601F098
:403D40003FF9814600F03CFE02460B463046394600F0E8FC002C06460F4640F3EE80681E10AB53F82030C4F1180243FA02F101FA02F29B1AC4F1170810AA42F820308944E6
:403D800043FA08F8B8F1000F3DDD002D09F1010940F3D382002214460FA911E0ABAAAA2A507A00000000703E0000704100002040C3F180700BB108600124013295420DDD83
:403DC00051F8043F002CF3D0C3F1FF13013203F57F4395420B604FF00104F1DC089B002B0DDD012B00F0B180022B08D16A1E10AB53F8223010A9C3F3150341F82230B8F19C
:403E0000020F00F08180002200233046394601F0A5F8002800F05B82099B05F1FF3B5B4510DC05F1804310AA013B0F9802EB8303002253F80419834242EA0102F9D1002A28
:403E400040F0B180099B10AA013B52F82330002B40F071820E9A012352F8041901330029FAD0E9186A1C8A420C914BDC0D990B985118DB0001F180410593A79B054401394E
:403E8000E80003EB810A24ABD20003EB000B74AB13440193A2F10803069007934FF000095AF8040F00F08CFD029BEBE80201002B4FF000064FF000071BDB069B03EB09044E
:403EC000079B09EB030824AB1C449844049BA3F10805F5E9022374E8020100F0D7FD02460B463046394600F01FFC444506460F46EFD1019B09F10809E3E802670193059B1E
:403F00009945CDD10C9DCCE632463B460020B04900F008FC06460F46002C3FF474AF089A0020AB4900F080FB02460B463046394600F0F8FB06460F4665E710D16B1E10AADE
:403F400052F823304FEAE3581CE76A1E10AB53F8223010A9C3F3160341F822304FE700229C4B01F019F858B980464CE700260027EAE90267DA4509F101097FF45EAE84E65A
:403F8000002D09F10109C8BF4FF002083FF702AF32463B4600208E4900F0C4FB4FF0020806460F462FE7089A10AB53F82B30183ACDF81490CDF8048008926BB90BF18043F6
:403FC000013B10A901EB830353F804190BF1FF3B183A0029F8D00892089A00207C4900F023FBBBF1000F04460D46C0F2B6814FEACB030DF5E87810AA02EB8B0608EB030969
:404000000493043609F1080756F8040D00F0D8FC22462B4600F03AFD002267E902016E4B2046294600F032FDB84504460D46EBD14B46CDF818B09B460DF5987ACDF808A08B
:40404000DDF824A04FF00009BAF1000FC0F226815DA3D3E90023DFF884815D4600260027002403E0A14510DBF8E90223F5E8020100F00CFD02460B463046394600F054FB1D
:404080000134A24506460F46ECDA029BABF1080B03EBC903C3E9006772AB5B4509F10109D2D1A69BDDF818B0DDF808A0032B00F28380DFE813F0D100950095000400BBF10D
:4040C000000F40F35481049BCDF808B053449846D3E90067D34658E9029A32463B464846514600F021FB04460D4602460B464846514600F017FB32463B4600F015FBC8E9CE
:40410000000168E90245C34526462F46E3D1DA46DDF808B0BBF1010F40F32981049B0DF59C7B53449846D3E90067994659E902343046CDE902341A463946234600F0F4FAD4
:4041400004460D4602460B46DDE9020100F0EAFA32463B4600F0E8FAC9E9000169E90245CB4526462F46E1D100231D4608F1080850AC184678E90223294600F0D5FA44458C
:4041800003460D46F5D1019A002A00F0D880DAF80440DAF80C200A9FDAF80010DAF8080005F1004504F1004402F100427D613B617C60FA603960B860059B03F007000DF571
:4041C0001D7DBDE8F08F00BF00000040FB21F93F0000F03F0000E03F0000703E607A000000242146049D0835554475E90223204600F09AFA55450446F7D1019B002B50D0D6
:404200000A9F01F100450B46DAE9000187E83000224600F087FABBF1000F03460D460DDD01241846FAE90223294600F07DFA0134A34503460D46F4DA019A0AB105F1004557
:40424000184629460A9BC3E90201059B03F007000DF51D7DBDE8F08F00231C46049A0832924418467AE90223214600F05DFA0BF1FF3BBBF1FF3F03460C46F2D1019A0AB128
:4042800004F10044184621460A9BC3E90001059B03F007000DF51D7DBDE8F08F00260027F3E626460F4622460A9C0B46DAE90001C4E9006700F036FABBF1000F03460D46BF
:4042C000AEDC184629460A9BC3E90201BDE7089B30465A423946CDF81490CDF8048000F0A3F900222C4B06460F4600F055FE002840D00022294B3046394600F0C7FB00F01B
:404300005FFE044600F05CFB0022234B00F0BEFB0B4602463946304600F004FA00F050FE089B05F1010B1833089310AB43F8250043F82B4050E6012393E500244EE51846C9
:40434000DAE90067DAE9022329460A9DC5E90067C5E90401C5E902232EE7A69B032B3FF62BAFDFE803F0151010020DF5987A00231D4608E73046394600F022FE10ABAB46BC
:4043800043F8250028E6002421460DF5987A34E700231C4672E700BF000070410000703E2DE9F04F21F00046B6F1795F85B00C4690469946054604DA00F002FE002800F041
:4043C00085802A4623462846214600F05FFB06460F4602460B462846214600F057FB3EA3D3E9002382468B463046394600F04EFB3BA3D3E9002300F095F932463B4600F0C4
:4044000045FB39A3D3E9002300F08EF932463B4600F03CFB36A3D3E9002300F083F932463B4600F033FB34A3D3E9002300F07CF90E9BCDE900019BB30022334B4046494631
:4044400000F024FBDDE90023CDE902015046594600F01CFB02460B46DDE9020100F062F932463B4600F012FB42464B4600F05AF923A3D3E9002306460F465046594600F0E5
:4044800005FB02460B463046394600F04DF902460B462846214600F045F905B0BDE8F08F02460B463046394600F0F0FA14A3D3E9002300F037F952465B4600F0E7FA2A462B
:4044C000234600F031F905B0BDE8F08F2846214605B0BDE8F08F00BF7CD5CF5A3AD9E53DEB9C2B8AE6E55A3E7DFEB157E31DC73ED561C119A0012A3FA6F810111111813F62
:40450000495555555555C53F0000E03F21F00041704700BF00000000C1F30A522DE9F843A2F2FF36132E0B4604460D46884607461CDC002E3FDB3A4A864642FA06F901EA74
:404540000902024317D034A3D3E9002300F0ECF80022002300F02AFD20B1002D40DB28EA0905002738462946BDE8F883332E06DDB6F5806F2FD020461946BDE8F883A2F25B
:4045800013424FF0FF3929FA02F910EA090FF2D021A3D3E9002300F0C7F80022002300F005FD0028DED0002D20DB454627EA090738462946D8E718A3D3E9002300F0B4F828
:4045C0000022002300F0F2FC0028CBD0002D18DB00273D46C6E702460B4600F0A5F8CCE74FF4801343FA06F6B044B8E7142E10D00123C6F1340603FA06F6371928BF9844A0
:40460000D3E725F00042074B224318BF1D460027A8E705F10108C8E79C7500883CE4377EFFFF0F000000F0BFF8B5C1F30A5604460D460B46174606BB21F00043034325D08E
:4046400000222F4B00F022FA2E4A044697420D460B462ADBC1F30A56363E40F2FE723E44964228DC002E12DD23F0FF4323F4E00343EA065520462946F8BD40F2FF729642CD
:40468000EBD102460B4600F04FF8F8BDF8BD16F1350F1DDA4CF250339F420CDC14A1D1E9000122462B4600F031F811A3D3E9002300F0ECF9F8BD22460FA1D1E900012B4675
:4046C00000F024F80CA3D3E9002300F0DFF9F8BD23F0FF4323F4E003363643EA0655204629460022084B00F0D1F9F8BDAFF3008059F3F8C21F6EA5019C7500883CE4377EDE
:4047000000005043B03CFFFF0000903C03F0004321F0004242EA0301704700BF81F0004102E000BF83F0004330B54FEA41044FEA430594EA050F08BF90EA020F1FBF54EA14
:40474000000C55EA020C7FEA645C7FEA655C00F0E2804FEA5454D4EB5555B8BF6D420CDD2C4480EA020281EA030382EA000083EA010180EA020281EA0303362D88BF30BD42
:4047800011F0004F4FEA01314FF4801C4CEA113102D0404261EB410113F0004F4FEA03334CEA133302D0524263EB430394EA050F00F0A780A4F10104D5F1200E0DDB02FAB3
:4047C0000EFC22FA05F2801841F1000103FA0EF2801843FA05F359410EE0A5F120050EF1200E012A03FA0EFC28BF4CF0020C43FA05F3C01851EBE37101F0004507D54FF046
:40480000000EDCF1000C7EEB00006EEB0101B1F5801F1BD3B1F5001F0CD349085FEA30004FEA3C0C04F101044FEA445212F5800F80F09A80BCF1004F08BF5FEA500C50F119
:40484000000041EB045141EA050130BD5FEA4C0C404141EB010111F4801FA4F10104E9D191F0000F04BF01460020B1FA81F308BF2033A3F10B03B3F120020CDA0C3208DDED
:4048800002F1140CC2F10C0201FA0CF021FA02F10CE002F11402D8BFC2F1200C01FA02F120FA0CFCDCBF41EA0C019040E41AA2BF01EB0451294330BD6FEA04041F3C1CDA56
:4048C0000C340EDC04F11404C4F1200220FA04F001FA02F340EA030021FA04F345EA030130BDC4F10C04C4F1200220FA02F001FA04F340EA0300294630BD21FA04F02946AC
:4049000030BD94F0000F83F4801306BF81F480110134013D4EE77FEA645C18BF7FEA655C29D094EA050F08BF90EA020F05D054EA000C04BF1946104630BD91EA030F1EBF85
:404940000021002030BD5FEA545C05D14000494128BF41F0004130BD14F580043CBF01F5801130BD01F0004545F0FE4141F470014FF0000030BD7FEA645C1ABF19461046FB
:404980007FEA655C1CBF0B46024650EA013406BF52EA033591EA030F41F4002130BD00BF90F0000F04BF0021704730B54FF4806404F132044FF000054FF0000150E700BF47
:4049C00090F0000F04BF0021704730B54FF4806404F1320410F0004548BF40424FF000013EE700BF42004FEAE2014FEA31014FEA02701FBF12F07F4393F07F4F81F06051DB
:404A0000704792F0000F14BF93F07F4F704730B54FF4607401F0004521F0004120E700BF50EA010208BF704730B54FF000050AE050EA010208BF704730B511F0004502D57E
:404A4000404261EB41014FF4806404F132045FEA915C3FF4DCAE4FF003025FEADC0C18BF03325FEADC0C18BF033202EBDC02C2F1200300FA03FC20FA02F001FA03FE40EA57
:404A80000E0021FA02F11444C1E600BF70B54FF0FF0C4CF4E06C1CEA11541DBF1CEA135594EA0C0F95EA0C0F00F0DEF82C4481EA030621EA4C5123EA4C5350EA013518BFF4
:404AC00052EA033541F4801143F4801338D0A0FB02CE4FF00005E1FB02E506F00042E0FB03E54FF00006E1FB03569CF0000F18BF4EF0010EA4F1FF04B6F5007F64F5407435
:404B000004D25FEA4E0E6D4146EB060642EAC62141EA55514FEAC52040EA5E504FEACE2EB4F1FD0C88BFBCF5E06F1ED8BEF1004F08BF5FEA500E50F1000041EB045170BDBA
:404B400006F0004646EA010140EA020081EA0301B4EB5C04C2BFD4EB0C0541EA045170BD41F480114FF0000E013C00F3AB8014F1360FDEBF002001F0004170BDC4F10004A2
:404B8000203C35DA0C341BDC04F11404C4F1200500FA05F320FA04F001FA05F240EA020001F0004221F0004110EBD37021FA04F642EB06015EEA430E08BF20EAD37070BD68
:404BC000C4F10C04C4F1200500FA04F320FA05F001FA04F240EA020001F0004110EBD37041F100015EEA430E08BF20EAD37070BDC4F1200500FA05F24EEA020E20FA04F358
:404C000001FA05F243EA020321FA04F001F0004121FA04F220EA020000EBD3705EEA430E08BF20EAD37070BD94F0000F0FD101F00046400041EB010111F4801F08BF013C2A
:404C4000F7D041EA060195F0000F18BF704703F00046520043EB030313F4801F08BF013DF7D043EA0603704794EA0C0F0CEA135518BF95EA0C0F0CD050EA410618BF52EA23
:404C80004306D1D181EA030101F000414FF0000070BD50EA410606BF1046194652EA430619D094EA0C0F02D150EA013613D195EA0C0F05D152EA03361CBF104619460AD182
:404CC00081EA030101F0004141F0FE4141F470014FF0000070BD41F0FE4141F4780170BD70B54FF0FF0C4CF4E06C1CEA11541DBF1CEA135594EA0C0F95EA0C0F00F0A7F8D4
:404D0000A4EB050481EA030E52EA03354FEA013100F088804FEA03334FF0805545EA131343EA12634FEA022245EA111545EA10654FEA00260EF000419D4208BF964244F167
:404D4000FD0404F5407402D25B084FEA3202B61A65EB03055B084FEA32024FF480104FF4002CB6EB020E75EB030E22BFB61A754640EA0C005B084FEA3202B6EB020E75EB02
:404D8000030E22BFB61A754640EA5C005B084FEA3202B6EB020E75EB030E22BFB61A754640EA9C005B084FEA3202B6EB020E75EB030E22BFB61A754640EADC0055EA060E15
:404DC00018D04FEA051545EA16754FEA06164FEAC30343EA52734FEAC2025FEA1C1CC0D111F4801F0BD141EA00014FF000004FF0004CB6E711F4801F04BF01430020B4F1E6
:404E0000FD0C88BFBCF5E06F3FF6AFAEB5EB030C04BFB6EB020C5FEA500C50F1000041EB045170BD0EF0004E4EEA113114EB5C04C2BFD4EB0C0541EA045170BD41F48011F2
:404E40004FF0000E013C90E645EA060E8DE60CEA135594EA0C0F08BF95EA0C0F3FF43BAF94EA0C0F0AD150EA01347FF434AF95EA0C0F7FF425AF104619462CE795EA0C0F8B
:404E800006D152EA03353FF4FDAE1046194622E750EA410618BF52EA43067FF4C5AE50EA41047FF40DAF52EA43057FF4EBAE12E74FF0FF3C06E000BF4FF0010C02E000BF05
:404EC0004FF0010C4DF804CD4FEA410C7FEA6C5C4FEA430C18BF7FEA6C5C1BD001B050EA410C0CBF52EA430C91EA030F02BF90EA020F0020704710F1000F91EA030F58BF2C
:404F0000994208BF90422CBFD8176FEAE37040F0010070474FEA410C7FEA6C5C02D150EA013C07D14FEA430C7FEA6C5CD6D152EA033CD3D05DF8040B704700BF844610463E
:404F400062468C461946634600E000BF01B5FFF7B7FF002848BF10F1000F01BD4DF808EDFFF7F4FF0CBF012000205DF808FB00BF4DF808EDFFF7EAFF34BF012000205DF8C9
:404F800008FB00BF4DF808EDFFF7E0FF94BF012000205DF808FB00BF4DF808EDFFF7CEFF94BF012000205DF808FB00BF4DF808EDFFF7C4FF34BF012000205DF808FB00BF8F
:404FC0004FEA410212F5001215D211D56FF47873B3EB625212D94FEAC12343F0004343EA505311F0004F23FA02F018BF404270474FF00000704750EA013005D111F000407A
:4050000008BF6FF0004070474FF00000704700BF4FEA4102B2F1E04324BFB3F5001CDCF1FE5C0DD901F0004C4FEAC0024CEA5070B2F1004F40EB830008BF20F0010070474B
:4050400011F0804F21D113F13872BCBF01F00040704741F480114FEA5252C2F11802C2F1200C10FA0CF320FA02F018BF40F001004FEAC1234FEAD32303FA0CFC40EA0C006A
:4050800023FA02F34FEA4303CCE77FEA625307D150EA01331EBF4FF0FE4040F44000704701F0004040F0FE4040F40000704700BF80F0004002E000BF81F0004142001FBF57
:4050C0005FEA410392EA030F7FEA226C7FEA236C6AD04FEA1262D2EB1363C1BFD218414048404140B8BF5B42192B88BF704710F0004F40F4000020F07F4018BF404211F096
:40510000004F41F4000121F07F4118BF494292EA030F3FD0A2F1010241FA03FC10EB0C00C3F1200301FA03F100F0004302D5494260EB4000B0F5000F13D3B0F1807F06D34A
:4051400040084FEA310102F10102FE2A51D2B1F1004F40EBC25008BF20F0010040EA03007047490040EB000010F4000FA2F10102EDD1B0FA80FCACF1080CB2EB0C0200FAFA
:405180000CF0AABF00EBC25052421843BCBFD0401843704792F0000F81F4000106BF80F400000132013BB5E74FEA41037FEA226C18BF7FEA236C21D092EA030F04D092F09E
:4051C000000F08BF0846704790EA010F1CBF0020704712F07F4F04D1400028BF40F00040704712F100723CBF00F50000704700F0004343F0FE4040F4000070477FEA22620D
:4052000016BF08467FEA23630146420206BF5FEA412390EA010F40F4800070474FF0000304E000BF10F0004348BF40425FEA000C08BF704743F0964301464FF000001CE058
:4052400050EA010208BF70474FF000030AE000BF50EA010208BF704711F0004302D5404261EB41015FEA010C02BF84460146002043F0B64308BFA3F18053A3F50003BCFAAF
:405280008CF2083AA3EBC25310DB01FA02FC634400FA02FCC2F12002BCF1004F20FA02F243EB020008BF20F00100704702F1200201FA02FCC2F1200250EA4C0021FA02F2F2
:4052C00043EB020008BF20EADC7070474FF0FF0C1CEAD0521EBF1CEAD15392EA0C0F93EA0C0F6FD01A4480EA010C400218BF5FEA41211ED04FF0006343EA501043EA51117E
:40530000A0FB01310CF00040B1F5000F3EBF490041EAD3715B0040EA010062F17F02FD2A1DD8B3F1004F40EBC25008BF20F00100704790F0000F0CF0004C08BF49024CEAA6
:40534000502040EA51207F3AC2BFD2F1FF0340EAC250704740F400004FF00003013A5DDC12F1190FDCBF00F000407047C2F10002410021FA02F1C2F1200200FA02FC5FEA7F
:40538000310040F1000053EA4C0308BF20EADC70704792F0000F00F0004C02BF400010F4000F013AF9D040EA0C0093F0000F01F0004C02BF490011F4000F013BF9D041EAF3
:4053C0000C018FE70CEAD15392EA0C0F18BF93EA0C0F0AD030F0004C18BF31F0004CD8D180EA010000F00040704790F0000F17BF90F0004F084691F0000F91F0004F14D0BF
:4054000092EA0C0F01D142020FD193EA0C0F03D14B0218BF084608D180EA010000F0004040F0FE4040F40000704740F0FE4040F4400070474FF0FF0C1CEAD0521EBF1CEA46
:40544000D15392EA0C0F93EA0C0F69D0A2EB030280EA010C49024FEA402037D04FF0805343EA111143EA10130CF000408B4238BF5B0042F17D024FF4000C8B4224BF5B1A7A
:4054800040EA0C00B3EB510F24BFA3EB510340EA5C00B3EB910F24BFA3EB910340EA9C00B3EBD10F24BFA3EBD10340EADC001B0118BF5FEA1C1CE0D1FD2A3FF650AF8B424E
:4054C00040EBC25008BF20F0010070470CF0004C4CEA50207F32C2BFD2F1FF0340EAC250704740F400004FF00003013A37E792F0000F00F0004C02BF400010F4000F013A1D
:40550000F9D040EA0C0093F0000F01F0004C02BF490011F4000F013BF9D041EA0C0195E70CEAD15392EA0C0F08D142027FF47DAF93EA0C0F7FF470AF084676E793EA0C0FEC
:4055400004D14B023FF44CAF08466EE730F0004C18BF31F0004CCAD130F000427FF45CAF31F000437FF43CAF5FE700BF4FF0FF3C06E000BF4FF0010C02E000BF4FF0010CEE
:405580004DF804CD4FEA40024FEA41037FEA226C18BF7FEA236C11D001B052EA530C18BF90EA010F58BFB2EB030088BFC81738BF6FEAE17018BF40F0010070477FEA226C55
:4055C00002D15FEA402C05D17FEA236CE4D15FEA412CE1D05DF8040B704700BF844608466146FFE70FB5FFF7C9FF002848BF10F1000F0FBD4DF808EDFFF7F4FF0CBF01201E
:4056000000205DF808FB00BF4DF808EDFFF7EAFF34BF012000205DF808FB00BF4DF808EDFFF7E0FF94BF012000205DF808FB00BF4DF808EDFFF7D2FF94BF012000205DF82B
:4056400008FB00BF4DF808EDFFF7C8FF34BF012000205DF808FB00BF42000ED2B2F1FE4F0BD34FF09E03B3EB126209D44FEA002343F0004323FA02F070474FF000007047D9
:4056800012F1610F01D1420202D14FF0FF3070474FF00000704700BF014B1868704700BF7881FF1F0E4B70B51E460E4C0025E41AA410A54204D056F8253098470135F8E7F6
:4056C00002F0A0FA084B094C1E46E41AA4100025A54204D056F8253098470135F8E770BD107C0000107C0000107C0000187C000010B5431E0A44914204D011F8014B03F819
:40570000014FF8E710BD03460244934202D003F8011BFAE770472DE9F04788B0149F002B1E461299B8BF03F1004327F02007B6BF1E4600232D23462F1446109DDDF84CA0A1
:405740000B7003D0452F03D1013501E0032300E0022307AA049206AA03928DE828042246334600F001FD472F804602D1119BDB0728D5462F08EB050911D198F80030302B48
:405780000AD10022002320463146FFF7E7FB18B9C5F10105CAF80050DAF8003099440022002320463146FFF7D9FB08B9302202E0CDF81C9006E0079B994503D9591C0791F5
:4057C0001A70F8E74046079B159AC8EB0303136008B0BDE8F087034673B50029B8BF494203F8022BB4BF2D222B22092942701ADD0DF1070216460A2591FBF5F405FB14118F
:40580000092C01F1300102F8011D2146F4DC3031541E02F8011CB4421A460AD214F8012B03F8012BF7E71A463024214402F8024B5970101A02B070BD2DE9F04F91B00C464E
:40584000DDF8688016461F46054601F025FA03681846099300F0F4FB00230E93D8F800300A90073323F0070303F1080294F81890D4F800B0C8F80020D3E90023C4E9122307
:40588000D4F84CA0D4F848802AF000430B934FF0FF32A74B40460B9901F052FFA0B94FF0FF32A34B40460B99FFF76CFB60B90022002340465146FFF75BFB10B12D2384F841
:4058C00043309C4B9C4A0AE0424653464046514601F036FF002800F09281984B984AB9F1470F8CBF90469846032323612BF0040323604FF0000A3DE0B9F1670F00F08A815B
:40590000B9F1470F00F0868123600193636800210DF13302059002920093424653460691CDF81090CDF80CE02846FFF7F4FE09F0DF03472B804600F08481B9F1650F0D998E
:4059400000F28D8101394A4604F150000D91FFF742FF0E9A82468318012A236100F37C812268D10700F178819DF8333013B12D2384F84330009733460FAA2146284600F0C4
:405980009FF9013002D14FF0FF3096E123685A0501D4236965E0B9F1650F40F2D580D4E9120100220023FFF7D9FA78B30123654A31462846B8470130E5D00E9B0D9A9A425F
:4059C0000BDB2368D80708D423689B0740F111814FF0000804F1190906E10A9B099A31462846B8470130CED04FF0000804F11A090E9B013B9845E7DA01234A4631462846D0
:405A0000B8470130BFD008F10108F1E70D9B002B29DC01234B4A31462846B8470130B2D00D9B23B90E9B13B92368D907CCD50A9B099A31462846B8470130A4D04FF0000987
:405A400004F11A0A0D9B5B42994509DA0123524631462846B847013095D009F10109F1E70E9B4246A7E00E9AA36D9A42A8BF1A46002A914606DC4FF0000A29EAE97904F14C
:405A80001A0B11E01346314642462846B8470130F1D178E701235A4631462846B84701303FF471AF0AF1010AA36DC9EB03029245F0DB08EB03090D9A0E9B9A420FDB23687C
:405AC000DA070CD40E9B0D9A9844C9EB08089B1A9845A8BF9846B8F1000F08DC0FE00A9B099A31462846B8470130EBD14BE743464A4631462846B84701303FF444AF4FF0B5
:405B0000000928EAE87804F11A0A09E00123524631462846B84701303FF435AF09F101090D9A0E9B9B1AC8EB03039945EEDB4BE7FFFFEF7FA27A0000A67A0000AA7A000099
:405B4000AE7A0000B27A00000E9A012A01DCDB0738D50123424631462846B84701303FF412AF0A9B099A31462846B84701303FF40AAFD4E9120100220023FFF7EFF920B170
:405B80004FF0000804F11A090EE00E9B08F10102013B19E001234A4631462846B84701303FF4F1AE08F101080E9B013B9845F1DB534604F1500231462846B84701307FF42B
:405BC00003AFE0E64246012331462846B8470130EED1D8E601234A4631462846B84701303FF4D1AE08F10108E3680F9A9B1A9845F0DBE0680F9B9842B8BF18465DE0626879
:405C00000EA8531C0DF1340E4BF480637FF474AE062201E012B90122626075E6002106910DF133018DE80C00236005904246CDF81090CDF80CE0029153462846FFF76BFD1B
:405C400080460D9BD81C02DB626893421DDDA9F102095FFA89F970E60133236184E6B9F1660F14D10029636807DD216113B92268D2071DD501330B4419E013B92268D0072C
:405C800001D5023313E0012311E04FF067090D9B0E9A934205DB22682361D10708D5013305E0002BD4BFC3F102030123134423610D9B4FF0000AA36556E611B0BDE8F08FB1
:405CC0002DE9F04791461F460A698B6806469342B8BF1346C9F8003091F843200C46DDF8208012B10133C9F800302368990642BFD9F800300233C9F80030256815F0060549
:405D000010D104F1190A07E00123524639463046C04701301AD00135E368D9F800209B1A9D42F1DB94F843302268003318BF012392060FD5E118302081F843005A1C94F8A4
:405D400045102244023382F8431003E04FF0FF30BDE8F08704F1430239463046C0470130F4D02268D9F80050E36802F00602042A08BF5D1B2269A3680CBF25EAE575002582
:405D80009342C4BF9B1AED184FF000091A344D4509D00123224639463046C0470130D5D009F10109F3E70020BDE8F0872DE9F04317460A7E85B06E2A984606460C460C9B3A
:405DC00001F1430E00F0AE8011D8632A22D009D8002A00F0BB80582A40F0CA8081F84520834955E0642A1ED0692A1CD0C0E0732A00F0B08009D86F2A2ED0702A40F0B880F7
:405E00000A6842F020020A603EE0752A24D0782A3AD0ADE01A6801F14205111D1960136884F84230A8E021681A6811F0800F02D0111D196008E011F0400F02F10401196038
:405E400002D0B2F9003000E01368002B3CDA2D225B4284F8432037E021681A6811F0800F02D0111D196007E011F0400F02F10401196001D0138800E01368227E5C496F2A96
:405E800014BF0A2208221BE078225A4984F845202268186812F0800F00F104051D6003D1550601D5038800E00368D00744BF42F0200222601BB9226822F0200222601022BD
:405EC000002084F8430001E049490A226568002DA56008DB206820F0040020602BB9002D7DD175460CE0002B79D07546B3FBF2F002FB1033CB5C05F8013D03460028F5D188
:405F0000082A0BD12368DA0708D5236962689A42DEBF302305F8013C05F1FF35C5EB0E0323612EE008681A6810F0800F496903D0101D1860136808E010F0400F02F10400DD
:405F40001860136801D0198000E0196000232361754616E01A68111D1960156800216268284600F0A5FE08B1401B6060636804E004F1420584F8422001232361002384F89D
:405F80004330CDF800803B4603AA21463046FFF797FE013002D14FF0FF3026E023692A4639463046C0470130F5D023689B0710D5002504F1190907E001234A46394630464F
:405FC000C0470130E7D00135E368039A9B1A9D42F2DBE068039B9842B8BF184605E00B7804F1420584F842308AE705B0BDE8F083B47A0000C57A00000EB400B54FF4027134
:406000009CB0ADF814106FF00041049107914FF6FF711DAB02900690084853F8042BADF81610006802A9019301F038FA029B00221A701CB05DF804EB03B070477881FF1FA0
:40604000034613F8012B002AFBD1181A013870472DE9F74F03690C6980469C427FDC013C01F114074FEA840E00F1140606EB0E0357F82450019356F824300135B3FBF5F563
:4060800007EB0E09C5B34FF0000A3846B446D34650F8043B9AB205FB02A21B0C4FEA124A05FB03A392B2C2EB0B0BBCF800204FEA134A5A441FFA83FBDCF800308145CBEB86
:4060C000134303EB224392B242EA03424FEA234B4CF8042BDCD256F80E306BB9019B043B9E421A4602D3C8F8104005E01268043B002AF8D1013CF3E7404600F0F4FF002891
:406100002BDB304601354FF0000E57F8042B036891B2C1EB0E0E120C99B27144C2EB134303EB214389B24FEA234EB94541EA034340F8043BE9D256F8242006EB840362B94E
:40614000043B9E421A4602D3C8F8104005E01268043B002AF8D1013CF3E7284600E0002003B0BDE8F08F00002DE9F04F456A95B08246219CCDE9022345B9102000F090FD7A
:40618000CAF82400456085600560C560DAF82430196859B15A68012393404A608B60504600F0C9FDDAF8243000221A60039BA04A002BBDBF01232360039B0023BCBF23F0B3
:4061C00000430393DDF80C80A8BF236028F000431B0D1B0593421DD142F20F73209A1360029B43B9934A944BC8F31300002814BF1846104600E09048229B002B00F0468505
:40620000C37813B100F1080300E0C31C229A136000F03CBDDDE902450022002320462946FEF79CFE074658B1209A01231360229B002B00F01E8581481860013800F026BD67
:4062400012AB019313AB009322462B46504600F0C5FFC8F30A56049056B1C5F3130343F07F51204641F44011A6F2FF3611971DE0139B129E1E4406F23243202B0ADD029A79
:4062800006F21240C3F1400322FA00F008FA03F3184304E0C3F12000029B03FA00F0FEF77FFB0123A1F1F871013E11930022644BFEF738FA58A3D3E90023FEF7E7FB58A3E7
:4062C000D3E90023FEF730FA044630460D46FEF777FB55A3D3E90023FEF7D8FB02460B4620462946FEF720FA04460D46FEF768FE00228346002320462946FEF739FE58B1FA
:406300005846FEF75DFB02460B4620462946FEF725FE08B90BF1FF3BBBF1160F0DD8DDE90223484901EBCB01D1E90001FEF73EFE30B10BF1FF3B002300E00123109300E05E
:406340001090129B9E1B731E079343BFC3F10008002307934FF00008BBF1000F06DB079BCDF82CB05B440793002705E00023CBEB0808CBF100070B931E9B092B28D8052B9F
:40638000C4BF043B1E931E9BC8BF0025A3F10203D8BF0125032B20D8DFE803F0060E0204012302E0012308E000230A931F9B002B1DDD9946059321E000230A931F9B0BEB1C
:4063C000030909F10103012B0593B8BF012315E0012500231E930A9501E001230A934FF0FF390022CDF8149012231F9206E04FF001094B46CDF81490CDF87C90DAF82440EC
:4064000000226260042101F114029A421CD86268490001326260F6E761436F63A787D23FB3C8608B288AC63FFB799F501344D33F0000F07FD67A0000DF7A0000B37A0000B3
:406440000000F83FF07A00006168504600F03EFCDAF8243020601B680693059B0E2B00F25B81002D00F05881DDE90234BBF1000FCDE90E3430DD9F4A0BF00F034FEA2B1568
:4064800002EBC303E80618CBCDE908340CD5DDE90E01994B05F00F05D3E90823FEF720FC0324CDE9020100E00224934E6DB1E90708D5DDE90801D6E90023FEF7E7FACDE9DC
:4064C000080101346D100836F0E7DDE90823DDE90201FEF705FC20E0CBF1000505B3DDE90E01844B05F00F0203EBC203D3E90023FEF7CCFACDE902017F4E2D11002302249F
:4065000055B1EA0705D5D6E90023FEF7BFFA013401236D100836F3E71BB1CDE9020100E00224109BE3B1DDE902560022734B28463146FEF71DFD98B1059B8BB1B9F1000F72
:4065400040F3E6800BF1FF330893314600226C4B2846FEF79BFA0134CDE902014E4602E0059ECDF820B02046FEF72AFADDE90223FEF78CFA634B0022FEF7D6F8A1F1507308
:4065800004460C931D46D6B9DDE9020100225E4BFEF7C8F822460C9BCDE90201FEF706FD002840F03F820C99224601F10043DDE90201FEF7DDFC002840F02B82A8E00A9AD4
:4065C0004C4B711E002A49D003EBC103D3E9002300204E49FEF784FB22462B46FEF7A2F8CDE90C01069CDDE90201FEF7E9FC0546FEF7E6F902460B46DDE90201FEF792F806
:40660000DDE90C23303504F8015BCDE90201FEF7AFFC002840F01D83DDE9022300203749FEF780F8DDE90C23FEF7A2FC002840F0D180069BE31AB3426ADADDE90C01002262
:406640002F4BFEF723FA0022CDE90C01DDE902012B4BFEF71BFACDE90201C4E703EBC1012246D1E900012B46FEF710FA069BCDE90C011D469C19DDE90201FEF7A1FC064696
:40668000FEF79EF902460B46DDE90201FEF74AF8303605F8016BAC42CDE902014FF0000222D11A4BDDE90C01FEF73EF802460B46DDE90201FEF77AFC002840F08B80DDE9B2
:4066C0000C2300201149FEF72DF802460B46DDE90201FEF74DFCD8B114F8013C621E302B40F0B7821446F7E7054BFEF7CFF9CDE90201C0E7F07A0000C87B00000000F03FA0
:406700000000244000001C40000014400000E03FDDE90E34CDE90234139B002B7CDBBBF10E0F79DCAB4B03EBCB03D3E900671F9B002B14DA059B002B11DC40F06C81002245
:40674000A54B30463946FEF7A1F9DDE90223FEF723FC059D2E46002840F05F8165E1069CDDE9028932463B4640464946FEF7B8FAFEF726FC0546FEF723F932463B46FEF709
:4067800085F90B46024649464046FDF7CBFF05F1300E069B04F801EBC3EB040E059B73452DD102460B46FDF7BFFF8046894602460B4630463946FEF7DBFB78B942464B4699
:4067C00030463946FEF7CAFB002800F04482EB0704D440E2DDF820B000E01C4614F8012C631E392A07D1069A9A42F6D1069930220BF1010B0A701A7801321A702BE2002210
:40680000764BFEF743F90022002380468946FEF7A5FB0028A6D01EE20A9A002A2BD01E9A012A0ADC119A12B103F2334302E0129BC3F136033D46444613E0059B5D1EAF4266
:40684000BFBF0B9BEA1B9B180B93059BB6BF2F467D1B0025002BA7BF4446059BC3EB08040023079A01211A4450469844079200F001FB064602E03D4644460A9E5CB1079B15
:40688000002B08DDA342A8BF2346079AC3EB0808E41AD31A0793002F1DDD0A9BABB18DB131462A46504600F07FFB049A01460646504600F0E8FA04990890504600F03BFA57
:4068C000089B04937A1B06D000E03A460499504600F06AFB04900121504600F0CBFA0B9B05465BB31A460146504600F05DFB1E9B0546012B18DC029B83B9039BC3F313031F
:4069000073B9039B23F000473F0D3F054FB1079B08F1010801330793012702E0002700E0029F0B9B73B100E000272B6905EB8303186900F052FAC0F1200004E01E9B012B4D
:40694000D9DD0B9F0120079B184410F01F0008D0C0F12003042B02DDC0F11C0002E006D018461C30079B8044034404440793B8F1000F05DD42460499504600F063FB0490CA
:40698000079B002B05DD29461A46504600F05AFB0546109B23B32946049800F0A4FB00281EDA00230A220499504600F0DBF90A9B0BF1FF3B0490002B00F05F8131460023AE
:4069C0000A22504600F0CEF9B9F1000F06463FDC3BE000BFF07A00000000144000002440059B002B2BDC1E9B022B28DDDDF81490B9F1000F11D129464B460522504600F084
:406A0000B1F901460546049800F06DFB00280CDC03E0354600E000252E461F9B069C6FEA030B09E03546DDF820B0069B069A5C1C312313700BF1010B05960026F7E00A9B9E
:406A4000DDF8149023B9069CB2E01E9B022BCFDC002C05DD31462246504600F0F3FA06469FB17168504600F031F90446326906F10C01023292000C30FEF73AFE01222146D5
:406A8000504600F0DFFA059000E00596029B069F03F00103079329460498FFF7D9FA3146044600F13008049800F01DFB059A02902946504600F033FBC36802463BB9014630
:406AC0000A90049800F00FFB0A9A034600E00123114650460A9300F02EF90A9B53B91E9A42B9079A32B9B8F1390F2AD0029B002B1CDC1DE0029A002A04DB1BD11E9ACAB970
:406B0000079ABAB9002B13DD01220499504600F099FA2946049000F0E6FA002803DC07D118F0010F04D0B8F1390F0AD004F131087C1C0CE0002B07F101040BDDB8F1390F31
:406B400003D139233B70013756E008F1010887F800806CE0069B2746E31A4B4504F8018C3BD000230A220499504600F0FBF8059B04909E424FF00A024FF00003314650463D
:406B800004D100F0EFF80646059084E700F0EAF8002306460A220599504600F0E3F8059079E700230A220499504600F0DBF8049029460498FFF74CFA069B00F1300804F896
:406BC000018BE31A4B45ECDB069B0596B9F1010FACBF4B4401331F46002601220499504600F030FA2946049000F07DFA002803DC15D118F0010F12D03C4614F8013C621EFA
:406C0000392B09D1069B934204D10BF1010B3123069A02E01446F0E70133137007E03C4614F8013C621E302B01D11446F8E72946504600F080F8059B6BB12EB19E4203D0B2
:406C40003146504600F077F80599504600F073F801E0DDF820B00499504600F06CF80023209A23700BF101031360229B1BB11C6001E008480AE0069808E0B9F1000F3FF794
:406C8000E2AE1E9B022B7FF7DEAEB1E615B0BDE8F08F00BFB27A0000004870477C81FF1F024B0146186800F041BB00BF7881FF1F10B5C9B202449042034605D01C780130C6
:406CC0008C42F8D1184610BD002010BD70B5456A04460E463DB91020FFF7E2FF6062456085600560C560656AEB6843B1636ADB6853F8260078B1026843F8262017E02122BB
:406D00000421204600F0B8FA636AE860DB68002BECD1002070BD012101FA06F56A1D9200204600F0A9FA0028F3D04660856000230361C36070BD70B5446A06460D463CB9BB
:406D40001020FFF7ADFF7062446084600460C4603DB1736A6A68DB6853F82210296043F8225070BD2DE9F04106460C460D691F4601F1140E0023DEF80000013381B202FB6E
:406D80000171000C0F0C02FB007089B201EB00419D424FEA10474EF8041BECDCD7B1A3689D4212DB616830460131FFF78FFF8046226904F10C01023292000C30FEF798FC97
:406DC00021463046FFF7B7FF444604EB850301355F6125612046BDE8F081030C1B0413B90004102300E0002310F07F4F04BF0002083310F0704F04BF0001043310F0404FC6
:406E000004BF80000233002803DB420003D5581C70471846704720207047036813F007020BD0D90722D49A074BBF5B089B08036003604CBF01200220704799B209B91B0CAB
:406E4000102213F0FF0F04BF1B0A0832190704BF1B090432990704BF9B080232D90702D45B0805D00132036010467047002070472020704710B50C460121FFF727FF01225F
:406E80004461026110BD2DE9F74F14460A69236988469A42BEBF0B46A0461C46D8F81070D4F81090D8F80830D8F8041007EB09069E42C8BF0131FFF709FF00F114052B46CD
:406EC00005EB860C0022634502D243F8042BFAE704F1140208F1140102EB890301EB87070093009B0192934257D9B2F800B0BBF1000F23D08946AE464FF0000859F8044BA3
:406F0000BEF800A0A3B20BFB03A34FEA144ADEF8004043444FEA14480BFB0A84F24604EB13449BB243EA04434F454FEA14484AF8043B01D9D646E1E7CEF80480019B0432DA
:406F4000B3F802A0BAF1000F21D02C4689462B684FF00008B9F800E0B4F802B09BB20AFB0EBEA346F04443EA08434BF8043B59F8043BB4F804E01B0C0AFB03E34F4503EB26
:406F800018434FEA134801D95C46E3E763600435A7E75CF8043D13B9013E002EF9DC066103B0BDE8F08F00002DE9F843154612F0030206460F4607D0214C013A002354F8EF
:406FC0002220FFF7CFFE0746AD1036D0746A3CB91020FFF765FE7062446084600460C460D6F82480D8F808404CB940F271213046FFF740FF04460023C8F8080003604FF069
:407000000008EB070AD5394622463046FFF73BFF814639463046FFF78EFE4F466D100CD0206808B10446ECE7224621463046FFF72AFF2060C0F80080F4E73846BDE8F883CB
:40704000B87B00002DE9F0470C460746914626694FEA621A56444968A368751CAB4202DA01315B00FAE73846FFF730FE002380461A4600F11401534503DA41F823200133A2
:40708000F9E72AEAEA73206901EB830319F01F0904F1140101EB800E14D0C9F1200C002208689A4600FA09F0024343F8042B51F8042B8E4522FA0CF2F2D8CAF8042042B1E9
:4070C000B51C06E0043B51F8042B8E4543F8042FF9D8013D3846C8F810502146FFF72BFE4046BDE8F08703690A6910B59B1A11D192001430143183180A4453F8044D52F8E7
:40710000041D8C4202D007D3012010BD9842F4D3002010BD184610BD4FF0FF3010BD2DE9F8430C460746114620461546FFF7DBFF061E08D131463846FFF7C8FD01230361C5
:407140004661BDE8F883BCBF23462C4638466168BABF1D4601260026FFF7B8FD2B69C660266905F1140904F1140101EB860709EB830800F114054FF0000C51F8042B59F85B
:40718000044B93B29C44A3B2240CC3EB0C03C4EB124202EB23429BB24FEA224CC84543EA02428E4645F8042BE7D8BE450ED25EF8041B8AB26244131403EB114392B242EA40
:4071C00003424FEA234C45F8042BEEE755F8043D0BB9013EFAE70661BDE8F8832DE9F3411C4601219046089E099DFFF76FFDC4F31302C4F30A5407460CB142F480120192D0
:40720000B8F1000F19D002A840F8088DFFF705FE009B48B1019AC0F1200102FA01F10B43C2407B61019200E07B61019B002B14BF02210121BB61396107E001A8FFF7EDFDCE
